:020000040800F2
:10000000C0210020990100081B0B0008290A0008E4
:10001000190B0008290200089B0B000800000000D3
:1000200000000000000000000000000001010008C6
:100030002B0200080000000045010008230B000807
:10004000B3010008B3010008B3010008B3010008C0
:10005000B3010008B3010008B3010008B3010008B0
:10006000B3010008B3010008B3010008B3010008A0
:10007000B3010008B3010008B3010008B301000890
:10008000B3010008B3010008B3010008B301000880
:10009000B3010008B3010008B3010008B301000870
:1000A000B3010008B3010008B3010008B301000860
:1000B000B3010008B3010008B3010008B301000850
:1000C000B3010008B3010008B3010008B301000840
:1000D000B3010008B3010008B3010008B301000830
:1000E000B3010008B3010008B3010008DFF80CD029
:1000F00000F088F800480047DD0B0008C021002010
:10010000224B19680868B0E8F00F80F30988BFF344
:100110006F8F4FF0000080F311884EF00D0E704786
:100120000000000006480068006880F3088862B696
:1001300061B6BFF34F8FBFF36F8F00DF00BF00BF0B
:1001400008ED00E0EFF30980BFF36F8F0F4B1A68E3
:1001500020E9F00F106008B54FF0500080F31188CF
:10016000BFF34F8FBFF36F8F01F046FD4FF00000DC
:1001700080F31188BDE8084019680868B0E8F00FFE
:1001800080F30988BFF36F8F704700BF2000002005
:10019000EFF3058070470000064880470648004797
:1001A000FEE7FEE7FEE7FEE7FEE7FEE7FEE7FEE727
:1001B000FEE7FEE7990B0008ED00000840EA0103A6
:1001C0009B0703D009E008C9121F08C0042AFAD20D
:1001D00003E011F8013B00F8013B521EF9D27047D1
:1001E000D2B201E000F8012B491EFBD27047002279
:1001F000F6E710B513460A4604461946FFF7F0FF26
:10020000204610BD064C074D06E0E06840F00103B3
:1002100094E8070098471034AC42F6D3FFF76AFF22
:10022000A4270008C4270008FEE7704770B50446FD
:1002300000F004F90546601C02D00448007804442C
:1002400000F0FCF8401BA042FAD370BD1000002063
:100250002DE9F84FDFF8B8910024A9F1040B2346EB
:100260000F2709F1040AABF1040EC9E00125A540EE
:100270002A40AA427DD1674ED1F804C0ACEB0608F3
:10028000B44532D014DCBCF1030F3AD009DCBCF128
:10029000000F2AD0BCF1010F1CD0BCF1020F31D1EC
:1002A0001DE0BCF1110F17D0BCF1120F2AD119E0DB
:1002B000B8F5881F19D006DCB8F5803F15D0B8F521
:1002C000801F1FD111E0B8F5001F0ED0B8F5041F34
:1002D00018D10AE0CB6815E0CB681B1D12E0CB6893
:1002E00008330FE0CB680C330CE08B682BB1012B8B
:1002F0004FF0080303D0456104E0042302E00561E8
:1003000000E00023FF2A01D8064601E000F10406C0
:100310004FEA840501D9A5F12005D6F8008007FA37
:1003200005FC28EA0C0803FA05F548EA0508C6F8B2
:1003300000804D68ED0062D5374DAE6946F001068C
:10034000AE61AD6924F0030605F001050095334D5B
:1003500006EB050CDCF80850A607360F07FA06F87E
:1003600025EA0805DFF8B880404503D14FF00008C2
:1003700017E044E0DFF8AC80404502D14FF00108BF
:100380000FE0DFF8A480404502D14FF0020808E0FA
:10039000DFF89880404502D14FF0030801E04FF0AC
:1003A000040808FA06F848EA0508CCF808804D6801
:1003B000D9F80060ED024D4601D5164300E09643A2
:1003C0002E604D68DAF80060AD02554601D516433F
:1003D00000E096432E604D68DBF80060AD035D469B
:1003E00001D5164300E096432E604D68DEF80060AC
:1003F000ED03754601D5164300E096432E60641C5C
:100400000D682A46E5407FF431AFBDE8F88F000063
:1004100008040140000011100010024000000140DB
:1004200000080140000C0140001001400014014090
:100430000AB1016170470904FBE7000001488068C8
:1004400070470000100000200248816802781144C3
:100450008160704710000020074810B5016841F026
:1004600010010160032000F06DF80F2000F006F885
:1004700000F024F8002010BD0020024070B50D4DA2
:1004800004464FF47A712878B1FBF0F00A49096804
:10049000B1FBF0F000F0B4FA48B9102C07D20022FA
:1004A0002146501E00F02EF800206C6070BD012027
:1004B00070BD0000100000201C0000200F4808B58F
:1004C000816941F001018161816901F001010091BF
:1004D000C16941F08051C161C069002200F08050C3
:1004E00000900F21901E00F00DF80548416821F0A2
:1004F000E06141F00071416008BD00000010024061
:1005000000000140F0B40E4B1B680C46C3F30223FD
:10051000C3F10705042D00D90425191D072901D2AF
:10052000002300E0DB1E012606FA05F1491E2140EA
:1005300099409E40761E16403143F0BC00F02EBB21
:100540000CED00E0064900F0070208684FF6FF03D3
:10055000184040EA0220034A104308607047000038
:100560000CED00E00000FA052DE9F0470F4605000C
:1005700061D0434E306800F00700B84209D23068BD
:1005800020F0070038433060306800F00700B842C0
:1005900051D128683B4C810712D5400703D56068CC
:1005A00040F4E06060602878000703D5606840F49C
:1005B000605060606068A96820F0F00008436060E7
:1005C0002878C00728D06868012810D02168022840
:1005D00010D0890700292EDA616821F00301014358
:1005E0006160FFF72BFF804641F288390DE02168FA
:1005F0008903EFE78901EDE7FFF720FFA0EB080192
:10060000494502D90320BDE8F0876068696800F0B9
:100610000C00B0EB810FEFD1306800F00700B8425A
:100620000BD9306820F0070038433060306800F0A4
:100630000700B84201D00120E5E72878400705D53A
:100640006068E96820F4E06008436060287800078B
:1006500006D56068296920F4605040EAC1006060F6
:1006600000F018F86168084AC1F30311515CC840F2
:100670000649086006480068FFF700FF0020C2E74F
:1006800000200240001002405A2700081C000020F1
:10069000140000200E4A51680E4801F00C03042B90
:1006A00011D0082B0FD10C48C1F38343C903C05CA0
:1006B0000AD55168084AC1F34041921E515C054A6F
:1006C0005043B0FBF1F070470449484370470000C5
:1006D0000010024000127A004A27000800093D007D
:1006E0002DE9F84F040070D02078C04DC00749D0E4
:1006F0006868C0F38100012807D06868C0F38100F2
:10070000022809D16868C00306D52868800339D556
:1007100060680028E7D035E06068B0F5803F0BD016
:1007200010B1B0F5A02F11D0286820F480302860D7
:10073000286820F4802002E0286840F48030286097
:10074000606890B1FFF77AFE06460AE0286840F438
:1007500080202860F0E700BFFFF770FE801B642850
:1007600073D828688003F7D50CE0FFF767FE0646CC
:1007700005E000BFFFF762FE801B6428F0D8286800
:100780008003F7D420789A4E80074FF001094FF08C
:10079000000839D5686810F00C0F07D06868C0F3FE
:1007A0008100022809D16868C00306D42868800740
:1007B00014D52069012808D110E02069B0B1C6F82D
:1007C0000090FFF73BFE074605E00AE1FFF736FE23
:1007D000C01B0228C4D828688007F7D5286861693B
:1007E00020F0F80040EAC10028600DE0C6F8008063
:1007F000FFF724FE074604E0FFF720FEC01B022897
:1008000023D828688007F7D4207800072CD57948AA
:10081000A169D9B1C0F80090FFF710FE074604E0C7
:10082000FFF70CFEC01B02280FD8686A8007F7D5B7
:1008300071484FF4FA510068B0FBF1F0009000BF2E
:100840000098411E0091FAD20EE080E0C0F80080CE
:10085000FFF7F4FD074604E0FFF7F0FDC01B022898
:1008600075D8686A8007F7D42078400760D5E869B2
:100870000027C00008D4E86940F08050E861E869CA
:10088000012700F0805000905C480168C90513D42E
:100890000168834641F480710160FFF7CFFD824615
:1008A00006E000BFFFF7CAFDA0EB0A0064284ED89F
:1008B000DBF80000C005F5D5E06801280AD008B1D2
:1008C000052813D0286A20F001002862286A20F049
:1008D000040002E0286A40F001002862E06841F26A
:1008E000883B98B1FFF7AAFD82460BE0286A40F0EA
:1008F00004002862EEE700BFFFF7A0FDA0EB0A01AD
:1009000059455AD8286A8007F6D50CE0FFF796FDBE
:10091000824605E0FFF792FDA0EB0A0159454CD84D
:10092000286A8007F6D41FB1E86920F08050E8619A
:10093000E06988B36968C1F38101022944D00228C3
:10094000C6F8608004D0FFF779FD044638E034E053
:10095000FFF774FD074604E0FFF770FDC01B022897
:100960002BD828688001F7D4206AB0F5803F05D1E4
:100970006868A16820F4003008436860D4E9080181
:100980000843696821F4741108436860C6F86090F0
:10099000FFF754FD044606E025E000BFFFF74EFDDB
:1009A000001B022809D828688001F7D51BE000BF8A
:1009B000FFF744FD001B022802D90320BDE8F88F91
:1009C00028688001F4D40EE00128F7D06868226A14
:1009D00000F48031914204D1616A00F470108842C1
:1009E00001D00120EAE70020E8E700000010024003
:1009F00000004242800442421C000020007000407F
:100A000010B5401EB0F1807F01D3012010BD4FF022
:100A1000E02460610F21601700F0C0F80020A061A1
:100A200007202061002010BDFEE700002DE9F04303
:100A300085B00024344800940194029403948169A1
:100A400041F010018161816901F010010491816917
:100A500041F020018161816901F0200104918169E7
:100A600041F004018161816901F00401049181690F
:100A700041F0080181618069244F00F008004FF4C3
:100A800000550490002229463846FFF7D1FCDFF8D4
:100A900080800122FC214046FFF7CAFCDFF87490F9
:100AA000012203214846FFF7C3FC009502260125D9
:100AB0000396CDE9015469463846FFF7C9FB4FF468
:100AC00040408DE8310069463846FFF7C1FB0327F7
:100AD000009769464046CDE90145FFF7B9FBFC2088
:100AE000CDE90005CDE9024669464046FFF7B0FB77
:100AF00000970396CDE9015469464846FFF7A8FBE5
:100B000005B0BDE8F0830000001002400010014075
:100B100000080140000C0140FEE7FEE700F0C8FFBE
:100B2000FCE710B5FFF790FC01F02EFC012803D084
:100B3000BDE8104001F0E6B810BD30B58FB02821F7
:100B40006846FFF754FB14210AA8FFF750FB012168
:100B50000804CDE900100024029402250491CDE997
:100B600007504FF4E01009906846FFF7B9FD08B14F
:100B700072B6FEE70F20CDE90A054FF48060CDE99B
:100B80000C4002210AA80E94FFF7EEFC002801D0C9
:100B900072B6FEE70FB030BD7047FEE70907090ED9
:100BA000002804DB00F1E02080F80014704700F01A
:100BB0000F0000F1E02080F8141D704702E008C823
:100BC000121F08C1002AFAD170477047002001E0C7
:100BD00001C1121F002AFBD170470000FFF73CFC47
:100BE00000F0ACFDFFF7A9FFFFF720FF00F024F8AD
:100BF0000E4800F04FF80E4C0C4A01216060103294
:100C0000084600F07BF8094AA06020320021042049
:100C100000F074F8054AE060243A0021054800F02D
:100C2000B9F8206000F01AF8FEE700001827000865
:100C3000000000201D0B0008EFF3058010B16FF0DD
:100C4000050070470448016811B14FF0FF3070474C
:100C500001210160002070477000002010B5EFF303
:100C6000058010B16FF0050010BD0848016801292A
:100C700002D04FF0FF3010BD054A002182F8141D4C
:100C80000221016000F06CFF002010BD7000002008
:100C90000BE000E070B505464FF00004EFF305806F
:100CA00050BB0DB1686800E00020C10701D00126EB
:100CB00000E0002600071FD46DB1D5E9021021B174
:100CC000502819D31EB1042002E020B114E0012005
:100CD00001F076F805E00EB1042000E0012001F0FB
:100CE00064F8040008D00DB1296800E0002100F08C
:100CF0007DFE0EB144F00104204670BDF8B51446E7
:100D000003460E464FF00005EFF3058098BB93B302
:100D10009E423DD84CB1A0680028E06803D050281E
:100D200036D3012002E008B132E00020012B05D0CB
:100D300010B31846A26801F018F820E040B1032073
:100D40000090002211460120A36801F067F804E03A
:100D500003220021012001F040F8050018D086B1DF
:100D600000231A46194601F0D1F8012809D0284677
:100D700000F050FE00250BE0184600F0D9FF0500FA
:100D800006D00CB1216800E00021284600F02EFEBC
:100D90002846F8BD2DE9FF414FEA01034FF0000559
:100DA000EFF30581039549BB40B380271821002448
:100DB0004AB3166806B1344696691EB13146761EAE
:100DC000382E02D21679F60703D0002004B0BDE811
:100DD000F081566906B1B708D2F808C0BCF1000F1F
:100DE0000DD0D5685C2D18D312693AB136B18DE8B3
:100DF00006103A46214601F09CFA03900DE0D668B1
:100E00005EB912694AB903AACDE90012BAB2214605
:100E100001F062FA012800D003950398D6E700009C
:100E20002DE9F041134C0F460546E6682068001D89
:100E300000F04CFC681C07D137B12168BDE8F041D7
:100E40000D48091D00F024BD20683544B5424560B9
:100E5000216805D2A06BBDE8F041091D00F000BD7E
:100E6000606B091D00F0FCFCA06A854200D2A562FF
:100E7000BDE8F08120000020D80500202DE9F041D8
:100E8000054600F011FD2D4CA068401CA0602068B4
:100E90002B4F10B1606930B32BE02560A0680128AA
:100EA00027D1002606EB860007EB800000F0CAFC85
:100EB000761C382EF6D3234800F0C4FC21481430A9
:100EC00000F0C0FC1F48283000F0BCFC1D483C303E
:100ED00000F0B8FC1B48503000F0B4FC19486063C7
:100EE0001430A06305E02068E96AC06A884200D82F
:100EF0002560606A401C60626864E86A2169884213
:100F000000D9206100EB800007EB8000291D00F074
:100F1000BFFC00F0E9FC606900280CD02068E96A99
:100F2000C06A884207D208494FF080500860BFF37A
:100F30004F8FBFF36F8FBDE8F081000020000020CD
:100F4000280100208805002004ED00E038B500F0FD
:100F5000ABFC104C2068C8B90F4800F073FC0E4879
:100F6000143000F06FFC0C48E060143020610A4B34
:100F70000020F03B009003F1500210210A2000F005
:100F80004DFF206010B105A100F030FDBDE83840F4
:100F900000F0AABC5C000020DC060020546D7251F9
:100FA0000000000030B4026C0B46002A0BD0C16870
:100FB0001144C1608468A14201D30168C16030BCA2
:100FC0001846FFF7FBB830BC70472DE9F041856B40
:100FD000174604460026026C82B1C7B1E068FFF7ED
:100FE000EDF8E168206C091AE1602268914202D2B2
:100FF000A168081AE060022F16D017E02068A8B98F
:10100000A06801F039FA06460020A0600EE0606892
:10101000FFF7D4F8216C606808446060A1688842DA
:1010200004D32068606001E005B16D1E6D1CA563EE
:101030003046BDE8F08110B5044690F8590058B12B
:1010400001280CD002280FD0502080F31188BFF364
:101050004F8FBFF36F8FFEE7206B00F059FC2046E7
:10106000BDE8104000F054BC10BD000010484FF423
:101070008051420706D0C01D0D4920F00700411ADB
:10108000C1F580510B4A00230144C2E9000308392D
:10109000183A21F0070111604B600B600B1AC0E990
:1010A000001393604FF000405360506170470000A0
:1010B000BC0D00208C000020144E154CA6F29C475D
:1010C0004FF08058DFF84C9012E000BF00F0ECFBCE
:1010D000F068C568281D00F0F9FAA068401EA060FD
:1010E0006068401E606000F0FFFB2846FFF7A3FF2A
:1010F00060680028EAD138680128F9D9C9F8008069
:10110000BFF34F8FBFF36F8FF2E70000C4050020DD
:101110002000002004ED00E0002807D000218160BD
:1011200001600B460A46C16000F0F0BE7047000047
:1011300070B51D46049C51B1C4F80020C4E90F01EC
:101140000121204600F09EFE84F84C5070BD2460C2
:10115000F4E700002DE9F05F8846DDE90B941546C1
:10116000834691009A460A9EA522206BFFF738F825
:101170006FF00301206B01EB8501084420F00707A5
:10118000780707D0502080F31188BFF34F8FBFF34B
:101190006F8FFEE70025B8F1000F0FD05FF0000061
:1011A000221818F8001082F8341018F8001011B145
:1011B000401C1028F4D384F8435001E084F83450E4
:1011C000382E00D33726E662C4E91365201D00F0EF
:1011D00044FB04F1180000F040FB2461C6F1380024
:1011E0006462A061656584F8585052465946384695
:1011F00000F05AFA2060B9F1000F01D0C9F80040A0
:10120000BDE8F09F30B5114900E011460A688242FE
:10121000FBD34B685C18844203D140681844486093
:10122000084643681C18944209D1084C183C2468AD
:10123000A24209D052681A4442600A6812680260E9
:10124000814200D0086030BD0460F9E78C000020C6
:1012500070B5002441600B4D0061914206D8D11A4F
:101260008269914206D2011D286907E09A4203D2A1
:10127000994201D3012403E0011DE86800F0F0FA6F
:10128000204670BD5C00002010B5044600F00CFB49
:10129000A06B28B15FF0000400F026FB204610BDD3
:1012A0000124F9E730B589B03C4D6EE00498002880
:1012B00006DADDE90601059A90470498002864DB08
:1012C000069C606910B1201D00F000FA03A800F030
:1012D000D7F8024604980A2857D2DFE800F005053F
:1012E000052D334A05052D3394F8280040F0010000
:1012F00084F828000599A069059B01442046FFF762
:10130000A7FF68B3216A2046884794F82800400761
:101310003BD5002000900598A1690023421819468A
:10132000204601F0B3F9D8B9502080F31188BFF3FB
:101330004F8FBFF36F8FFEE714F8280F20F00100E6
:10134000207022E094F8280040F0010084F8280082
:101350000598A06128B1811813462046FFF778FF51
:1013600013E0502080F31188BFF34F8FBFF36F8FCE
:10137000FEE794F82800810703D4204600F0C8FA5D
:1013800003E020F0010084F82800002204A9286866
:1013900000F0CCFE002889D109B030BD5C000020EF
:1013A0002DE9FC410F46054600F01EFC01A800F0A7
:1013B00067F80446019818B101F0D6F8BDE8FC8141
:1013C000254EAFB130690068D0B30027291B3A46DB
:1013D000306800F04BFB01F0C7F80028EED11F4940
:1013E0004FF080500860BFF34F8FBFF36F8FE5E77A
:1013F000A542EBD801F0B8F8F0682746C068C46889
:10140000201D00F063F994F82800410719D5A06960
:101410002B4641193A462046FFF71AFFA8B1002093
:101420000346014600902A46204601F02FF960B994
:10143000502080F31188BFF34F8FBFF36F8FFEE70B
:1014400007E020F0010084F82800216A2046884740
:10145000B4E70127BAE700005C00002004ED00E0DB
:101460000648416B096829B1416BC968C968496878
:10147000816270474FF0FF31FAE700002000002042
:1014800070B5054600F08EFF064E0446B0688442F3
:1014900003D200F009F8012000E000202860204677
:1014A000B46070BD5C000020F8B5194D20E0C06844
:1014B000C4680668201D00F009F9216A20468847A3
:1014C00094F82800400713D5A0693044B04206D9EB
:1014D00024616060211DE86800F0C2F908E0002086
:1014E0000346014600903246204601F0CFF838B15D
:1014F000E86801680029DAD12969C5E90310F8BD57
:10150000502080F31188BFF34F8FBFF36F8FFEE73A
:101510005C00002008484068401C4FF0500080F3F9
:10152000118804D0BFF34F8FBFF36F8FFEE7BFF377
:101530004F8FBFF36F8FFEE794000020074CE068E9
:10154000016841B1C0680021D0F80000FFF728FF12
:10155000FFF7A8FEF3E701210020F7E75C00002079
:101560002DE9F041044600F09FF994F9455004F14B
:10157000240609E0606A48B1304600F0BDFF08B1BA
:1015800000F0B4FA6D1E6DB2002DF3DC4FF0FF36A3
:1015900084F8456000F0A8F900F086F994F9445009
:1015A00004F1100709E0206948B1384600F0A4FFB3
:1015B00008B100F09BFA6D1E6DB2002DF3DC84F8CB
:1015C0004460BDE8F04100F08FB900002DE9F04122
:1015D0000546002700F008FB324E306808B9FFF7D7
:1015E00045FD706905424ED1C5B3083568070ED078
:1015F00005F00700C0F108000544680707D0502037
:1016000080F31188BFF34F8FBFF36F8FFEE72DB3C9
:101610007068854237D82348183001460C6801E0CD
:1016200020460C466168A94202D221680029F7D100
:1016300031688C4227D007682168016060680837EC
:10164000411B10290FD96019420708D0502080F3A0
:101650001188BFF34F8FBFF36F8FFEE713E0416038
:101660006560FFF7CFFD61687068401A7060B2680E
:10167000904200D2B060706901430020C4E90001CB
:10168000F068401CF06000F06FFF780707D0502032
:1016900080F31188BFF34F8FBFF36F8FFEE738469B
:1016A000BDE8F0817400002010B5031F4FF0807476
:1016B0001C601B1F21F001011960191F024B0B60F8
:1016C000143940380A6010BD15150008D0E9013200
:1016D00001699A60D0E901235A604A68824201D1C7
:1016E00082684A60002202610868401E086008683B
:1016F00070470000034B036003F15C00086080202A
:101700001060704704070020044B036003F15C0085
:1017100008604FF48070106070470000600900207E
:10172000054A036842F8313002EBC10183798B71BD
:101730008088888070470000A00000207CB52F487A
:10174000002400908DF806404014ADF804002146B6
:101750006846FFF7E5FF8DF806400220284DADF8FA
:101760000400009501216846FFF7DAFF8DF8064076
:101770000120ADF80400009502216846FFF7D0FF74
:101780008DF8064004201F4DADF80400009503219C
:101790006846FFF7C5FF8DF806400820ADF8040045
:1017A000009504216846FFF7BBFF8DF80640102026
:1017B000ADF80400009505216846FFF7B1FF8DF8EC
:1017C00006402020ADF80400009506216846FFF78A
:1017D000A7FF8DF806404020ADF8040000950721D2
:1017E0006846FFF79DFF8DF806408020ADF80400A5
:1017F000009508216846FFF793FF7CBD001001406B
:10180000000C0140000801400649064B01EBC001F5
:101810008A7953F83000898812B10022FEF708BE99
:101820000122FBE7A00000200549054B01EBC001A8
:101830008A7953F83000898802B10122FEF7F8BD99
:10184000A000002000F108014FF0FF32C0E90112B2
:10185000C160016100210160704700210161704792
:1018600030B50B685A1C02D000F1080202E0026990
:1018700004E02246546825689D42FAD953684B60BB
:1018800099608A60516008610168491C016030BD3F
:1018900042684A6093688B60936859609160086100
:1018A0000168491C01607047502080F31188BFF324
:1018B0004F8FBFF36F8F0A494868401C486001286A
:1018C0000CD10848006810F0FF0F07D0502080F3BB
:1018D0001188BFF34F8FBFF36F8FFEE77047000093
:1018E0009400002004ED00E00849486828B1401E3B
:1018F000486001D180F311887047502080F311882F
:10190000BFF34F8FBFF36F8FFEE7000094000020FE
:1019100070B500282AD0164DA0F1080460686969E6
:10192000084207D1502080F31188BFF34F8FBFF3D7
:101930006F8FFEE722683AB1502080F31188BFF321
:101940004F8FBFF36F8FFEE78843606000F04CF964
:1019500060686968084468602046FFF753FC28699E
:10196000401C2861BDE8704000F0FEBD70BD000065
:10197000740000204FF0E0200021016181610549E1
:101980004FF47A720968B1FBF2F1491E41610721F7
:10199000016170471C00002010B5FEF7F9FB1149EA
:1019A00010280ED300F1E02090F8F0030A7890425E
:1019B00007D2502080F31188BFF34F8FBFF36F8F92
:1019C000FEE709480068896800F4E060884207D9AA
:1019D000502080F31188BFF34F8FBFF36F8FFEE766
:1019E00010BD0000940000200CED00E010B5084B85
:1019F000002200BF53F832401CB1521C082AF9D310
:101A000010BD43F8321003EBC201486010BD000066
:101A1000E800002010B504000AD000F013F894F894
:101A2000460000280CD12046BDE81040FFF770BFEB
:101A3000502080F31188BFF34F8FBFF36F8FFEE705
:101A400010BD0000084A002102EBC1035B6883421D
:101A500006D1002042F8310002EBC1014860704716
:101A6000491C0829F0D37047E800002070B51546DE
:101A70000E460446FFF718FF94F944100020491C55
:101A800001D184F8440094F94510491C01D184F82F
:101A90004500FFF729FFA06B28B92A46314604F11B
:101AA000240000F041F82046BDE87040FFF758BD23
:101AB00070B500244FF4FA752046FFF7B5FE2846AE
:101AC000FEF7B4FB2046FFF79FFE2846FEF7AEFB6D
:101AD000641CE4B2092CEFD370BD000002490A6A0D
:101AE0000260C96841607047200000200149012060
:101AF000C86170472000002010B50C4650B109495C
:101B000009681831FFF7ACFE2046BDE810400121FE
:101B1000FFF786B9502080F31188BFF34F8FBFF3D2
:101B20006F8FFEE72000002070B514460D4668B1A7
:101B30000A4909681831FFF7ABFE0CB14FF0FF35C9
:101B400021462846BDE87040FFF76AB9502080F36F
:101B50001188BFF34F8FBFF36F8FFEE72000002087
:101B600030B587B00024039405AA04A903A80494FF
:101B7000FFF7C0FDDDE903010094CDE9011000236A
:101B800015A11748059A00F0D4FB164D0028E8620D
:101B90001FD000F04BFD012809D0401C19D1502066
:101BA00080F31188BFF34F8FBFF36F8FFEE7502094
:101BB00080F31188BFF34F8FBFF36F8F4FF0FF306B
:101BC000A86201206861EC6007B0BDE8304000F019
:101BD00045B807B030BD000049444C450000000046
:101BE000B9100008200000200248016B491C016365
:101BF0007047000020000020164810B5016B11B19D
:101C00000121C16110BD0021C1610169124A01E0D9
:101C1000B9B1491E01EB810352F82330002BF7D0F4
:101C200001EB810302EB830202F1080453685B6855
:101C30005360A34201D15B685360DA6802600161BE
:101C400010BD502080F31188BFF34F8FBFF36F8F0B
:101C5000FEE7000020000020280100201CB52649D6
:101C600008780190FF20087008788DF800009DF832
:101C700000009DF8002000F0F000904207D05020B6
:101C800080F31188BFF34F8FBFF36F8FFEE79DF88E
:101C900000001A4C00F0500020700720A06005E002
:101CA0009DF8002052008DF80020401E9DF8002075
:101CB0001206F5D4A060032807D0502080F31188C5
:101CC000BFF34F8FBFF36F8FFEE74FF44070A060FC
:101CD000019808700A48016841F4700101600168C8
:101CE00041F070410160FFF745FE00206060FEF7A3
:101CF00019FA00201CBD000000E400E09400002060
:101D000020ED00E010B5502080F31188BFF34F8F15
:101D1000BFF36F8F00F04CFB18B104494FF08050B7
:101D20000860002080F3118810BD000004ED00E081
:101D300010B50C4648B184420FD9502080F3118869
:101D4000BFF34F8FBFF36F8FFEE7502080F31188F2
:101D5000BFF34F8FBFF36F8FFEE70222002100F029
:101D60003CF8002800D0846310BD38B50C4648B15B
:101D700084420FD9502080F31188BFF34F8FBFF3F7
:101D80006F8FFEE7502080F31188BFF34F8FBFF3B2
:101D90006F8FFEE70221134600220091114600F0EA
:101DA0003DF8002800D0846338BD10B502460021FC
:101DB000012000F012F80446FFF7AEF9204610BDEE
:101DC00038B50B46002200901146012000F026F89D
:101DD0000446FFF7A1F9204638BDF8B517460E4670
:101DE000050013D005FB06F05030FFF7EFFB0400B1
:101DF0000AD0002084F8460004F150023B463146E8
:101E000028460094FFF794F92046F8BD502080F34F
:101E10001188BFF34F8FBFF36F8FFEE738B5049D76
:101E200018B153B1CAB181B120E0502080F31188BC
:101E3000BFF34F8FBFF36F8FFEE7502080F3118801
:101E4000BFF34F8FBFF36F8FFEE7502080F31188F1
:101E5000BFF34F8FBFF36F8FFEE739B1502080F390
:101E60001188BFF34F8FBFF36F8FFEE750241C46DE
:101E7000012384F846302B460094FFF759F9204699
:101E800038BD000070B50D46040025D0FFF70CFDED
:101E9000D4E90F20216802FB0011A1600021A16399
:101EA000216861600A46D4E90F01401E00FB012150
:101EB000E16021464FF0FF3001F8440F487004F113
:101EC00010008DB1FFF7BEFC04F12400FFF7BAFC4F
:101ED000FFF70AFD012070BD502080F31188BFF389
:101EE0004F8FBFF36F8FFEE721690029F0D000F01C
:101EF00003FB0028ECD004494FF080500860BFF38A
:101F00004F8FBFF36F8FE3E704ED00E02DE9FF474C
:101F100082B01D468A464FF00008040003D0BAF193
:101F2000000F08D011E0502080F31188BFF34F8FCD
:101F3000BFF36F8FFEE7206C38B1502080F311881B
:101F4000BFF34F8FBFF36F8FFEE7022D0AD1E06B17
:101F5000012807D0502080F31188BFF34F8FBFF3C3
:101F60006F8FFEE700F010FA3F4F4FF000094FF07F
:101F7000805648B9049838B1502080F31188BFF3D7
:101F80004F8FBFF36F8FFEE7FFF78EFCA06BE16B07
:101F9000884207D3022D05D00498D0B1B8F1000FC4
:101FA0001AD01EE02A4651462046FFF70EF8616A15
:101FB00019B104F1240000F09FFA20B13E60BFF394
:101FC0004F8FBFF36F8FFFF78FFC012006B0BDE886
:101FD000F087FFF789FC22E06846FFF77FFD4FF0AE
:101FE0000108FFF781FCFFF7FFFDFFF75DFC94F9A7
:101FF0004400401C01D184F8449094F94500401CF1
:1020000001D184F84590FFF76FFC04A9684600F001
:1020100029F930B12046FFF7A3FA00F0A5FA002015
:10202000D4E7FFF741FCA06BE16B884213D1FFF7C7
:102030005BFC04F110000499FFF75EFD2046FFF7FA
:102040008FFA00F091FA00289ED13E60BFF34F8FC7
:10205000BFF36F8F98E7FFF747FC2046FFF780FA42
:1020600000F082FA90E7000004ED00E02DE9F0476F
:102070001F4690468946040003D0B9F1000F08D0EE
:1020800011E0502080F31188BFF34F8FBFF36F8FA3
:10209000FEE7206C38B1502080F31188BFF34F8FDA
:1020A000BFF36F8FFEE7022F0AD1E06B012807D044
:1020B000502080F31188BFF34F8FBFF36F8FFEE77F
:1020C000FFF76AFC5020EFF3118680F31188BFF30D
:1020D0004F8FBFF36F8FA06BE16B884206D3022F47
:1020E00004D0002086F31188BDE8F08794F94550AC
:1020F000A06B3A4649462046FEF767FF681C04D0AD
:102100006D1C84F845500120ECE7606A0028FAD085
:1021100004F1240000F0F0F90028F4D0B8F1000F29
:10212000F1D00121C8F80010EDE700002DE9F747D4
:10213000002683B08A46040003D0BAF1000F08D00D
:1021400011E0502080F31188BFF34F8FBFF36F8FE2
:10215000FEE7206C38B1502080F31188BFF34F8F19
:10216000BFF36F8FFEE700F00FF9DFF8F4804FF058
:1021700000094FF0805748B9059838B1502080F3D6
:102180001188BFF34F8FBFF36F8FFEE7FFF78CFB14
:10219000A56BC5B151462046FEF704FF6D1EA56331
:1021A000206950B104F1100000F0A6F928B1C8F878
:1021B0000070BFF34F8FBFF36F8FFFF795FB0120C8
:1021C00006B0BDE8F087059808B11EB106E0FFF73C
:1021D0008BFB27E06846FFF781FC0126FFF784FBB5
:1021E000FFF702FDFFF760FB94F94400401C01D1AA
:1021F00084F8449094F94500401C01D184F845903E
:10220000FFF772FB05A9684600F02CF8002820466D
:102210000AD0FFF7A5F900F0A7F92046FFF734F838
:102220000028B3D00020CBE7FFF72EF890B104F1DF
:1022300024000599FFF760FC2046FFF791F900F0B4
:1022400093F90028A2D1C8F80070BFF34F8FBFF3F5
:102250006F8F9BE72046FFF783F900F085F995E73C
:1022600004ED00E02DE9F0410C46050011D0C4B1A9
:10227000FFF71AFB174BDA686E682068911B471C42
:1022800017D02F681B6A9F4219D0964217D8012495
:1022900010E0502080F31188BFF34F8FBFF36F8F92
:1022A000FEE7502080F31188BFF34F8FBFF36F8F8D
:1022B000FEE70024FFF718FB2046BDE8F0818842C6
:1022C00005D9401A20602846FFF708FCF1E70020F6
:1022D0002060DCE7200000202DE9FF5F8346DDE978
:1022E0000E87994616468A469000FFF76FF905005B
:1022F0001CD05C20FFF76AF9040014D0002025638D
:1023000084F85900CDE90240CDE900874B463246BA
:1023100051465846FEF71EFF2046FEF7AFFD01204E
:1023200004B0BDE8F09F2846FFF7F2FA4FF0FF3007
:10233000F6E7F0B585B0DDE90B640A9DA6B1DCB126
:102340005C2700972663022684F85960002604AFB4
:10235000CDE90246CDE90057FEF7FCFE2046FEF728
:102360008DFD049805B0F0BD502080F31188BFF3B7
:102370004F8FBFF36F8FFEE7502080F31188BFF3BC
:102380004F8FBFF36F8FFEE70548416919B1006BAE
:1023900018B10020704701207047022070470000EC
:1023A000200000200148C068704700002000002085
:1023B0002DE9F0412E4C0027206B28B1A069401C6C
:1023C000A0613846BDE8F081E668761CE66013D16E
:1023D000606B006838B1502080F31188BFF34F8FD5
:1023E000BFF36F8FFEE7606BA16B6163A063206A30
:1023F000401C2062FFF734F8A06ADFF8788086423C
:1024000009D3606B0068A0B1606BC068C56868687C
:10241000864211D2A0622068C06A00EB800158F8A1
:102420002100012800D90127E0690028C9D001272F
:10243000C7E74FF0FF30EDE7281DFFF747F9A86A1F
:1024400018B105F11800FFF741F9E86A21698842DF
:1024500000D9206100EB800108EB8100291DFFF706
:1024600017FAE86A2168C96A8842CAD30127C8E70F
:10247000200000202801002070B504004FF000016A
:1024800033D01B4D2868844207D0502080F3118838
:10249000BFF34F8FBFF36F8FFEE7206D38B1401E43
:1024A0002065E36CE26A9A421FD040B11DE05020E3
:1024B00080F31188BFF34F8FBFF36F8FFEE7201DAE
:1024C000FFF704F9E06CE062C0F13800A061E06A57
:1024D0002969884200D92861064900EB800001EB98
:1024E0008000211DFFF7D4F90121084670BD0000CE
:1024F000200000202801002070B5C068C46854B1D5
:1025000004F118000646FFF7E1F8144D286B50B1AE
:102510003146134815E0502080F31188BFF34F8FE8
:10252000BFF36F8FFEE7201DFFF7D0F8E06A29693F
:10253000884200D928610B4900EB800001EB800044
:10254000211DFFF7A5F9E06A2968C96A884202D906
:102550000120E86170BD002070BD00002000002057
:10256000B0050020280100202DE9F0472C4D002463
:102570002746286B38B1FFF797F9286B401E286370
:10258000286B40B146E0502080F31188BFF34F8F95
:10259000BFF36F8FFEE7A968224E0120D1B3A6F5E5
:1025A000916980463068E0B1F068C46804F11800B1
:1025B000FFF78CF8201DFFF789F8E06A2969884247
:1025C00000D9286100EB800109EB8100211DFFF794
:1025D0005FF9E06A2968C96A8842E3D3C5F81C80BC
:1025E000E0E70CB1FEF73CFFAC694CB14FEA0806DE
:1025F000FFF7DEFE00B1EE61641EF9D10020A86194
:10260000E86938B10849012738070860BFF34F8FE0
:10261000BFF36F8FFFF768F93846BDE8F087000019
:1026200020000020B005002004ED00E010B586B0C9
:10263000FEF78CFC114C2068B8B100200390049088
:1026400005AA04A903A8FFF75FF8DDE9032102202A
:102650008DE8070000230AA10B48059AFFF769FEE1
:10266000606010B106B0012010BD502080F31188C9
:10267000BFF34F8FBFF36F8FFEE700005C000020B9
:10268000546D7220537663003D1500082DE9FF411B
:102690001E46134602000A9D4FF0000016D0144C4F
:1026A0002768002F0FD0CDE900130292062917DA10
:1026B000FFF76AFE02284FF000030FD000226946A0
:1026C0002068FFF723FC04B0BDE8F081502080F3C0
:1026D0001188BFF34F8FBFF36F8FFEE72A46EEE7F7
:1026E0000023324669463846FFF7C0FCEBE700009E
:1026F0005C00002098270008000000000000000097
:1027000000000000000000000002000008000000BF
:1027100000000000000000008C27000800000000FE
:1027200000000000000000007C27000800000000FE
:1027300000000000000000006C27000800000000FE
:10274000000000000000000001020203040506076B
:1027500008090A0B0C0D0E0F1010000000000000FD
:102760000000010203040607080900006D79436FA9
:10277000756E74696E6753656D3031006D794269AD
:102780006E61727953656D30310000006D794D7561
:10279000746578303100000064656661756C74544E
:1027A00061736B00C427000800000020A000000037
:1027B000BC0B000864280008A000002020210000B5
:1027C000CC0B00080000000000000000000000002A
:1027D00000000000010000001000000000000000E8
:1027E00000127A000000000000000000000000005D
:1027F00000000000000000000000000000000000D9
:1028000000000000000000000000000000000000C8
:1028100000000000000000000000000000000000B8
:1028200000000000000000000000000000000000A8
:102830000000000000000000000000000000000098
:102840000000000000000000000000000000000088
:10285000000000000000000000000000AAAAAAAAD0
:042860000000000074
:04000005080000ED02
:00000001FF
