:020000040800F2
:10000000082400209901000803170008651500085E
:100010000117000813080008211A0008000000005A
:1000200000000000000000000000000001010008C6
:100030001508000800000000450100080B17000823
:10004000B3010008B3010008B3010008B3010008C0
:10005000B3010008B3010008B3010008B3010008B0
:10006000B3010008B3010008B3010008B3010008A0
:10007000B3010008B3010008B3010008B301000890
:10008000B3010008B3010008B3010008B301000880
:10009000B3010008B3010008B3010008B301000870
:1000A000B3010008B3010008B3010008B301000860
:1000B00085170008B3010008B3010008B301000868
:1000C000B3010008B3010008B3010008B301000840
:1000D000B3010008F9190008B3010008B3010008D2
:1000E000B3010008B3010008B3010008DFF80CD029
:1000F00000F0EAFA00480047F12100080824002037
:10010000224B19680868B0E8F00F80F30988BFF344
:100110006F8F4FF0000080F311884EF00D0E704786
:100120000000000006480068006880F3088862B696
:1001300061B6BFF34F8FBFF36F8F00DF00BF00BF0B
:1001400008ED00E0EFF30980BFF36F8F0F4B1A68E3
:1001500020E9F00F106008B54FF0500080F31188CF
:10016000BFF34F8FBFF36F8F03F02EFD4FF00000F2
:1001700080F31188BDE8084019680868B0E8F00FFE
:1001800080F30988BFF36F8F704700BFBC00002069
:10019000EFF3058070470000064880470648004797
:1001A000FEE7FEE7FEE7FEE7FEE7FEE7FEE7FEE727
:1001B000FEE7FEE781170008ED000008202A04DBB7
:1001C000203A21FA02F00021704721FA02F3D040D0
:1001D000C2F12002914008431946704740EA0103EA
:1001E0009B0703D009E008C9121F08C0042AFAD2ED
:1001F00003E011F8013B00F8013B521EF9D27047B1
:10020000D2B201E000F8012B491EFBD27047002258
:10021000F6E710B513460A4604461946FFF7F0FF05
:10022000204610BD10B5002200E0521C835C8C5C9F
:10023000A34201D1002BF8D1D8B2E1B2401A10BDCF
:1002400030B504460020034600E05B1C934203D215
:10025000E05CCD5C401BF8D030BD034611F8012BAB
:1002600000F8012B002AF9D11846704770B50F4DE0
:1002700000B92868002412E00A4602E09E4203D03A
:10028000521C1378002BF9D1DAB2224305D02BB1DE
:1002900024B1002100F8011B04E00446401C06784C
:1002A000002EE9D12860204670BD00003C010020EE
:1002B0002DE9FE4F81EA030404F0004421F00041DF
:1002C00000944FF0000B23F0004350EA01045ED08D
:1002D00052EA03045BD0C3F30A54C1F30A552C4419
:1002E000A4F2F3340194A0FB0254C1F3130141F4CE
:1002F0008011C3F3130343F4801301FB024400FB9A
:10030000034E840A970A44EA815447EA8357A4FBC0
:10031000076802958D0A05FB07854FEA932C04FBBD
:100320000C542705029D4FEA065847EA1637B5EBED
:1003300008056EEB070C870E920E47EA811742EA1A
:100340008312A7FB0201B6EB0B0164EB00042B0D3B
:1003500043EA0C335E1844EB1C50DA465146E7FB87
:100360000201C5F313044FEA0B3343EA14534FEA77
:100370000432019C43EA0603A4F10C040294009C9D
:10038000CDE900B400F0AAF803B0BDE8F08F00207A
:100390000146F9E72DE9F04D81EA030404F0004B32
:1003A00021F0004514464FF0000A23F0004150EAC6
:1003B000050220D054EA01021DD0C5F30A570246B7
:1003C000C5F31303C1F31300C1F30A5640F48015BB
:1003D00043F48013A7EB0608101BD64608F2FD383D
:1003E00073EB050002D308F1010801E092185B41AC
:1003F000B8F1000F03DA00200146BDE8F08D0020BF
:100400004FF48011064684460EE0171B73EB050778
:1004100005D3121B63EB050306434CEA010C4908A4
:100420004FEA300092185B4150EA0107EDD152EAE1
:10043000030012D082EA040083EA0501084305D0D4
:10044000101BAB4106D20122002306E000224FF030
:10045000004302E06FF0010253101AEB06004CEB70
:10046000085110EB0A0041EB0B01BDE8F04D00F024
:1004700026B80EB540F2334102910021CDE90011BA
:100480000A460B4600F02AF803B000BDC1F30A5239
:1004900010B5C1F3130140F2FF3341F480119A42C9
:1004A00001DA002010BD40F233439A42A2F23342F7
:1004B00003DC5242FFF782FE10BD904010BD10B524
:1004C000141E73F1000408DA401C41F10001921877
:1004D0005B411A4301D120F0010010BD2DE9F04D20
:1004E00092469B4611B1B1FA81F202E0B0FA80F275
:1004F0002032904600F0FAF804460F4640EA0A001F
:1005000041EA0B0153465A46084313D0114653EAB9
:10051000010019D0C8F140025046FFF74FFE0546D2
:100520000E4650465946424600F0E0F8084305D0D2
:10053000012004E020463946BDE8F08D0020054347
:1005400046EAE0762C4337430A986305E40AA0EBB9
:1005500008000022FD0A44EA47540A3002D5002070
:100560000146E9E7010510196941DDE9084500196F
:100570006941BDE8F04DA2E72DE9FE4F804681EAD2
:100580000300C00F0C46009021F0004123F000450D
:10059000B8EB0200A94105D24046214690461C46D0
:1005A0000B46024623F00040104347D0270DC7F307
:1005B0000A00C3F30A510290401A019040286BDAF6
:1005C000C3F3130040F4801B0098924620B100232F
:1005D000D2EB030A63EB0B0B01985946C0F14002C2
:1005E000504600F083F806460D4650465946019A9B
:1005F00000F08BF810EB08006141002487EA1152EB
:1006000084EAE7731A4340D0009A62B3019A012A40
:100610004FEA075215DC001B61EB02014FF000426C
:1006200002EA0752CDE90042001C41F58011324632
:100630002B46FFF753FF03B0BDE8F08F404621463D
:10064000F9E7001B61EB0201001C41F58013001863
:100650005B412018A2F5001747EB030140EAD57073
:10066000B6196D4111E06D084FEA360645EAC075CE
:100670004FEA0752001B61EB0201001C41F580119B
:1006800049084FEA30000019514132462B4603B069
:10069000BDE8F04FFFF713BF009801224000002390
:1006A000D0EB020263EBE073009821464FEAE0745E
:1006B000B8EB000061EB0401E9E783F000435BE77E
:1006C00081F0004158E70000064C074D06E0E06865
:1006D00040F0010394E8070098471034AC42F6D389
:1006E000FFF708FDA0480008C0480008202A04DBE6
:1006F000203A00FA02F1002070479140C2F1200335
:1007000020FA03F3194390407047202A06DBCB17E9
:10071000203A41FA02F043EAE07306E041FA02F3BC
:10072000D040C2F12002914008431946704770B58D
:1007300021F0004303430CD0C1F30A550024D5EB4C
:10074000040564EB0403D617AD1AB34102DB0020A5
:10075000014670BD201841EB025170BD0EB5C10FAE
:1007600080EAE0700844CA07002140F233438DE874
:100770000E000A460B46FFF7B1FE03B000BD70B590
:10078000C1F30A5201F000450024C1F3130140F205
:10079000FF3341F480119A4201DA002070BD40F22B
:1007A00033439A42A2F2334203DC5242FFF706FD82
:1007B00000E090402C43F1D0404270BD70B58C18E1
:1007C00010F8015B15F0070301D110F8013B2A1165
:1007D00006D110F8012B03E010F8016B01F8016B52
:1007E0005B1EF9D12B0705D40023521E0DD401F84E
:1007F000013BFAE710F8013BCB1A921C03E013F817
:10080000015B01F8015B521EF9D5A142D8D300204B
:1008100070BDFEE77047000070B5044600F008F9AF
:100820000546601C02D004480078044400F000F93A
:10083000401BA042FAD370BDAC0000202DE9F84F58
:10084000DFF8B8910024A9F1040B23460F2709F122
:10085000040AABF1040EC9E00125A5402A40AA42D2
:100860007DD1674ED1F804C0ACEB0608B44532D058
:1008700014DCBCF1030F3AD009DCBCF1000F2AD024
:10088000BCF1010F1CD0BCF1020F31D11DE0BCF155
:10089000110F17D0BCF1120F2AD119E0B8F5881F3B
:1008A00019D006DCB8F5803F15D0B8F5801F1FD1F0
:1008B00011E0B8F5001F0ED0B8F5041F18D10AE0FA
:1008C000CB6815E0CB681B1D12E0CB6808330FE046
:1008D000CB680C330CE08B682BB1012B4FF0080375
:1008E00003D0456104E0042302E0056100E0002339
:1008F000FF2A01D8064601E000F104064FEA84050C
:1009000001D9A5F12005D6F8008007FA05FC28EAF0
:100910000C0803FA05F548EA0508C6F800804D689A
:10092000ED0062D5374DAE6946F00106AE61AD69A6
:1009300024F0030605F001050095334D06EB050C88
:10094000DCF80850A607360F07FA06F825EA08056E
:10095000DFF8B880404503D14FF0000817E044E0CD
:10096000DFF8AC80404502D14FF001080FE0DFF81E
:10097000A480404502D14FF0020808E0DFF89880DB
:10098000404502D14FF0030801E04FF0040808FA97
:1009900006F848EA0508CCF808804D68D9F80060E8
:1009A000ED024D4601D5164300E096432E604D689A
:1009B000DAF80060AD02554601D5164300E09643D3
:1009C0002E604D68DBF80060AD035D4601D516432F
:1009D00000E096432E604D68DEF80060ED0375463A
:1009E00001D5164300E096432E60641C0D682A462C
:1009F000E5407FF431AFBDE8F88F00000804014006
:100A000000001110001002400000014000080140E9
:100A1000000C0140001001400014014080680840B3
:100A200000D0012070470AB1016170470904FBE75B
:100A30000148806870470000AC00002002488168CF
:100A40000278114481607047AC000020074810B55F
:100A5000016841F010010160032000F07BF80F20D5
:100A600000F006F800F024F8002010BD002002403D
:100A700070B50D4D04464FF47A712878B1FBF0F053
:100A80000A490968B1FBF0F000F0E2FA48B9102C0D
:100A900007D200222146501E00F03CF800206C6076
:100AA00070BD012070BD0000AC000020B800002027
:100AB0000F4808B5816941F001018161816901F048
:100AC00001010091C16941F08051C161C0690022FA
:100AD00000F0805000900F21901E00F01BF8054898
:100AE000416821F0E06141F00071416008BD000003
:100AF0000010024000000140002809DB00F01F0246
:100B0000012191404009800000F1E020C0F800116F
:100B100070470000F0B40E4B1B680C46C3F3022371
:100B2000C3F10705042D00D90425191D072901D299
:100B3000002300E0DB1E012606FA05F1491E2140D4
:100B400099409E40761E16403143F0BC00F08EBFA7
:100B50000CED00E0064900F0070208684FF6FF03BD
:100B6000184040EA0220034A104308607047000022
:100B70000CED00E00000FA052DE9F0470F460500F6
:100B800061D0434E306800F00700B84209D23068A7
:100B900020F0070038433060306800F00700B842AA
:100BA00051D128683B4C810712D5400703D56068B6
:100BB00040F4E06060602878000703D5606840F486
:100BC000605060606068A96820F0F00008436060D1
:100BD0002878C00728D06868012810D0216802282A
:100BE00010D0890700292EDA616821F00301014342
:100BF0006160FFF71DFF804641F288390DE02168F2
:100C00008903EFE78901EDE7FFF712FFA0EB080189
:100C1000494502D90320BDE8F0876068696800F0A3
:100C20000C00B0EB810FEFD1306800F00700B84244
:100C30000BD9306820F0070038433060306800F08E
:100C40000700B84201D00120E5E72878400705D524
:100C50006068E96820F4E060084360602878000775
:100C600006D56068296920F4605040EAC1006060E0
:100C700000F038F86168084AC1F30311515CC840BC
:100C80000649086006480068FFF7F2FE0020C2E748
:100C900000200240001002402A470008B80000204F
:100CA000B00000200448054900684968044AC1F3BF
:100CB0000221515CC8407047B8000020001002407B
:100CC0003A4700080448054900684968044AC1F3E6
:100CD000C221515CC8407047B8000020001002409B
:100CE0003A4700080E4A51680E4801F00C03042BE5
:100CF00011D0082B0FD10C48C1F38343C903C05C4A
:100D00000AD55168084AC1F34041921E515C054A18
:100D10005043B0FBF1F0704704494843704700006E
:100D20000010024000127A001A47000800093D0036
:100D30002DE9F84F040070D02078C04DC00749D08D
:100D40006868C0F38100012807D06868C0F381009B
:100D5000022809D16868C00306D52868800339D500
:100D600060680028E7D035E06068B0F5803F0BD0C0
:100D700010B1B0F5A02F11D0286820F48030286081
:100D8000286820F4802002E0286840F48030286041
:100D9000606890B1FFF74CFE06460AE0286840F410
:100DA00080202860F0E700BFFFF742FE801B642828
:100DB00073D828688003F7D50CE0FFF739FE0646A4
:100DC00005E000BFFFF734FE801B6428F0D82868D8
:100DD0008003F7D420789A4E80074FF001094FF036
:100DE000000839D5686810F00C0F07D06868C0F3A8
:100DF0008100022809D16868C00306D428688007EA
:100E000014D52069012808D110E02069B0B1C6F8D6
:100E10000090FFF70DFE074605E00AE1FFF708FE28
:100E2000C01B0228C4D828688007F7D528686169E4
:100E300020F0F80040EAC10028600DE0C6F800800C
:100E4000FFF7F6FD074604E0FFF7F2FDC01B02289E
:100E500023D828688007F7D4207800072CD5794854
:100E6000A169D9B1C0F80090FFF7E2FD074604E0A0
:100E7000FFF7DEFDC01B02280FD8686A8007F7D590
:100E800071484FF4FA510068B0FBF1F0009000BFD8
:100E90000098411E0091FAD20EE080E0C0F8008078
:100EA000FFF7C6FD074604E0FFF7C2FDC01B02289E
:100EB00075D8686A8007F7D42078400760D5E8695C
:100EC0000027C00008D4E86940F08050E861E86974
:100ED000012700F0805000905C480168C90513D4D8
:100EE0000168834641F480710160FFF7A1FD8246ED
:100EF00006E000BFFFF79CFDA0EB0A0064284ED877
:100F0000DBF80000C005F5D5E06801280AD008B17B
:100F1000052813D0286A20F001002862286A20F0F2
:100F2000040002E0286A40F001002862E06841F213
:100F3000883B98B1FFF77CFD82460BE0286A40F0C1
:100F400004002862EEE700BFFFF772FDA0EB0A0184
:100F500059455AD8286A8007F6D50CE0FFF768FD96
:100F6000824605E0FFF764FDA0EB0A0159454CD825
:100F7000286A8007F6D41FB1E86920F08050E86144
:100F8000E06988B36968C1F38101022944D002286D
:100F9000C6F8608004D0FFF74BFD044638E034E02B
:100FA000FFF746FD074604E0FFF742FDC01B02289D
:100FB0002BD828688001F7D4206AB0F5803F05D18E
:100FC0006868A16820F4003008436860D4E908012B
:100FD0000843696821F4741108436860C6F860909A
:100FE000FFF726FD044606E025E000BFFFF720FDE1
:100FF000001B022809D828688001F7D51BE000BF34
:10100000FFF716FD001B022802D90320BDE8F88F68
:1010100028688001F4D40EE00128F7D06868226ABD
:1010200000F48031914204D1616A00F4701088426A
:1010300001D00120EAE70020E8E7000000100240AC
:101040000000424280044242B8000020007000408C
:1010500010B5401EB0F1807F01D3012010BD4FF0CC
:10106000E02460610F21601700F000FD0020A06106
:1010700007202061002010BD7047704770B590F8C0
:101080003C20012A26D0012480F83C40022280F82E
:101090003D2003685A689D6822F070060A68324352
:1010A0005A600D4B02689A4208D0B2F1804F05D0C9
:1010B0000A4B9A4202D00A4B9A4204D1496825F061
:1010C00080031943916080F83D40002180F83C1076
:1010D000084670BD022070BD002C01400004004095
:1010E0000008004010B5040003D094F83D0010B192
:1010F00007E0012010BD002084F83C00204600F0ED
:101100001FF8022084F83D00211D206800F046FBF6
:10111000012084F8460084F83E0084F83F0084F8FB
:10112000400084F8410084F8420084F8430084F8C9
:10113000440084F8450084F83D00002010BD000004
:1011400008B50068B0F1804F12D10A48C16941F07A
:101150000101C161C069002200F001000090052179
:101160001C20FFF7D7FCBDE808401C20FFF7C4BCDB
:1011700008BD00000010024090F83D10012901D088
:1011800001207047022180F83D1000680B49884219
:1011900008D0B0F1804F05D00949884202D00949F2
:1011A000884204D1816801F00701062903D0016853
:1011B00041F001010160002070470000002C014057
:1011C000000400400008004070B5044690F83C0060
:1011D0000025012817D0012684F83C60022084F8FD
:1011E0003D002068826822F0770222F47F4282600C
:1011F0000868502838D00DDC20284FD005DC90B38B
:10120000102811D14AE0022070BD302846D0402875
:101210000AD13BE060282FD070280DD0B0F5805F58
:1012200003D0B0F5005F12D0012584F83D600020A6
:1012300084F83C00284670BDCB68D1E901212068C4
:1012400000F0E8FA2068816841F0770109E0CB6896
:10125000D1E90121206800F0DDFA2068816841F4BD
:1012600080418160E1E719E0CA684968206800F0C0
:10127000E3FA5021206806E0CA684968206800F057
:10128000ECFA6021206800F0CFFACEE7CA6849681E
:10129000206800F0D1FA40212068F4E72268014676
:1012A0001046F0E770472DE9F04104460068C66833
:1012B00005694FF00007A90713D5B10711D5F91E2D
:1012C000016101202077206880698007204602D0D4
:1012D000FFF7E8FF04E000F07EF8204600F07CF81D
:1012E0002777680716D5700714D521686FF00400BA
:1012F0000861022020772068806910F4407F204632
:1013000002D0FFF7CFFF04E000F065F8204600F0C0
:1013100063F82777280715D5300713D521686FF0B4
:1013200008000861042020772068C06980072046F3
:1013300002D0FFF7B7FF04E000F04DF8204600F0C0
:101340004BF82777E80616D5F00614D521686FF01C
:1013500010000861082020772068C06910F4407FE1
:10136000204602D0FFF79EFF04E000F034F820464C
:1013700000F032F82777E80708D0F00706D0216898
:101380006FF001000861204600F027F8280608D514
:10139000300606D521686FF0800008612046FFF70F
:1013A0006BFE680608D5700606D521686FF0400010
:1013B0000861204600F012F8A8060AD5B00608D544
:1013C00021686FF0200008612046BDE8F041FFF77A
:1013D00054BEBDE8F081704770477047704770B5E4
:1013E000040004D094F84100002510B106E001206B
:1013F00070BD84F84050204600F024F8242084F882
:1014000041002068C16821F40051C160204600F00D
:101410005DFA2068016921F4904101612068416909
:1014200021F02A0141612068C16841F40051C16086
:101430006564202084F8410084F842006563002040
:1014400070BD000030B585B0002400940194029472
:1014500003940068184988422CD11848816941F4E6
:1014600080418161816901F480410491816941F089
:10147000040181618069124D00F0040004904FF472
:1014800000700090022001900320039069462846D6
:10149000FFF7D4F92815CDE90004694628460294DF
:1014A000FFF7CCF9002205212520FFF733FB25208B
:1014B000FFF722FB05B030BD0038014000100240AC
:1014C000000801402DE9F843044690F84100984691
:1014D00016460D46202802D00220BDE8F88385B1CB
:1014E0007EB100206064212084F84100FFF7A0FA5B
:1014F000A6848146E684A0682027B0F5805F02D0EC
:1015000003E00120E9E7206910B12E4600250EE036
:1015100000260CE08021204600F034FAA8B9C6B1BC
:1015200016F8010B21684860E08C401EE084E08CD6
:101530004B464FF00002CDF800800028EAD14FF072
:101540004001204600F01EFA40B184F841700320AB
:10155000C3E735F8020BC0F30800E3E784F84170F5
:101560000020BAE7FEE700002DE9F04385B0002433
:1015700034480094019402940394816941F010016D
:101580008161816901F010010491816941F02001BC
:101590008161816901F020010491816941F00401B8
:1015A0008161816901F004010491816941F00801C0
:1015B00081618069244F00F008004FF400550490C9
:1015C000002229463846FFF72EFADFF880800122F4
:1015D000FC214046FFF727FADFF87490012203212F
:1015E0004846FFF720FA0095022601250396CDE92B
:1015F000015469463846FFF721F94FF440408DE821
:10160000310069463846FFF719F903270097694604
:101610004046CDE90145FFF711F9FC20CDE9000571
:10162000CDE9024669464046FFF708F90097039660
:10163000CDE9015469464846FFF700F905B0BDE819
:10164000F08300000010024000100140000801403B
:10165000000C014010B586B0002416480094019497
:101660000294039404944FF080410594C0E900145F
:1016700040F26711C0E9024104618461FFF732FD65
:1016800008B172B6FEE74FF48050009069460948F1
:10169000FFF79AFD08B172B6FEE7049404A9054865
:1016A0000594FFF7EBFC002801D072B6FEE706B008
:1016B00010BD0000A402002010B5104C0E480C21F3
:1016C00020604FF4E13060600020A060E060C4E979
:1016D0000401A061E0612046FFF781FE08B172B607
:1016E000FEE72068C16841F02001C1602068C16840
:1016F00041F40051C16010BD00380140EC020020EF
:10170000FEE7FEE702F0A0F9FCE710B5FFF796F957
:1017100002F022FE012803D0BDE8104002F0DABA40
:1017200010BD30B58FB028216846FEF770FD14213A
:101730000AA8FEF76CFD01210804CDE90010002481
:10174000029402250491CDE907504FF4E01009906E
:101750006846FFF7EDFA08B172B6FEE70F20CDE953
:101760000A054FF48060CDE90C4002210AA80E94CE
:10177000FFF702FA002801D072B6FEE70FB030BDC5
:101780007047000010B50448FFF78DFDBDE810401C
:10179000002001F04BBC0000A4020020F0B502685C
:1017A000194B1A4C1A4D4FF08047984205D0B84259
:1017B00003D0A04201D0A84203D122F070064A68AB
:1017C0003243984205D0B84203D0A04201D0A8428B
:1017D00003D122F44074CA6822434C6922F080028B
:1017E000224302608A68C2620A688262984201D11A
:1017F00009690163012141610169C90703D00169D8
:1018000021F001010161F0BD002C01400004004005
:101810000008004010B5846842EA032224F47F44A3
:101820000A432243826010BD826822F070020A439C
:1018300042F007018160704710B5036A046A24F022
:1018400001040462846924F0F00444EA021423F0E1
:101850000A020A438461026210BD10B5036A046A79
:1018600024F010040462846923F0A00324F470447B
:1018700044EA023243EA01118261016210BD01684B
:101880000C3151E8002F22F4907241E80023002B24
:10189000F5D10168143151E8002F22F0010241E82E
:1018A0000023002BF5D1016B012909D101680C310E
:1018B00051E8002F22F0100241E80023002BF5D15F
:1018C000202180F8421000210163704770B5044662
:1018D00000680169E26821F4405111430161216906
:1018E000A0680843616908432168CA6841F20C6333
:1018F0009A430243CA6020684169A26921F4407199
:10190000114341611E492068884202D1FFF7DAF98C
:1019100001E0FFF7C7F900EBC00101EB00126068BE
:1019200064218000B2FBF0F3B3FBF1F36FF0180613
:101930007343B2FBF0F5B2FBF0F605EB83053223FF
:1019400003EB0515B5FBF1F5B6FBF1F605F0F00577
:1019500005EB0615B2FBF0F6B2FBF0F0B0FBF1F0D0
:101960006FF01802504306EB800003EB0010B0FB51
:10197000F1F0216800F00F002844886070BD00007D
:10198000003801402DE9F843984617460D460446B5
:10199000089E24E0701C22D0FFF74AF8A0EB080054
:1019A000B0421AD8CEB12068C168490717D5802D3A
:1019B00015D0402D13D00168C94309070FD4016821
:1019C0000025406800902046FFF759FF082060641A
:1019D00084F840500120BDE8F8830320FBE720682D
:1019E000006835EA000004D00020B842D2D00020C0
:1019F000F1E70120F9E70000084808B50168890609
:101A00000BD5011D09688DF80010016821F0200137
:101A100001600021684600F0B5FB08BD00380140B8
:101A2000FEE700000FB4054B10B503A9044A029865
:101A300000F062FB10BC5DF814FB0000DD21000823
:101A400040010020490050EAC12018BF04204A0D7F
:101A500018BF40F0010040F2FF72B2EB515F08BFC7
:101A600040F00200012808BF052070470907090E51
:101A7000002804DB00F1E02080F80014704700F03B
:101A80000F0000F1E02080F8141D70472DE9F74F9A
:101A9000144694B00021C4E902111599079121F070
:101AA0000045C9498D4206DC1599C4E9000117B00B
:101AB0000020BDE8F08FC549DFF814A3A9423CDD42
:101AC0000799C44E0029C44FC44A1599534619DDDD
:101AD000FEF7F3FD554506D0C14AC24BFEF7EDFDBA
:101AE000C4E900010AE04FF0D352BE4BFEF7E5FD1A
:101AF00032463B46FEF7E1FDC4E9000117B0012084
:101B0000BDE8F08FFEF738FD554506D0B44AB54B19
:101B1000FEF732FDC4E900010AE04FF0D352B14BA9
:101B2000FEF72AFD32463B46FEF726FDC4E90001DA
:101B300017B04FF0FF30BDE8F08FAB49A9421599BF
:101B400078DB21F0004183468846A84AA84BFEF77F
:101B5000AFFB0022A74BFEF70FFDFEF710FE09902A
:101B6000FEF7FCFD06460F469C4A5346FEF7A0FBD7
:101B700043465A46FEF7A4FD80468A46984A994B4A
:101B800030463946FEF794FB2A0D01250B9242465A
:101B90005346FEF795FD032DC4E9000139D00B989B
:101BA000C1F30A51401A05EB45111139814230DA6F
:101BB0009148C346784400EB0510CDF80CA00C907A
:101BC000D0E9002330463946FEF772FB02460B4649
:101BD0000491069058460399FEF76FFD80468A46A9
:101BE00002460B4658460399FEF767FD049B069A8A
:101BF000FEF763FD83460C9803913946D0E9022332
:101C00003046FEF755FB5A46039BFEF756FD6D1C0A
:101C1000BDE707980028A2BF099817B0BDE8F08F6C
:101C2000616881F000416160099817B04042BDE8E9
:101C3000F08FFFE784461598C1F31301C0F30A50F3
:101C4000A0F2F5304FEA601800F01F06C6F1200040
:101C5000139000200690079041F4801E05206D46E9
:101C600076B1664A08EB00017A4452F8213002EB63
:101C70008101B3404A68139922FA01F1194305E042
:101C80005F4908EB0002794451F82210A1FB0E27AE
:101C9000A1FB0C131A449A4234BF0123002303EB27
:101CA000070A05EB8003D3E901B70F448F4234BF25
:101CB0000121002193448B4411B1934502D903E0E3
:101CC000934501D2012100E00021C3E901B751444D
:101CD00045F82010011EA0F10100C1DC0298059F0B
:101CE00000F10050800F12900298DDE90356800049
:101CF000FEF734FD834628460D91FEF7BAFB6FF0E0
:101D00001D02FEF714FDCDE90E013046FEF7B1FBD2
:101D10006FF03D02FEF70BFD80468A463846FEF71F
:101D2000A8FB6FF05D02FEF702FD074642465346F0
:101D30001191FEF721FCDDE90E23FEF71DFC5A464A
:101D40000D9BFEF719FC00250E465A4628460D9BB2
:101D5000FEF7B3FCDDE90E23FEF7AFFC4246534627
:101D6000FEF7ABFC3A46119BFEF7AAFCDFF898A001
:101D7000244A5346FEF79CFA07468846234A244BDA
:101D800031462846FEF794FA3A464346FEF7F4FBFE
:101D9000074688464FF0A842534631462846FEF78C
:101DA00087FA3A464346FEF7E7FB159A12F0004FD2
:101DB00004D0129A81F0004152421292C4E900010B
:101DC000129817B0BDE8F08FFB21E93F7CD90240A3
:101DD000FB21F93F7370032E8A19A33B0000405486
:101DE0003163621A61B4D03DFB21394183C8C96DAA
:101DF000305FE43F0000E03FC02B00003C2B0000C0
:101E00001E2B0000182D4454FB21F93D3326A6114A
:101E1000460B113C2DE9FF4D21F0004807460C46CA
:101E2000B8F1795F08DAFEF7AAFC002801BF0020AC
:101E3000324904B0BDE8F08D3A46234610461946B3
:101E4000FEF736FA054602462D480E460B46062199
:101E5000784400F05DF82A463346FEF729FADDE9BA
:101E6000022382468B4638462146FEF721FA044675
:101E70000F4652465B4628463146FEF719FA22467F
:101E80003B46FEF71AFC07468A464FF0FF322846CB
:101E90003146FEF74CFC1B4A90450ADA3A46534657
:101EA000FEF70BFC04B00022BDE8F04D134BFEF72B
:101EB00007BC154A4245A8BFA8F500154FF000041D
:101EC000B8BF124D22462B46FEF7F7FB0646884662
:101ED00022462B4600200949FEF7EFFB04460D463B
:101EE0003A46534630464146FEF7E7FB04B02246E9
:101EF0002B46BDE8F04DFEF7E3BB00000000F03FCD
:101F0000F42800003333D33F0000E93F0000D23F04
:101F10002DE9F0414F1E00EBC7010446D1E9000155
:101F200015461E4637F006020DD02A463346FEF708
:101F3000BFF97F1E04EBC703D3E90023FEF71CFBA8
:101F400037F00602F1D1022F25D0042F13D0062F2F
:101F500018BFBDE8F0812A463346FEF7A9F9D4E957
:101F60000A23FEF709FB2A463346FEF7A1F9D4E916
:101F70000823FEF701FB2A463346FEF799F9D4E918
:101F80000623FEF7F9FA2A463346FEF791F9D4E91B
:101F90000423FEF7F1FA2A463346FEF789F9D4E91D
:101FA0000223FEF7E9FA2A463346FEF781F9D4E91F
:101FB0000023BDE8F041FEF7DFBA00002DE9FF4D38
:101FC000054621F0004084B00C46B0F1795F0BDA91
:101FD0002846FFF737FD042808BF00F06FF82846B1
:101FE00008B02146BDE8F08D2A460B461046FEF7A4
:101FF0005FF906460F462A462346FEF759F9804602
:1020000026488A4632463B4605217844FFF780FF42
:1020100083461098029160B3214A224B40465146B4
:10202000FEF746F9CDE900015A4640465146029B6B
:10203000FEF73EF982468846DDE906014FF0FF32A1
:10204000FEF775FB52464346FEF737FB32463B46EA
:10205000FEF72EF9DDE90623FEF72FFBDDE900236D
:10206000FEF72BFB08B02A462346BDE8F04DFEF7ED
:1020700027BB0B465A4630463946FEF719F9084A3F
:10208000084BFEF779FA42465346FEF711F908B0BD
:102090002A462346BDE8F04DFEF76EBA322800000E
:1020A000495555555555C5BF0122FEF740BB002285
:1020B000134610461146FEF76DB90000024A002093
:1020C0001107FEF734BB000001FDFFFF02E008C866
:1020D000121F08C1002AFAD170477047002001E0A2
:1020E00001C1121F002AFBD170470000014908609E
:1020F00070470000440100202DE9F0411E461746BC
:102100000446002508E0252802D114F8010F30B15B
:102110003946B047641C6D1C20780028F3D128464E
:10212000BDE8F081024900EB400001EBC0007047C0
:102130008002002030B5124B01EB410403EBC401D7
:102140000A7A0AB1002205E0022030BD4D68AD5C7C
:102150008554521C4D699542F8D848682844486017
:102160000A69904201D9C868486053F834004A6847
:10217000904201D1002000E002200872002030BD12
:102180008002002001EB410370B5134901EBC3024B
:10219000147A012C01D0002406E0012070BD51F812
:1021A0003360055D3555641C5569A542F7D851F873
:1021B0003300284441F833001469A04202D9D068A2
:1021C00041F833005168884201D1012000E002202B
:1021D0001072002070BD00008002002003490968D1
:1021E0000A681206FCD5C2B24A607047EC020020B1
:1021F000FEF72CFC01F022FA00F038FF01F016FC8B
:1022000000F0FCFEFFF78DFAFFF7AEF9FFF722FAB8
:10221000FFF752FA15480068C16841F00101C1603A
:102220001248FEF7A9FF002001F07EFA00F026F820
:102230000F4800F051F80F4C0D4A01216060103238
:10224000084600F07DF80A4AA060203200210420F0
:1022500000F076F8064AE060243A0021064800F0D3
:10226000BBF8206000F01CF8FEE70000A40200208C
:10227000E84600089C00002005170008EFF30580E1
:1022800010B16FF0050070470448016811B14FF0BC
:10229000FF30704701210160002070470C010020D1
:1022A00010B5EFF3058010B16FF0050010BD0848C0
:1022B0000168012902D04FF0FF3010BD054A00210E
:1022C00082F8141D0221016001F032FC002010BDD3
:1022D0000C0100200BE000E070B505464FF0000453
:1022E000EFF3058050BB0DB1686800E00020C10726
:1022F00001D0012600E0002600071FD46DB1D5E90A
:10230000021021B1502819D31EB1042002E020B1DF
:1023100014E0012001F03CFD05E00EB1042000E0D6
:10232000012001F02AFD040008D00DB1296800E069
:10233000002101F005FB0EB144F00104204670BD00
:10234000F8B5144603460E464FF00005EFF305803E
:1023500098BB93B39E423DD84CB1A0680028E0687A
:1023600003D0502836D3012002E008B132E000202B
:10237000012B05D010B31846A26801F0DEFC20E066
:1023800040B103200090002211460120A36801F013
:102390002DFD04E003220021012001F006FD0500CF
:1023A00018D086B100231A46194601F097FD01287E
:1023B00009D0284601F0D8FA00250BE0184601F0B4
:1023C0009FFC050006D00CB1216800E000212846E2
:1023D00001F0B6FA2846F8BD2DE9FF414FEA0103A6
:1023E0004FF00005EFF30581039549BB40B380270B
:1023F000182100244AB3166806B1344696691EB106
:102400003146761E382E02D21679F60703D0002008
:1024100004B0BDE8F081566906B1B708D2F808C02B
:10242000BCF1000F0DD0D5685C2D18D312693AB1FC
:1024300036B18DE806103A46214601F062FF03905E
:102440000DE0D6685EB912694AB903AACDE9001257
:10245000BAB2214601F028FF012800D00395039865
:10246000D6E700002DE9F041134C0F460546E6681B
:102470002068001D00F0DDFC681C07D137B1216821
:10248000BDE8F0410D48091D01F0ACB920683544A4
:10249000B5424560216805D2A06BBDE8F041091D39
:1024A00001F088B9606B091D01F084F9A06A8542CA
:1024B00000D2A562BDE8F081BC0000202408002005
:1024C0002DE9F041054601F099F92D4CA068401C1A
:1024D000A06020682B4F10B1606930B32BE02560FD
:1024E000A068012827D1002606EB860007EB8000B4
:1024F00001F052F9761C382EF6D3234801F04CF93E
:102500002148143001F048F91F48283001F044F9FF
:102510001D483C3001F040F91B48503001F03CF9B7
:10252000194860631430A06305E02068E96AC06A56
:10253000884200D82560606A401C60626864E86A6E
:102540002169884200D9206100EB800007EB800000
:10255000291D01F047F901F071F9606900280CD0DC
:102560002068E96AC06A884207D208494FF0805063
:102570000860BFF34F8FBFF36F8FBDE8F08100009D
:10258000BC00002074030020D407002004ED00E00C
:1025900038B501F033F9104C2068C8B90F4801F084
:1025A000FBF80E48143001F0F7F80C48E0601430E6
:1025B00020610A4B0020F03B009003F150021021F3
:1025C0000A2001F013FC206010B105A101F0B8F958
:1025D000BDE8384001F032B9F80000202809002099
:1025E000546D72510000000030B4026C0B46002A9A
:1025F0000BD0C1681144C1608468A14201D3016855
:10260000C16030BC1846FDF7E9BD30BC70472DE90C
:10261000F041856B174604460026026C82B1C7B1B3
:10262000E068FDF7DBFDE168206C091AE1602268D3
:10263000914202D2A168081AE060022F16D017E07A
:102640002068A8B9A06801F0FFFE06460020A0603F
:102650000EE06068FDF7C2FD216C606808446060B0
:10266000A168884204D32068606001E005B16D1E56
:102670006D1CA5633046BDE8F08110B5044690F8A6
:10268000590058B101280CD002280FD0502080F3F7
:102690001188BFF34F8FBFF36F8FFEE7206B01F000
:1026A000E1F82046BDE8104001F0DCB810BD0000A4
:1026B00010484FF48051420706D0C01D0D4920F04C
:1026C0000700411AC1F580510B4A00230144C2E9B9
:1026D00000030839183A21F0070111604B600B60C4
:1026E0000B1AC0E9001393604FF000405360506133
:1026F000704700000810002028010020144E154CDF
:10270000A6F29C474FF08058DFF84C9012E000BFD3
:1027100001F074F8F068C568281D00F08AFBA06815
:10272000401EA0606068401E606001F087F8284687
:10273000FFF7A3FF60680028EAD138680128F9D9BB
:10274000C9F80080BFF34F8FBFF36F8FF2E700002F
:1027500010080020BC00002004ED00E0002807D095
:102760000021816001600B460A46C16001F0B6BBE2
:102770007047000070B51D46049C51B1C4F800209C
:10278000C4E90F010121204601F064FB84F84C509C
:1027900070BD2460F4E700002DE9F05F8846DDE9B4
:1027A0000B941546834691009A460A9EA522206BFB
:1027B000FDF726FD6FF00301206B01EB8501084456
:1027C00020F00707780707D0502080F31188BFF367
:1027D0004F8FBFF36F8FFEE70025B8F1000F0FD0CA
:1027E0005FF00000221818F8001082F8341018F872
:1027F000001011B1401C1028F4D384F8435001E0BC
:1028000084F83450382E00D33726E662C4E91365C5
:10281000201D00F0CCFF04F1180000F0C8FF246177
:10282000C6F138006462A061656584F8585052466C
:102830005946384600F07CFA2060B9F1000F01D00B
:10284000C9F80040BDE8F09F30B5114900E01146DD
:102850000A688242FBD34B685C18844203D140680B
:1028600018444860084643681C18944209D1084C33
:10287000183C2468A24209D052681A4442600A688F
:1028800012680260814200D0086030BD0460F9E740
:102890002801002070B5002441600B4D0061914279
:1028A00006D8D11A8269914206D2011D286907E033
:1028B0009A4203D2994201D3012403E0011DE86842
:1028C00000F078FF204670BDF800002010B50446E7
:1028D00000F094FFA06B28B15FF0000400F0AEFFA1
:1028E000204610BD0124F9E730B589B03C4D6EE0BB
:1028F0000498002806DADDE90601059A9047049855
:10290000002864DB069C606910B1201D00F091FA7C
:1029100003A800F0D7F8024604980A2857D2DFE847
:1029200000F00505052D334A05052D3394F82800E0
:1029300040F0010084F828000599A069059B014436
:102940002046FFF7A7FF68B3216A2046884794F81E
:10295000280040073BD5002000900598A16900237E
:1029600042181946204601F079FED8B9502080F36C
:102970001188BFF34F8FBFF36F8FFEE714F8280F56
:1029800020F00100207022E094F8280040F00100BF
:1029900084F828000598A06128B1811813462046C4
:1029A000FFF778FF13E0502080F31188BFF34F8FBB
:1029B000BFF36F8FFEE794F82800810703D4204609
:1029C00000F050FF03E020F0010084F8280000220E
:1029D00004A9286801F092FB002889D109B030BD14
:1029E000F80000202DE9FC410F46054601F0E4F80F
:1029F00001A800F067F80446019818B101F09CFDA9
:102A0000BDE8FC81254EAFB130690068D0B3002726
:102A1000291B3A46306800F0D3FF01F08DFD0028F5
:102A2000EED11F494FF080500860BFF34F8FBFF3C6
:102A30006F8FE5E7A542EBD801F07EFDF0682746F1
:102A4000C068C468201D00F0F4F994F8280041071C
:102A500019D5A0692B4641193A462046FFF71AFFBF
:102A6000A8B100200346014600902A46204601F006
:102A7000F5FD60B9502080F31188BFF34F8FBFF38D
:102A80006F8FFEE707E020F0010084F82800216A3C
:102A900020468847B4E70127BAE70000F800002085
:102AA00004ED00E00648416B096829B1416BC96833
:102AB000C9684968816270474FF0FF31FAE700004A
:102AC000BC00002070B5054601F054FC064E0446DB
:102AD000B068844203D200F009F8012000E0002031
:102AE00028602046B46070BDF8000020F8B5194D8C
:102AF00020E0C068C4680668201D00F09AF9216AC9
:102B00002046884794F82800400713D5A069304430
:102B1000B04206D924616060211DE86800F04AFED9
:102B200008E000200346014600903246204601F0AE
:102B300095FD38B1E86801680029DAD12969C5E94D
:102B40000310F8BD502080F31188BFF34F8FBFF3FF
:102B50006F8FFEE7F800002008484068401C4FF0E7
:102B6000500080F3118804D0BFF34F8FBFF36F8FF5
:102B7000FEE7BFF34F8FBFF36F8FFEE730010020FA
:102B8000074CE068016841B1C0680021D0F800003E
:102B9000FFF728FFFFF7A8FEF3E701210020F7E782
:102BA000F80000202DE9F041044600F027FE94F9DA
:102BB000455004F1240609E0606A48B1304601F04E
:102BC00083FC08B100F07AFF6D1E6DB2002DF3DCBE
:102BD0004FF0FF3684F8456000F030FE00F00EFE46
:102BE00094F9445004F1100709E0206948B13846CF
:102BF00001F06AFC08B100F061FF6D1E6DB2002D9E
:102C0000F3DC84F84460BDE8F04100F017BE00003A
:102C10002DE9F0410546002700F0CEFF324E306826
:102C200008B9FFF745FD706905424ED1C5B30835B7
:102C300068070ED005F00700C0F1080005446807DA
:102C400007D0502080F31188BFF34F8FBFF36F8FF1
:102C5000FEE72DB37068854237D823481830014607
:102C60000C6801E020460C466168A94202D2216846
:102C70000029F7D131688C4227D0076821680160AC
:102C800060680837411B10290FD96019420708D026
:102C9000502080F31188BFF34F8FBFF36F8FFEE793
:102CA00013E041606560FFF7CFFD61687068401A0E
:102CB0007060B268904200D2B06070690143002039
:102CC000C4E90001F068401CF06001F035FC7807B1
:102CD00007D0502080F31188BFF34F8FBFF36F8F61
:102CE000FEE73846BDE8F081100100202DE9F041F3
:102CF0000E4E01EB410706EBC70580466C680BE002
:102D0000414620466A69FDF79BFA60B16869044450
:102D10002869A04200D2EC6856F83700A042EFD1F3
:102D20000020BDE8F0812046FBE700008002002083
:102D300010B5031F4FF080741C601B1F21F00101B0
:102D40001960191F024B0B60143940380A6010BD1E
:102D5000592B0008002105E001EB810149003039C1
:102D60001144401C0278A2F13003092BF4D9084623
:102D70007047000000B5254B21F0004287B09A4211
:102D800003DC0022134600922BE0214B9A4208D12B
:102D900040B94FF00100FFF7A9F9FFF788F907B034
:102DA00000BD03DBFFF780F907B000BD02AAFEF704
:102DB0006DFE10F003014FF001000DD0012914D079
:102DC00002291AD00DF1080C9CE80F00FFF722F839
:102DD00007B081F0004100BD0DF1080C00909CE8A7
:102DE0000F00FFF7EBF807B000BD0DF1080C9CE8F1
:102DF0000F00FFF70FF807B000BD0DF1080C0090B1
:102E00009CE80F00FFF7DAF8E2E70000FB21E93F5A
:102E10000000F07F002105E001EB8101490030391D
:102E20001144401C0278A2F13003092BF4D9084662
:102E30007047D0E9013201699A60D0E901235A60F4
:102E40004A68824201D182684A60002202610868B1
:102E5000401E086008687047034B036003F15C0084
:102E6000086080201060704750090020044B036008
:102E700003F15C0008604FF4807010607047000040
:102E8000AC0B002010B517A2044688B007CA05ABEA
:102E900083E8070001208DF8010000200190E06820
:102EA000FFF7B8FF0290E068FFF7B4FF03904CF221
:102EB00050300490A068FFF7ADFFC1B2684600F043
:102EC000B1FB05A8FEF7AEFD09A0FEF7ABFDA068BB
:102ED000FEF7A8FD06A0FEF7A5FDE068FEF7A2FD3F
:102EE00008B010BD4C45445F424C494E4B000000B9
:102EF0002000000010B586B0044601208DF80100C6
:102F000000200190E068FFF785FF02902069FFF73D
:102F100081FF03904CF250300490A068FFF77AFFD5
:102F2000C1B2684600F07EFBA068FFF773FFC0B235
:102F300000F00EFC06B010BD3EB50BA2044607CA59
:102F40008DE80700A068FFF765FFC0B200F0ECFB5A
:102F5000A0680A230C2200788DF80800694605480D
:102F6000FEF7B0FA3EBD00004C45445F4F46465F59
:102F7000300D0A00EC0200203EB50BA2044607CA41
:102F80008DE80700A068FFF745FFC0B200F0D6FB50
:102F9000A0680A230B2200788DF8070069460548CF
:102FA000FEF790FA3EBD00004C45445F4F4E5F3047
:102FB0000D0A0000EC0200201FB50BA304460FCB46
:102FC0008DE80F00A068FFF725FFC0B200F0C0FB3E
:102FD000A0680A230F2200788DF80B006946064886
:102FE000FEF770FA1FBD00004C45445F544F474741
:102FF0004C455F300D0A0000EC0200201CB504486F
:103000000090052001900021684600F05BFA1CBD8D
:1030100034000020044A01EB810102EBC1010DC81C
:103020001C3181E80D0070475C0100200E4A00EB66
:10303000800102EBC1010979072913D2DFE801F011
:103040000406080A0C0E100000F060B800F012B977
:1030500000F0F6B800F058B900F02EB900F07CB9D5
:1030600000F078B8704700005C0100200EB50648FB
:1030700000908014ADF804000520029000216846FD
:10308000FFF7C8FF0EBD0000000C01401FB500EBAC
:103090008001074800EBC100018C009100210191E3
:1030A000029101210391C0696946FDF7C7FB1FBD6D
:1030B0005C0100201FB500EB80010748002200EBF7
:1030C000C100018C00910121CDE901120391C06979
:1030D0006946FDF7B3FB1FBD5C01002000EB8001DA
:1030E0000348012200EBC100018CC069FDF79BBCC5
:1030F0005C01002000EB80010348002200EBC100CE
:10310000018CC069FDF78FBC5C01002010B504463E
:1031100000EB84010D480E4A00EBC101486AB2FB86
:10312000F0F051F8082F521C41F8042982420BD3C9
:1031300000204860012008702046FFF7BBFF2046B2
:10314000BDE81040FFF7D6BF10BD00005C010020B5
:1031500080841E002DE9F041804600EB880137484D
:10316000002500EBC1066421706A341DB1FBF0F745
:10317000B068401CB060F068318C0028F06903D062
:10318000FDF74CFC40B12AE0FDF748FC012826D1B0
:103190006068C4E9015022E06168E160A268012032
:1031A00091420BD9237C04EBD30203F00703517C3B
:1031B000C3F107039840014351740AE0227C04EBF9
:1031C000D20102F007024B7CC2F107029040834318
:1031D0004B746560A560E560207C401C20746068CD
:1031E000B8420AD36560A560E56025742570404645
:1031F000FFF760FF4046FFF771FF207C28281BD3B4
:103200002574607CA17C227D0844E17C1144084443
:10321000617D884207D1607C3070A07C7070E07C5A
:10322000B070207DF07025704046FFF743FF4046A8
:10323000BDE8F041FFF752BFBDE8F0815C0100201E
:103240000B4900EB800201EBC2010F234A6AB3FB7A
:10325000F2F351F8082F521C41F804299A4205D381
:1032600000224A6003220A70FFF710BF7047000077
:103270005C01002010B5044600EB84010D4844F6C3
:10328000206200EBC101486AB2FBF0F051F8082F50
:10329000521C41F8042982420BD3002048600220CE
:1032A00008702046FFF706FF2046BDE81040FFF7F4
:1032B00015BF10BD5C0100202DE9F041064600EB72
:1032C00086011048002700EBC1056421686A2C1DA7
:1032D000B1FBF0F1A868401CA860884207D3676082
:1032E00027703046FFF7E6FE3046FFF7F7FE298CE1
:1032F000E869FDF793FB012802D105206760207083
:10330000BDE8F0815C0100202DE9F041064600EBAC
:1033100086011048002700EBC1056421686A2C1D56
:10332000B1FBF0F1A868401CA860884207D3676031
:1033300027703046FFF7BEFE3046FFF7CFFE298CE0
:10334000E869FDF76BFB002802D10420676020705C
:10335000BDE8F0815C0100202DE9F041064600EB5C
:1033600086011048002700EBC1056421686A2C1D06
:10337000B1FBF0F1A868401CA860884207D36760E1
:1033800027703046FFF796FE3046FFF7A7FE298CE0
:10339000E869FDF743FB002802D106206760207032
:1033A000BDE8F0815C0100202DE9F04F9FB00C4694
:1033B0000546142106A8FCF72AFF18216846FCF7E9
:1033C00026FF00263DA12846FCF750FF0DF1180905
:1033D0000690761CF6B239A10020FCF747FF10B129
:1033E00049F82600F5E73649002504EB440001EBD7
:1033F00080040C2719E000BF05EB8508606807EB27
:103400008801425CB11E8A420ED150F828100698FD
:10341000FCF708FF40B90422616802EB88000958F4
:103420000798FCF7FFFE18B16D1CA068A842E3D80E
:10343000A068A8423FD305EB85060821606801EB30
:10344000860141580EA8FCF708FF00251BA10EA815
:10345000FCF70CFFE84600906D1CEDB217A10020B0
:10346000FCF704FF10B148F82500F5E7002507EB4D
:10347000860715E009EB85008068FFF76BFC824644
:1034800058F83500FFF766FC834608EBC500406836
:10349000FFF760FC0246DA450DD392450BD86D1C50
:1034A0006068C05DA842E5D81021606801EB860124
:1034B000415806A888471FB0BDE8F08F5F000000A4
:1034C00098020020044A01EB410102EB8101D0E99E
:1034D0000020C1E9012070479802002010B50E4974
:1034E000C0EBC00201EB8204D4E90112914202D286
:1034F00000F024F905E0E3681A448A4201D300F0A1
:1035000013F96068401C6060D4E9021211448142E2
:1035100001D80020606010BD840100202DE9F05F1B
:103520000446FFF7DBFF2748C4EBC40100EB81042E
:10353000D4E9020147182069B0FBF7FB6068002856
:103540003ED15846FCF795FF1F4D89460646C846B2
:103550002868FCF78EFF1D4A1D4BFCF7A9FE434669
:103560003246FCF717FFFFF705FC8A4649468046BE
:10357000B1460E462868FCF77CFF144A144BFCF752
:1035800097FE4A463346FCF705FFFFF7F3FB064676
:1035900089463846FCF76DFF32464B46FCF788FEFD
:1035A00042465346FCF784FEFCF770FFA060381AD1
:1035B000E0602868401C2860584501D3002028603E
:1035C000BDE8F09F840100209800002038E92F54C6
:1035D000FB210940044AC1EBC10102EB8101D0E9A2
:1035E0000020C1E9052070478401002010B5044681
:1035F000FFF774FF0A49C4EBC40001EB8000407878
:10360000012806D0022809D12046BDE81040FFF766
:1036100085BF2046BDE81040FFF760BF10BD000029
:10362000840100200A460146C2EBC200024A02EBB6
:1036300080001422FCF7D2BD8401002070B588B050
:10364000022500248DF809506420CDE9034005903F
:1036500042F210700690214602A8FFF7E3FF2F48C0
:1036600000908DF806404014ADF804000021684633
:10367000FFF7B0FF2A4E8DF806400096ADF80450D3
:1036800001216846FFF7A6FF8DF806400120ADF83E
:103690000400009602216846FFF79CFF8DF8064063
:1036A0000420204DADF80400009503216846FFF783
:1036B00091FF8DF806400820ADF804000095042124
:1036C0006846FFF787FF8DF806401020ADF804002C
:1036D000009505216846FFF77DFF8DF80640202004
:1036E000ADF80400009506216846FFF773FF8DF8DA
:1036F00006404020ADF80400009507216846FFF71A
:1037000069FF8DF806408020ADF80400009508217F
:103710006846FFF75FFF08B070BD00000010014071
:10372000000C014000080140034BC0EBC002002127
:1037300003F8221000F01CB884010020034BC0EBFA
:10374000C002012103F8221000F012B88401002009
:103750000649C0EBC00211F822302BB15FF0000324
:1037600001F8223000F004B80123F9E784010020B9
:103770000849C0EBC00201EB820011F82210837EE1
:103780008B4201D1012200E00022018B4069FDF74C
:103790004AB900008401002000F108014FF0FF3217
:1037A000C0E90112C1600161002101607047002180
:1037B0000161704730B50B685A1C02D000F1080255
:1037C00002E0026904E02246546825689D42FAD965
:1037D00053684B6099608A60516008610168491CB8
:1037E000016030BD42684A6093688B60936859609D
:1037F000916008610168491C01607047502080F3A6
:103800001188BFF34F8FBFF36F8F0A494868401C80
:10381000486001280CD10848006810F0FF0F07D05D
:10382000502080F31188BFF34F8FBFF36F8FFEE7F7
:10383000704700003001002004ED00E008494868AE
:1038400028B1401E486001D180F311887047502094
:1038500080F31188BFF34F8FBFF36F8FFEE7000037
:103860003001002070B500282AD0164DA0F10804C0
:1038700060686969084207D1502080F31188BFF35E
:103880004F8FBFF36F8FFEE722683AB1502080F36D
:103890001188BFF34F8FBFF36F8FFEE788436060DF
:1038A00000F08AF960686968084468602046FEF79D
:1038B000CBFF2869401C2861BDE8704000F03CBE89
:1038C00070BD0000100100204FF0E02000210161D8
:1038D000816105494FF47A720968B1FBF2F1491E22
:1038E0004161072101617047B800002010B5FCF765
:1038F0004FFC114910280ED300F1E02090F8F0039E
:103900000A78904207D2502080F31188BFF34F8F7E
:10391000BFF36F8FFEE709480068896800F4E06034
:10392000884207D9502080F31188BFF34F8FBFF32F
:103930006F8FFEE710BD0000300100200CED00E0AD
:1039400010B5084B002200BF53F832401CB1521C86
:10395000082AF9D310BD43F8321003EBC2014860C6
:1039600010BD00003403002010B504000AD000F0A0
:1039700013F894F8460000280CD12046BDE810400A
:10398000FFF770BF502080F31188BFF34F8FBFF354
:103990006F8FFEE710BD0000084A002102EBC10353
:1039A0005B68834206D1002042F8310002EBC1017E
:1039B00048607047491C0829F0D370473403002041
:1039C00070B515460E460446FFF718FF94F94410EB
:1039D0000020491C01D184F8440094F94510491C89
:1039E00001D184F84500FFF729FFA06B28B92A46CA
:1039F000314604F1240000F07FF82046BDE8704015
:103A0000FFF7D0B830B5084CD0E9002501EB4103F1
:103A100004EBC3018068CA60C1E904500020087249
:103A20004A6044F8332030BD800200200EB50548BE
:103A30000090133001900120029000216846FFF7AA
:103A4000E1FF0EBD4801002070B58AB00A208DF854
:103A50002000002108A8FFF749F9050019D000242B
:103A60006E4603E0FEF766FB641CE4B20020FEF73E
:103A700059FB40684FF00001A84206EB0400F1D169
:103A8000FEF758FB641CE0B2002131546846FFF792
:103A90008BFC00242046FFF7A9FD641CE4B2082C2F
:103AA000F8D30020FCF7B8FE0AB070BD02490A6ADC
:103AB0000260C96841607047BC00002001490120D4
:103AC000C8617047BC00002010B50C4650B10949D0
:103AD00009681831FFF76EFE2046BDE8104001214D
:103AE000FEF7C0BC502080F31188BFF34F8FBFF3A7
:103AF0006F8FFEE7BC00002070B514460D4668B11C
:103B00000A4909681831FFF76DFE0CB14FF0FF3517
:103B100021462846BDE87040FEF7A4BC502080F343
:103B20001188BFF34F8FBFF36F8FFEE7BC000020FB
:103B300030B587B00024039405AA04A903A804940F
:103B4000FFF78AF9DDE903010094CDE901100023B4
:103B500015A11748059A00F0D4FB164D0028E8621D
:103B60001FD000F04BFD012809D0401C19D1502076
:103B700080F31188BFF34F8FBFF36F8FFEE75020A4
:103B800080F31188BFF34F8FBFF36F8F4FF0FF307B
:103B9000A86201206861EC6007B0BDE8304000F029
:103BA00045B807B030BD000049444C450000000056
:103BB000FD260008BC0000200248016B491C01637F
:103BC00070470000BC000020164810B5016B11B111
:103BD0000121C16110BD0021C1610169124A01E0EA
:103BE000B9B1491E01EB810352F82330002BF7D005
:103BF00001EB810302EB830202F1080453685B6866
:103C00005360A34201D15B685360DA6802600161CE
:103C100010BD502080F31188BFF34F8FBFF36F8F1B
:103C2000FEE70000BC000020740300201CB52649FC
:103C300008780190FF20087008788DF800009DF842
:103C400000009DF8002000F0F000904207D05020C6
:103C500080F31188BFF34F8FBFF36F8FFEE79DF89E
:103C600000001A4C00F0500020700720A06005E012
:103C70009DF8002052008DF80020401E9DF8002085
:103C80001206F5D4A060032807D0502080F31188D5
:103C9000BFF34F8FBFF36F8FFEE74FF44070A0600C
:103CA000019808700A48016841F4700101600168D8
:103CB00041F070410160FFF707FE00206060FCF7F3
:103CC00031FA00201CBD000000E400E030010020BB
:103CD00020ED00E010B5502080F31188BFF34F8F26
:103CE000BFF36F8F00F04CFB18B104494FF08050C8
:103CF0000860002080F3118810BD000004ED00E092
:103D000010B50C4648B184420FD9502080F3118879
:103D1000BFF34F8FBFF36F8FFEE7502080F3118802
:103D2000BFF34F8FBFF36F8FFEE70222002100F039
:103D30003CF8002800D0846310BD38B50C4648B16B
:103D400084420FD9502080F31188BFF34F8FBFF307
:103D50006F8FFEE7502080F31188BFF34F8FBFF3C2
:103D60006F8FFEE70221134600220091114600F0FA
:103D70003DF8002800D0846338BD10B5024600210C
:103D8000012000F012F80446FEF7E8FC204610BDC2
:103D900038B50B46002200901146012000F026F8AD
:103DA0000446FEF7DBFC204638BDF8B517460E4644
:103DB000050013D005FB06F05030FEF729FF040084
:103DC0000AD0002084F8460004F150023B463146F8
:103DD00028460094FEF7CEFC2046F8BD502080F324
:103DE0001188BFF34F8FBFF36F8FFEE738B5049D87
:103DF00018B153B1CAB181B120E0502080F31188CD
:103E0000BFF34F8FBFF36F8FFEE7502080F3118811
:103E1000BFF34F8FBFF36F8FFEE7502080F3118801
:103E2000BFF34F8FBFF36F8FFEE739B1502080F3A0
:103E30001188BFF34F8FBFF36F8FFEE750241C46EE
:103E4000012384F846302B460094FEF793FC20466D
:103E500038BD000070B50D46040025D0FFF7CEFC3C
:103E6000D4E90F20216802FB0011A1600021A163A9
:103E7000216861600A46D4E90F01401E00FB012160
:103E8000E16021464FF0FF3001F8440F487004F123
:103E900010008DB1FFF780FC04F12400FFF77CFCDB
:103EA000FFF7CCFC012070BD502080F31188BFF3D8
:103EB0004F8FBFF36F8FFEE721690029F0D000F02C
:103EC00003FB0028ECD004494FF080500860BFF39A
:103ED0004F8FBFF36F8FE3E704ED00E02DE9FF475D
:103EE00082B01D468A464FF00008040003D0BAF1A4
:103EF000000F08D011E0502080F31188BFF34F8FDE
:103F0000BFF36F8FFEE7206C38B1502080F311882B
:103F1000BFF34F8FBFF36F8FFEE7022D0AD1E06B27
:103F2000012807D0502080F31188BFF34F8FBFF3D3
:103F30006F8FFEE700F010FA3F4F4FF000094FF08F
:103F4000805648B9049838B1502080F31188BFF3E7
:103F50004F8FBFF36F8FFEE7FFF750FCA06BE16B55
:103F6000884207D3022D05D00498D0B1B8F1000FD4
:103F70001AD01EE02A4651462046FEF748FB616AE9
:103F800019B104F1240000F09FFA20B13E60BFF3A4
:103F90004F8FBFF36F8FFFF751FC012006B0BDE8D4
:103FA000F087FFF74BFC22E06846FFF77FFD4FF0FC
:103FB0000108FFF743FCFFF7FFFDFFF71FFC94F933
:103FC0004400401C01D184F8449094F94500401C01
:103FD00001D184F84590FFF731FC04A9684600F050
:103FE00029F930B12046FEF7DDFD00F0A5FA0020EA
:103FF000D4E7FFF703FCA06BE16B884213D1FFF716
:104000001DFC04F110000499FFF75EFD2046FEF749
:10401000C9FD00F091FA00289ED13E60BFF34F8F9A
:10402000BFF36F8F98E7FFF709FC2046FEF7BAFD54
:1040300000F082FA90E7000004ED00E02DE9F0477F
:104040001F4690468946040003D0B9F1000F08D0FE
:1040500011E0502080F31188BFF34F8FBFF36F8FB3
:10406000FEE7206C38B1502080F31188BFF34F8FEA
:10407000BFF36F8FFEE7022F0AD1E06B012807D054
:10408000502080F31188BFF34F8FBFF36F8FFEE78F
:10409000FFF72CFC5020EFF3118680F31188BFF35B
:1040A0004F8FBFF36F8FA06BE16B884206D3022F57
:1040B00004D0002086F31188BDE8F08794F94550BC
:1040C000A06B3A4649462046FEF7A1FA681C04D088
:1040D0006D1C84F845500120ECE7606A0028FAD096
:1040E00004F1240000F0F0F90028F4D0B8F1000F3A
:1040F000F1D00121C8F80010EDE700002DE9F747E5
:10410000002683B08A46040003D0BAF1000F08D01D
:1041100011E0502080F31188BFF34F8FBFF36F8FF2
:10412000FEE7206C38B1502080F31188BFF34F8F29
:10413000BFF36F8FFEE700F00FF9DFF8F4804FF068
:1041400000094FF0805748B9059838B1502080F3E6
:104150001188BFF34F8FBFF36F8FFEE7FFF74EFB62
:10416000A56BC5B151462046FEF73EFA6D1EA5630C
:10417000206950B104F1100000F0A6F928B1C8F888
:104180000070BFF34F8FBFF36F8FFFF757FB012016
:1041900006B0BDE8F087059808B11EB106E0FFF74C
:1041A0004DFB27E06846FFF781FC0126FFF746FB41
:1041B000FFF702FDFFF722FB94F94400401C01D1F8
:1041C00084F8449094F94500401C01D184F845904E
:1041D000FFF734FB05A9684600F02CF800282046BC
:1041E0000AD0FEF7DFFC00F0A7F92046FEF76EFBD1
:1041F0000028B3D00020CBE7FEF768FB90B104F1B4
:1042000024000599FFF760FC2046FEF7CBFC00F088
:1042100093F90028A2D1C8F80070BFF34F8FBFF305
:104220006F8F9BE72046FEF7BDFC00F085F995E710
:1042300004ED00E02DE9F0410C46050011D0C4B1B9
:10424000FFF7DCFA174BDA686E682068911B471C91
:1042500017D02F681B6A9F4219D0964217D80124A5
:1042600010E0502080F31188BFF34F8FBFF36F8FA2
:10427000FEE7502080F31188BFF34F8FBFF36F8F9D
:10428000FEE70024FFF7DAFA2046BDE8F081884215
:1042900005D9401A20602846FFF708FCF1E7002006
:1042A0002060DCE7BC0000202DE9FF5F8346DDE9EC
:1042B0000E87994616468A469000FEF7A9FC05002F
:1042C0001CD05C20FEF7A4FC040014D00020256361
:1042D00084F85900CDE90240CDE900874B463246CB
:1042E00051465846FEF758FA2046FEF7E9F80120F5
:1042F00004B0BDE8F09F2846FFF7B4FA4FF0FF3056
:10430000F6E7F0B585B0DDE90B640A9DA6B1DCB136
:104310005C2700972663022684F85960002604AFC4
:10432000CDE90246CDE90057FEF736FA2046FEF702
:10433000C7F8049805B0F0BD502080F31188BFF392
:104340004F8FBFF36F8FFEE7502080F31188BFF3CC
:104350004F8FBFF36F8FFEE70548416919B1006BBE
:1043600018B10020704701207047022070470000FC
:10437000BC0000200148C06870470000BC0000205D
:104380002DE9F0412E4C0027206B28B1A069401C7C
:10439000A0613846BDE8F081E668761CE66013D17E
:1043A000606B006838B1502080F31188BFF34F8FE5
:1043B000BFF36F8FFEE7606BA16B6163A063206A40
:1043C000401C2062FEF76EFBA06ADFF87880864210
:1043D00009D3606B0068A0B1606BC068C56868688D
:1043E000864211D2A0622068C06A00EB800158F8B2
:1043F0002100012800D90127E0690028C9D0012740
:10440000C7E74FF0FF30EDE7281DFEF712FDA86A61
:1044100018B105F11800FEF70CFDE86A2169884221
:1044200000D9206100EB800108EB8100291DFFF716
:10443000D9F9E86A2168C96A8842CAD30127C8E75E
:10444000BC0000207403002070B504004FF0000190
:1044500033D01B4D2868844207D0502080F3118848
:10446000BFF34F8FBFF36F8FFEE7206D38B1401E53
:104470002065E36CE26A9A421FD040B11DE05020F3
:1044800080F31188BFF34F8FBFF36F8FFEE7201DBE
:10449000FEF7CFFCE06CE062C0F13800A061E06A9A
:1044A0002969884200D92861064900EB800001EBA8
:1044B0008000211DFFF796F90121084670BD00001C
:1044C000BC0000207403002070B5C068C46854B1FB
:1044D00004F118000646FEF7ACFC144D286B50B1F1
:1044E0003146134815E0502080F31188BFF34F8FF9
:1044F000BFF36F8FFEE7201DFEF79BFCE06A296982
:10450000884200D928610B4900EB800001EB800054
:10451000211DFFF767F9E06A2968C96A884202D954
:104520000120E86170BD002070BD0000BC000020CB
:10453000FC070020740300202DE9F0472C4D0024D7
:104540002746286B38B1FFF759F9286B401E2863BE
:10455000286B40B146E0502080F31188BFF34F8FA5
:10456000BFF36F8FFEE7A968224E0120D1B3A6F5F5
:10457000916980463068E0B1F068C46804F11800C1
:10458000FEF757FC201DFEF754FCE06A29698842BB
:1045900000D9286100EB800109EB8100211DFFF7A4
:1045A00021F9E06A2968C96A8842E3D3C5F81C800A
:1045B000E0E70CB1FEF776FAAC694CB14FEA0806B9
:1045C000FFF7DEFE00B1EE61641EF9D10020A861A4
:1045D000E86938B10849012738070860BFF34F8FF1
:1045E000BFF36F8FFFF72AF93846BDE8F087000068
:1045F000BC000020FC07002004ED00E010B586B0F0
:10460000FDF7C6FF114C2068B8B10020039004905C
:1046100005AA04A903A8FEF729FCDDE9032102206D
:104620008DE8070000230AA10B48059AFFF769FEF1
:10463000606010B106B0012010BD502080F31188D9
:10464000BFF34F8FBFF36F8FFEE70000F80000202D
:10465000546D722053766300812B00082DE9FF41D1
:104660001E46134602000A9D4FF0000016D0144C5F
:104670002768002F0FD0CDE900130292062917DA20
:10468000FFF76AFE02284FF000030FD000226946B0
:104690002068FFF723FC04B0BDE8F081502080F3D0
:1046A0001188BFF34F8FBFF36F8FFEE72A46EEE707
:1046B0000023324669463846FFF7C0FCEBE70000AE
:1046C000F8000020944800080000000000000000EE
:1046D00000000000000000000002000008000000D0
:1046E00000000000000000008848000800000000F2
:1046F00000000000000000007848000800000000F2
:1047000000000000000000006848000800000000F1
:10471000000000000000000001020203040506077B
:1047200008090A0B0C0D0E0F10100000000000000D
:10473000000001020304060708090000000001024E
:1047400003040000000000004C5555555555A53F89
:104750007751C1166CC156BF9015CB19A001FA3E16
:10476000AD529C804F7E92BEC4B1B4BD9EEE213E40
:10477000D43888BEE9FAA8BD00004054FB21F93FB7
:104780003163621A61B4D03D0000601A61B4D03D5B
:104790007370032E8A19A33B0000002E8A19A33BD5
:1047A000C14920259A837B390000000000000000E9
:1047B0006E83F9A22915444ED15727FCC0DD34F58C
:1047C000999562DB4190433CAB6351FE61C5BBDE12
:1047D0003A6E24B7E0D24D42EA2E49061C92D10926
:1047E0001CEB1DFE3EA729B1F53582E88444BB2EA3
:1047F00026709CE9417E5FB439D69139F4395383F0
:104800008B5F849C3B28F9BDFF97F81F0F9805DE4E
:104810008B112FEF1F6D0A5ACF7E366DB709CB274C
:10482000663F464F2DEA5F9EC7BA27757BF1E5EBE1
:10483000F739073DEA92528AB15FFB6B085D8D1F25
:10484000A6F810111111813FD561C119A0012ABF2D
:104850007DFEB157E31DC73EEB9C2B8AE6E55ABEB1
:104860007CD5CF5A3AD9E53D6D79436F756E746941
:104870006E6753656D3031006D7942696E61727992
:1048800053656D30310000006D794D757465783079
:104890003100000064656661756C745461736B006F
:1048A000C04800080000002048010000BC070008C4
:1048B0002449000848010020C0220000DC20000834
:1048C000144C4544134F4E144F464617544F474718
:1048D0004C4516424C494E4B1D305F385F011D312F
:1048E0005F313001290B2C325F320B611B20040435
:1048F0001A1804320113792F2A08149A07145A3906
:10490000149A0B145AB9145A12143202CB852E146D
:1049100032034AF5140111294482100379127A1ADC
:04492000AA010110D7
:04000005080000ED02
:00000001FF
