:020000040800F2
:100000008022002099010008F10E0008C90D0008A7
:10001000ED0E000829020008A10F000800000000F2
:1000200000000000000000000000000001010008C6
:100030002D0200080000000045010008250F0008FF
:10004000B3010008B3010008B3010008B3010008C0
:10005000B3010008B3010008B3010008B3010008B0
:10006000B3010008B3010008B3010008B3010008A0
:10007000B3010008B3010008B3010008B301000890
:10008000B3010008B3010008B3010008B301000880
:10009000B3010008B3010008B3010008B301000870
:1000A000B3010008B3010008B3010008B301000860
:1000B000B3010008B3010008B3010008B301000850
:1000C000B3010008B3010008B3010008B301000840
:1000D000B3010008B3010008B3010008B301000830
:1000E000B3010008B3010008B3010008DFF80CD029
:1000F00000F088F800480047011000088022002026
:10010000224B19680868B0E8F00F80F30988BFF344
:100110006F8F4FF0000080F311884EF00D0E704786
:100120000000000006480068006880F3088862B696
:1001300061B6BFF34F8FBFF36F8F00DF00BF00BF0B
:1001400008ED00E0EFF30980BFF36F8F0F4B1A68E3
:1001500020E9F00F106008B54FF0500080F31188CF
:10016000BFF34F8FBFF36F8F02F0C8FB4FF000005B
:1001700080F31188BDE8084019680868B0E8F00FFE
:1001800080F30988BFF36F8F704700BF2000002005
:10019000EFF3058070470000064880470648004797
:1001A000FEE7FEE7FEE7FEE7FEE7FEE7FEE7FEE727
:1001B000FEE7FEE79F0F0008ED00000840EA01039C
:1001C0009B0703D009E008C9121F08C0042AFAD20D
:1001D00003E011F8013B00F8013B521EF9D27047D1
:1001E000D2B201E000F8012B491EFBD27047002279
:1001F000F6E710B513460A4604461946FFF7F0FF26
:10020000204610BD064C074D06E0E06840F00103B3
:1002100094E8070098471034AC42F6D3FFF76AFF22
:10022000B4380008D438000800BFFEE7704772B643
:1002300000BFFEE770B5044600F0AEF9064625465D
:10024000681C10B104480078054400BF00F0A4F910
:10025000801BA842FAD370BD180000202DE9F84792
:100260000346002294466EE14FF0010808FA02F4BA
:10027000D1F8008008EA0400A0427DD1DFF8DCA2BA
:10028000D1F80480A8EB0A09D0453AD014DCB8F1C3
:10029000030F50D009DCB8F1000F31D0B8F1010FD5
:1002A0001CD0B8F1020F49D120E0B8F1110F18D0DD
:1002B000B8F1120F42D11EE0B9F5881F25D006DC37
:1002C000B9F5803F20D0B9F5801F37D11AE0B9F5D4
:1002D000001F18D0B9F5041F30D117E0D1F80CC0B9
:1002E0002DE0D1F80C8008F1040C28E0D1F80C8046
:1002F00008F1080C23E0D1F80C8008F10C0C1EE08A
:1003000000BF00BF00BF00BF00BF00BFD1F8088022
:10031000B8F1000F02D14FF0040C0BE0D1F80880C7
:10032000B8F1010F03D14FF0080C1C6102E04FF04F
:10033000080C5C6103E04FF0000C00E000BF00BF60
:10034000FF2801D8984601E003F104084646FF283B
:1003500002D84FEA820803E0A2F108084FEA8808B1
:100360004746D6F800804FF00F0909FA07F928EA46
:1003700009080CFA07F900E088E048EA0908C6F81D
:100380000080D1F8048008F08058B8F1805F7DD1FA
:1003900000BFDFF8CC81D8F8188048F00108DFF8FA
:1003A000C091C9F81880C846D8F8188008F001082C
:1003B000CDF8008000BF00BF4FEAB9384FEA92097C
:1003C00058F829504FEA82784FEA18794FF00F0811
:1003D00008FA09F825EA0805DFF88881434502D1C3
:1003E0004FF0000816E0DFF88081434502D14FF05E
:1003F00001080FE0DFF87481434502D14FF0020895
:1004000008E0DFF86C81434502D14FF0030801E0BA
:100410004FF004084FEA82794FEA197908FA09F88F
:1004200048EA0505DFF84C814FEA920948F829505F
:10043000D1F8048008F48018B8F5801F0AD1DFF8DD
:100440003881D8F8008048EA0008DFF82C91C9F814
:10045000008009E0DFF82081D8F8008028EA000851
:10046000DFF81491C9F80080D1F8048008F400186E
:10047000B8F5001F10D1DFF8008108F10408D8F8A2
:10048000008048EA0008DFF8F09000E05AE009F147
:100490000409C9F800800DE0DFF8DC8008F10408E9
:1004A000D8F8008028EA0008DFF8CC9009F10409A8
:1004B000C9F80080D1F8048008F40038B8F5003F8E
:1004C0000ED1DFF8B480A8F10408D8F8008048EA1B
:1004D0000008DFF8A490A9F10409C9F800800DE034
:1004E000DFF89480A8F10408D8F8008028EA000812
:1004F000DFF88490A9F10409C9F80080D1F80480DC
:1005000008F48038B8F5803F0ED1DFF86C80A8F190
:100510000808D8F8008048EA0008DFF85C90A9F1E4
:100520000809C9F800800DE0DFF84C80A8F1080840
:10053000D8F8008028EA0008DFF83C90A9F1080903
:10054000C9F80080521CD1F8008028FA02F8B8F1EE
:10055000000F7FF489AEBDE8F8870000000011109D
:100560000010024000080140000C01400010014052
:10057000001401400800014008040140024693684D
:100580000B400BB1012000E0002070470AB101616F
:1005900001E00B04036170470148006870470000E8
:1005A0001000002003480068034909780844014905
:1005B00008607047100000201800002010B508489F
:1005C000006840F0100006490860032000F09EF823
:1005D0000F2000F007F800F02BF8002010BD0000FD
:1005E0000020024070B504460E4800784FF47A713E
:1005F000B1FBF0F00C490968B1FBF0F5284600F0BA
:10060000C9FB08B1012070BD102C07D20022214681
:10061000501E00F03DF80548046001E00120F2E7BB
:100620000020F0E7180000201C000020140000202B
:1006300008B500BF1448806940F001001249886184
:100640000846806900F00100009000BF00BF00BFB5
:100650000846C06940F08050C8610846C06900F093
:100660008050009000BF00BF00220F21901E00F0BC
:100670000FF800BF0549486820F0E06040F00070C6
:10068000486000BF08BD00000010024000000140AB
:100690002DE9F05F80460D461646002700F082FCEB
:1006A000074639462A46334601F00700C0F1070ADB
:1006B000BAF1040F02D94FF0040A01E0C0F1070AB1
:1006C000D14600F1040ABAF1070F02D24FF0000A36
:1006D00001E0A0F1030AD4464FF0010A0AFA09FA30
:1006E000AAF1010A0AEA020A0AFA0CFA4FF0010B0F
:1006F0000BFA0CFBABF1010B0BEA030B4AEA0B0400
:100700002146404600F056FCBDE8F09F00BF00F0D7
:100710000702064B19684FF6FF031940044B0B43C1
:1007200043EA0221014B196000BF70470CED00E065
:100730000000FA0570B504460D460CB9012070BDE5
:100740005A48006800F00700A8420ED257480068D7
:1007500020F007002843554908600846006800F06B
:100760000700A84201D00120E9E7207800F002004C
:1007700002281DD1207800F00400042805D14C483F
:10078000406840F4E0604A494860207800F0080082
:10079000082805D14648406840F460504449486004
:1007A0004348406820F0F000A16808434049486091
:1007B000207800F0010078B36068012806D13C4839
:1007C000006800F4003090B90120B8E760680228A2
:1007D00006D13748006800F0007040B90120AEE74C
:1007E0003348006800F0020008B90120A7E730484C
:1007F000406820F00300616808432D494860FFF716
:10080000CBFE064609E0FFF7C7FE801B41F28831A8
:10081000884202D9032092E707E02548406800F0AB
:100820000C006168B0EB810FEDD12048006800F04A
:100830000700A8420ED91D48006820F00700284391
:100840001A4908600846006800F00700A84201D075
:10085000012074E7207800F00400042807D1144830
:10086000406820F4E060E16808431149486020785E
:1008700000F00800082808D10D48406820F46050B6
:10088000216940EAC1000A49486000F019F80849A6
:100890004968C1F30311074A515CC8400649086022
:1008A00006480068FFF79EFE002048E7002002404F
:1008B00000100240623800081C00002014000020D4
:1008C00070B500210022002400230020134D696828
:1008D00001F00C05F5B1042D02D0082D19D101E06D
:1008E0000F4819E00F4DC1F38346AB5D01F480352D
:1008F00055B10A4D6D68C5F340450B4E725D084D0C
:100900005D43B5FBF2F402E0084D03FB05F420461D
:1009100002E000BF024800BF00BF70BD00100240EF
:1009200000127A00503800086038000800093D00C5
:10093000F8B504460CB90120F8BD207800F001009C
:10094000002878D0F848406800F00C0004280CD04B
:10095000F548406800F00C00082811D1F2484068C2
:1009600000F48030B0F5803F0AD1EF48006800F411
:10097000003000285FD0606800285CD10120DBE7F0
:1009800000BF6068B0F5803F06D1E748006840F4DA
:100990008030E549086028E0606858B9E24800689E
:1009A00020F48030E04908600846006820F4802088
:1009B00008601AE06068B0F5A02F0BD1DA48006833
:1009C00040F48020D84908600846006840F4803030
:1009D00008600AE0D448006820F48030D2490860FA
:1009E0000846006820F48020086000BF606888B175
:1009F000FFF7D2FD054606E0FFF7CEFD401B642859
:100A000001D9032098E7C848006800F400300028A6
:100A1000F2D010E0FFF7C0FD054606E0FFF7BCFD91
:100A2000401B642801D9032086E7BF48006800F412
:100A300000300028F2D1207800F00200022857D1BF
:100A4000B948406800F00C0050B1B748406800F069
:100A50000C00082818D1B448406800F4803098B9D8
:100A6000B148006800F0020020B12069012801D0DF
:100A7000012061E7AC48006820F0F800616940EAB5
:100A8000C100A949086033E02069E8B10120A74905
:100A90000860FFF781FD054606E0FFF77DFD401B7E
:100AA000022801D9032047E79F48006800F00200B0
:100AB0000028F2D09C48006820F0F800616940EA04
:100AC000C1009949086013E0002098490860FFF7C9
:100AD00063FD054606E0FFF75FFD401B022801D9D4
:100AE000032029E79048006800F002000028F2D1B6
:100AF000207800F0080008282DD1A069B8B10120A5
:100B00008B490860FFF748FD054606E0FFF744FD06
:100B1000401B022801D903200EE78348406A00F0F9
:100B200002000028F2D0012000F0E4F913E00020D8
:100B30007F490860FFF730FD054606E0FFF72CFD12
:100B4000401B022801D90320F6E67748406A00F0EE
:100B500002000028F2D1207800F00400042873D1AC
:100B600000277148C06900F0805070B900BF6E481E
:100B7000C06940F080506C49C8610846C06900F007
:100B80008050009000BF00BF01276A48006800F451
:100B90008070B0B96748006840F4807065490860AB
:100BA000FFF7FAFC054606E0FFF7F6FC401B642859
:100BB00001D90320C0E65F48006800F48070002877
:100BC000F2D000BFE068012806D15748006A40F023
:100BD00001005549086227E0E06858B95248006AA8
:100BE00020F00100504908620846006A20F0040025
:100BF000086219E0E06805280BD14B48006A40F014
:100C00000400494908620846006A40F00100086291
:100C10000AE04548006A20F001004349086208469E
:100C2000006A20F00400086200BFE068A0B1FFF78E
:100C3000B3FC054609E0FFF7AFFC401B41F28831E9
:100C4000884202D9032077E622E03748006A00F0A4
:100C500002000028EFD012E0FFF79EFC054608E0F6
:100C6000FFF79AFC401B41F28831884201D90320EA
:100C700062E62D48006A00F002000028F0D1012F42
:100C800005D12948C06920F080502749C86100BFBC
:100C9000E069C8B32448406800F00C00082860D020
:100CA000E069022848D1002020490866FFF774FC5B
:100CB000054606E0FFF770FC401B022801D903201F
:100CC0003AE61948006800F000700028F2D1206A66
:100CD000B0F5803F07D11448406820F40030A16887
:100CE000084311494860D4E9080108430E4949689E
:100CF00021F4741108430C49486001200B4908662F
:100D0000FFF74AFC054607E03DE0FFF745FC401BC6
:100D1000022801D903200FE60348006800F00070A4
:100D20000028F2D02FE000000010024000004242F4
:100D30008004424200700040002014490866FFF71A
:100D40002BFC054606E0FFF727FC401B022801D9D3
:100D50000320F1E50E48006800F000700028F2D191
:100D600011E0E069012800D1E6E50948466806F48B
:100D70008031206A814204D106F47011606A814298
:100D800001D00120D8E50020D6E500000000424255
:100D90000010024070B504462546681EB0F1807F01
:100DA00001D301200FE0681E4FF0E02148610F21C0
:100DB0004FF0FF3000F0FEF800204FF0E021886196
:100DC00007200861002070BD00BFFEE700B585B0B8
:100DD0000020019002900390049000BF3F4880697A
:100DE00040F010003D4988610846806900F010001D
:100DF000009000BF00BF00BF0846806940F020009F
:100E000088610846806900F02000009000BF00BFA4
:100E100000BF0846806940F0040088610846806988
:100E200000F00400009000BF00BF00BF08468069CA
:100E300040F0080088610846806900F008000090D2
:100E400000BF00BF00224FF400512548FFF79EFB72
:100E50000122FC212348FFF799FB012203212248AC
:100E6000FFF794FB4FF40050019001200290002006
:100E700003900220049001A91948FFF7EFF94FF4FD
:100E800040400190002002900120039001A91448E5
:100E9000FFF7E4F903200190002002900120039065
:100EA00001A91048FFF7DAF9FC2001900120029017
:100EB000002003900220049001A90A48FFF7CEF910
:100EC0000320019001200290002003900220049052
:100ED00001A90548FFF7C2F905B000BD00100240A6
:100EE0000010014000080140000C014000BFFEE777
:100EF00000BFFEE708B508490968C9084FF47A72CF
:100F0000B1FBF2F14143009100BF00BF00994A1EBE
:100F100000920029F9D108BD1C00002000BF01F09B
:100F20002EFCFCE710B5FFF73DFB02F011FA01289B
:100F300001D001F0A7FD10BD00B58FB0282105A894
:100F4000FFF755F914216846FFF751F90120059084
:100F500000040690002007900120099002200C90C8
:100F6000C1030D914FF4E0110E9105A8FFF7E0FCCD
:100F700008B1FFF75CF90F200090022001900020DB
:100F800002904FF480600390002004900221684694
:100F9000FFF7D0FB08B1FFF74AF90FB000BD70476B
:100FA00000BFFEE702480068C0F30220704700005F
:100FB0000CED00E010B5002804DB0A07130E054A0B
:100FC000135406E00A07140E034A00F00F031B1F18
:100FD000D45410BD00E400E018ED00E0EFF305800C
:100FE000704702E008C8121F08C1002AFAD17047F2
:100FF0007047002001E001C1121F002AFBD1704799
:10100000FFF7DCFA01F076F901F0CEF8FFF794FF74
:10101000FFF7DCFE00F030F80E4800F073F80E49E0
:1010200008600E4A0121084600F0C5F80C49086026
:101030000C4A0021042000F0BEF80B4908600B4A5E
:1010400000210B4800F01DF90A49086000F02AF859
:1010500000BFFEE7203800080400002030380008F8
:1010600008000020403800080C000020FC37000871
:101070001D0F00080000002010B5FFF7AFFF10B1F2
:101080006FF0050409E00648006820B90120044912
:101090000860002401E04FF0FF34204610BD00003E
:1010A0007000002070B5FFF799FF10B16FF00504D4
:1010B0001FE011480068012819D100BF801F0021DE
:1010C000002804DB0A07130E0C4A135406E00A0733
:1010D000150E0B4A00F00F031B1FD55400BF00BFB5
:1010E00002200549086001F0A5FB002401E04FF053
:1010F000FF34204670BD00007000002000E400E0D6
:1011000018ED00E02DE9F04704460026FFF766FFE2
:1011100000284DD10CB1676800E0002707F00100FE
:1011200008B1012500E0002507F0080008283FD09D
:101130004FF0FF3874B1A06828B1E068502802D39E
:101140004FF0010808E0A06830B9E06820B94FF01E
:10115000000801E04FF00008B8F1010F0CD12DB1EB
:101160000420A16801F019FD064612E00120A168E3
:1011700001F013FD06460CE0B8F1000F09D125B1CE
:10118000042001F0F9FC064603E0012001F0F4FC24
:1011900006464EB114B1D4F8009001E04FF00009BA
:1011A0004946304601F07EFA16B10DB146F001060F
:1011B0003046BDE8F0872DE9F84305460F46144652
:1011C0004FF00008FFF70AFF002857D1002D55D037
:1011D000AF4253D8461E64B1A06820B1E0685028E1
:1011E00001D3012606E0A06820B9E06810B9002606
:1011F00000E00026701C002840D0012D23D1012ED4
:1012000009D103200090002211460120A36801F0BB
:1012100006FD804605E003220021012001F0D2FCFA
:101220008046B8F1000F1CD0DFB100231A461946E2
:10123000404601F0B1FD012813D0404601F048FAC4
:101240004FF000080DE0012E06D139462846A2686D
:1012500001F060FC804604E03946284601F02CFC91
:101260008046B8F1000F09D014B1D4F8009001E025
:101270004FF000094946404601F014FA4046BDE8E7
:10128000F8832DE9FF4780468946144600200390E5
:10129000FFF7A4FE00284ED1B8F1000F4BD08026F6
:1012A00018258246471E44B3206808B1D4F800A030
:1012B000A06900B1A5692DB1382D03D8207900F0BF
:1012C000010018B1002004B0BDE8F087606908B1E2
:1012D00060698608A06840B1E0685C2805D3206991
:1012E00018B1606908B1012708E0A06830B9E0686A
:1012F00020B9206910B9002700E00027012F0CD188
:101300002169A0684B463246CDE900510290514612
:10131000404601F0BFFF03900DE067B903A8B2B2E9
:101320004B465146CDE90050404601F081FF01286F
:1013300001D0002003900398C5E700002DE9F0419B
:1013400005460E461648076816480068001D00F05E
:10135000F1FE681C38B936B112480168091D1248FF
:1013600001F0AAF81AE07C190E4800684460BC42FB
:1013700007D20C480168091D0C48006801F082F88A
:101380000CE008480168091D0948006801F07AF876
:1013900008480068844201D206480460BDE8F08134
:1013A00034000020200000209806002028000020A3
:1013B000240000205000002010B5044601F088F8F9
:1013C00024480068401C234908602348006840B94D
:1013D000214804600846006801280DD100F00CFA8D
:1013E0000AE01E48006838B91B480068C06AE16A14
:1013F000884201D81848046019480068401C184900
:1014000008600846006860641649E06A0968884216
:1014100002D91449E06A0860E16A01EB8101124ACD
:1014200002EB8100211D01F047F801F07BF80B4829
:10143000006868B108480068C06AE16A884207D25B
:101440004FF0805009490860BFF34F8FBFF36F8F93
:1014500010BD000030000020200000203C000020D3
:101460004C00002038000020E801002004ED00E0DE
:1014700008B501F02DF812480068E8B9114800F0ED
:10148000F1FF114800F0EEFF0E48104908600E48C9
:101490000F49086000200F4B0F4A102100900A20CE
:1014A00001F0BDFB064908600846006820B10BA1A9
:1014B0000348006801F0F6F801F034F808BD0000B8
:1014C00064000020AC060020C00600205C00002064
:1014D00060000020D406002024070020546D7251C3
:1014E0000000000010B516E000F0F2FF0C48C068E4
:1014F000C468201D00F01EFE0A480068401E09490D
:10150000086009480068401E0749086001F00AF8B1
:10151000204600F05FF8044800680028E4D110BDC0
:1015200084060020300000202C00002070B5044606
:101530000D46206C70B1216CE0680144E160D4E993
:101540000210884201D32168E1602846226CE168DC
:10155000FEF734FE70BD2DE9F04104460F461546F6
:101560004FF00008A66B206C48B9206800282CD1E9
:10157000A06801F0A5FF80460020A06025E07DB9AD
:101580003946226C6068FEF719FE216C60680844D9
:101590006060D4E90101884217D32068606014E0DC
:1015A0003946226CE068FEF709FE216CE068411ABA
:1015B000E1602168E068884203D2216CA068411A8A
:1015C000E160022D01D106B1761E701CA063404679
:1015D000BDE8F08110B5044694F8590030B9206B8D
:1015E00000F0BEFF204600F0BBFF1AE094F859005F
:1015F000012803D1204600F0B3FF12E094F859000F
:10160000022801D1012000E0002050B900BF502085
:1016100080F31188BFF34F8FBFF36F8F00BF00BF00
:10162000FEE710BD0146084A126812680AB9012295
:1016300000E000220A600A6822B9034A1268D268F0
:10164000106800E0002070475C00002030B54FF4C7
:101650008053174800F007042CB1C01D20F007008C
:10166000134C041B1B1B0246124C22600024114D1C
:101670006C60D018083820F007000F4C2060002460
:101680000D4D2D686C600C4D2D682C601146441A70
:101690004C60094C24680C60084D4C682C60084D67
:1016A0004C682C604FF00044064D2C6030BD0000AB
:1016B0007C0E0020740000207C00002084000020AC
:1016C000800000209000002000BFFFF70BFF0648BD
:1016D00000680128F9D94FF0805004490860BFF331
:1016E0004F8FBFF36F8FF0E7E801002004ED00E0BB
:1016F00010B5044654B10020A06020600021E160D4
:1017000000231A461946204601F046FB10BD2DE97C
:10171000F04106460D4617469846069C0DB92460D2
:1017200000E02760E66325640121204601F0E8FA25
:1017300084F84C80BDE8F0812DE9F05F82460E46CA
:1017400090469B460A9F0C9C4FEA8801A522206B7D
:10175000FEF746FDA8F10100216B01EB800929F09D
:10176000070909F0070008B9012000E0002050B97E
:1017700000BF502080F31188BFF34F8FBFF36F8FEE
:1017800000BF00BFFEE786B1002507E0715D04F1F0
:1017900034004155705D00B902E06D1C102DF5D389
:1017A00000BF00214320015502E0002084F83400EE
:1017B000382F00D33727E762E76400202065201D1B
:1017C00000F05DFE04F1180000F059FE2461C7F13D
:1017D0003800A06164620020606584F858005A46B1
:1017E0005146484600F072FB20600B9808B10B98F8
:1017F0000460BDE8F09F000010B5002407E004EB92
:1018000084010F4A02EB810000F02CFE641C382C8E
:10181000F5D30C4800F026FE0B4800F023FE0B48E1
:1018200000F020FE0A4800F01DFE0A4800F01AFEF3
:1018300004480949086004480849086010BD0000D0
:10184000E8010020480600205C0600207006002009
:101850008406002098060020240000202800002094
:1018600010B50146164800E0006803688B42FBD3C0
:101870000246436813448B4204D143684C682344B6
:10188000436001460A464B6813440468A34211D1E1
:101890000C4C03682468A34208D04B680468646851
:1018A00023444B6003681B680B6005E0054B1B6815
:1018B0000B6001E003680B60884200D0016010BD3E
:1018C000740000207C0000202DE9F04104460D4604
:1018D00016461F464FF0000865602461B5420CD8DB
:1018E000F01BA169884202D34FF0010811E0211DCD
:1018F0000948006800F0C6FD0BE0BE4204D2BD42BC
:1019000002D34FF0010804E0211D0448006800F0F4
:10191000B9FD4046BDE8F081600000205C00002079
:1019200070B5054600F0D4FDA86B08B9012400E0AD
:10193000002400F0F7FD204670BD70B5054600F0AC
:10194000C7FDA86BE96B884201D1012400E00024A7
:1019500000F0E8FD204670BDF8B505460F461A4870
:101960000068C068C468201D00F0E4FB94F82800FB
:1019700000F00400E8B1A06941192B463A46204620
:10198000FFF7A2FFD8B1002003462A460146009087
:10199000204601F0F1FE064656B900BF502080F304
:1019A0001188BFF34F8FBFF36F8F00BF00BFFEE7FB
:1019B00005E094F8280020F0010084F82800204673
:1019C000216A8847F8BD00005C000020F0B587B0B0
:1019D000A0E00398002811DA04AE56B900BF5020E9
:1019E00080F31188BFF34F8FBFF36F8F00BF00BF2D
:1019F000FEE7D6E90020B168904700BF03980028B1
:101A0000E6DB059C606908B9012000E0002010B900
:101A1000201D00F08FFB02A800F0DEF805460398B9
:101A20000A2875D2DFE800F0090507394163060886
:101A30003A4200BF00BF00BF00BF94F8280040F04A
:101A4000010084F828000498A269811803462A46F8
:101A50002046FFF739FFF8B12046216A884794F8FD
:101A6000280000F00400B8B1002000900498A1699B
:101A7000421800231946204601F07EFE074657B95A
:101A800000BF502080F31188BFF34F8FBFF36F8FDB
:101A900000BF00BFFEE700BF3BE000BF94F8280096
:101AA00020F0010084F8280033E000BF94F82800FB
:101AB00040F0010084F828000498A061A06908B1F2
:101AC000012000E0002050B900BF502080F31188B1
:101AD000BFF34F8FBFF36F8F00BF00BFFEE7A0695A
:101AE00041192B462A462046FFF7EEFE11E094F8F6
:101AF000280000F0020018B9204600F031FD05E092
:101B000094F8280020F0010084F8280001E0FFE7A5
:101B100000BF00BF002203A90448006801F08EFA4C
:101B200000287FF456AF07B0F0BD0000640000202D
:101B3000F8B505460C4600F0D9FE684600F04CF8B2
:101B40000646009820BB44B9B54206D801F056FDC0
:101B500031462846FFF700FF1CE03CB10E48006804
:101B6000006808B9012000E000200446A91B2246B5
:101B70000A48006800F0DEFD01F040FD50B94FF06A
:101B8000805007490860BFF34F8FBFF36F8F01E0AC
:101B900001F034FDF8BD000060000020640000206A
:101BA00004ED00E00A490968096809B9012100E06B
:101BB000002121B14FF0FF31064A116006E00449CF
:101BC0000968C968C868034A416811607047000025
:101BD000240000205000002070B5044601F0C8FB2E
:101BE000054607480068854204D200F00BF8012042
:101BF000206001E00020206001480560284670BD9B
:101C00006C0000202DE9F84334E025480068C068E6
:101C1000056823480068C068C468201D00F08AFA7F
:101C20002046216A884794F8280000F0040008B391
:101C3000A0694619AE4207D966602461211D184883
:101C4000006800F01FFC15E0002003462A4601460C
:101C50000090204601F090FD074657B900BF502084
:101C600080F31188BFF34F8FBFF36F8F00BF00BFAA
:101C7000FEE700BF0A480068006808B9012000E0DC
:101C800000200028C1D00648D0F800800548006830
:101C9000034908600348C0F80080BDE8F8830000ED
:101CA0005C000020600000200E480068401C08B95D
:101CB000012000E0002050B900BF502080F31188BF
:101CC000BFF34F8FBFF36F8F00BF00BFFEE700BFB2
:101CD000502080F31188BFF34F8FBFF36F8F00BF89
:101CE00000BFFEE79400002008B500BF6846FFF77C
:101CF00099FC044620460099FFF71AFFFFF766FE9D
:101D0000F4E770B5044600F0E3FB94F9455010E0A9
:101D1000606A08B9012000E0002038B904F124000D
:101D200001F020FC18B100F043FD00E003E0681E64
:101D300045B2002DECDC00BFFF2084F8450000F028
:101D4000F1FB00F0C5FB94F9445010E0206908B99C
:101D5000012000E0002048B904F1100001F002FC6D
:101D600008B100F025FD681E45B200E001E0002D3D
:101D7000ECDC00BFFF2084F8440000F0D3FB70BD12
:101D80002DE9F04104464FF0000800F0AFFD49484E
:101D9000006808B9FFF75AFC47480068204000284F
:101DA00070D1D4B1083404F00700B0B104F00700DA
:101DB000C0F10800044404F0070008B9012000E065
:101DC000002050B900BF502080F31188BFF34F8F1F
:101DD000BFF36F8F00BF00BFFEE7002C52D0374823
:101DE000006884424ED8364E3046056801E02E46E3
:101DF0002D686868A04202D228680028F7D12D48D3
:101E0000006885423ED0306800F1080828683060DC
:101E10006868001B102819D92F1907F0070008B9A6
:101E2000012000E0002050B900BF502080F311884D
:101E3000BFF34F8FBFF36F8F00BF00BFFEE768682F
:101E4000001B78606C603846FFF70AFD1B49686824
:101E50000968081A1949086008460068194909689C
:101E6000884203D21548006816490860124968681C
:101E70000968084368600020286013480068401C17
:101E80001149086001F0BAFB08F0070008B9012009
:101E900000E0002050B900BF502080F31188BFF34C
:101EA0004F8FBFF36F8F00BF00BFFEE74046BDE816
:101EB000F08100007C0000209000002080000020C5
:101EC000740000208400002088000020001F4FF0D4
:101ED00080730360001F21F001030360001F034BA8
:101EE000036014380260203870470000A91C000805
:101EF00008B50021009103E000BF0099491C009142
:101F000000998142F8D308BD2DE9F041044600252F
:101F10000026204600F056F9002718E004EB4402A2
:101F20001D4B03EB8202118904EB440203EB820296
:101F30005068FEF723FB0746681CC5B2B5F57A7FEB
:101F400002DBFF20BDE8F0810120FFF7D1FF002F69
:101F5000E4D0012717E004EB44020F4B03EB8202AD
:101F6000118904EB440203EB82025068FEF706FB82
:101F70000746701CC6B2B6F57A7F01DBFF20E1E7A9
:101F80000120FFF7B5FF012FE5D0B54201DD0020AC
:101F9000D8E70120D6E70000A00000202DE9FC4191
:101FA0000546002000900190284600F069F9284677
:101FB00000F060F8074617B13846BDE8FC81002400
:101FC0001EE04FF0000816E02846FFF79DFF06468A
:101FD000FF2E00D1F1E71DF804004006000E0DF8B9
:101FE00004001DF804003044C0B20DF8040008F1EC
:101FF000010000F0FF08B8F1080FE5DB601CC4B277
:10200000052CDEDB284600F04DF99DF800009DF818
:10201000011008449DF8021008449DF8031008447C
:102020009DF80410884201D0FF20C6E79DF800000B
:1020300040B205EB45010E4A02F821009DF801006F
:1020400040B205EB450102EB810148709DF80200AA
:1020500040B205EB450102EB810188709DF8030059
:1020600041B205EB450002EB8000C1700020A4E7FF
:10207000A000002070B50446204600F0A3F800251B
:10208000012617E004EB4402294B03EB820211897D
:1020900004EB440203EB82025068FEF76FFA064637
:1020A000681CC5B2B5F57A7F01DBFF2070BD012049
:1020B000FFF71EFF012EE5D00025002617E004EBF8
:1020C00044021B4B03EB8202118904EB440203EB35
:1020D00082025068FEF752FA0646681CC5B2B5F592
:1020E0007A7F01DBFF20E1E70120FFF701FF002EEF
:1020F000E5D00025012617E004EB44020C4B03EB6E
:102100008202118904EB440203EB82025068FEF75D
:1021100035FA0646681CC5B2B5F57A7F01DBFF20AB
:10212000C4E70120FFF7E4FE012EE5D00020BDE763
:10213000A000002001460A69D1E901309860D1E988
:10214000010358605068884201D1886850600020BF
:1021500008611068401E106010687047034B0360F0
:10216000034B0B608023136070470000C4070020FE
:1021700020080020034B0360034B0B604FF4807377
:1021800013607047200A00207C0A002010B501EB84
:102190004102044B03EB8202D0E90034C2E901346E
:1021A00010BD0000A00000201CB505480090801460
:1021B000ADF8040000216846FFF7E8FF1CBD0000F1
:1021C000000C01401FB5044604EB4400094901EB33
:1021D000800000890090002001900290012003906F
:1021E00004EB4401034A02EB810148686946FEF7AB
:1021F00035F81FBDA00000201FB5044604EB4400C5
:102200000A4901EB80000089009001200190002024
:1022100002900120039004EB4401044A02EB810187
:1022200048686946FEF71AF81FBD0000A0000020AC
:1022300010B5044604EB4402064B03EB82021189FD
:1022400004EB440203EB820250680122FEF79EF980
:1022500010BD0000A000002010B5044604EB4402AD
:10226000064B03EB8202118904EB440203EB82026A
:1022700050680022FEF78AF910BD0000A00000207F
:1022800010B504462046FFF7B7FF2046FFF7E4FFEE
:102290001320FDF7CFFF2046FFF7CAFF0720FFF707
:1022A00027FE10BD10B504462046FFF7A5FF2046C7
:1022B000FFF7BEFF10BD000010B5C1EBC102044B1B
:1022C00003EB8202D0E90034C2E9053410BD0000FE
:1022D000AC00002070B504460D46C5EBC501044AAC
:1022E00002EB810014222146FDF768FF70BD00005B
:1022F000AC00002000B587B002208DF8010000205E
:10230000019064200290039042F21070049000212A
:102310006846FFF7DFFF3748059000208DF81A0068
:102320004FF40050ADF81800002105A8FFF7C4FFD6
:102330003148059000208DF81A000220ADF81800F1
:10234000012105A8FFF7B8FF2B48059000208DF864
:102350001A000120ADF81800022105A8FFF7ACFF14
:102360002648059000208DF81A000420ADF81800CA
:10237000032105A8FFF7A0FF2048059000208DF855
:102380001A000820ADF81800042105A8FFF794FFF3
:102390001A48059000208DF81A001020ADF818009A
:1023A000052105A8FFF788FF1448059000208DF847
:1023B0001A002020ADF81800062105A8FFF77CFFC1
:1023C0000E48059000208DF81A004020ADF8180046
:1023D000072105A8FFF770FF0848059000208DF839
:1023E0001A008020ADF81800082105A8FFF764FF47
:1023F00007B000BD00100140000C01400008014082
:1024000010B504460020C4EBC401034A02F82100C1
:10241000204600F003F810BDAC00002070B5044663
:10242000C4EBC4000E4901EB8000807EC4EBC40104
:102430000B4A12F82110484008B9012000E00020A2
:102440000546C4EBC402064B03EB8202118BC4EBBE
:10245000C40203EB820250692A46FEF797F870BD6A
:10246000AC00002000F1080141604FF0FF318160B5
:1024700000F10801C1600161002101607047002185
:102480000161704710B502460B685C1C0CB91069FD
:1024900007E002F1080000E04068446824689C42BC
:1024A000FAD944684C604C68A160886041600A6158
:1024B0001468641C146010BD42684A6093688B60A5
:1024C000936859609160086103685B1C0360704702
:1024D00000BF502080F31188BFF34F8FBFF36F8F81
:1024E00000BF0E480068401C0C49086008460068A0
:1024F000012812D10A480068C0B208B9012000E0E2
:10250000002050B900BF502080F31188BFF34F8FD7
:10251000BFF36F8F00BF00BFFEE77047940000203D
:1025200004ED00E00D48006850B900BF502080F372
:102530001188BFF34F8FBFF36F8F00BF00BFFEE75F
:1025400006480068401E054908600846006820B932
:10255000002080F3118800BF00BF70479400002066
:1025600070B506463546002E44D0083D2C4622491B
:1025700060680968084008B1012000E0002050B9F7
:1025800000BF502080F31188BFF34F8FBFF36F8FD0
:1025900000BF00BFFEE7206808B9012000E000206E
:1025A00050B900BF502080F31188BFF34F8FBFF3A5
:1025B0006F8F00BF00BFFEE70F49606809680840E1
:1025C000C0B12068B0B90C49606809688843606090
:1025D00000F08CF9094960680968084407490860F7
:1025E0002046FFF73DF906480068401C0449086092
:1025F00001F004F870BD0000900000208000002071
:102600008C00002000204FF0E0210861886106481E
:1026100000684FF47A71B0FBF1F0401E4FF0E021FA
:1026200048610720086170471C00002070B5FDF765
:10263000AFFD0446102C16D304F1E02090F8F053BF
:1026400015480078854201DB012000E0002050B9E8
:1026500000BF502080F31188BFF34F8FBFF36F8FFF
:1026600000BF00BFFEE70D48006800F4E0600C49C1
:102670000968884201D8012000E0002050B900BF5D
:10268000502080F31188BFF34F8FBFF36F8F00BFCF
:1026900000BFFEE770BD0000980000200CED00E0D8
:1026A0009C000020024600200BE0084B53F830301D
:1026B00033B9064B43F8301003EBC0035A6002E015
:1026C000401C0828F1D300BF70470000A80100207B
:1026D00070B50446254655B900BF502080F31188D7
:1026E000BFF34F8FBFF36F8F00BF00BFFEE72846D9
:1026F00000F008F895F8460010B92846FFF730FFBB
:1027000070BD0000014600200EE0094A02EBC00245
:1027100052688A4207D10022054B43F8302003EB70
:10272000C0035A6002E0401C0828EED300BF704787
:10273000A80100202DE9F04105460E4617462C461B
:10274000FFF7C6FE94F94400401C10B9002084F83D
:10275000440094F94500401C10B9002084F845005D
:10276000FFF7E0FEA06B28B93A46314604F1240099
:1027700000F040F82046FFF7C4FABDE8F08110B53C
:102780000020FFF73DFE0020FFF708FC4FF4FA6041
:10279000FDF750FD10BD00000349096801600349C1
:1027A00009684160704700004800002034000020A4
:1027B00001200149086070474400002070B50446BC
:1027C0000D4654B900BF502080F31188BFF34F8FDE
:1027D000BFF36F8F00BF00BFFEE7054801681831E7
:1027E0002046FFF74FFE01212846FEF7A7FD70BDEA
:1027F0002000002070B505460E46144655B900BFAE
:10280000502080F31188BFF34F8FBFF36F8F00BF4D
:1028100000BFFEE70648016818312846FFF74CFE66
:102820000CB14FF0FF3621463046FEF787FD70BDF4
:102830002000002010B586B000200590049003AA67
:1028400004A905A8FFF78AFC0022DDE9041013465D
:10285000CDE9002102901EA11F48039A00F01AFD45
:102860001E4908600846006808B1012400E0002401
:10287000012C02D100F044FF0446012C15D100BF09
:10288000502080F31188BFF34F8FBFF36F8F00BFCD
:102890004FF0FF3012490860012012490860002003
:1028A0001149086000F072F810E0601C08B10120C6
:1028B00000E0002050B900BF502080F31188BFF322
:1028C0004F8FBFF36F8F00BF00BFFEE706B010BD94
:1028D00049444C4500000000C9160008540000207F
:1028E000500000203C000020340000200248006816
:1028F000401C014908607047580000201E480068CD
:1029000018B101201D49086034E000201B4908600F
:102910001B4801680CE051B900BF502080F31188BA
:10292000BFF34F8FBFF36F8F00BF00BFFEE7491E9D
:1029300001EB8100134A52F8200008B9012000E0A1
:1029400000200028E7D101EB81020E4B03EB82004F
:1029500042685268426000F108024368934202D123
:102960004268526842604268D268074B1A60044865
:10297000016000BF704700005800002044000020A4
:1029800038000020E8010020200000201CB5384954
:10299000084600780190FF200A461070084600782B
:1029A00000909DF8000000F0F0009DF8002090429B
:1029B00001D1012000E0002050B900BF502080F379
:1029C0001188BFF34F8FBFF36F8F00BF00BFFEE7CB
:1029D0009DF8000000F05000264A10700720264A9B
:1029E000106009E024480068401E234A10609DF8EA
:1029F00000004006000E00909DF8000000F08000EE
:102A00008028EFD01C480068C0F10700042801D1DD
:102A1000012000E0002050B900BF502080F3118851
:102A2000BFF34F8FBFF36F8F00BF00BFFEE71248A9
:102A300000680002104A10601046008800F4E06050
:102A400010600B4A019810700C48006840F4700048
:102A50000A4908600846006840F070400860FFF7C7
:102A6000D1FD002006490860FDF75CFB00201CBD7D
:102A700000E400E0980000209C00002020ED00E031
:102A80009400002010B500BF502080F31188BFF3E0
:102A90004F8FBFF36F8F00BF00F070FC18B14FF085
:102AA00080500449086000BF002080F3118800BFF7
:102AB00010BD000004ED00E070B505460E460DB1F6
:102AC000012000E0002050B900BF502080F31188A1
:102AD000BFF34F8FBFF36F8F00BF00BFFEE7AE4263
:102AE00001D8012000E0002050B900BF502080F341
:102AF0001188BFF34F8FBFF36F8F00BF00BFFEE79A
:102B000002220021284600F05DF8044604B1A663C5
:102B1000204670BDF8B505460E4617460DB101209A
:102B200000E0002050B900BF502080F31188BFF3AF
:102B30004F8FBFF36F8F00BF00BFFEE7AE4201D8DB
:102B4000012000E0002050B900BF502080F3118820
:102B5000BFF34F8FBFF36F8F00BF00BFFEE70220B0
:102B60003B46002211460090284600F058F80446E3
:102B700004B1A6632046F8BD2DE9F04104460126C4
:102B8000002722460021012000F01CF805462846B7
:102B9000FEF7AEFD2846BDE8F0812DE9F843044676
:102BA0000D4601274FF000082B4600221146012058
:102BB000009400F034F806463046FEF799FD3046A2
:102BC000BDE8F8832DE9F84305460E4617460DB1DA
:102BD000012000E0002050B900BF502080F3118890
:102BE000BFF34F8FBFF36F8F00BF00BFFEE705FB42
:102BF00006F808F15000FFF7C3F8044664B1A14697
:102C000009F15009002084F846003B464A46314607
:102C100028460094FEF77BFD2046BDE8F8832DE9A9
:102C2000F84380460E4617461D46DDF82090B8F161
:102C3000000F01D0012000E0002050B900BF50205B
:102C400080F31188BFF34F8FBFF36F8F00BF00BFBA
:102C5000FEE70DB1012000E0002050B900BF502078
:102C600080F31188BFF34F8FBFF36F8F00BF00BF9A
:102C7000FEE707B10EB1012000E0002050B900BF0F
:102C8000502080F31188BFF34F8FBFF36F8F00BFC9
:102C900000BFFEE707B90EB9012000E0002050B9DF
:102CA00000BF502080F31188BFF34F8FBFF36F8FA9
:102CB00000BF00BFFEE7502000900098502801D1CF
:102CC000012000E0002050B900BF502080F311889F
:102CD000BFF34F8FBFF36F8F00BF00BFFEE700BF92
:102CE0002C464CB1012084F846004B463A4631460A
:102CF00040460094FEF70BFD2046BDE8F883000037
:102D000070B505460E462C4654B900BF502080F3DE
:102D10001188BFF34F8FBFF36F8F00BF00BFFEE777
:102D2000FFF7D6FBD4E90F12206801FB0200A06078
:102D30000020A06320686060E06B401E226C216868
:102D400000FB0211E160FF2084F8440084F8450094
:102D50009EB9206908B9012000E00020A8B904F15B
:102D6000100000F0FFFB80B14FF08050094908606F
:102D7000BFF34F8FBFF36F8F07E004F11000FFF731
:102D800071FB04F12400FFF76DFBFFF7CBFB012083
:102D900070BD000004ED00E02DE9FF4383B006465E
:102DA00088461D464FF00009344654B900BF5020F4
:102DB00080F31188BFF34F8FBFF36F8F00BF00BF49
:102DC000FEE7B8F1000F01D1206C08B9012000E046
:102DD000002050B900BF502080F31188BFF34F8FFF
:102DE000BFF36F8F00BF00BFFEE7022D02D1E06B83
:102DF000012801D1012000E0002050B900BF50207F
:102E000080F31188BFF34F8FBFF36F8F00BF00BFF8
:102E1000FEE700F09DFA08B9059808B9012000E026
:102E2000002050B900BF502080F31188BFF34F8FAE
:102E3000BFF36F8F00BF00BFFEE700BFFFF748FB87
:102E4000A06BE16B884201D3022D28D12A4641466E
:102E50002046FEF780FB0746606A08B9012000E0C3
:102E6000002068B904F1240000F07CFB88B14FF029
:102E7000805032490860BFF34F8FBFF36F8F08E077
:102E80003FB14FF080502D490860BFF34F8FBFF323
:102E90006F8FFFF747FB012007B0BDE8F08305986F
:102EA00018B9FFF73FFB0020F6E7B9F1000F04D196
:102EB00001A8FFF771FC4FF00109FFF733FBFFF7A3
:102EC00015FDFFF705FB94F94400401C10B90020E4
:102ED00084F8440094F94500401C10B9002084F89F
:102EE0004500FFF71FFB05A901A800F05BF9F0B949
:102EF0002046FEF722FDA0B104F110000599FFF76E
:102F00005DFC2046FEF7FDFE00F078FB002895D121
:102F10004FF0805009490860BFF34F8FBFF36F8FA8
:102F20008CE72046FEF7EDFE00F068FB86E72046C2
:102F3000FEF7E7FE00F062FB0020ADE704ED00E0E5
:102F40002DE9F84F07468A4690461E463C4654B93E
:102F500000BF502080F31188BFF34F8FBFF36F8FF6
:102F600000BF00BFFEE7BAF1000F01D1206C08B925
:102F7000012000E0002050B900BF502080F31188EC
:102F8000BFF34F8FBFF36F8F00BF00BFFEE7022E6E
:102F900002D1E06B012801D1012000E0002050B9EE
:102FA00000BF502080F31188BFF34F8FBFF36F8FA6
:102FB00000BF00BFFEE7FFF739FB00BF5021EFF372
:102FC000118081F31188BFF34F8FBFF36F8F00BF64
:102FD0000546A06BE16B884201D3022E25D194F9FE
:102FE00045B0A06B0090324651462046FEF7B3FA3A
:102FF0000BF1010088B9606A08B9012000E00020E7
:1030000050B904F1240000F0ADFA28B1B8F1000F76
:1030100002D00120C8F8000004E00BF1010040B22A
:1030200084F845004FF0010901E04FF0000900BFAE
:1030300085F3118800BF4846BDE8F88F2DE9F741B8
:1030400083B005460E464FF000082C4654B900BF29
:10305000502080F31188BFF34F8FBFF36F8F00BFF5
:1030600000BFFEE70EB9206C08B9012000E0002087
:1030700050B900BF502080F31188BFF34F8FBFF3CA
:103080006F8F00BF00BFFEE700F062F908B9059836
:1030900008B9012000E0002050B900BF502080F3A3
:1030A0001188BFF34F8FBFF36F8F00BF00BFFEE7E4
:1030B00000BFFFF70DFAA76BF7B131462046FEF7C8
:1030C00035FA781EA063206908B9012000E00020CD
:1030D00060B904F1100000F045FA38B14FF08050AB
:1030E0002F490860BFF34F8FBFF36F8FFFF71AFAB6
:1030F000012006B0BDE8F081059818B9FFF712FA73
:103100000020F6E7B8F1000F04D101A8FFF744FB57
:103110004FF00108FFF706FAFFF7E8FBFFF7D8F9D1
:1031200094F94400401C10B9002084F8440094F93C
:103130004500401C10B9002084F84500FFF7F2F963
:1031400005A901A800F02EF8F0B92046FEF7E8FB2B
:10315000A0B104F124000599FFF730FB2046FEF7EB
:10316000D0FD00F04BFA0028A3D14FF080500C495D
:103170000860BFF34F8FBFF36F8F9AE72046FEF7CB
:10318000C0FD00F03BFA94E72046FEF7BAFD00F0E0
:1031900035FA2046FEF7C4FB00288AD00020A8E7B5
:1031A00004ED00E070B505460C4655B900BF50204F
:1031B00080F31188BFF34F8FBFF36F8F00BF00BF45
:1031C000FEE754B900BF502080F31188BFF34F8F42
:1031D000BFF36F8F00BF00BFFEE7FFF779F912481A
:1031E00002686868131A2068401C08B9002617E0B6
:1031F0000E4928680968884204D06868904201D85E
:1032000001260DE02068984207D92068C01A206086
:103210002846FFF7C1FA002602E0002020600126C0
:10322000FFF780F9304670BD3400002048000020D0
:103230002DE9FF4F85B0804689461746DDE912AB80
:10324000B800FEF79DFD064656B15C20FEF798FDDE
:1032500004460CB1266304E03046FFF781F900E034
:1032600000248CB1002084F85900CDE900ABCDE9F1
:1032700002403A4649464046089BFEF75DFA204622
:10328000FEF79AF8012501E04FF0FF35284609B016
:10329000BDE8F08F2DE9F04F85B00746884691468E
:1032A0009A46DDE90EB6109C0EB1012000E0002028
:1032B00050B900BF502080F31188BFF34F8FBFF388
:1032C0006F8F00BF00BFFEE70CB1012000E00020BF
:1032D00050B900BF502080F31188BFF34F8FBFF368
:1032E0006F8F00BF00BFFEE75C20039003985C284F
:1032F00001D1012000E0002050B900BF502080F330
:103300001188BFF34F8FBFF36F8F00BF00BFFEE781
:1033100000BFB4B1AEB125462C462E63022085F81D
:103320005900002004A953464A46CDE900B1CDE931
:10333000025041463846FEF7FFF92846FEF73CF8B2
:1033400001E000200490049805B0BDE8F08F000073
:103350000549096809B9012005E00449096809B966
:10336000022000E0002070473C00002058000020B0
:103370000149086870470000340000202DE9F04141
:103380004FF000084348006800287BD1424800689D
:10339000451C4148056015BB40480068006808B9F5
:1033A000012000E0002050B900BF502080F31188B8
:1033B000BFF34F8FBFF36F8F00BF00BFFEE73748EB
:1033C0000768374800683549086035480760354860
:1033D0000068401C33490860FEF7E4FB00BF324838
:1033E000006885423BD300BF2C480068006808B9DC
:1033F000012000E0002020B14FF0FF302A49086092
:103400002CE026480068C068C4686668B54202D2ED
:103410002548066022E0201DFEF78CFEA06A18B148
:1034200004F11800FEF786FE2049E06A0968884228
:1034300002D91E49E06A0860E16A01EB81011C4A79
:1034400002EB8100211DFFF737F81A49E06A09688D
:10345000C96A8842C8D34FF00108C5E700BF1548C4
:103460000068C06A00EB8000114951F82000012873
:1034700001D94FF001081048006808B14FF0010869
:1034800005E0FFE70D480068401C0C490860404615
:10349000BDE8F08158000020340000202400002006
:1034A00028000020480000205000002038000020A4
:1034B000E8010020200000204400002040000020FF
:1034C00070B505462C460026002D43D022480068E2
:1034D000844201D1012000E0002050B900BF5020FB
:1034E00080F31188BFF34F8FBFF36F8F00BF00BF12
:1034F000FEE7206D50B900BF502080F31188BFF364
:103500004F8FBFF36F8F00BF00BFFEE7206D401EDF
:103510002065E16CE06A88421CD0206DD0B9201D86
:10352000FEF708FEE06CE062E06AC0F13800A061DE
:103530000A49E06A0968884202D90849E06A0860D5
:10354000E16A01EB8101064A02EB8100211DFEF7D1
:10355000B3FF0126304670BD200000203800002057
:10356000E801002070B50646F068C46854B900BF91
:10357000502080F31188BFF34F8FBFF36F8F00BFD0
:1035800000BFFEE704F11800FEF7D4FD15480068FF
:10359000A0B9201DFEF7CEFD1349E06A09688842F4
:1035A00002D91149E06A0860E16A01EB81010F4A22
:1035B00002EB8100211DFEF77FFF04E004F11801FA
:1035C0000B48FEF779FF0B49E06A0968C96A88422F
:1035D00004D9012501200849086000E0002528469B
:1035E00070BD00005800002038000020E8010020D5
:1035F00070060020200000204400002070B5002448
:1036000000263648006850B900BF502080F311886A
:10361000BFF34F8FBFF36F8F00BF00BFFEE7FEF712
:1036200057FF2E480068401E2C4908600846006875
:1036300000284ED12A48006800284AD023E02948B3
:10364000C068C46804F11800FEF774FD201DFEF781
:1036500071FD2549E06A0968884202D92249E06A79
:103660000860E16A01EB8101204A02EB8100211D23
:10367000FEF722FF1E49E06A0968C96A884202D340
:1036800001201C4908601748006808B9012000E0C3
:1036900000200028D3D00CB1FEF784FA1648056844
:1036A00065B100BFFFF76AFE10B101201149086043
:1036B0006D1E002DF6D100200F4908600D480068EE
:1036C00038B1012630070D490860BFF34F8FBFF3B3
:1036D0006F8FFEF727FF304670BD000058000020B6
:1036E000300000207006002038000020E801002093
:1036F00020000020440000204000002004ED00E0F5
:1037000010B586B00024FDF7B3FE16480068D0B1AE
:1037100000200590049003AA04A905A8FEF72AFD3D
:103720000222DDE904100023CDE9002102900EA160
:103730000F48039AFFF7AEFD0E490860084600687F
:1037400000B1012400BF54B900BF502080F311889C
:10375000BFF34F8FBFF36F8F00BF00BFFEE7204660
:1037600006B010BD64000020546D722053766300D3
:10377000E91C0008680000202DE9FF4704460D46BB
:1037800016461F46DDF830804FF0000954B900BFDF
:10379000502080F31188BFF34F8FBFF36F8F00BFAE
:1037A00000BFFEE71448006810B30095019602942C
:1037B000062D15DAFFF7CCFD022808D1002342467A
:1037C00069460D480068FFF7E7FA814610E00023DC
:1037D0001A46694608480068FFF7DEFA814607E0A6
:1037E00000233A46694604480068FFF7A9FB814672
:1037F000484604B0BDE8F08764000020A8380008FF
:1038000000000000000000000000000000000000B8
:10381000000200000800000000000000000000009E
:103820009C380008000000000000000000000000BC
:103830008C380008000000000000000000000000BC
:103840007C380008000000000000000000000000BC
:1038500002030405060708090A0B0C0D0E0F1010D1
:10386000010200000000000000000102030406073E
:103870000809000000000102030400006D79436F95
:10388000756E74696E6753656D3031006D7942698C
:103890006E61727953656D30310000006D794D7540
:1038A000746578303100000064656661756C74542D
:1038B00061736B00D438000800000020A0000000F5
:1038C000E20F000874390008A0000020E021000089
:1038D000F20F0008000000000000000000000000DF
:1038E00000000000000000001000000001000000C7
:1038F00000127A000000000000000000000000003C
:1039000000000000000000000000000000000000B7
:1039100000000000000000000000000000000000A7
:103920000000000000000000000000000000000097
:103930000000000000000000000000000000000087
:103940000000000000000000000000000000000077
:103950000000000000000000000000000000000067
:103960000000000000000000AAAAAAAA00000000AF
:043970000000000053
:04000005080000ED02
:00000001FF
