:020000040800F2
:10000000181E0020990100089B100008990F000895
:100010009910000855020008D313000800000000E2
:1000200000000000000000000000000001010008C6
:10003000570200080000000045010008B710000842
:10004000B3010008B3010008B3010008B3010008C0
:10005000B3010008B3010008B3010008B3010008B0
:10006000B3010008B3010008B3010008B3010008A0
:10007000B3010008B3010008B3010008B301000890
:10008000B3010008B3010008B3010008B301000880
:10009000B3010008B3010008B3010008B301000870
:1000A000B301000831110008B3010008B3010008D2
:1000B000B3010008B3010008B3010008B301000850
:1000C000B3010008B3010008B3010008B301000840
:1000D000B3010008B3010008B3010008B301000830
:1000E000B3010008B3010008B3010008DFF80CD029
:1000F00000F09EF8004800479D150008181E0020DB
:10010000224B19680868B0E8F00F80F30988BFF344
:100110006F8F4FF0000080F311884EF00D0E704786
:100120000000000006480068006880F3088862B696
:1001300061B6BFF34F8FBFF36F8F00DF00BF00BF0B
:1001400008ED00E0EFF30980BFF36F8F0F4B1A68E3
:1001500020E9F00F106008B54FF0500080F31188CF
:10016000BFF34F8FBFF36F8F02F0A4F94FF0000081
:1001700080F31188BDE8084019680868B0E8F00FFE
:1001800080F30988BFF36F8F704700BF30000020F5
:10019000EFF3058070470000064880470648004797
:1001A000FEE7FEE7FEE7FEE7FEE7FEE7FEE7FEE727
:1001B000FEE7FEE72D110008ED00000840EA01030C
:1001C0009B0703D009E008C9121F08C0042AFAD20D
:1001D00003E011F8013B00F8013B521EF9D27047D1
:1001E000D2B201E000F8012B491EFBD27047002279
:1001F000F6E710B513460A4604461946FFF7F0FF26
:10020000204610BD30B50B460146002020220124B7
:1002100009E021FA02F59D4205D303FA02F5491BD4
:1002200004FA02F52844151EA2F10102F1DC30BDEA
:10023000064C074D06E0E06840F0010394E8070033
:1002400098471034AC42F6D3FFF754FFE02F000874
:1002500000300008FEE7704770B5044600F008F96A
:100260000546601C02D004480078044400F000F900
:10027000401BA042FAD370BD200000202DE9F84FAA
:10028000DFF8B8910024A9F1040B23460F2709F1E8
:10029000040AABF1040EC9E00125A5402A40AA4298
:1002A0007DD1674ED1F804C0ACEB0608B44532D01E
:1002B00014DCBCF1030F3AD009DCBCF1000F2AD0EA
:1002C000BCF1010F1CD0BCF1020F31D11DE0BCF11B
:1002D000110F17D0BCF1120F2AD119E0B8F5881F01
:1002E00019D006DCB8F5803F15D0B8F5801F1FD1B6
:1002F00011E0B8F5001F0ED0B8F5041F18D10AE0C0
:10030000CB6815E0CB681B1D12E0CB6808330FE00B
:10031000CB680C330CE08B682BB1012B4FF008033A
:1003200003D0456104E0042302E0056100E00023FE
:10033000FF2A01D8064601E000F104064FEA8405D1
:1003400001D9A5F12005D6F8008007FA05FC28EAB6
:100350000C0803FA05F548EA0508C6F800804D6860
:10036000ED0062D5374DAE6946F00106AE61AD696C
:1003700024F0030605F001050095334D06EB050C4E
:10038000DCF80850A607360F07FA06F825EA080534
:10039000DFF8B880404503D14FF0000817E044E093
:1003A000DFF8AC80404502D14FF001080FE0DFF8E4
:1003B000A480404502D14FF0020808E0DFF89880A1
:1003C000404502D14FF0030801E04FF0040808FA5D
:1003D00006F848EA0508CCF808804D68D9F80060AE
:1003E000ED024D4601D5164300E096432E604D6860
:1003F000DAF80060AD02554601D5164300E0964399
:100400002E604D68DBF80060AD035D4601D51643F4
:1004100000E096432E604D68DEF80060ED037546FF
:1004200001D5164300E096432E60641C0D682A46F1
:10043000E5407FF431AFBDE8F88F000008040140CB
:1004400000001110001002400000014000080140AF
:10045000000C014000100140001401408068084079
:1004600000D0012070470AB1016170470904FBE721
:100470000148806870470000200000200248816821
:10048000027811448160704720000020074810B5B1
:10049000016841F010010160032000F07BF80F209B
:1004A00000F006F800F024F8002010BD0020024003
:1004B00070B50D4D04464FF47A712878B1FBF0F019
:1004C0000A490968B1FBF0F000F0E2FA48B9102CD3
:1004D00007D200222146501E00F03CF800206C603C
:1004E00070BD012070BD0000200000202C00002005
:1004F0000F4808B5816941F001018161816901F00E
:1005000001010091C16941F08051C161C0690022BF
:1005100000F0805000900F21901E00F01BF805485D
:10052000416821F0E06141F00071416008BD0000C8
:100530000010024000000140002809DB00F01F020B
:10054000012191404009800000F1E020C0F8001135
:1005500070470000F0B40E4B1B680C46C3F3022337
:10056000C3F10705042D00D90425191D072901D25F
:10057000002300E0DB1E012606FA05F1491E21409A
:1005800099409E40761E16403143F0BC00F032BFC9
:100590000CED00E0064900F0070208684FF6FF0383
:1005A000184040EA0220034A1043086070470000E8
:1005B0000CED00E00000FA052DE9F0470F460500BC
:1005C00061D0434E306800F00700B84209D230686D
:1005D00020F0070038433060306800F00700B84270
:1005E00051D128683B4C810712D5400703D560687C
:1005F00040F4E06060602878000703D5606840F44C
:10060000605060606068A96820F0F0000843606096
:100610002878C00728D06868012810D021680228EF
:1006200010D0890700292EDA616821F00301014307
:100630006160FFF71DFF804641F288390DE02168B7
:100640008903EFE78901EDE7FFF712FFA0EB08014F
:10065000494502D90320BDE8F0876068696800F069
:100660000C00B0EB810FEFD1306800F00700B8420A
:100670000BD9306820F0070038433060306800F054
:100680000700B84201D00120E5E72878400705D5EA
:100690006068E96820F4E06008436060287800073B
:1006A00006D56068296920F4605040EAC1006060A6
:1006B00000F038F86168084AC1F30311515CC84082
:1006C0000649086006480068FFF7F2FE0020C2E70E
:1006D0000020024000100240962F00082C0000204D
:1006E000240000200448054900684968044AC1F311
:1006F0000221515CC84070472C00002000100240CD
:10070000A62F00080448054900684968044AC1F357
:10071000C221515CC84070472C00002000100240EC
:10072000A62F00080E4A51680E4801F00C03042B56
:1007300011D0082B0FD10C48C1F38343C903C05C0F
:100740000AD55168084AC1F34041921E515C054ADE
:100750005043B0FBF1F07047044948437047000034
:100760000010024000127A00862F000800093D00A8
:100770002DE9F84F040070D02078C04DC00749D053
:100780006868C0F38100012807D06868C0F3810061
:10079000022809D16868C00306D52868800339D5C6
:1007A00060680028E7D035E06068B0F5803F0BD086
:1007B00010B1B0F5A02F11D0286820F48030286047
:1007C000286820F4802002E0286840F48030286007
:1007D000606890B1FFF74CFE06460AE0286840F4D6
:1007E00080202860F0E700BFFFF742FE801B6428EE
:1007F00073D828688003F7D50CE0FFF739FE06466A
:1008000005E000BFFFF734FE801B6428F0D828689D
:100810008003F7D420789A4E80074FF001094FF0FB
:10082000000839D5686810F00C0F07D06868C0F36D
:100830008100022809D16868C00306D428688007AF
:1008400014D52069012808D110E02069B0B1C6F89C
:100850000090FFF70DFE074605E00AE1FFF708FEEE
:10086000C01B0228C4D828688007F7D528686169AA
:1008700020F0F80040EAC10028600DE0C6F80080D2
:10088000FFF7F6FD074604E0FFF7F2FDC01B022864
:1008900023D828688007F7D4207800072CD579481A
:1008A000A169D9B1C0F80090FFF7E2FD074604E066
:1008B000FFF7DEFDC01B02280FD8686A8007F7D556
:1008C00071484FF4FA510068B0FBF1F0009000BF9E
:1008D0000098411E0091FAD20EE080E0C0F800803E
:1008E000FFF7C6FD074604E0FFF7C2FDC01B022864
:1008F00075D8686A8007F7D42078400760D5E86922
:100900000027C00008D4E86940F08050E861E86939
:10091000012700F0805000905C480168C90513D49D
:100920000168834641F480710160FFF7A1FD8246B2
:1009300006E000BFFFF79CFDA0EB0A0064284ED83C
:10094000DBF80000C005F5D5E06801280AD008B141
:10095000052813D0286A20F001002862286A20F0B8
:10096000040002E0286A40F001002862E06841F2D9
:10097000883B98B1FFF77CFD82460BE0286A40F087
:1009800004002862EEE700BFFFF772FDA0EB0A014A
:1009900059455AD8286A8007F6D50CE0FFF768FD5C
:1009A000824605E0FFF764FDA0EB0A0159454CD8EB
:1009B000286A8007F6D41FB1E86920F08050E8610A
:1009C000E06988B36968C1F38101022944D0022833
:1009D000C6F8608004D0FFF74BFD044638E034E0F1
:1009E000FFF746FD074604E0FFF742FDC01B022863
:1009F0002BD828688001F7D4206AB0F5803F05D154
:100A00006868A16820F4003008436860D4E90801F0
:100A10000843696821F4741108436860C6F860905F
:100A2000FFF726FD044606E025E000BFFFF720FDA6
:100A3000001B022809D828688001F7D51BE000BFF9
:100A4000FFF716FD001B022802D90320BDE8F88F2E
:100A500028688001F4D40EE00128F7D06868226A83
:100A600000F48031914204D1616A00F47010884230
:100A700001D00120EAE70020E8E700000010024072
:100A800000004242800442422C00002000700040DE
:100A900010B5401EB0F1807F01D3012010BD4FF092
:100AA000E02460610F21601700F0A4FC0020A06129
:100AB00007202061002010BD7047704770B590F886
:100AC0003C20012A26D0012480F83C40022280F8F4
:100AD0003D2003685A689D6822F070060A68324318
:100AE0005A600D4B02689A4208D0B2F1804F05D08F
:100AF0000A4B9A4202D00A4B9A4204D1496825F027
:100B000080031943916080F83D40002180F83C103B
:100B1000084670BD022070BD002C0140000400405A
:100B20000008004010B5040003D094F83D0010B157
:100B300007E0012010BD002084F83C00204600F0B2
:100B40001FF8022084F83D00211D206800F014FBEE
:100B5000012084F8460084F83E0084F83F0084F8C1
:100B6000400084F8410084F8420084F8430084F88F
:100B7000440084F8450084F83D00002010BD0000CA
:100B800008B500680B49884212D10B48816941F4CD
:100B9000006181618069002200F4006000900521FD
:100BA0001920FFF7D7FCBDE808401920FFF7C4BCA7
:100BB00008BD0000002C01400010024090F83D10DC
:100BC000012901D001207047022180F83D10006802
:100BD0000B49884208D0B0F1804F05D009498842BE
:100BE00002D00949884204D1816801F00701062931
:100BF00003D0016841F0010101600020704700004E
:100C0000002C0140000400400008004070B504467C
:100C100090F83C000025012817D0012684F83C609C
:100C2000022084F83D002068826822F0770222F4D6
:100C30007F4282600868502838D00DDC20284FD0D1
:100C400005DC90B3102811D14AE0022070BD302895
:100C500046D040280AD13BE060282FD070280DD024
:100C6000B0F5805F03D0B0F5005F12D0012584F8A5
:100C70003D60002084F83C00284670BDCB68D1E977
:100C80000121206800F0B4FA2068816841F0770102
:100C900009E0CB68D1E90121206800F0A9FA2068B9
:100CA000816841F480418160E1E719E0CA684968E0
:100CB000206800F0AFFA5021206806E0CA68496851
:100CC000206800F0B8FA6021206800F09BFACEE7B7
:100CD000CA684968206800F09DFA40212068F4E75E
:100CE000226801461046F0E770472DE9F0410446BE
:100CF0000068C66805694FF00007A90713D5B1075A
:100D000011D5F91E016101202077206880698007D4
:100D1000204602D0FFF7E8FF04E000F07EF820460E
:100D200000F07CF82777680716D5700714D521687E
:100D30006FF004000861022020772068806910F4B9
:100D4000407F204602D0FFF7CFFF04E000F065F8B7
:100D5000204600F063F82777280715D5300713D50C
:100D600021686FF008000861042020772068C069BE
:100D70008007204602D0FFF7B7FF04E000F04DF8EF
:100D8000204600F04BF82777E80616D5F00614D574
:100D900021686FF010000861082020772068C06982
:100DA00010F4407F204602D0FFF79EFF04E000F0E1
:100DB00034F8204600F032F82777E80708D0F0072B
:100DC00006D021686FF001000861204600F027F886
:100DD000280608D5300606D521686FF08000086126
:100DE0002046FFF769FE680608D5700606D521681B
:100DF0006FF040000861204600F012F8A8060AD5FE
:100E0000B00608D521686FF0200008612046BDE8D3
:100E1000F041FFF752BEBDE8F08170477047704760
:100E2000704770B5040004D094F84100002510B15B
:100E300006E0012070BD84F84050204600F024F800
:100E4000242084F841002068C16821F40051C16069
:100E5000204600F029FA2068016921F490410161DF
:100E60002068416921F02A0141612068C16841F48C
:100E70000051C1606564202084F8410084F842007C
:100E80006563002070BD000030B585B0002400947B
:100E900001940294039400681449884224D11448B0
:100EA000816941F480418161816901F4804104914B
:100EB000816941F00401816180690E4D00F00400F8
:100EC00004904FF4007000900220019003200390E2
:100ED00069462846FFF7D2F92815CDE9000469468E
:100EE00028460294FFF7CAF905B030BD003801402A
:100EF00000100240000801402DE9F843044690F834
:100F00004100984616460D46202802D00220BDE832
:100F1000F88385B17EB100206064212084F841000F
:100F2000FFF7A6FAA6848146E684A0682027B0F5DC
:100F3000805F02D003E00120E9E7206910B12E466E
:100F400000250EE000260CE08021204600F008FA83
:100F5000A8B9C6B116F8010B21684860E08C401EA4
:100F6000E084E08C4B464FF00002CDF80080002872
:100F7000EAD14FF04001204600F0F2F940B184F888
:100F800041700320C3E735F8020BC0F30800E3E724
:100F900084F841700020BAE7FEE70000F0B585B0A4
:100FA00000241C480094019402940394816941F048
:100FB00010018161816901F010010491816941F0A2
:100FC00020018161816901F020010491816941F072
:100FD000040181618069104F00F004004FF4005556
:100FE0000490002229463846FFF73DFA0095022674
:100FF00001250396CDE9015469463846FFF73EF9CD
:10100000009669460548CDE90145FFF737F905B077
:10101000F0BD000000100240001001400008014037
:1010200030B587B000241B4D0094019402940394C2
:1010300004941748059428600920C5E9010441F685
:101040001F40C5E903046C612846AC61FFF76AFDE7
:1010500008B172B6FEE74FF48050009069460D4823
:10106000FFF7D4FD08B172B6FEE7049404A909485D
:101070000594FFF723FD08B172B6FEE72868C16842
:1010800041F00101C1600348FFF798FD07B030BD92
:10109000002C0140B4000020FEE7FEE7012000F034
:1010A000C9FAFBE700F0ECFFFCE701F035FAFCE7DA
:1010B00000F0A0FFFCE710B5FFF7E0F901F064FDD8
:1010C000012803D0BDE8104001F092BA10BD30B540
:1010D0008FB028216846FFF78AF814210AA8FFF785
:1010E00086F801210804CDE90010002402940225AD
:1010F0000491CDE907504FF4E01009906846FFF7DE
:1011000037FB08B172B6FEE70F20CDE90A054FF4B0
:101110008060CDE90C4002210AA80E94FFF74CFA3A
:10112000002801D072B6FEE70FB030BD7047000056
:101130000F4830B4456800226D1C45608468012169
:10114000641C8460C3685B1CC360142D01D34260BF
:101150000170B4F57A7F01D382604170B3F5FA7FF4
:1011600001D3C260817030BC0248FFF7BEBD0000F1
:1011700010000020B4000020F0B50268194B1A4C92
:101180001A4D4FF08047984205D0B84203D0A04294
:1011900001D0A84203D122F070064A683243984237
:1011A00005D0B84203D0A04201D0A84203D122F416
:1011B0004074CA6822434C6922F0800222430260D4
:1011C0008A68C2620A688262984201D10969016331
:1011D000012141610169C90703D0016921F00101C1
:1011E0000161F0BD002C01400004004000080040F7
:1011F00010B5846842EA032224F47F440A43224360
:10120000826010BD826822F070020A4342F007013A
:101210008160704710B5036A046A24F00104046217
:10122000846924F0F00444EA021423F00A020A4319
:101230008461026210BD10B5036A046A24F01004D0
:101240000462846923F0A00324F4704444EA023267
:1012500043EA01118261016210BD01680C3151E85D
:10126000002F22F4907241E80023002BF5D1016891
:10127000143151E8002F22F0010241E80023002B35
:10128000F5D1016B012909D101680C3151E8002F1A
:1012900022F0100241E80023002BF5D1202180F834
:1012A000421000210163704770B50446006801696F
:1012B000E26821F44051114301612169A0680843AB
:1012C000616908432168CA6841F20C639A4302438A
:1012D000CA6020684169A26921F4407111434161EB
:1012E0001E492068884202D1FFF70CFA01E0FFF79F
:1012F000F9F900EBC00101EB001260686421800085
:10130000B2FBF0F3B3FBF1F36FF018067343B2FBDB
:10131000F0F5B2FBF0F605EB8305322303EB051580
:10132000B5FBF1F5B6FBF1F605F0F00505EB06159A
:10133000B2FBF0F6B2FBF0F0B0FBF1F06FF0180288
:10134000504306EB800003EB0010B0FBF1F0216886
:1013500000F00F002844886070BD00000038014094
:101360002DE9F843984617460D460446089E24E0AA
:10137000701C22D0FFF77CF8A0EB0800B0421AD80E
:10138000CEB12068C168490717D5802D15D0402DF2
:1013900013D00168C94309070FD4016800254068CC
:1013A00000902046FFF759FF0820606484F8405001
:1013B0000120BDE8F8830320FBE72068006835EAD8
:1013C000000004D00020B842D2D00020F1E7012074
:1013D000F9E7FEE70FB4054B10B503A9044A0298DC
:1013E00000F028F810BC5DF814FB00008915000817
:1013F000B00000200907090E002804DB00F1E020FE
:1014000080F80014704700F00F0000F1E02080F831
:10141000141D704702E008C8121F08C1002AFAD143
:1014200070477047002001E001C1121F002AFBD164
:10143000704700002DE9FF4F89B09B460446002508
:1014400006E025280BD05A460B999047641C6D1C6A
:1014500020780028F5D10DB02846BDE8F08F002790
:10146000B8460122474900E0074314F8013F203BFA
:1014700002FA03F00842F7D120782E2819D114F887
:10148000010F47F004072A280ED06FF02F022078B2
:10149000A0F1300109290CD808EB880102EB4101C9
:1014A00000EB0108641CF2E70A98641C50F8048BF6
:1014B0000A9020780028CED0642808D0692806D069
:1014C00075281ED05A460B9990476D1C58E00A9912
:1014D0004FF00A0901C90A91002802DA40422D2181
:1014E00002E0390504D52B218DF82010012103E0FD
:1014F000F90704D02021F7E78A4608AE0DE0002165
:10150000FAE70A994FF00A0901C90A91F7E7494633
:10151000FEF778FE303106F8011D0028F7D1ADEB5B
:10152000060000F12009780701D44FF00108C845F2
:1015300002DDA8EB090000E000208046002706E05D
:1015400008A85A46C05D0B9990476D1C7F1C5745F3
:10155000F6DB04E030205A460B9990476D1CB8F139
:101560000001A8F10108F5DC05E016F8010B5A4668
:101570000B9990476D1CB9F10001A9F10109F4DC48
:10158000641C65E70928010013B50A230122694696
:101590000148FFF7B1FC1CBDFC000020FEF776FF00
:1015A000FFF795FDFFF7FAFC1B481A490C22016072
:1015B0004FF4E131416000218160C160C0E9041253
:1015C0008161C161FFF72DFC08B172B6FEE7FFF73C
:1015D00027FD00F03DF8114A0021114800F066F89F
:1015E000104C0E4A0021206024320F4800F05EF8B3
:1015F0000A4A6060483200210C4800F057F8074A58
:10160000A0606C3200210A4800F050F8E06000F061
:1016100031F8FEE700380140FC000020F42E0008FD
:101620009D10000800000020A5100008AB10000865
:10163000B110000810B5EFF3058111B16FF005048A
:1016400003E0002408B100F03BFE204610BD00007E
:10165000EFF3058010B16FF0050070470448016892
:1016600011B14FF0FF307047012101600020704739
:101670008000002010B5EFF3058010B16FF0050079
:1016800010BD08480168012902D04FF0FF3010BD9D
:10169000054A002182F8141D0221016000F0BEFEFF
:1016A000002010BD800000200BE000E02DE9FF418C
:1016B0004FEA01034FF00005EFF30581039549BBA5
:1016C00040B38027182100244AB3166806B1344677
:1016D00096691EB13146761E382E02D21679F6076B
:1016E00003D0002004B0BDE8F081566906B1B70808
:1016F000D2F808C0BCF1000F0DD0D5685C2D18D30E
:1017000012693AB136B18DE806103A46214601F029
:1017100010FA03900DE0D6685EB912694AB903AABF
:10172000CDE90012BAB2214601F0D6F9012800D065
:1017300003950398D6E700002DE9F041134C0F46BE
:101740000546E6682068001D00F040FC681C07D1D3
:1017500037B12168BDE8F0410D48091D00F0CCBC4F
:1017600020683544B5424560216805D2A06BBDE8CC
:10177000F041091D00F0A8BC606B091D00F0A4FC3D
:10178000A06A854200D2A562BDE8F0813000002049
:10179000340600202DE9F041054600F0B9FC2D4C3F
:1017A000A068401CA06020682B4F10B1606930B366
:1017B0002BE02560A068012827D1002606EB8600D3
:1017C00007EB800000F072FC761C382EF6D323481D
:1017D00000F06CFC2148143000F068FC1F482830F1
:1017E00000F064FC1D483C3000F060FC1B485030A9
:1017F00000F05CFC194860631430A06305E02068C9
:10180000E96AC06A884200D82560606A401C60624C
:101810006864E86A2169884200D9206100EB800091
:1018200007EB8000291D00F067FC00F091FC606967
:1018300000280CD02068E96AC06A884207D20849AB
:101840004FF080500860BFF34F8FBFF36F8FBDE83C
:10185000F08100003000002084010020E405002019
:1018600004ED00E038B500F053FC104C2068C8B916
:101870000F4800F01BFC0E48143000F017FC0C4819
:10188000E060143020610A4B0020F03B009003F12F
:10189000500210210A2000F0C1FE206010B105A105
:1018A00000F0D8FCBDE8384000F052BC6C000020CD
:1018B00038070020546D72510000000030B4026CF3
:1018C0000B46002A0BD0C1681144C1608468A14254
:1018D00001D30168C16030BC1846FEF76FBC30BC54
:1018E00070472DE9F041856B174604460026026CCF
:1018F00082B1C7B1E068FEF761FCE168206C091AAB
:10190000E1602268914202D2A168081AE060022FC9
:1019100016D017E02068A8B9A06801F0ADF9064616
:101920000020A0600EE06068FEF748FC216C606853
:1019300008446060A168884204D32068606001E0C8
:1019400005B16D1E6D1CA5633046BDE8F08110B574
:10195000044690F8590058B101280CD002280FD045
:10196000502080F31188BFF34F8FBFF36F8FFEE7D6
:10197000206B00F001FC2046BDE8104000F0FCBBED
:1019800010BD000010484FF44061420706D0C01D52
:101990000D4920F00700411AC1F540610B4A0023B0
:1019A0000144C2E900030839183A21F00701116027
:1019B0004B600B600B1AC0E9001393604FF00040BE
:1019C0005360506170470000180E00209C000020FA
:1019D000144E154CA6F29C474FF08058DFF84C90FF
:1019E00012E000BF00F094FBF068C568281D00F00D
:1019F000EDFAA068401EA0606068401E606000F0C4
:101A0000A7FB2846FFF7A3FF60680028EAD13868E3
:101A10000128F9D9C9F80080BFF34F8FBFF36F8F4A
:101A2000F2E70000200600203000002004ED00E076
:101A300070B51D46049C51B1C4F80020C4E90F01E3
:101A40000121204600F01EFE84F84C5070BD246039
:101A5000F4E700002DE9F05F8846DDE90B941546B8
:101A6000834691009A460A9EA522206BFEF7B8FB9A
:101A70006FF00301206B01EB8501084420F007079C
:101A8000780707D0502080F31188BFF34F8FBFF342
:101A90006F8FFEE70025B8F1000F0FD05FF0000058
:101AA000221818F8001082F8341018F8001011B13C
:101AB000401C1028F4D384F8435001E084F83450DB
:101AC000382E00D33726E662C4E91365201D00F0E6
:101AD000F8FA04F1180000F0F4FA2461C6F13800B5
:101AE0006462A061656584F858505246594638468C
:101AF00000F05AFA2060B9F1000F01D0C9F8004097
:101B0000BDE8F09F30B5114900E011460A688242F5
:101B1000FBD34B685C18844203D14068184448608A
:101B2000084643681C18944209D1084C183C2468A4
:101B3000A24209D052681A4442600A6812680260E0
:101B4000814200D0086030BD0460F9E79C000020AD
:101B500070B5002441600B4D0061914206D8D11A46
:101B60008269914206D2011D286907E09A4203D298
:101B7000994201D3012403E0011DE86800F0A4FAB2
:101B8000204670BD6C00002010B5044600F0C0FA7D
:101B9000A06B28B15FF0000400F0DAFA204610BD17
:101BA0000124F9E730B589B03C4D6EE00498002877
:101BB00006DADDE90601059A90470498002864DBFF
:101BC000069C606910B1201D00F000FA03A800F027
:101BD000D7F8024604980A2857D2DFE800F0050536
:101BE000052D334A05052D3394F8280040F00100F7
:101BF00084F828000599A069059B01442046FFF759
:101C0000A7FF68B3216A2046884794F82800400758
:101C10003BD5002000900598A16900234218194681
:101C2000204601F033F9D8B9502080F31188BFF372
:101C30004F8FBFF36F8FFEE714F8280F20F00100DD
:101C4000207022E094F8280040F0010084F8280079
:101C50000598A06128B1811813462046FFF778FF48
:101C600013E0502080F31188BFF34F8FBFF36F8FC5
:101C7000FEE794F82800810703D4204600F07CFAA0
:101C800003E020F0010084F82800002204A928685D
:101C900000F04CFE002889D109B030BD6C00002056
:101CA0002DE9FC410F46054600F0FCFB01A800F0C1
:101CB00067F80446019818B101F056F8BDE8FC81B8
:101CC000254EAFB130690068D0B30027291B3A46D2
:101CD000306800F0D3FA01F047F80028EED11F4930
:101CE0004FF080500860BFF34F8FBFF36F8FE5E771
:101CF000A542EBD801F038F8F0682746C068C46800
:101D0000201D00F063F994F82800410719D5A06957
:101D10002B4641193A462046FFF71AFFA8B100208A
:101D20000346014600902A46204601F0AFF860B90C
:101D3000502080F31188BFF34F8FBFF36F8FFEE702
:101D400007E020F0010084F82800216A2046884737
:101D5000B4E70127BAE700006C00002004ED00E0C2
:101D60000648416B096829B1416BC968C96849686F
:101D7000816270474FF0FF31FAE700003000002029
:101D800070B5054600F00EFF064E0446B06884426A
:101D900003D200F009F8012000E00020286020466E
:101DA000B46070BD6C000020F8B5194D20E0C0682B
:101DB000C4680668201D00F009F9216A204688479A
:101DC00094F82800400713D5A0693044B04206D9E2
:101DD00024616060211DE86800F076F908E00020C9
:101DE0000346014600903246204601F04FF838B1D4
:101DF000E86801680029DAD12969C5E90310F8BD4E
:101E0000502080F31188BFF34F8FBFF36F8FFEE731
:101E10006C00002008484068401C4FF0500080F3E0
:101E2000118804D0BFF34F8FBFF36F8FFEE7BFF36E
:101E30004F8FBFF36F8FFEE7A4000020074CE068D0
:101E4000016841B1C0680021D0F80000FFF728FF09
:101E5000FFF7A8FEF3E701210020F7E76C00002060
:101E60002DE9F041044600F053F994F9455004F18E
:101E7000240609E0606A48B1304600F03DFF08B131
:101E800000F092FA6D1E6DB2002DF3DC4FF0FF36BC
:101E900084F8456000F05CF900F03AF994F9445098
:101EA00004F1100709E0206948B1384600F024FF2A
:101EB00008B100F079FA6D1E6DB2002DF3DC84F8E4
:101EC0004460BDE8F04100F043B900002DE9F04165
:101ED0000546002700F0E6FA324E306808B9FFF7F1
:101EE00051FD706905424ED1C5B3083568070ED063
:101EF00005F00700C0F108000544680707D050202E
:101F000080F31188BFF34F8FBFF36F8FFEE72DB3C0
:101F10007068854237D82348183001460C6801E0C4
:101F200020460C466168A94202D221680029F7D1F7
:101F300031688C4227D007682168016060680837E3
:101F4000411B10290FD96019420708D0502080F397
:101F50001188BFF34F8FBFF36F8FFEE713E041602F
:101F60006560FFF7CFFD61687068401A7060B26805
:101F7000904200D2B060706901430020C4E90001C2
:101F8000F068401CF06000F0EFFE780707D05020AA
:101F900080F31188BFF34F8FBFF36F8FFEE7384692
:101FA000BDE8F0818400002010B5031F4FF080745D
:101FB0001C601B1F21F001011960191F024B0B60EF
:101FC000143940380A6010BD151E0008D0E90132EE
:101FD00001699A60D0E901235A604A68824201D1BE
:101FE00082684A60002202610868401E0860086832
:101FF0007047000008B5FEF73BFA0090FEF738FA8C
:10200000014609A0FFF7E6F9C820FEF725F9FEF71B
:102010002FFA01460AA0FFF7DDF94FF4FA7168467E
:1020200000F074F908BD00006164632062656769AF
:102030006E2074696D653A2564200A0D0000000069
:1020400061646320656E642074696D653A2564205F
:102050000A0D0000034B036003F15C000860802060
:102060001060704760070020044B036003F15C00C0
:1020700008604FF48070106070470000BC090020B9
:1020800010B51420FEF7E8F802210648FEF7E6F93D
:10209000020005484FF4005100D00122BDE8104075
:1020A000FEF7E1B9000801400010014000F108010D
:1020B0004FF0FF32C0E90112C160016100210160EF
:1020C000704700210161704730B50B685A1C02D07F
:1020D00000F1080202E0026904E022465468256823
:1020E0009D42FAD953684B6099608A6051600861DB
:1020F0000168491C016030BD42684A6093688B608A
:1021000093685960916008610168491C01607047DB
:10211000502080F31188BFF34F8FBFF36F8F0A49B0
:102120004868401C486001280CD10848006810F03D
:10213000FF0F07D0502080F31188BFF34F8FBFF3FC
:102140006F8FFEE770470000A400002004ED00E060
:102150000849486828B1401E486001D180F31188C1
:102160007047502080F31188BFF34F8FBFF36F8FFC
:10217000FEE70000A400002070B500282AD0164D0C
:10218000A0F1080460686969084207D1502080F313
:102190001188BFF34F8FBFF36F8FFEE722683AB10C
:1021A000502080F31188BFF34F8FBFF36F8FFEE78E
:1021B0008843606000F076F9606869680844686088
:1021C0002046FFF79FFC2869401C2861BDE870404D
:1021D00000F0CABD70BD0000840000204FF0E02078
:1021E00000210161816105494FF47A720968B1FBF0
:1021F000F2F1491E41610721016170472C00002066
:1022000010B5FDF7C5FF114910280ED300F1E020ED
:1022100090F8F0030A78904207D2502080F311889A
:10222000BFF34F8FBFF36F8FFEE7094800688968DF
:1022300000F4E060884207D9502080F31188BFF392
:102240004F8FBFF36F8FFEE710BD0000A40000208A
:102250000CED00E010B5084B002200BF53F83240EF
:102260001CB1521C082AF9D310BD43F8321003EBFD
:10227000C201486010BD00004401002070B5154641
:102280000E460446FFF744FF94F944100020491C11
:1022900001D184F8440094F94510491C01D184F817
:1022A0004500FFF755FFA06B28B92A46314604F1D7
:1022B000240000F097F82046BDE87040FFF7D0BD3D
:1022C00010B5020014D00F48006B38B1502080F3D5
:1022D0001188BFF34F8FBFF36F8FFEE700F0E2F876
:1022E00000211046FFF728FA00F03EFD002807D134
:1022F00005494FF080500860BFF34F8FBFF36F8FD9
:1023000010BD00003000002004ED00E070B50D4667
:1023100004000BD095B11E4A106BB8B1502080F369
:102320001188BFF34F8FBFF36F8FFEE7502080F30C
:102330001188BFF34F8FBFF36F8FFEE7502080F3FC
:102340001188BFF34F8FBFF36F8FFEE700F0AAF83D
:10235000D26823685919934204D98B420AD9914211
:1023600002D807E08B42FAD9881A21600021FFF7D2
:10237000E3F900E0216000F0F7FC002807D10549EF
:102380004FF080500860BFF34F8FBFF36F8F70BD69
:102390003000002004ED00E002490A6A0260C968CA
:1023A000416070473000002001490120C86170473A
:1023B0003000002010B50C4650B1094909681831A9
:1023C000FFF782FE2046BDE810400121FFF7B4B9B7
:1023D000502080F31188BFF34F8FBFF36F8FFEE75C
:1023E0003000002070B514460D4668B10A490968EE
:1023F0001831FFF781FE0CB14FF0FF35214628461A
:10240000BDE87040FFF798B9502080F31188BFF302
:102410004F8FBFF36F8FFEE73000002030B587B0DD
:102420000024039405AA04A903A80494FFF712FE4C
:10243000DDE903010094CDE90110002315A117483F
:10244000059A00F076FB164D0028E8621FD000F0D8
:10245000EDFC012809D0401C19D1502080F31188CF
:10246000BFF34F8FBFF36F8FFEE7502080F31188CB
:10247000BFF34F8FBFF36F8F4FF0FF30A862012083
:102480006861EC6007B0BDE8304000F05DB807B0AF
:1024900030BD000049444C4500000000D11900083F
:1024A000300000200248016B491C016370470000A6
:1024B00030000020164810B5016B11B10121C16137
:1024C00010BD0021C1610169124A01E0B9B1491E84
:1024D00001EB810352F82330002BF7D001EB81038D
:1024E00002EB830202F1080453685B685360A34265
:1024F00001D15B685360DA680260016110BD502051
:1025000080F31188BFF34F8FBFF36F8FFEE700009A
:10251000300000208401002008B5FDF7A9FF0090DD
:10252000FDF7A6FF014604A0FEF754FF4FF47A71B1
:102530006846FFF7EBFE08BD756172742074696D23
:10254000653A2564200A0D001CB5264908780190DB
:10255000FF20087008788DF800009DF800009DF8B5
:10256000002000F0F000904207D0502080F3118846
:10257000BFF34F8FBFF36F8FFEE79DF800001A4C3B
:1025800000F0500020700720A06005E09DF80020BA
:1025900052008DF80020401E9DF800201206F5D450
:1025A000A060032807D0502080F31188BFF34F8F1D
:1025B000BFF36F8FFEE74FF44070A0600198087082
:1025C0000A48016841F470010160016841F07041FE
:1025D0000160FFF703FE00206060FDF7A3FD00200F
:1025E0001CBD000000E400E0A400002020ED00E09D
:1025F00010B5502080F31188BFF34F8FBFF36F8F5A
:1026000000F0D6FA18B104494FF08050086000205D
:1026100080F3118810BD000004ED00E038B5049D82
:1026200018B153B1CAB181B120E0502080F31188B4
:10263000BFF34F8FBFF36F8FFEE7502080F31188F9
:10264000BFF34F8FBFF36F8FFEE7502080F31188E9
:10265000BFF34F8FBFF36F8FFEE739B1502080F388
:102660001188BFF34F8FBFF36F8FFEE750241C46D6
:10267000012384F846302B460094FFF7D9F9204611
:1026800038BD000070B50D46040025D0FFF740FDB1
:10269000D4E90F20216802FB0011A1600021A16391
:1026A000216861600A46D4E90F01401E00FB012148
:1026B000E16021464FF0FF3001F8440F487004F10B
:1026C00010008DB1FFF7F2FC04F12400FFF7EEFCDF
:1026D000FFF73EFD012070BD502080F31188BFF34D
:1026E0004F8FBFF36F8FFEE721690029F0D000F014
:1026F00003FB0028ECD004494FF080500860BFF382
:102700004F8FBFF36F8FE3E704ED00E02DE9FF4744
:1027100082B01D468A464FF00008040003D0BAF18B
:10272000000F08D011E0502080F31188BFF34F8FC5
:10273000BFF36F8FFEE7206C38B1502080F3118813
:10274000BFF34F8FBFF36F8FFEE7022D0AD1E06B0F
:10275000012807D0502080F31188BFF34F8FBFF3BB
:102760006F8FFEE700F010FA3F4F4FF000094FF077
:10277000805648B9049838B1502080F31188BFF3CF
:102780004F8FBFF36F8FFEE7FFF7C2FCA06BE16BCB
:10279000884207D3022D05D00498D0B1B8F1000FBC
:1027A0001AD01EE02A4651462046FFF79AF8616A81
:1027B00019B104F1240000F09FFA20B13E60BFF38C
:1027C0004F8FBFF36F8FFFF7C3FC012006B0BDE84A
:1027D000F087FFF7BDFC22E06846FFF7DDFD4FF014
:1027E0000108FFF7B5FCFFF75DFEFFF791FC94F9D8
:1027F0004400401C01D184F8449094F94500401CE9
:1028000001D184F84590FFF7A3FC04A9684600F0C5
:1028100029F930B12046FFF723FB00F0A5FA00208C
:10282000D4E7FFF775FCA06BE16B884213D1FFF78B
:102830008FFC04F110000499FFF7BCFD2046FFF760
:102840000FFB00F091FA00289ED13E60BFF34F8F3E
:10285000BFF36F8F98E7FFF77BFC2046FFF700FB85
:1028600000F082FA90E7000004ED00E02DE9F04767
:102870001F4690468946040003D0B9F1000F08D0E6
:1028800011E0502080F31188BFF34F8FBFF36F8F9B
:10289000FEE7206C38B1502080F31188BFF34F8FD2
:1028A000BFF36F8FFEE7022F0AD1E06B012807D03C
:1028B000502080F31188BFF34F8FBFF36F8FFEE777
:1028C000FFF79EFC5020EFF3118680F31188BFF3D1
:1028D0004F8FBFF36F8FA06BE16B884206D3022F3F
:1028E00004D0002086F31188BDE8F08794F94550A4
:1028F000A06B3A4649462046FEF7F3FF681C04D019
:102900006D1C84F845500120ECE7606A0028FAD07D
:1029100004F1240000F0F0F90028F4D0B8F1000F21
:10292000F1D00121C8F80010EDE700002DE9F747CC
:10293000002683B08A46040003D0BAF1000F08D005
:1029400011E0502080F31188BFF34F8FBFF36F8FDA
:10295000FEE7206C38B1502080F31188BFF34F8F11
:10296000BFF36F8FFEE700F00FF9DFF8F4804FF050
:1029700000094FF0805748B9059838B1502080F3CE
:102980001188BFF34F8FBFF36F8FFEE7FFF7C0FBD8
:10299000A56BC5B151462046FEF790FF6D1EA5639D
:1029A000206950B104F1100000F0A6F928B1C8F870
:1029B0000070BFF34F8FBFF36F8FFFF7C9FB01208C
:1029C00006B0BDE8F087059808B11EB106E0FFF734
:1029D000BFFB27E06846FFF7DFFC0126FFF7B8FBE7
:1029E000FFF760FDFFF794FB94F94400401C01D110
:1029F00084F8449094F94500401C01D184F8459036
:102A0000FFF7A6FB05A9684600F02CF80028204631
:102A10000AD0FFF725FA00F0A7F92046FFF7B4F82F
:102A20000028B3D00020CBE7FFF7AEF890B104F157
:102A300024000599FFF7BEFC2046FFF711FA00F0CD
:102A400093F90028A2D1C8F80070BFF34F8FBFF3ED
:102A50006F8F9BE72046FFF703FA00F085F995E7B3
:102A600004ED00E02DE9F0410C46050011D0C4B1A1
:102A7000FFF74EFB174BDA686E682068911B471C06
:102A800017D02F681B6A9F4219D0964217D801248D
:102A900010E0502080F31188BFF34F8FBFF36F8F8A
:102AA000FEE7502080F31188BFF34F8FBFF36F8F85
:102AB000FEE70024FFF74CFB2046BDE8F08188428A
:102AC00005D9401A20602846FFF766FCF1E7002090
:102AD0002060DCE7300000202DE9FF5F8346DDE960
:102AE0000E87994616468A469000FFF7EFF90500D3
:102AF0001CD05C20FFF7EAF9040014D00020256305
:102B000084F85900CDE90240CDE900874B463246B2
:102B100051465846FEF79EFF2046FEF73BFE012039
:102B200004B0BDE8F09F2846FFF726FB4FF0FF30CA
:102B3000F6E7F0B585B0DDE90B640A9DA6B1DCB11E
:102B40005C2700972663022684F85960002604AFAC
:102B5000CDE90246CDE90057FEF77CFF2046FEF79F
:102B600019FE049805B0F0BD502080F31188BFF322
:102B70004F8FBFF36F8FFEE7502080F31188BFF3B4
:102B80004F8FBFF36F8FFEE70548416919B1006BA6
:102B900018B10020704701207047022070470000E4
:102BA000300000200148C06870470000300000205D
:102BB0002DE9F0412E4C0027206B28B1A069401C64
:102BC000A0613846BDE8F081E668761CE66013D166
:102BD000606B006838B1502080F31188BFF34F8FCD
:102BE000BFF36F8FFEE7606BA16B6163A063206A28
:102BF000401C2062FFF7B4F8A06ADFF878808642B4
:102C000009D3606B0068A0B1606BC068C568686874
:102C1000864211D2A0622068C06A00EB800158F899
:102C20002100012800D90127E0690028C9D0012727
:102C3000C7E74FF0FF30EDE7281DFFF7C7F9A86A97
:102C400018B105F11800FFF7C1F9E86A2169884257
:102C500000D9206100EB800108EB8100291DFFF7FE
:102C60004BFAE86A2168C96A8842CAD30127C8E7D3
:102C7000300000208401002070B504004FF00001F6
:102C800033D01B4D2868844207D0502080F3118830
:102C9000BFF34F8FBFF36F8FFEE7206D38B1401E3B
:102CA0002065E36CE26A9A421FD040B11DE05020DB
:102CB00080F31188BFF34F8FBFF36F8FFEE7201DA6
:102CC000FFF784F9E06CE062C0F13800A061E06ACF
:102CD0002969884200D92861064900EB800001EB90
:102CE0008000211DFFF708FA0121084670BD000091
:102CF000300000208401002070B5C068C46854B161
:102D000004F118000646FFF761F9144D286B50B125
:102D10003146134815E0502080F31188BFF34F8FE0
:102D2000BFF36F8FFEE7201DFFF750F9E06A2969B6
:102D3000884200D928610B4900EB800001EB80003C
:102D4000211DFFF7D9F9E06A2968C96A884202D9CA
:102D50000120E86170BD002070BD0000300000203F
:102D60000C060020840100202DE9F0472C4D0024A2
:102D70002746286B38B1FFF7CBF9286B401E286334
:102D8000286B40B146E0502080F31188BFF34F8F8D
:102D9000BFF36F8FFEE7A968224E0120D1B3A6F5DD
:102DA000916980463068E0B1F068C46804F11800A9
:102DB000FFF70CF9201DFFF709F9E06A296988423D
:102DC00000D9286100EB800109EB8100211DFFF78C
:102DD00093F9E06A2968C96A8842E3D3C5F81C8080
:102DE000E0E70CB1FEF7BCFFAC694CB14FEA080656
:102DF000FFF7DEFE00B1EE61641EF9D10020A8618C
:102E0000E86938B10849012738070860BFF34F8FD8
:102E1000BFF36F8FFFF79CF93846BDE8F0870000DD
:102E2000300000200C06002004ED00E010B586B054
:102E3000FEF718FD114C2068B8B1002003900490F3
:102E400005AA04A903A8FFF70FF9DDE90321022071
:102E50008DE8070000230AA10B48059AFFF769FED9
:102E6000606010B106B0012010BD502080F31188C1
:102E7000BFF34F8FBFF36F8FFEE700006C000020A1
:102E8000546D7220537663003D1E00082DE9FF410A
:102E90001E46134602000A9D4FF0000016D0144C47
:102EA0002768002F0FD0CDE900130292062917DA08
:102EB000FFF76AFE02284FF000030FD00022694698
:102EC0002068FFF723FC04B0BDE8F081502080F3B8
:102ED0001188BFF34F8FBFF36F8FFEE72A46EEE7EF
:102EE0000023324669463846FFF7C0FCEBE7000096
:102EF0006C000020D42F000800000000000000003B
:102F000000000000000000000002000018000000A7
:102F10000000000000000000B02F000800000000CA
:102F2000000000000000000000000000000200009F
:102F3000080000000000000000000000BC2F000896
:102F40000000000000000000000000000000000081
:102F50000002000008000000000000000000000067
:102F6000C82F000800000000000000000000000062
:102F70000000000000020000080000000000000047
:102F800000000000010202030405060708090A0BFD
:102F90000C0D0E0F101000000000000000000102D8
:102FA00003040607080900000000010203040000F2
:102FB0006D795461736B3032000000006D7954619B
:102FC000736B3033000000006D795461736B3034E3
:102FD0000000000064656661756C745461736B0079
:102FE0000030000800000020B400000014140008A5
:102FF000B4300008B4000020641D00002414000850
:1030000000000000000000000000000000000000C0
:1030100000000000000000000000000000000000B0
:1030200001000000100000000000000000127A0003
:103030000000000000000000000000000000000090
:103040000000000000000000000000000000000080
:103050000000000000000000000000000000000070
:103060000000000000000000000000000000000060
:103070000000000000000000000000000000000050
:103080000000000000000000000000000000000040
:103090000000000000000000000000000000000030
:1030A0000000000000000000AAAAAAAA0000000078
:0430B000000000001C
:04000005080000ED02
:00000001FF
