:020000040800F2
:10000000D02800209901000843130008A51100081A
:10001000411300087F02000861160008000000007C
:1000200000000000000000000000000001010008C6
:100030008102000800000000450100084B13000881
:10004000B3010008B3010008B3010008B3010008C0
:10005000B3010008B3010008B3010008B3010008B0
:10006000B3010008B3010008B3010008B3010008A0
:10007000B3010008B3010008B3010008B301000890
:10008000B3010008B3010008B3010008B301000880
:10009000B3010008B3010008B3010008B301000870
:1000A000B3010008B3010008B3010008B301000860
:1000B000C5130008B3010008B3010008B30100082C
:1000C000B3010008B3010008B3010008B301000840
:1000D000B301000839160008B3010008B301000895
:1000E000B3010008B3010008B3010008DFF80CD029
:1000F00000F088F8004800476D170008D02800205D
:10010000224B19680868B0E8F00F80F30988BFF344
:100110006F8F4FF0000080F311884EF00D0E704786
:100120000000000006480068006880F3088862B696
:1001300061B6BFF34F8FBFF36F8F00DF00BF00BF0B
:1001400008ED00E0EFF30980BFF36F8F0F4B1A68E3
:1001500020E9F00F106008B54FF0500080F31188CF
:10016000BFF34F8FBFF36F8F02F0C4FF4FF000005B
:1001700080F31188BDE8084019680868B0E8F00FFE
:1001800080F30988BFF36F8F704700BF0401002020
:10019000EFF3058070470000064880470648004797
:1001A000FEE7FEE7FEE7FEE7FEE7FEE7FEE7FEE727
:1001B000FEE7FEE7C1130008ED00000840EA010376
:1001C0009B0703D009E008C9121F08C0042AFAD20D
:1001D00003E011F8013B00F8013B521EF9D27047D1
:1001E000D2B201E000F8012B491EFBD27047002279
:1001F000F6E710B513460A4604461946FFF7F0FF26
:10020000204610BD064C074D06E0E06840F00103B3
:1002100094E8070098471034AC42F6D3FFF76AFF22
:10022000A83C0008C83C000870B58C1810F8015BA9
:1002300015F0070301D110F8013B2A1106D110F87F
:10024000012B03E010F8016B01F8016B5B1EF9D183
:100250002B0705D40023521E0DD401F8013BFAE709
:1002600010F8013BCB1A921C03E013F8015B01F874
:10027000015B521EF9D5A142D8D3002070BDFEE724
:10028000704700002DE9F84FDFF8B8910024A9F17C
:10029000040B23460F2709F1040AABF1040EC9E051
:1002A0000125A5402A40AA427DD1674ED1F804C05D
:1002B000ACEB0608B44532D014DCBCF1030F3AD0E5
:1002C00009DCBCF1000F2AD0BCF1010F1CD0BCF13D
:1002D000020F31D11DE0BCF1110F17D0BCF1120F8C
:1002E0002AD119E0B8F5881F19D006DCB8F5803F8F
:1002F00015D0B8F5801F1FD111E0B8F5001F0ED042
:10030000B8F5041F18D10AE0CB6815E0CB681B1DB7
:1003100012E0CB6808330FE0CB680C330CE08B683D
:100320002BB1012B4FF0080303D0456104E00423F7
:1003300002E0056100E00023FF2A01D8064601E043
:1003400000F104064FEA840501D9A5F12005D6F88D
:10035000008007FA05FC28EA0C0803FA05F548EACC
:100360000508C6F800804D68ED0062D5374DAE69CE
:1003700046F00106AE61AD6924F0030605F0010503
:100380000095334D06EB050CDCF80850A607360F38
:1003900007FA06F825EA0805DFF8B880404503D1DA
:1003A0004FF0000817E044E0DFF8AC80404502D190
:1003B0004FF001080FE0DFF8A480404502D14FF074
:1003C000020808E0DFF89880404502D14FF00308AA
:1003D00001E04FF0040808FA06F848EA0508CCF8EE
:1003E00008804D68D9F80060ED024D4601D51643EE
:1003F00000E096432E604D68DAF80060AD02554685
:1004000001D5164300E096432E604D68DBF800608E
:10041000AD035D4601D5164300E096432E604D685E
:10042000DEF80060ED03754601D5164300E0964303
:100430002E60641C0D682A46E5407FF431AFBDE8AC
:10044000F88F000008040140000011100010024065
:100450000000014000080140000C01400010014074
:10046000001401408068084000D0012070470AB1A4
:10047000016170470904FBE701488068704700008C
:10048000F400002070B5040025D094F83D0000254C
:1004900020B984F83C50204600F0B8F8242084F8B5
:1004A0003D002068016821F00101016020680168B9
:1004B00041F4004101602068016821F400410160BD
:1004C00000F010FA4D4A6168914201D84C4900E0B1
:1004D0004C49884201D2012070BD4B492368B0FBD2
:1004E000F1F15E6826F03F060E435E60636893425A
:1004F00006D94FF4967359434FF47A73B1FBF3F175
:100500002368491C1E6A26F03F0631431962616860
:10051000914210D84900401EB0FBF1F2521CC2F3C8
:100520000B02042A01D2042022E0B0FBF1F0401CAF
:10053000C0F30B001CE0A268F2B301EBC10303EBB4
:100540000116431EB3FBF6F35B1C43F480431B050B
:1005500049D092B301EBC10202EB0111401EB0FB86
:10056000F1F0401CC0F30B0040F4804040F4004028
:100570002168CA694CF6FF739A431043C861D4E9F5
:10058000071001432068026822F0C0021143016095
:10059000D4E9030101432068826848F2FF339A439B
:1005A00011438160D4E9050108432168CA6822F03B
:1005B000FF021043C86001E00EE016E02068016809
:1005C00041F0010101602564202084F83D0025638D
:1005D00084F83E50002070BD01EB4106431EB3FB82
:1005E000F6F35B1CB3E70120C2E701EB4101401EBB
:1005F000B0FBF1F0401CC0F30B00B7E7A086010090
:1006000080841E0000093D0040420F0010B586B0F6
:1006100000210091019102910391006813498842E1
:1006200022D1134CA06940F00800A061A06969467E
:1006300000F0080004904FF44070009012200190E8
:10064000032003900B48FFF71DFE0B48416841F063
:10065000E06141F002014160E06940F40010E061B6
:10066000E06900F40010049006B010BD0054004092
:1006700000100240000C0140000001400248816867
:100680000278114481607047F4000020074810B5DB
:10069000016841F010010160032000F07BF80F2099
:1006A00000F006F800F024F8002010BD0020024001
:1006B00070B50D4D04464FF47A712878B1FBF0F017
:1006C0000A490968B1FBF0F000F0E2FA48B9102CD1
:1006D00007D200222146501E00F03CF800206C603A
:1006E00070BD012070BD0000F4000020000100205A
:1006F0000F4808B5816941F001018161816901F00C
:1007000001010091C16941F08051C161C0690022BD
:1007100000F0805000900F21901E00F01BF805485B
:10072000416821F0E06141F00071416008BD0000C6
:100730000010024000000140002809DB00F01F0209
:10074000012191404009800000F1E020C0F8001133
:1007500070470000F0B40E4B1B680C46C3F3022335
:10076000C3F10705042D00D90425191D072901D25D
:10077000002300E0DB1E012606FA05F1491E214098
:1007800099409E40761E16403143F0BC00F07ABF7F
:100790000CED00E0064900F0070208684FF6FF0381
:1007A000184040EA0220034A1043086070470000E6
:1007B0000CED00E00000FA052DE9F0470F460500BA
:1007C00061D0434E306800F00700B84209D230686B
:1007D00020F0070038433060306800F00700B8426E
:1007E00051D128683B4C810712D5400703D560687A
:1007F00040F4E06060602878000703D5606840F44A
:10080000605060606068A96820F0F0000843606094
:100810002878C00728D06868012810D021680228ED
:1008200010D0890700292EDA616821F00301014305
:100830006160FFF721FE804641F288390DE02168B2
:100840008903EFE78901EDE7FFF716FEA0EB08014A
:10085000494502D90320BDE8F0876068696800F067
:100860000C00B0EB810FEFD1306800F00700B84208
:100870000BD9306820F0070038433060306800F052
:100880000700B84201D00120E5E72878400705D5E8
:100890006068E96820F4E060084360602878000739
:1008A00006D56068296920F4605040EAC1006060A4
:1008B00000F038F86168084AC1F30311515CC84080
:1008C0000649086006480068FFF7F2FE0020C2E70C
:1008D0000020024000100240563C000800010020A9
:1008E000F80000200448054900684968044AC1F33B
:1008F0000221515CC84070470001002000100240F6
:10090000663C00080448054900684968044AC1F388
:10091000C221515CC8407047000100200010024015
:10092000663C00080E4A51680E4801F00C03042B87
:1009300011D0082B0FD10C48C1F38343C903C05C0D
:100940000AD55168084AC1F34041921E515C054ADC
:100950005043B0FBF1F07047044948437047000032
:100960000010024000127A00463C000800093D00D9
:100970002DE9F84F040070D02078C04DC00749D051
:100980006868C0F38100012807D06868C0F381005F
:10099000022809D16868C00306D52868800339D5C4
:1009A00060680028E7D035E06068B0F5803F0BD084
:1009B00010B1B0F5A02F11D0286820F48030286045
:1009C000286820F4802002E0286840F48030286005
:1009D000606890B1FFF750FD06460AE0286840F4D1
:1009E00080202860F0E700BFFFF746FD801B6428E9
:1009F00073D828688003F7D50CE0FFF73DFD064665
:100A000005E000BFFFF738FD801B6428F0D8286898
:100A10008003F7D420789A4E80074FF001094FF0F9
:100A2000000839D5686810F00C0F07D06868C0F36B
:100A30008100022809D16868C00306D428688007AD
:100A400014D52069012808D110E02069B0B1C6F89A
:100A50000090FFF711FD074605E00AE1FFF70CFDE6
:100A6000C01B0228C4D828688007F7D528686169A8
:100A700020F0F80040EAC10028600DE0C6F80080D0
:100A8000FFF7FAFC074604E0FFF7F6FCC01B02285C
:100A900023D828688007F7D4207800072CD5794818
:100AA000A169D9B1C0F80090FFF7E6FC074604E061
:100AB000FFF7E2FCC01B02280FD8686A8007F7D551
:100AC00071484FF4FA510068B0FBF1F0009000BF9C
:100AD0000098411E0091FAD20EE080E0C0F800803C
:100AE000FFF7CAFC074604E0FFF7C6FCC01B02285C
:100AF00075D8686A8007F7D42078400760D5E86920
:100B00000027C00008D4E86940F08050E861E86937
:100B1000012700F0805000905C480168C90513D49B
:100B20000168834641F480710160FFF7A5FC8246AD
:100B300006E000BFFFF7A0FCA0EB0A0064284ED837
:100B4000DBF80000C005F5D5E06801280AD008B13F
:100B5000052813D0286A20F001002862286A20F0B6
:100B6000040002E0286A40F001002862E06841F2D7
:100B7000883B98B1FFF780FC82460BE0286A40F082
:100B800004002862EEE700BFFFF776FCA0EB0A0145
:100B900059455AD8286A8007F6D50CE0FFF76CFC57
:100BA000824605E0FFF768FCA0EB0A0159454CD8E6
:100BB000286A8007F6D41FB1E86920F08050E86108
:100BC000E06988B36968C1F38101022944D0022831
:100BD000C6F8608004D0FFF74FFC044638E034E0EC
:100BE000FFF74AFC074604E0FFF746FCC01B02285B
:100BF0002BD828688001F7D4206AB0F5803F05D152
:100C00006868A16820F4003008436860D4E90801EE
:100C10000843696821F4741108436860C6F860905D
:100C2000FFF72AFC044606E025E000BFFFF724FC9E
:100C3000001B022809D828688001F7D51BE000BFF7
:100C4000FFF71AFC001B022802D90320BDE8F88F29
:100C500028688001F4D40EE00128F7D06868226A81
:100C600000F48031914204D1616A00F4701088422E
:100C700001D00120EAE70020E8E700000010024070
:100C80000000424280044242000100200070004007
:100C900010B5401EB0F1807F01D3012010BD4FF090
:100CA000E02460610F21601700F0ECFC0020A061DF
:100CB00007202061002010BD7047704770B590F884
:100CC0003C20012A26D0012480F83C40022280F8F2
:100CD0003D2003685A689D6822F070060A68324316
:100CE0005A600D4B02689A4208D0B2F1804F05D08D
:100CF0000A4B9A4202D00A4B9A4204D1496825F025
:100D000080031943916080F83D40002180F83C1039
:100D1000084670BD022070BD002C01400004004058
:100D20000008004010B5040003D094F83D0010B155
:100D300007E0012010BD002084F83C00204600F0B0
:100D40001FF8022084F83D00211D206800F046FBBA
:100D5000012084F8460084F83E0084F83F0084F8BF
:100D6000400084F8410084F8420084F8430084F88D
:100D7000440084F8450084F83D00002010BD0000C8
:100D800008B50068B0F1804F12D10A48C16941F03E
:100D90000101C161C069002200F00100009005213D
:100DA0001C20FFF7D7FCBDE808401C20FFF7C4BC9F
:100DB00008BD00000010024090F83D10012901D04C
:100DC00001207047022180F83D1000680B498842DD
:100DD00008D0B0F1804F05D00949884202D00949B6
:100DE000884204D1816801F00701062903D0016817
:100DF00041F001010160002070470000002C01401B
:100E0000000400400008004070B5044690F83C0023
:100E10000025012817D0012684F83C60022084F8C0
:100E20003D002068826822F0770222F47F428260CF
:100E30000868502838D00DDC20284FD005DC90B34E
:100E4000102811D14AE0022070BD302846D0402839
:100E50000AD13BE060282FD070280DD0B0F5805F1C
:100E600003D0B0F5005F12D0012584F83D6000206A
:100E700084F83C00284670BDCB68D1E90121206888
:100E800000F0E8FA2068816841F0770109E0CB685A
:100E9000D1E90121206800F0DDFA2068816841F481
:100EA00080418160E1E719E0CA684968206800F084
:100EB000E3FA5021206806E0CA684968206800F01B
:100EC000ECFA6021206800F0CFFACEE7CA684968E2
:100ED000206800F0D1FA40212068F4E7226801463A
:100EE0001046F0E770472DE9F04104460068C668F7
:100EF00005694FF00007A90713D5B10711D5F91EF1
:100F0000016101202077206880698007204602D097
:100F1000FFF7E8FF04E000F07EF8204600F07CF8E0
:100F20002777680716D5700714D521686FF004007D
:100F30000861022020772068806910F4407F2046F5
:100F400002D0FFF7CFFF04E000F065F8204600F084
:100F500063F82777280715D5300713D521686FF078
:100F600008000861042020772068C06980072046B7
:100F700002D0FFF7B7FF04E000F04DF8204600F084
:100F80004BF82777E80616D5F00614D521686FF0E0
:100F900010000861082020772068C06910F4407FA5
:100FA000204602D0FFF79EFF04E000F034F8204610
:100FB00000F032F82777E80708D0F00706D021685C
:100FC0006FF001000861204600F027F8280608D5D8
:100FD000300606D521686FF0800008612046FFF7D3
:100FE0006BFE680608D5700606D521686FF04000D4
:100FF0000861204600F012F8A8060AD5B00608D508
:1010000021686FF0200008612046BDE8F041FFF73D
:1010100054BEBDE8F081704770477047704770B5A7
:10102000040004D094F84100002510B106E001202E
:1010300070BD84F84050204600F024F8242084F845
:1010400041002068C16821F40051C160204600F0D1
:101050005DFA2068016921F49041016120684169CD
:1010600021F02A0141612068C16841F40051C1604A
:101070006564202084F8410084F842006563002004
:1010800070BD000030B585B0002400940194029436
:1010900003940068184988422CD11848816941F4AA
:1010A00080418161816901F480410491816941F04D
:1010B000040181618069124D00F0040004904FF436
:1010C000007000900220019003200390694628469A
:1010D000FFF7D8F82815CDE90004694628460294A0
:1010E000FFF7D0F8002205212520FFF733FB25204C
:1010F000FFF722FB05B030BD003801400010024070
:10110000000801402DE9F843044690F84100984654
:1011100016460D46202802D00220BDE8F88385B18E
:101120007EB100206064212084F84100FFF7A4F91B
:10113000A6848146E684A0682027B0F5805F02D0AF
:1011400003E00120E9E7206910B12E4600250EE0FA
:1011500000260CE08021204600F034FAA8B9C6B180
:1011600016F8010B21684860E08C401EE084E08C9A
:101170004B464FF00002CDF800800028EAD14FF036
:101180004001204600F01EFA40B184F8417003206F
:10119000C3E735F8020BC0F30800E3E784F84170B9
:1011A0000020BAE7FEE700002DE9F04385B00024F7
:1011B00034480094019402940394816941F0100131
:1011C0008161816901F010010491816941F0200180
:1011D0008161816901F020010491816941F004017C
:1011E0008161816901F004010491816941F0080184
:1011F00081618069244F00F008004FF4005504908D
:10120000002229463846FFF732F9DFF880800122B4
:10121000FC214046FFF72BF9DFF8749001220321EF
:101220004846FFF724F90095022601250396CDE9EB
:10123000015469463846FFF725F84FF440408DE8E1
:10124000310069463846FFF71DF8032700976946C5
:101250004046CDE90145FFF715F8FC20CDE9000532
:10126000CDE9024669464046FFF70CF80097039621
:10127000CDE9015469464846FFF704F805B0BDE8DA
:10128000F0830000001002400010014000080140FF
:10129000000C014010B586B000241648009401945B
:1012A0000294039404944FF080410594C0E9001423
:1012B00040F26711C0E9024104618461FFF732FD29
:1012C00008B172B6FEE74FF48050009069460948B5
:1012D000FFF79AFD08B172B6FEE7049404A9054829
:1012E0000594FFF7EBFC002801D072B6FEE706B0CC
:1012F00010BD00006807002010B5104C0E480C21EE
:1013000020604FF4E13060600020A060E060C4E93C
:101310000401A061E0612046FFF781FE08B172B6CA
:10132000FEE72068C16841F02001C1602068C16803
:1013300041F40051C16010BD00380140B0070020E9
:10134000FEE7FEE701F046FEFCE710B5FFF796F971
:1013500002F098FA012803D0BDE8104001F050BF18
:1013600010BD30B58FB028216846FEF740FF14212C
:101370000AA8FEF73CFF01210804CDE90010002473
:10138000029402250491CDE907504FF4E010099032
:101390006846FFF7EDFA08B172B6FEE70F20CDE917
:1013A0000A054FF48060CDE90C4002210AA80E9492
:1013B000FFF702FA002801D072B6FEE70FB030BD89
:1013C0007047000010B50448FFF78DFDBDE81040E0
:1013D000002001F07FB9000068070020F0B5026826
:1013E000194B1A4C1A4D4FF08047984205D0B8421D
:1013F00003D0A04201D0A84203D122F070064A686F
:101400003243984205D0B84203D0A04201D0A8424E
:1014100003D122F44074CA6822434C6922F080024E
:10142000224302608A68C2620A688262984201D1DD
:1014300009690163012141610169C90703D001699B
:1014400021F001010161F0BD002C014000040040C9
:101450000008004010B5846842EA032224F47F4467
:101460000A432243826010BD826822F070020A4360
:1014700042F007018160704710B5036A046A24F0E6
:1014800001040462846924F0F00444EA021423F0A5
:101490000A020A438461026210BD10B5036A046A3D
:1014A00024F010040462846923F0A00324F470443F
:1014B00044EA023243EA01118261016210BD01680F
:1014C0000C3151E8002F22F4907241E80023002BE8
:1014D000F5D10168143151E8002F22F0010241E8F2
:1014E0000023002BF5D1016B012909D101680C31D2
:1014F00051E8002F22F0100241E80023002BF5D123
:10150000202180F8421000210163704770B5044625
:1015100000680169E26821F44051114301612169C9
:10152000A0680843616908432168CA6841F20C63F6
:101530009A430243CA6020684169A26921F440715C
:10154000114341611E492068884202D1FFF7DAF950
:1015500001E0FFF7C7F900EBC00101EB0012606882
:1015600064218000B2FBF0F3B3FBF1F36FF01806D7
:101570007343B2FBF0F5B2FBF0F605EB83053223C3
:1015800003EB0515B5FBF1F5B6FBF1F605F0F0053B
:1015900005EB0615B2FBF0F6B2FBF0F0B0FBF1F094
:1015A0006FF01802504306EB800003EB0010B0FB15
:1015B000F1F0216800F00F002844886070BD000041
:1015C000003801402DE9F843984617460D46044679
:1015D000089E24E0701C22D0FEF74EFFA0EB08000E
:1015E000B0421AD8CEB12068C168490717D5802DFE
:1015F00015D0402D13D00168C94309070FD40168E5
:101600000025406800902046FFF759FF08206064DD
:1016100084F840500120BDE8F8830320FBE72068F0
:10162000006835EA000004D00020B842D2D0002083
:10163000F1E70120F9E70000084808B501688906CC
:101640000BD5011D09688DF80010016821F02001FB
:1016500001600021684600F053F808BD00380140E1
:10166000FEE700000FB4054B10B503A9044A029829
:1016700000F027F810BC5DF814FB000059170008B3
:10168000840100200907090E002804DB00F1E02096
:1016900080F80014704700F00F0000F1E02080F89F
:1016A000141D704702E008C8121F08C1002AFAD1B1
:1016B00070477047002001E001C1121F002AFBD1D2
:1016C00070472DE9F0411E4617460446002508E004
:1016D000252802D114F8010F30B13946B047641CF7
:1016E0006D1C20780028F3D12846BDE8F081000069
:1016F000024900EB800001EBC00070478801002028
:1017000001EB410370B5134901EBC302147A012CBC
:1017100001D0002406E0012070BD51F83360055D62
:101720003555641C5569A542F7D851F83300284453
:1017300041F833001469A04202D9D06841F833005F
:101740005168884201D1012000E00220107200207F
:1017500070BD0000B8020020034909680A6812063B
:10176000FCD5C2B24A607047B0070020FEF78EFF7A
:1017700001F092F900F0CEFF01F01EFC00F092FFA4
:1017800001F0F0FAFFF7EDFDFFF70EFDFFF782FD28
:10179000FFF7B2FD214820494FF480420160204903
:1017A000416000218160C0E9031241618161C16132
:1017B0000162FEF767FE08B172B6FEE717485430C3
:1017C0000068C16841F00101C16014485430FFF75E
:1017D000F3FA002001F0D6F900F02AF8114800F0E1
:1017E00055F8114C0F4A012160601032084600F094
:1017F00081F80C4AA06020320021042000F07AF821
:10180000084AE060243A0021084800F0BFF8206050
:1018100000F020F8FEE7000000540040140700200C
:10182000A0860100143C0008E400002045130008D5
:10183000EFF3058010B16FF00500704704480168B0
:1018400011B14FF0FF307047012101600020704757
:101850005401002010B5EFF3058010B16FF00500C2
:1018600010BD08480168012902D04FF0FF3010BDBB
:10187000054A002182F8141D0221016001F0EEFBEF
:10188000002010BD540100200BE000E070B50546BB
:101890004FF00004EFF3058050BB0DB1686800E025
:1018A0000020C10701D0012600E0002600071FD458
:1018B0006DB1D5E9021021B1502819D31EB1042011
:1018C00002E020B114E0012001F0F8FC05E00EB1C7
:1018D000042000E0012001F0E6FC040008D00DB176
:1018E000296800E0002101F0F1FA0EB144F0010492
:1018F000204670BDF8B5144603460E464FF000056D
:10190000EFF3058098BB93B39E423DD84CB1A068DD
:101910000028E06803D0502836D3012002E008B147
:1019200032E00020012B05D010B31846A26801F068
:101930009AFC20E040B103200090002211460120D3
:10194000A36801F0E9FC04E003220021012001F07A
:10195000C2FC050018D086B100231A46194601F0D2
:1019600053FD012809D0284601F0C4FA00250BE0F8
:10197000184601F05BFC050006D00CB1216800E0C0
:101980000021284601F0A2FA2846F8BD2DE9FF41C2
:101990004FEA01034FF00005EFF30581039549BBC2
:1019A00040B38027182100244AB3166806B1344694
:1019B00096691EB13146761E382E02D21679F60788
:1019C00003D0002004B0BDE8F081566906B1B70825
:1019D000D2F808C0BCF1000F0DD0D5685C2D18D32B
:1019E00012693AB136B18DE806103A46214601F047
:1019F0001EFF03900DE0D6685EB912694AB903AACA
:101A0000CDE90012BAB2214601F0E4FE012800D06F
:101A100003950398D6E700002DE9F041134C0F46DB
:101A20000546E6682068001D00F0F7FC681C07D139
:101A300037B12168BDE8F0410D48091D01F000B93A
:101A400020683544B5424560216805D2A06BBDE8E9
:101A5000F041091D01F0DCB8606B091D01F0D8F8F8
:101A6000A06A854200D2A562BDE8F0810401002091
:101A7000E80C00202DE9F041054601F085F92D4CD8
:101A8000A068401CA06020682B4F10B1606930B383
:101A90002BE02560A068012827D1002606EB8600F0
:101AA00007EB800001F0A6F8761C382EF6D3234809
:101AB00001F0A0F82148143001F09CF81F482830AC
:101AC00001F098F81D483C3001F094F81B48503064
:101AD00001F090F8194860631430A06305E02068B5
:101AE000E96AC06A884200D82560606A401C60626A
:101AF0006864E86A2169884200D9206100EB8000AF
:101B000007EB8000291D01F09BF801F05DF9606989
:101B100000280CD02068E96AC06A884207D20849C8
:101B20004FF080500860BFF34F8FBFF36F8FBDE859
:101B3000F08100000401002038080020980C0020EB
:101B400004ED00E038B501F01FF9104C2068C8B969
:101B50000F4801F04FF80E48143001F04BF80C48D4
:101B6000E060143020610A4B0020F03B009003F14C
:101B7000500210210A2001F0CFFB206010B105A116
:101B800001F0A4F9BDE8384001F01EB94001002081
:101B9000EC0D0020546D72510000000030B4026C56
:101BA0000B46002A0BD0C1681144C1608468A14271
:101BB00001D30168C16030BC1846FEF7FFBA30BCE3
:101BC00070472DE9F041856B174604460026026CEC
:101BD00082B1C7B1E068FEF7F1FAE168206C091A3A
:101BE000E1602268914202D2A168081AE060022FE7
:101BF00016D017E02068A8B9A06801F0BBFE064621
:101C00000020A0600EE06068FEF7D8FA216C6068E2
:101C100008446060A168884204D32068606001E0E5
:101C200005B16D1E6D1CA5633046BDE8F08110B591
:101C3000044690F8590058B101280CD002280FD062
:101C4000502080F31188BFF34F8FBFF36F8FFEE7F3
:101C5000206B01F0CDF82046BDE8104001F0C8B877
:101C600010BD000010484FF48051420706D0C01D3F
:101C70000D4920F00700411AC1F580510B4A00239D
:101C80000144C2E900030839183A21F00701116044
:101C90004B600B600B1AC0E9001393604FF00040DB
:101CA0005360506170470000CC1400207001002088
:101CB000144E154CA6F29C474FF08058DFF84C901C
:101CC00012E000BF01F060F8F068C568281D00F060
:101CD000A4FBA068401EA0606068401E606001F028
:101CE00073F82846FFF7A3FF60680028EAD1386838
:101CF0000128F9D9C9F80080BFF34F8FBFF36F8F68
:101D0000F2E70000D40C00200401002004ED00E004
:101D1000002807D00021816001600B460A46C1609F
:101D200001F072BB7047000070B51D46049C51B1B4
:101D3000C4F80020C4E90F010121204601F020FB76
:101D400084F84C5070BD2460F4E700002DE9F05F8A
:101D50008846DDE90B941546834691009A460A9E13
:101D6000A522206BFEF73CFA6FF00301206B01EB1C
:101D70008501084420F00707780707D0502080F33A
:101D80001188BFF34F8FBFF36F8FFEE70025B8F1C7
:101D9000000F0FD05FF00000221818F8001082F832
:101DA000341018F8001011B1401C1028F4D384F836
:101DB000435001E084F83450382E00D33726E662D1
:101DC000C4E91365201D00F020FF04F1180000F0A5
:101DD0001CFF2461C6F138006462A061656584F867
:101DE000585052465946384600F05AFA2060B9F128
:101DF000000F01D0C9F80040BDE8F09F30B511498F
:101E000000E011460A688242FBD34B685C188442AA
:101E100003D1406818444860084643681C1894423F
:101E200009D1084C183C2468A24209D052681A44CF
:101E300042600A6812680260814200D0086030BDCA
:101E40000460F9E77001002070B5002441600B4D7B
:101E50000061914206D8D11A8269914206D2011DD1
:101E6000286907E09A4203D2994201D3012403E092
:101E7000011DE86800F0CCFE204670BD4001002046
:101E800010B5044600F080FFA06B28B15FF000049D
:101E900000F09AFF204610BD0124F9E730B589B063
:101EA0003C4D6EE00498002806DADDE90601059A4B
:101EB00090470498002864DB069C606910B1201DDF
:101EC00000F0ABFA03A800F0D7F8024604980A28FD
:101ED00057D2DFE800F00505052D334A05052D33FF
:101EE00094F8280040F0010084F828000599A069C2
:101EF000059B01442046FFF7A7FF68B3216A2046EF
:101F0000884794F8280040073BD5002000900598AA
:101F1000A169002342181946204601F035FED8B9C0
:101F2000502080F31188BFF34F8FBFF36F8FFEE710
:101F300014F8280F20F00100207022E094F8280007
:101F400040F0010084F828000598A06128B18118AC
:101F500013462046FFF778FF13E0502080F31188E6
:101F6000BFF34F8FBFF36F8FFEE794F82800810710
:101F700003D4204600F03CFF03E020F0010084F889
:101F80002800002204A9286801F04EFB002889D10E
:101F900009B030BD400100202DE9FC410F46054647
:101FA00001F0A0F801A800F067F80446019818B104
:101FB00001F058FDBDE8FC81254EAFB130690068E5
:101FC000D0B30027291B3A46306800F0BFFF01F06C
:101FD00049FD0028EED11F494FF080500860BFF343
:101FE0004F8FBFF36F8FE5E7A542EBD801F03AFDC5
:101FF000F0682746C068C468201D00F00EFA94F807
:102000002800410719D5A0692B4641193A462046B8
:10201000FFF71AFFA8B100200346014600902A46A8
:10202000204601F0B1FD60B9502080F31188BFF364
:102030004F8FBFF36F8FFEE707E020F0010084F8B9
:102040002800216A20468847B4E70127BAE7000044
:102050004001002004ED00E00648416B096829B109
:10206000416BC968C9684968816270474FF0FF31A8
:10207000FAE700000401002070B5054601F010FCED
:10208000064E0446B068844203D200F009F80120ED
:1020900000E0002028602046B46070BD40010020B0
:1020A000F8B5194D20E0C068C4680668201D00F02E
:1020B000B4F9216A2046884794F82800400713D5D0
:1020C000A0693044B04206D924616060211DE868EF
:1020D00000F09EFD08E000200346014600903246D5
:1020E000204601F051FD38B1E86801680029DAD1D5
:1020F0002969C5E90310F8BD502080F31188BFF3AA
:102100004F8FBFF36F8FFEE7400100200848406803
:10211000401C4FF0500080F3118804D0BFF34F8F64
:10212000BFF36F8FFEE7BFF34F8FBFF36F8FFEE7F5
:1021300078010020074CE068016841B1C0680021C7
:10214000D0F80000FFF728FFFFF7A8FEF3E7012112
:102150000020F7E7400100202DE9F041044600F09F
:1021600013FE94F9455004F1240609E0606A48B171
:10217000304601F03FFC08B100F036FF6D1E6DB235
:10218000002DF3DC4FF0FF3684F8456000F01CFEB4
:1021900000F0FAFD94F9445004F1100709E02069B9
:1021A00048B1384601F026FC08B100F01DFF6D1E55
:1021B0006DB2002DF3DC84F84460BDE8F04100F01E
:1021C00003BE00002DE9F0410546002700F08AFF1C
:1021D000324E306808B9FFF745FD706905424ED1AF
:1021E000C5B3083568070ED005F00700C0F1080038
:1021F0000544680707D0502080F31188BFF34F8F44
:10220000BFF36F8FFEE72DB37068854237D8234840
:10221000183001460C6801E020460C466168A9426E
:1022200002D221680029F7D131688C4227D0076893
:102230002168016060680837411B10290FD96019B7
:10224000420708D0502080F31188BFF34F8FBFF3AF
:102250006F8FFEE713E041606560FFF7CFFD6168B7
:102260007068401A7060B268904200D2B0607069C5
:1022700001430020C4E90001F068401CF06001F057
:10228000F1FB780707D0502080F31188BFF34F8F00
:10229000BFF36F8FFEE73846BDE8F081580100209C
:1022A00010B5031F4FF080741C601B1F21F001014B
:1022B0001960191F024B0B60143940380A6010BDB9
:1022C0000D21000870B50E4604460025304600F08A
:1022D0003DF82006304602D500F062F801E000F03B
:1022E00051F8304600F040F8304600F02FF8600614
:1022F0006D1C040EEDB2082DE8D370BD10B5044678
:1023000000F04EF8204600F02FF8204600F03AF892
:102310002046BDE8104000F019B810B5044600F0A2
:1023200015F8204600F02EF8204600F01DF8204653
:10233000BDE8104000F034B810B5044600F014F8C1
:102340002046BDE8104000F001B8000000EB80110D
:102350000448002200EB0110B0F80414D0F8000487
:10236000FEF785B8D002002000EB8011044801225E
:1023700000EB0110B0F80414D0F80004FEF777B8B1
:10238000D002002000EB80110448002200EB011075
:10239000B0F80C14D0F80804FEF769B8D002002099
:1023A00000EB80110448012200EB0110B0F80C147E
:1023B000D0F80804FEF75BB8D002002070B50446E0
:1023C0000D460846FFF79AFF29467820FFF77AFF67
:1023D0002846FFF7B1FF29460020FFF773FF284684
:1023E000FFF7AAFF29462046FFF76CFF2846FFF7B4
:1023F000A3FF2846BDE87040FFF78FBF002105E02E
:1024000001EB8101490030391144401C0278A2F1EE
:102410003003092BF4D908467047D0E9013201692D
:102420009A60D0E901235A604A68824201D18268E9
:102430004A60002202610868401E08600868704710
:10244000034B036003F15C0008608020106070475C
:10245000140E0020044B036003F15C0008604FF48D
:1024600080701060704700007010002070B5002070
:10247000FFF73EF990F902000A2490FBF4F01B4D9F
:102480003030A8730020FFF733F990F9020090FB79
:10249000F4F104FB11003030E8730020FFF728F955
:1024A00090F9030090FBF4F104FB110030306874E4
:1024B0000020FFF71DF990F9000090FBF4F0303098
:1024C000E8770020FFF714F990F900000A2390FB49
:1024D000F4F104FB1100303085F820002946BDE8F6
:1024E000704026220248FEF70DBE000000000020CA
:1024F000B007002010B517A2044688B007CA05AB84
:1025000083E8070001208DF8010000200190E068B9
:10251000FFF774FF0290E068FFF770FF03904CF242
:1025200050300490A068FFF769FFC1B2684600F020
:10253000A7FA05A8FFF796F809A0FFF793F8A06897
:10254000FFF790F806A0FFF78DF8E068FFF78AF82C
:1025500008B010BD4C45445F424C494E4B00000052
:102560002000000010B51AA2044688B007CA05ABC7
:1025700083E8070001208DF8010000200190E06849
:10258000FFF73CFF02902069FFF738FF03904CF201
:1025900050300490A068FFF731FFC1B2684600F0E8
:1025A0006FFA05A8FFF75EF80CA0FFF75BF8A068CC
:1025B000FFF758F809A0FFF755F8E068FFF752F861
:1025C00006A0FFF74FF82069FFF74CF808B010BDE0
:1025D0004C45445F424C494E4B0000002000000037
:1025E0003EB50BA2044607CA8DE80700A068FFF7B6
:1025F00005FFC0B200F0C6FAA0680A230C220078DA
:102600008DF8080069460548FEF77CFD3EBD0000D8
:102610004C45445F4F46465F300D0A00B00700202E
:102620003EB50BA2044607CA8DE80700A068FFF775
:10263000E5FEC0B200F0B0FAA0680A230B220078D1
:102640008DF8070069460548FEF75CFD3EBD0000B9
:102650004C45445F4F4E5F300D0A0000B00700202C
:102660001FB50BA304460FCB8DE80F00A068FFF742
:10267000C5FEC0B200F09AFAA0680A230F220078C3
:102680008DF80B0069460648FEF73CFD1FBD0000B3
:102690004C45445F544F47474C455F300D0A00009E
:1026A000B00700201CB504480090062001900021CE
:1026B000684600F0CDF91CBD28000020044A01EB5B
:1026C000810102EBC1010DC81C3181E80D0070478A
:1026D000880100200E4A00EB800102EBC10109795C
:1026E000072913D2DFE801F00406080A0C0E1000D7
:1026F00000F060B800F012B900F0F6B800F058B978
:1027000000F02EB900F07CB900F078B870470000F6
:10271000880100200EB5064800908014ADF8040032
:102720000520029000216846FFF7C8FF0EBD00009B
:10273000000C01401FB500EB8001074800EBC10011
:10274000018C009100210191029101210391C06946
:102750006946FDF797FD1FBD880100201FB500EBFE
:1027600080010748002200EBC100018C009101218B
:10277000CDE901120391C0696946FDF783FD1FBDD4
:102780008801002000EB80010348012200EBC1001A
:10279000018CC069FDF76BBE8801002000EB800151
:1027A0000348002200EBC100018CC069FDF75FBE49
:1027B0008801002010B5044600EB84010D480E4A44
:1027C00000EBC101486AB2FBF0F051F8082F521C2F
:1027D00041F8042982420BD3002048600120087090
:1027E0002046FFF7BBFF2046BDE81040FFF7D6BFED
:1027F00010BD00008801002080841E002DE9F041FA
:10280000804600EB88013748002500EBC1066421B3
:10281000706A341DB1FBF0F7B068401CB060F0681E
:10282000318C0028F06903D0FDF71CFE40B12AE08E
:10283000FDF718FE012826D16068C4E9015022E0A6
:102840006168E160A268012091420BD9237C04EB0E
:10285000D30203F00703517CC3F1070398400143FF
:1028600051740AE0227C04EBD20102F007024B7C97
:10287000C2F10702904083434B746560A560E56038
:10288000207C401C20746068B8420AD36560A56053
:10289000E560257425704046FFF760FF4046FFF76E
:1028A00071FF207C28281BD32574607CA17C227DAD
:1028B0000844E17C11440844617D884207D1607C72
:1028C0003070A07C7070E07CB070207DF07025705E
:1028D0004046FFF743FF4046BDE8F041FFF752BFD7
:1028E000BDE8F081880100200B4900EB800201EB7C
:1028F000C2010F234A6AB3FBF2F351F8082F521CAE
:1029000041F804299A4205D300224A6003220A7042
:10291000FFF710BF704700008801002010B5044683
:1029200000EB84010D4844F6206200EBC101486AC7
:10293000B2FBF0F051F8082F521C41F804298242F2
:102940000BD300204860022008702046FFF706FFE6
:102950002046BDE81040FFF715BF10BD88010020DC
:102960002DE9F041064600EB86011048002700EBF8
:10297000C1056421686A2C1DB1FBF0F1A868401CF8
:10298000A860884207D3676027703046FFF7E6FEED
:102990003046FFF7F7FE298CE869FDF763FD012853
:1029A00002D1052067602070BDE8F0818801002019
:1029B0002DE9F041064600EB86011048002700EBA8
:1029C000C1056421686A2C1DB1FBF0F1A868401CA8
:1029D000A860884207D3676027703046FFF7BEFEC5
:1029E0003046FFF7CFFE298CE869FDF73BFD002854
:1029F00002D1042067602070BDE8F08188010020CA
:102A00002DE9F041064600EB86011048002700EB57
:102A1000C1056421686A2C1DB1FBF0F1A868401C57
:102A2000A860884207D3676027703046FFF796FE9C
:102A30003046FFF7A7FE298CE869FDF713FD002853
:102A400002D1062067602070BDE8F0818801002077
:102A5000044A01EB410102EB8101D0E90020C1E908
:102A600001207047B0010020044AC1EBC10102EB14
:102A70008101D0E90020C1E905207047BC01002098
:102A80000A460146C2EBC200024A02EB8000142251
:102A9000FDF794BBBC01002070B588B0022500246E
:102AA0008DF809506420CDE90340059042F2107082
:102AB0000690214602A8FFF7E3FF2F4800908DF80B
:102AC00006404014ADF8040000216846FFF7CCFF33
:102AD0002A4E8DF806400096ADF804500121684654
:102AE000FFF7C2FF8DF806400120ADF80400009604
:102AF00002216846FFF7B8FF8DF806400420204DFC
:102B0000ADF80400009503216846FFF7ADFF8DF88E
:102B100006400820ADF80400009504216846FFF740
:102B2000A3FF8DF806401020ADF8040000950521A4
:102B30006846FFF799FF8DF806402020ADF80400A5
:102B4000009506216846FFF78FFF8DF8064040206C
:102B5000ADF80400009507216846FFF785FF8DF862
:102B600006408020ADF80400009508216846FFF774
:102B70007BFF08B070BD000000100140000C014058
:102B800000080140034BC0EBC002002103F82210F3
:102B900000F01CB8BC010020034BC0EBC0020121B7
:102BA00003F8221000F012B8BC0100200649C0EB67
:102BB000C00211F822302BB15FF0000301F822307F
:102BC00000F004B80123F9E7BC0100200849C0EB7C
:102BD000C00201EB820011F82210837E8B4201D1EA
:102BE000012200E00022018B4069FDF740BC00009B
:102BF000BC01002000F108014FF0FF32C0E90112D2
:102C0000C1600161002101607047002101617047CE
:102C100030B50B685A1C02D000F1080202E00269CC
:102C200004E02246546825689D42FAD953684B60F7
:102C300099608A60516008610168491C016030BD7B
:102C400042684A6093688B6093685960916008613C
:102C50000168491C0160704710B504460146AE206A
:102C6000FFF7ACFB21460020FFF7A8FB2146102010
:102C7000FFF7A4FB21464020FFF7A0FB214681205F
:102C8000FFF79CFB2146CF20FFF798FB2146A120B0
:102C9000FFF794FB2146C820FFF790FB2146A620B2
:102CA000FFF78CFB2146A820FFF788FB21463F2039
:102CB000FFF784FB2146D320FFF780FB214600204D
:102CC000FFF77CFB2146D520FFF778FB21468020CB
:102CD000FFF774FB2146D920FFF770FB2146F12056
:102CE000FFF76CFB2146DA20FFF768FB2146122034
:102CF000FFF764FB2146DB20FFF760FB2146402005
:102D0000FFF75CFB21462020FFF758FB21460220FD
:102D1000FFF754FB21468D20FFF750FB214614207E
:102D2000FFF74CFB2146A420FFF748FB2146A620D5
:102D3000FFF744FB2146BDE81040AF20FFF73EBB44
:102D4000074B01EB811203EB021230B439C802F5D4
:102D5000806282E8390030BC0846FFF77DBF000082
:102D6000D00200201FB50748009081150290401541
:102D7000ADF80410ADF80C0000216846FFF7E0FF45
:102D80001FBD0000000C0140502080F31188BFF3EC
:102D90004F8FBFF36F8F0A494868401C4860012875
:102DA0000CD10848006810F0FF0F07D0502080F3C6
:102DB0001188BFF34F8FBFF36F8FFEE7704700009E
:102DC0007801002004ED00E00849486828B1401E61
:102DD000486001D180F311887047502080F311883A
:102DE000BFF34F8FBFF36F8FFEE700007801002025
:102DF00070B500282AD0164DA0F1080460686969F2
:102E0000084207D1502080F31188BFF34F8FBFF3E2
:102E10006F8FFEE722683AB1502080F31188BFF32C
:102E20004F8FBFF36F8FFEE78843606000F05AF961
:102E300060686968084468602046FEF7DFFF28691B
:102E4000401C2861BDE8704000F00CBE70BD000061
:102E5000580100204FF0E020002101618161054907
:102E60004FF47A720968B1FBF2F1491E4161072102
:102E7000016170470001002010B5FDF789F9114983
:102E800010280ED300F1E02090F8F0030A78904269
:102E900007D2502080F31188BFF34F8FBFF36F8F9D
:102EA000FEE709480068896800F4E060884207D9B5
:102EB000502080F31188BFF34F8FBFF36F8FFEE771
:102EC00010BD0000780100200CED00E010B5084BAB
:102ED000002200BF53F832401CB1521C082AF9D31B
:102EE00010BD43F8321003EBC201486010BD000072
:102EF000F807002010B504000AD000F013F894F889
:102F0000460000280CD12046BDE81040FFF770BFF6
:102F1000502080F31188BFF34F8FBFF36F8FFEE710
:102F200010BD0000084A002102EBC1035B68834228
:102F300006D1002042F8310002EBC1014860704721
:102F4000491C0829F0D37047F807002070B51546D2
:102F50000E460446FFF718FF94F944100020491C60
:102F600001D184F8440094F94510491C01D184F83A
:102F70004500FFF729FFA06B28B92A46314604F126
:102F8000240000F04FF82046BDE87040FFF7E4B899
:102F900030B5084CD0E9002501EB410304EBC30137
:102FA0008068CA60C1E90450002008724A6044F891
:102FB000332030BDB80200200EB5054800903130F6
:102FC00001900120029000216846FFF7E1FF0EBD4D
:102FD000E00600207047000002490A6A0260C968E2
:102FE000416070470401002001490120C861704719
:102FF0000401002010B50C4650B109490968183188
:10300000FFF706FE2046BDE810400121FEF704BD93
:10301000502080F31188BFF34F8FBFF36F8FFEE70F
:103020000401002070B514460D4668B10A490968CC
:103030001831FFF705FE0CB14FF0FF352146284649
:10304000BDE87040FEF7E8BC502080F31188BFF364
:103050004F8FBFF36F8FFEE70401002030B587B0BC
:103060000024039405AA04A903A80494FFF7E8F92F
:10307000DDE903010094CDE90110002315A11748F3
:10308000059A00F0D4FB164D0028E8621FD000F02E
:103090004BFD012809D0401C19D1502080F3118824
:1030A000BFF34F8FBFF36F8FFEE7502080F311887F
:1030B000BFF34F8FBFF36F8F4FF0FF30A862012037
:1030C0006861EC6007B0BDE8304000F045B807B07B
:1030D00030BD000049444C4500000000B11C000810
:1030E000040100200248016B491C01637047000085
:1030F00004010020164810B5016B11B10121C16116
:1031000010BD0021C1610169124A01E0B9B1491E37
:1031100001EB810352F82330002BF7D001EB810340
:1031200002EB830202F1080453685B685360A34218
:1031300001D15B685360DA680260016110BD502004
:1031400080F31188BFF34F8FBFF36F8FFEE700004E
:1031500004010020380800201CB526490878019099
:10316000FF20087008788DF800009DF800009DF899
:10317000002000F0F000904207D0502080F311882A
:10318000BFF34F8FBFF36F8FFEE79DF800001A4C1F
:1031900000F0500020700720A06005E09DF800209E
:1031A00052008DF80020401E9DF800201206F5D434
:1031B000A060032807D0502080F31188BFF34F8F01
:1031C000BFF36F8FFEE74FF44070A0600198087066
:1031D0000A48016841F470010160016841F07041E2
:1031E0000160FFF737FE00206060FCF79BFF0020C6
:1031F0001CBD000000E400E07801002020ED00E0AC
:1032000010B5502080F31188BFF34F8FBFF36F8F3D
:1032100000F04CFB18B104494FF0805008600020CA
:1032200080F3118810BD000004ED00E010B50C46DD
:1032300048B184420FD9502080F31188BFF34F8FDB
:10324000BFF36F8FFEE7502080F31188BFF34F8FDD
:10325000BFF36F8FFEE70222002100F03CF8002848
:1032600000D0846310BD38B50C4648B184420FD9F4
:10327000502080F31188BFF34F8FBFF36F8FFEE7AD
:10328000502080F31188BFF34F8FBFF36F8FFEE79D
:103290000221134600220091114600F03DF800285B
:1032A00000D0846338BD10B502460021012000F033
:1032B00012F80446FEF72CFD204610BD38B50B462B
:1032C000002200901146012000F026F80446FEF787
:1032D0001FFD204638BDF8B517460E46050013D031
:1032E00005FB06F05030FEF76DFF04000AD0002009
:1032F00084F8460004F150023B46314628460094CB
:10330000FEF712FD2046F8BD502080F31188BFF370
:103310004F8FBFF36F8FFEE738B5049D18B153B1DF
:10332000CAB181B120E0502080F31188BFF34F8FE4
:10333000BFF36F8FFEE7502080F31188BFF34F8FEC
:10334000BFF36F8FFEE7502080F31188BFF34F8FDC
:10335000BFF36F8FFEE739B1502080F31188BFF3C0
:103360004F8FBFF36F8FFEE750241C46012384F874
:1033700046302B460094FEF7D7FC204638BD0000AF
:1033800070B50D46040025D0FFF7FEFCD4E90F20F0
:10339000216802FB0011A1600021A1632168616026
:1033A0000A46D4E90F01401E00FB0121E1602146DD
:1033B0004FF0FF3001F8440F487004F110008DB158
:1033C000FFF718FC04F12400FFF714FCFFF7FCFCE6
:1033D000012070BD502080F31188BFF34F8FBFF3E1
:1033E0006F8FFEE721690029F0D000F003FB002871
:1033F000ECD004494FF080500860BFF34F8FBFF30B
:103400006F8FE3E704ED00E02DE9FF4782B01D4632
:103410008A464FF00008040003D0BAF1000F08D02C
:1034200011E0502080F31188BFF34F8FBFF36F8FEF
:10343000FEE7206C38B1502080F31188BFF34F8F26
:10344000BFF36F8FFEE7022D0AD1E06B012807D092
:10345000502080F31188BFF34F8FBFF36F8FFEE7CB
:1034600000F010FA3F4F4FF000094FF0805648B976
:10347000049838B1502080F31188BFF34F8FBFF309
:103480006F8FFEE7FFF780FCA06BE16B884207D3EC
:10349000022D05D00498D0B1B8F1000F1AD01EE06B
:1034A0002A4651462046FEF78CFB616A19B104F1A9
:1034B000240000F09FFA20B13E60BFF34F8FBFF3AE
:1034C0006F8FFFF781FC012006B0BDE8F087FFF7A2
:1034D0007BFC22E06846FFF77FFD4FF00108FFF715
:1034E00073FCFFF7FFFDFFF74FFC94F94400401C0D
:1034F00001D184F8449094F94500401C01D184F82E
:103500004590FFF761FC04A9684600F029F930B145
:103510002046FEF721FE00F0A5FA0020D4E7FFF7D1
:1035200033FCA06BE16B884213D1FFF74DFC04F133
:1035300010000499FFF75EFD2046FEF70DFE00F037
:1035400091FA00289ED13E60BFF34F8FBFF36F8F7B
:1035500098E7FFF739FC2046FEF7FEFD00F082FAFF
:1035600090E7000004ED00E02DE9F0471F4690468B
:103570008946040003D0B9F1000F08D011E05020B3
:1035800080F31188BFF34F8FBFF36F8FFEE7206C7E
:1035900038B1502080F31188BFF34F8FBFF36F8F86
:1035A000FEE7022F0AD1E06B012807D0502080F3FC
:1035B0001188BFF34F8FBFF36F8FFEE7FFF75CFCFF
:1035C0005020EFF3118680F31188BFF34F8FBFF3C4
:1035D0006F8FA06BE16B884206D3022F04D00020CE
:1035E00086F31188BDE8F08794F94550A06B3A4600
:1035F00049462046FEF7E5FA681C04D06D1C84F8A5
:1036000045500120ECE7606A0028FAD004F124005C
:1036100000F0F0F90028F4D0B8F1000FF1D001214A
:10362000C8F80010EDE700002DE9F747002683B049
:103630008A46040003D0BAF1000F08D011E05020F0
:1036400080F31188BFF34F8FBFF36F8FFEE7206CBD
:1036500038B1502080F31188BFF34F8FBFF36F8FC5
:10366000FEE700F00FF9DFF8F4804FF000094FF0AB
:10367000805748B9059838B1502080F31188BFF3BE
:103680004F8FBFF36F8FFEE7FFF77EFBA56BC5B1D2
:1036900051462046FEF782FA6D1EA563206950B19F
:1036A00004F1100000F0A6F928B1C8F80070BFF3CB
:1036B0004F8FBFF36F8FFFF787FB012006B0BDE888
:1036C000F087059808B11EB106E0FFF77DFB27E003
:1036D0006846FFF781FC0126FFF776FBFFF702FD46
:1036E000FFF752FB94F94400401C01D184F8449048
:1036F00094F94500401C01D184F84590FFF764FB24
:1037000005A9684600F02CF8002820460AD0FEF7EC
:1037100023FD00F0A7F92046FEF7B2FB0028B3D046
:103720000020CBE7FEF7ACFB90B104F12400059933
:10373000FFF760FC2046FEF70FFD00F093F900282C
:10374000A2D1C8F80070BFF34F8FBFF36F8F9BE714
:103750002046FEF701FD00F085F995E704ED00E055
:103760002DE9F0410C46050011D0C4B1FFF70CFB68
:10377000174BDA686E682068911B471C17D02F68BA
:103780001B6A9F4219D0964217D8012410E050209E
:1037900080F31188BFF34F8FBFF36F8FFEE7502088
:1037A00080F31188BFF34F8FBFF36F8FFEE70024C4
:1037B000FFF70AFB2046BDE8F081884205D9401A90
:1037C00020602846FFF708FCF1E700202060DCE7D6
:1037D000040100202DE9FF5F8346DDE90E8799464D
:1037E00016468A469000FEF7EDFC05001CD05C20D2
:1037F000FEF7E8FC040014D00020256384F859008B
:10380000CDE90240CDE900874B4632465146584645
:10381000FEF79CFA2046FEF72DF9012004B0BDE822
:10382000F09F2846FFF7E4FA4FF0FF30F6E7F0B5D7
:1038300085B0DDE90B640A9DA6B1DCB15C27009779
:103840002663022684F85960002604AFCDE90246BB
:10385000CDE90057FEF77AFA2046FEF70BF90498F7
:1038600005B0F0BD502080F31188BFF34F8FBFF338
:103870006F8FFEE7502080F31188BFF34F8FBFF3A7
:103880006F8FFEE70548416919B1006B18B1002040
:10389000704701207047022070470000040100209B
:1038A0000148C06870470000040100202DE9F04184
:1038B0002E4C0027206B28B1A069401CA06138461F
:1038C000BDE8F081E668761CE66013D1606B0068A5
:1038D00038B1502080F31188BFF34F8FBFF36F8F43
:1038E000FEE7606BA16B6163A063206A401C2062ED
:1038F000FEF7B2FBA06ADFF87880864209D3606BDE
:103900000068A0B1606BC068C5686868864211D263
:10391000A0622068C06A00EB800158F821000128ED
:1039200000D90127E0690028C9D00127C7E74FF077
:10393000FF30EDE7281DFEF770FDA86A18B105F10C
:103940001800FEF76AFDE86A2169884200D9206103
:1039500000EB800108EB8100291DFFF771F9E86A8F
:103960002168C96A8842CAD30127C8E70401002038
:103970003808002070B504004FF0000133D01B4D13
:103980002868844207D0502080F31188BFF34F8FFE
:10399000BFF36F8FFEE7206D38B1401E2065E36CEA
:1039A000E26A9A421FD040B11DE0502080F3118896
:1039B000BFF34F8FBFF36F8FFEE7201DFEF72DFD86
:1039C000E06CE062C0F13800A061E06A29698842D9
:1039D00000D92861064900EB800001EB8000211D21
:1039E000FFF72EF90121084670BD000004010020F8
:1039F0003808002070B5C068C46854B104F11800DC
:103A00000646FEF70AFD144D286B50B131461348A7
:103A100015E0502080F31188BFF34F8FBFF36F8FF5
:103A2000FEE7201DFEF7F9FCE06A2969884200D90B
:103A300028610B4900EB800001EB8000211DFFF79E
:103A4000FFF8E06A2968C96A884202D90120E86162
:103A500070BD002070BD000004010020C00C0020DB
:103A6000380800202DE9F0472C4D00242746286B0C
:103A700038B1FFF789F9286B401E2863286B40B1E5
:103A800046E0502080F31188BFF34F8FBFF36F8F54
:103A9000FEE7A968224E0120D1B3A6F591698046C0
:103AA0003068E0B1F068C46804F11800FEF7B5FCB6
:103AB000201DFEF7B2FCE06A2969884200D928611E
:103AC00000EB800109EB8100211DFFF7B9F8E06AE6
:103AD0002968C96A8842E3D3C5F81C80E0E70CB1C5
:103AE000FEF7BAFAAC694CB14FEA0806FFF7DEFE02
:103AF00000B1EE61641EF9D10020A861E86938B117
:103B00000849012738070860BFF34F8FBFF36F8F55
:103B1000FFF75AF93846BDE8F0870000040100209D
:103B2000C00C002004ED00E010B586B0FEF70AF8E6
:103B3000114C2068B8B100200390049005AA04A994
:103B400003A8FEF787FCDDE9032102208DE80700CA
:103B500000230AA10B48059AFFF769FE606010B1C7
:103B600006B0012010BD502080F31188BFF34F8FA5
:103B7000BFF36F8FFEE7000040010020546D7220FC
:103B800053766300352100082DE9FF411E46134698
:103B900002000A9D4FF0000016D0144C2768002F39
:103BA0000FD0CDE900130292062917DAFFF76AFE5B
:103BB00002284FF000030FD0002269462068FFF76B
:103BC00023FC04B0BDE8F081502080F31188BFF3DE
:103BD0004F8FBFF36F8FFEE72A46EEE70023324692
:103BE00069463846FFF7C0FCEBE7000040010020C3
:103BF0009C3C0008000000000000000000000000E5
:103C000000000000000200000800000000000000AA
:103C100000000000903C00080000000000000000D0
:103C200000000000803C00080000000000000000D0
:103C300000000000703C00080000000000000000D0
:103C400000000000010202030405060708090A0B30
:103C50000C0D0E0F1010000000000000000001020B
:103C60000304060708090000000001020304000025
:103C70006D79436F756E74696E6753656D30310091
:103C80006D7942696E61727953656D303100000063
:103C90006D794D757465783031000000646566613A
:103CA000756C745461736B00C83C00080000002000
:103CB00088010000280200086C3D000888010020EF
:103CC00048270000B4160008481E54656D706572E0
:103CD0006174757265203A2030302E300909094828
:103CE000756D696469747911330D0A22A01B20A4D3
:103CF000041AB80432011321262A08149AA7144B77
:103D0000E125149AAB145A61285AB2143202CBF549
:103D1000241432031A653C1AD20C1AD8045ADD3C1A
:103D20001A6D28144C4544134F4E144F46461754F1
:103D30004F47474C4516424C494E4B1D305F385F4C
:103D4000011D315F313001290B2C325F320B11160E
:103D500044485431311D5245414425021430295CF8
:0C3D600082100379127A1AAA0181000077
:04000005080000ED02
:00000001FF
