:020000040800F2
:100000002022002099010008FD100008C50E0008FC
:10001000DD1000082902000821130008000000007C
:1000200000000000000000000000000001010008C6
:100030002B02000800000000450100080111000823
:10004000B3010008B3010008B3010008B3010008C0
:10005000B3010008B3010008B3010008B3010008B0
:10006000B3010008B3010008B3010008B3010008A0
:10007000B3010008B3010008B3010008B301000890
:10008000B3010008B3010008B3010008B301000880
:10009000B3010008B3010008B3010008B301000870
:1000A000B301000879110008B3010008B30100088A
:1000B000B3010008B3010008B3010008B301000850
:1000C000B3010008B3010008B3010008B301000840
:1000D000B3010008B3010008B3010008B301000830
:1000E000B3010008B3010008B3010008DFF80CD029
:1000F00000F088F800480047A913000820220020DB
:10010000224B19680868B0E8F00F80F30988BFF344
:100110006F8F4FF0000080F311884EF00D0E704786
:100120000000000006480068006880F3088862B696
:1001300061B6BFF34F8FBFF36F8F00DF00BF00BF0B
:1001400008ED00E0EFF30980BFF36F8F0F4B1A68E3
:1001500020E9F00F106008B54FF0500080F31188CF
:10016000BFF34F8FBFF36F8F02F07AF94FF00000AB
:1001700080F31188BDE8084019680868B0E8F00FFE
:1001800080F30988BFF36F8F704700BF38000020ED
:10019000EFF3058070470000064880470648004797
:1001A000FEE7FEE7FEE7FEE7FEE7FEE7FEE7FEE727
:1001B000FEE7FEE777110008ED00000840EA0103C2
:1001C0009B0703D009E008C9121F08C0042AFAD20D
:1001D00003E011F8013B00F8013B521EF9D27047D1
:1001E000D2B201E000F8012B491EFBD27047002279
:1001F000F6E710B513460A4604461946FFF7F0FF26
:10020000204610BD064C074D06E0E06840F00103B3
:1002100094E8070098471034AC42F6D3FFF76AFF22
:10022000FC3200081C330008FEE7704770B5044636
:1002300000F004F90546601C02D00448007804442C
:1002400000F0FCF8401BA042FAD370BD280000204B
:100250002DE9F84FDFF8B8910024A9F1040B2346EB
:100260000F2709F1040AABF1040EC9E00125A540EE
:100270002A40AA427DD1674ED1F804C0ACEB0608F3
:10028000B44532D014DCBCF1030F3AD009DCBCF128
:10029000000F2AD0BCF1010F1CD0BCF1020F31D1EC
:1002A0001DE0BCF1110F17D0BCF1120F2AD119E0DB
:1002B000B8F5881F19D006DCB8F5803F15D0B8F521
:1002C000801F1FD111E0B8F5001F0ED0B8F5041F34
:1002D00018D10AE0CB6815E0CB681B1D12E0CB6893
:1002E00008330FE0CB680C330CE08B682BB1012B8B
:1002F0004FF0080303D0456104E0042302E00561E8
:1003000000E00023FF2A01D8064601E000F10406C0
:100310004FEA840501D9A5F12005D6F8008007FA37
:1003200005FC28EA0C0803FA05F548EA0508C6F8B2
:1003300000804D68ED0062D5374DAE6946F001068C
:10034000AE61AD6924F0030605F001050095334D5B
:1003500006EB050CDCF80850A607360F07FA06F87E
:1003600025EA0805DFF8B880404503D14FF00008C2
:1003700017E044E0DFF8AC80404502D14FF00108BF
:100380000FE0DFF8A480404502D14FF0020808E0FA
:10039000DFF89880404502D14FF0030801E04FF0AC
:1003A000040808FA06F848EA0508CCF808804D6801
:1003B000D9F80060ED024D4601D5164300E09643A2
:1003C0002E604D68DAF80060AD02554601D516433F
:1003D00000E096432E604D68DBF80060AD035D469B
:1003E00001D5164300E096432E604D68DEF80060AC
:1003F000ED03754601D5164300E096432E60641C5C
:100400000D682A46E5407FF431AFBDE8F88F000063
:1004100008040140000011100010024000000140DB
:1004200000080140000C0140001001400014014090
:100430000AB1016170470904FBE7000001488068C8
:1004400070470000280000200248816802781144AB
:100450008160704728000020074810B5016841F00E
:1004600010010160032000F07BF80F2000F006F877
:1004700000F024F8002010BD0020024070B50D4DA2
:1004800004464FF47A712878B1FBF0F00A49096804
:10049000B1FBF0F000F0E2FA48B9102C07D20022CC
:1004A0002146501E00F03CF800206C6070BD012019
:1004B00070BD000028000020340000200F4808B55F
:1004C000816941F001018161816901F001010091BF
:1004D000C16941F08051C161C069002200F08050C3
:1004E00000900F21901E00F01BF80548416821F094
:1004F000E06141F00071416008BD00000010024061
:1005000000000140002809DB00F01F02012191409A
:100510004009800000F1E020C0F8001170470000A1
:10052000F0B40E4B1B680C46C3F30223C3F107055E
:10053000042D00D90425191D072901D2002300E04C
:10054000DB1E012606FA05F1491E214099409E4016
:10055000761E16403143F0BC00F0ECBE0CED00E01E
:10056000064900F0070208684FF6FF03184040EA0A
:100570000220034A10430860704700000CED00E0C1
:100580000000FA052DE9F0470F46050061D0434E03
:10059000306800F00700B84209D2306820F0070048
:1005A00038433060306800F00700B84251D1286805
:1005B0003B4C810712D5400703D5606840F4E060EA
:1005C00060602878000703D5606840F46050606080
:1005D0006068A96820F0F000084360602878C007D0
:1005E00028D06868012810D02168022810D0890717
:1005F00000292EDA616821F0030101436160FFF7F1
:100600001DFF804641F288390DE021688903EFE73C
:100610008901EDE7FFF712FFA0EB0801494502D978
:100620000320BDE8F0876068696800F00C00B0EB5B
:10063000810FEFD1306800F00700B8420BD9306865
:1006400020F0070038433060306800F00700B842FF
:1006500001D00120E5E72878400705D56068E96802
:1006600020F4E060084360602878000706D56068E1
:10067000296920F4605040EAC100606000F038F859
:100680006168084AC1F30311515CC840064908601B
:1006900006480068FFF7F2FE0020C2E70020024093
:1006A0000010024066320008340000202C000020B8
:1006B0000448054900684968044AC1F30221515CB5
:1006C000C840704734000020001002407632000815
:1006D0000448054900684968044AC1F3C221515CD5
:1006E000C8407047340000200010024076320008F5
:1006F0000E4A51680E4801F00C03042B11D0082B50
:100700000FD10C48C1F38343C903C05C0AD55168BB
:10071000084AC1F34041921E515C054A5043B0FB68
:10072000F1F0704704494843704700000010024050
:1007300000127A005632000800093D002DE9F84FFA
:10074000040070D02078C04DC00749D06868C0F35D
:100750008100012807D06868C0F38100022809D110
:100760006868C00306D52868800339D5606800280A
:10077000E7D035E06068B0F5803F0BD010B1B0F540
:10078000A02F11D0286820F480302860286820F439
:10079000802002E0286840F480302860606890B1D2
:1007A000FFF74CFE06460AE0286840F480202860E7
:1007B000F0E700BFFFF742FE801B642873D828686B
:1007C0008003F7D50CE0FFF739FE064605E000BFD1
:1007D000FFF734FE801B6428F0D828688003F7D424
:1007E00020789A4E80074FF001094FF0000839D564
:1007F000686810F00C0F07D06868C0F38100022809
:1008000009D16868C00306D42868800714D5206918
:10081000012808D110E02069B0B1C6F80090FFF7B8
:100820000DFE074605E00AE1FFF708FEC01B02289F
:10083000C4D828688007F7D52868616920F0F800D7
:1008400040EAC10028600DE0C6F80080FFF7F6FD21
:10085000074604E0FFF7F2FDC01B022823D82868F2
:100860008007F7D4207800072CD57948A169D9B141
:10087000C0F80090FFF7E2FD074604E0FFF7DEFD59
:10088000C01B02280FD8686A8007F7D571484FF45B
:10089000FA510068B0FBF1F0009000BF0098411ED3
:1008A0000091FAD20EE080E0C0F80080FFF7C6FDAC
:1008B000074604E0FFF7C2FDC01B022875D8686A2E
:1008C0008007F7D42078400760D5E8690027C0008A
:1008D00008D4E86940F08050E861E869012700F039
:1008E000805000905C480168C90513D401688346B4
:1008F00041F480710160FFF7A1FD824606E000BF70
:10090000FFF79CFDA0EB0A0064284ED8DBF800003E
:10091000C005F5D5E06801280AD008B1052813D034
:10092000286A20F001002862286A20F0040002E012
:10093000286A40F001002862E06841F2883B98B1E3
:10094000FFF77CFD82460BE0286A40F00400286235
:10095000EEE700BFFFF772FDA0EB0A0159455AD838
:10096000286A8007F6D50CE0FFF768FD824605E0AF
:10097000FFF764FDA0EB0A0159454CD8286A8007AF
:10098000F6D41FB1E86920F08050E861E06988B3CF
:100990006968C1F38101022944D00228C6F8608049
:1009A00004D0FFF74BFD044638E034E0FFF746FD86
:1009B000074604E0FFF742FDC01B02282BD8286839
:1009C0008001F7D4206AB0F5803F05D16868A1683E
:1009D00020F4003008436860D4E9080108436968DE
:1009E00021F4741108436860C6F86090FFF726FD93
:1009F000044606E025E000BFFFF720FD001B0228AB
:100A000009D828688001F7D51BE000BFFFF716FD65
:100A1000001B022802D90320BDE8F88F2868800156
:100A2000F4D40EE00128F7D06868226A00F480311F
:100A3000914204D1616A00F47010884201D0012013
:100A4000EAE70020E8E70000001002400000424210
:100A500080044242340000200070004010B5401E67
:100A6000B0F1807F01D3012010BD4FF0E024606120
:100A70000F21601700F05EFC0020A06107202061BC
:100A8000002010BD7047704770B590F83C20012AD7
:100A900026D0012480F83C40022280F83D200368E3
:100AA0005A689D6822F070060A6832435A600D4BFE
:100AB00002689A4208D0B2F1804F05D00A4B9A42A0
:100AC00002D00A4B9A4204D1496825F080031943A9
:100AD000916080F83D40002180F83C10084670BDD0
:100AE000022070BD002C01400004004000080040BE
:100AF00010B5040003D094F83D0010B107E00120C8
:100B000010BD002084F83C00204600F01FF80220B1
:100B100084F83D00211D206800F034FB012084F89A
:100B2000460084F83E0084F83F0084F8400084F8D2
:100B3000410084F8420084F8430084F8440084F8BB
:100B4000450084F83D00002010BD000008B5006895
:100B50000B49884212D10B48816941F400618161DF
:100B60008069002200F40060009005211920FFF741
:100B7000D7FCBDE808401920FFF7C4BC08BD000041
:100B8000002C01400010024090F83D10012901D0D6
:100B900001207047022180F83D1000680B4988420F
:100BA00008D0B0F1804F05D00949884202D00949E8
:100BB000884204D1816801F00701062903D0016849
:100BC00041F001010160002070470000002C01404D
:100BD000000400400008004070B5044690F83C0056
:100BE0000025012817D0012684F83C60022084F8F3
:100BF0003D002068826822F0770222F47F42826002
:100C00000868502838D00DDC20284FD005DC90B380
:100C1000102811D14AE0022070BD302846D040286B
:100C20000AD13BE060282FD070280DD0B0F5805F4E
:100C300003D0B0F5005F12D0012584F83D6000209C
:100C400084F83C00284670BDCB68D1E901212068BA
:100C500000F0D4FA2068816841F0770109E0CB68A0
:100C6000D1E90121206800F0C9FA2068816841F4C7
:100C700080418160E1E719E0CA684968206800F0B6
:100C8000CFFA5021206806E0CA684968206800F061
:100C9000D8FA6021206800F0BBFACEE7CA6849683C
:100CA000206800F0BDFA40212068F4E72268014680
:100CB0001046F0E770472DE9F04104460068C66829
:100CC00005694FF00007A90713D5B10711D5F91E23
:100CD000016101202077206880698007204602D0CA
:100CE000FFF7E8FF04E000F07EF8204600F07CF813
:100CF0002777680716D5700714D521686FF00400B0
:100D00000861022020772068806910F4407F204627
:100D100002D0FFF7CFFF04E000F065F8204600F0B6
:100D200063F82777280715D5300713D521686FF0AA
:100D300008000861042020772068C06980072046E9
:100D400002D0FFF7B7FF04E000F04DF8204600F0B6
:100D50004BF82777E80616D5F00614D521686FF012
:100D600010000861082020772068C06910F4407FD7
:100D7000204602D0FFF79EFF04E000F034F8204642
:100D800000F032F82777E80708D0F00706D021688E
:100D90006FF001000861204600F027F8280608D50A
:100DA000300606D521686FF0800008612046FFF705
:100DB00069FE680608D5700606D521686FF0400008
:100DC0000861204600F012F8A8060AD5B00608D53A
:100DD00021686FF0200008612046BDE8F041FFF770
:100DE00052BEBDE8F081704770477047704770B5DC
:100DF000040004D094F84100002510B106E0012061
:100E000070BD84F84050204600F024F8242084F877
:100E100041002068C16821F40051C160204600F003
:100E200023FA2068016921F4904101612068416939
:100E300021F02A0141612068C16841F40051C1607C
:100E40006564202084F8410084F842006563002036
:100E500070BD000030B585B0002400940194029468
:100E6000039400681449884224D11448816941F4EC
:100E700080418161816901F480410491816941F07F
:100E80000401816180690E4D00F0040004904FF46C
:100E900000700090022001900320039069462846CC
:100EA000FFF7D6F92815CDE90004694628460294D3
:100EB000FFF7CEF905B030BD003801400010024008
:100EC00000080140FEE7000010B50FA000F02AFA6C
:100ED0000F4C4FF0FF31206801F0F8FD0DA000F03D
:100EE00021FA4FF4FA70FFF7A1F90CA000F01AFAFA
:100EF00000231A461946206801F03CFCBDE810406A
:100F00004FF47A7001F0B0B948696768300A0D0093
:100F10001C00002048696768310A0D00486967684D
:100F2000320A0D0010B50DA000F0FCF90D4C4FF089
:100F3000FF31206801F0CAFD0BA000F0F3F941F287
:100F40008830FFF773F90AA000F0ECF9002320685D
:100F5000BDE810401A46194601F00CBC4C6F7730C2
:100F60000A0D00001C0000204C6F77310A0D0000B4
:100F70004C6F77320A0D00002DE9F04385B0002454
:100F800034480094019402940394816941F0100163
:100F90008161816901F010010491816941F02001B2
:100FA0008161816901F020010491816941F00401AE
:100FB0008161816901F004010491816941F00801B6
:100FC00081618069244F00F008004FF400550490BF
:100FD000002229463846FFF72BFADFF880800122ED
:100FE000C0214046FFF724FADFF874900122032164
:100FF0004846FFF71DFA0095022601250396CDE924
:10100000015469463846FFF723F94FF440408DE814
:10101000310069463846FFF71BF9032700976946F8
:101020004046CDE90145FFF713F9C020CDE90005A1
:10103000CDE9024669464046FFF70AF90097039654
:10104000CDE9015469464846FFF702F905B0BDE80D
:10105000F083000000100240001001400008014031
:10106000000C014030B587B000241B4D0094019462
:101070000294039404941748059428600920C5E954
:10108000010441F61F40C5E903046C612846AC61C8
:10109000FFF72EFD08B172B6FEE74FF480500090C6
:1010A00069460D48FFF798FD08B172B6FEE7049453
:1010B00004A909480594FFF7E7FC08B172B6FEE7FA
:1010C0002868C16841F00101C1600348FFF75CFD79
:1010D00007B030BD002C0140BC000020FEE700003E
:1010E00010B504A000F01EF9BDE810404FF47A706E
:1010F00001F0BAB84D69640A0D000000FEE7FEE792
:1011000010B5FFF7A1F901F02FFE012803D0BDE8CB
:10111000104001F02BBA10BD30B58FB028216846C1
:10112000FFF765F814210AA8FFF761F80121080408
:10113000CDE900100024029402250491CDE9075066
:101140004FF4E01009906846FFF7F8FA08B172B65C
:10115000FEE70F20CDE90A054FF48060CDE90C4091
:1011600002210AA80E94FFF70DFA002801D072B6EA
:10117000FEE70FB030BD70470148FFF79CBD00008F
:10118000BC000020F0B50268194B1A4C1A4D4FF004
:101190008047984205D0B84203D0A04201D0A8426F
:1011A00003D122F070064A683243984205D0B84213
:1011B00003D0A04201D0A84203D122F44074CA68EF
:1011C00022434C6922F08002224302608A68C26294
:1011D0000A688262984201D1096901630121416173
:1011E0000169C90703D0016921F001010161F0BD66
:1011F000002C0140000400400008004010B5846845
:1012000042EA032224F47F440A432243826010BD51
:10121000826822F070020A4342F007018160704741
:1012200010B5036A046A24F001040462846924F09E
:10123000F00444EA021423F00A020A4384610262C1
:1012400010BD10B5036A046A24F0100404628469B6
:1012500023F0A00324F4704444EA023243EA01116B
:101260008261016210BD000070B50446006801692A
:10127000E26821F44051114301612169A0680843EB
:10128000616908432168CA6841F20C639A430243CA
:10129000CA6020684169A26921F44071114341612B
:1012A0001E492068884202D1FFF712FA01E0FFF7D9
:1012B000FFF900EBC00101EB0012606864218000BF
:1012C000B2FBF0F3B3FBF1F36FF018067343B2FB1C
:1012D000F0F5B2FBF0F605EB8305322303EB0515C1
:1012E000B5FBF1F5B6FBF1F605F0F00505EB0615DB
:1012F000B2FBF0F6B2FBF0F0B0FBF1F06FF01802C9
:10130000504306EB800003EB0010B0FBF1F02168C6
:1013100000F00F002844886070BD000000380140D4
:10132000FEE70000014A024900F023B895130008C7
:10133000B80000200907090E002804DB00F1E020B6
:1013400080F80014704700F00F0000F1E02080F8F2
:10135000141D704702E008C8121F08C1002AFAD104
:1013600070477047002001E001C1121F002AFBD125
:1013700070472DE9F04116460F460446002503E06C
:101380003946B047641C6D1C20780028F8D12846E7
:10139000BDE8F081034909680A681206FCD5C2B2AB
:1013A0004A60704704010020FFF756F8FFF7B4FECB
:1013B000FFF7E2FD2F482E490C2201604FF4E13186
:1013C000416000218160C160C0E904128161C16196
:1013D000FFF70DFD08B172B6FEE7FFF743FE00F020
:1013E00057F8254800F0AEF8244C234A0121E0616B
:1013F0001032084600F0DAF81F4A2062203200213D
:10140000042000F0D3F81C4A01216062483A0846E3
:1014100000F06CF8184A2061303A0221012000F0F7
:1014200065F8154A6061183A04210A2000F05EF858
:10143000114AA061D83A0021114800F003F90E4A80
:101440002060B43A00210F4800F0FCF80A4A6060BE
:10145000903A00210C4800F0F5F8074AA0606C3A79
:1014600000210A4800F0EEF8E06000F023F8FEE703
:101470000038014004010020243200080000002050
:10148000FF100008E91F0008592000085320000839
:10149000EFF3058010B16FF0050070470448016854
:1014A00011B14FF0FF3070470121016000207047FB
:1014B0008800002010B5EFF3058010B16FF0050033
:1014C00010BD08480168012902D04FF0FF3010BD5F
:1014D000054A002182F8141D0221016000F074FF0A
:1014E000002010BD880000200BE000E0F8B5144695
:1014F0004FF00005EFF3058212BB08B301B3A4B1AE
:10150000D4E9023263B1502A1AD32269C2B16769A1
:1015100000FB01F6B74213D3009501F0B3F807E0E2
:1015200072B9226962B9626952B9002201F089F880
:10153000050005D00CB1216800E0002100F032FE6A
:101540002846F8BD70B505464FF00004EFF305805E
:1015500050BB0DB1686800E00020C10701D0012632
:1015600000E0002600071FD46DB1D5E9021021B1BB
:10157000502819D31EB1042002E020B114E001204C
:1015800001F052F805E00EB1042000E0012001F066
:1015900040F8040008D00DB1296800E0002100F0F7
:1015A00001FE0EB144F00104204670BDF8B51446AA
:1015B00003460E464FF00005EFF3058098BB93B34A
:1015C0009E423DD84CB1A0680028E06803D0502866
:1015D00036D3012002E008B132E00020012B05D013
:1015E00010B31846A26800F0F4FF20E040B10320D9
:1015F0000090002211460120A36801F043F804E0A6
:1016000003220021012001F01CF8050018D086B14A
:1016100000231A46194601F0ADF8012809D02846E2
:1016200000F0D4FD00250BE0184600F0B5FF0500E2
:1016300006D00CB1216800E00021284600F0B2FD80
:101640002846F8BD2DE9FF414FEA01034FF00005A0
:10165000EFF30581039549BB40B38027182100248F
:101660004AB3166806B1344696691EB13146761EF5
:10167000382E02D21679F60703D0002004B0BDE858
:10168000F081566906B1B708D2F808C0BCF1000F66
:101690000DD0D5685C2D18D312693AB136B18DE8FA
:1016A00006103A46214601F034FB03900DE0D6685F
:1016B0005EB912694AB903AACDE90012BAB221464D
:1016C00001F0FAFA012800D003950398D6E700004C
:1016D0002DE9F041134C0F460546E6682068001DD1
:1016E00000F058FC681C07D137B12168BDE8F04113
:1016F0000D48091D00F0A1BC20683544B542456085
:10170000216805D2A06BBDE8F041091D00F07DBC49
:10171000606B091D00F079FCA06A854200D2A562C9
:10172000BDE8F081380000203C0600202DE9F041A2
:10173000054600F095FC2D4CA068401CA060206878
:101740002B4F10B1606930B32BE02560A0680128F1
:1017500027D1002606EB860007EB800000F047FC4F
:10176000761C382EF6D3234800F041FC2148143073
:1017700000F03DFC1F48283000F039FC1D483C308B
:1017800000F035FC1B48503000F031FC1948606314
:101790001430A06305E02068E96AC06A884200D876
:1017A0002560606A401C60626864E86A216988425A
:1017B00000D9206100EB800007EB8000291D00F0BC
:1017C0003CFC00F06DFC606900280CD02068E96AE0
:1017D000C06A884207D208494FF080500860BFF3C2
:1017E0004F8FBFF36F8FBDE8F081000038000020FD
:1017F0008C010020EC05002004ED00E038B500F07D
:101800002FFC104C2068C8B90F4800F0F0FB0E48C0
:10181000143000F0ECFB0C48E060143020610A4BFF
:101820000020F03B009003F1500210210A2000F04C
:1018300029FF206010B105A100F0B4FCBDE83840DC
:1018400000F02EBC7400002040070020546D72513F
:101850000000000030B4026C0B46002A0BD0C168B7
:101860001144C1608468A14201D30168C16030BCE9
:101870001846FEF7A3BC30BC70472DE9F041856BDC
:10188000174604460026026C82B1C7B1E068FEF735
:1018900095FCE168206C091AE1602268914202D24D
:1018A000A168081AE060022F16D017E02068A8B9D6
:1018B000A06801F0D1FA06460020A0600EE0606842
:1018C000FEF77CFC216C606808446060A168884277
:1018D00004D32068606001E005B16D1E6D1CA56336
:1018E0003046BDE8F08110B5044690F8590058B173
:1018F00001280CD002280FD0502080F31188BFF3AC
:101900004F8FBFF36F8FFEE7206B00F0DDFB2046AB
:10191000BDE8104000F0D8BB10BD000010484FF4E7
:101920008051420706D0C01D0D4920F00700411A22
:10193000C1F580510B4A00230144C2E90003083974
:10194000183A21F0070111604B600B600B1AC0E9D7
:10195000001393604FF000405360506170470000E7
:10196000200E0020A4000020144E154CA6F29C4727
:101970004FF08058DFF84C9012E000BF00F070FB91
:10198000F068C568281D00F005FBA068401EA06037
:101990006068401E606000F083FB2846FFF7A3FFED
:1019A00060680028EAD138680128F9D9C9F80080B0
:1019B000BFF34F8FBFF36F8FF2E7000028060020C0
:1019C0003800002004ED00E0002807D000218160ED
:1019D00001600B460A46C16000F0CCBE70470000B3
:1019E00070B51D46049C51B1C4F80020C4E90F0134
:1019F0000121204600F07AFE84F84C5070BD24602E
:101A0000F4E700002DE9F05F8846DDE90B94154608
:101A1000834691009A460A9EA522206BFEF7E0FBC2
:101A20006FF00301206B01EB8501084420F00707EC
:101A3000780707D0502080F31188BFF34F8FBFF392
:101A40006F8FFEE70025B8F1000F0FD05FF00000A8
:101A5000221818F8001082F8341018F8001011B18C
:101A6000401C1028F4D384F8435001E084F834502B
:101A7000382E00D33726E662C4E91365201D00F036
:101A8000C1FA04F1180000F0BDFA2461C6F1380073
:101A90006462A061656584F85850524659463846DC
:101AA00000F066FA2060B9F1000F01D0C9F80040DB
:101AB000BDE8F09F30B5114900E011460A68824246
:101AC000FBD34B685C18844203D1406818444860DB
:101AD000084643681C18944209D1084C183C2468F5
:101AE000A24209D052681A4442600A681268026031
:101AF000814200D0086030BD0460F9E7A4000020F6
:101B000070B5002441600B4D0061914206D8D11A96
:101B10008269914206D2011D286907E09A4203D2E8
:101B2000994201D3012403E0011DE86800F06DFA39
:101B3000204670BD7400002010B5044600F090FAF5
:101B4000A06B28B15FF0000400F0AAFA204610BD97
:101B50000124F9E730B589B03C4D6EE004980028C7
:101B600006DADDE90601059A90470498002864DB4F
:101B7000069C606910B1201D00F00CFA03A800F06B
:101B8000D7F8024604980A2857D2DFE800F0050586
:101B9000052D334A05052D3394F8280040F0010047
:101BA00084F828000599A069059B01442046FFF7A9
:101BB000A7FF68B3216A2046884794F828004007A9
:101BC0003BD5002000900598A169002342181946D2
:101BD000204601F087FAD8B9502080F31188BFF36E
:101BE0004F8FBFF36F8FFEE714F8280F20F001002E
:101BF000207022E094F8280040F0010084F82800CA
:101C00000598A06128B1811813462046FFF778FF98
:101C100013E0502080F31188BFF34F8FBFF36F8F15
:101C2000FEE794F82800810703D4204600F04CFA20
:101C300003E020F0010084F82800002204A92868AD
:101C400000F0A8FE002889D109B030BD7400002042
:101C50002DE9FC410F46054600F0FAFB01A800F013
:101C600067F80446019818B101F0AAF9BDE8FC81B3
:101C7000254EAFB130690068D0B30027291B3A4622
:101C8000306800F0CFFA01F09BF90028EED11F492F
:101C90004FF080500860BFF34F8FBFF36F8FE5E7C1
:101CA000A542EBD801F08CF9F0682746C068C468FB
:101CB000201D00F06FF994F82800410719D5A0699C
:101CC0002B4641193A462046FFF71AFFA8B10020DB
:101CD0000346014600902A46204601F003FA60B907
:101CE000502080F31188BFF34F8FBFF36F8FFEE753
:101CF00007E020F0010084F82800216A2046884788
:101D0000B4E70127BAE700007400002004ED00E00A
:101D10000648416B096829B1416BC968C9684968BF
:101D2000816270474FF0FF31FAE700003800002071
:101D300070B5054601F026F8064E0446B0688442A8
:101D400003D200F009F8012000E0002028602046BE
:101D5000B46070BD74000020F8B5194D20E0C06873
:101D6000C4680668201D00F015F9216A20468847DE
:101D700094F82800400713D5A0693044B04206D932
:101D800024616060211DE86800F03FF908E0002050
:101D90000346014600903246204601F0A3F938B1CF
:101DA000E86801680029DAD12969C5E90310F8BD9E
:101DB000502080F31188BFF34F8FBFF36F8FFEE782
:101DC0007400002008484068401C4FF0500080F329
:101DD000118804D0BFF34F8FBFF36F8FFEE7BFF3BF
:101DE0004F8FBFF36F8FFEE7AC000020074CE06819
:101DF000016841B1C0680021D0F80000FFF728FF5A
:101E0000FFF7A8FEF3E701210020F7E774000020A8
:101E10002DE9F041044600F023F994F9455004F10E
:101E2000240609E0606A48B1304601F091F808B133
:101E300000F048FA6D1E6DB2002DF3DC4FF0FF3656
:101E400084F8456000F02CF900F00AF994F9445048
:101E500004F1100709E0206948B1384601F078F82C
:101E600008B100F02FFA6D1E6DB2002DF3DC84F87E
:101E70004460BDE8F04100F013B900002DE9F041E5
:101E80000546002700F0E4FA324E306808B9FFF743
:101E900045FD706905424ED1C5B3083568070ED0BF
:101EA00005F00700C0F108000544680707D050207E
:101EB00080F31188BFF34F8FBFF36F8FFEE72DB311
:101EC0007068854237D82348183001460C6801E015
:101ED00020460C466168A94202D221680029F7D148
:101EE00031688C4227D00768216801606068083734
:101EF000411B10290FD96019420708D0502080F3E8
:101F00001188BFF34F8FBFF36F8FFEE713E041607F
:101F10006560FFF7CFFD61687068401A7060B26855
:101F2000904200D2B060706901430020C4E9000112
:101F3000F068401CF06001F043F8780707D05020AB
:101F400080F31188BFF34F8FBFF36F8FFEE73846E2
:101F5000BDE8F0818C0000200449086818B10868C9
:101F6000026D521C026508687047000038000020AE
:101F700010B5031F4FF080741C601B1F21F001017E
:101F80001960191F024B0B60143940380A6010BDEC
:101F9000C51D0008D0E9013201699A60D0E901232A
:101FA0005A604A68824201D182684A600022026116
:101FB0000868401E0860086870470000034B036013
:101FC00003F15C0008608020106070476807002003
:101FD000044B036003F15C0008604FF480701060F4
:101FE00070470000C4090020FEF76EFFFCE700F117
:101FF00008014FF0FF32C0E90112C1600161002108
:102000000160704700210161704730B50B685A1CB0
:1020100002D000F1080202E0026904E0224654689E
:1020200025689D42FAD953684B6099608A60516077
:1020300008610168491C016030BD42684A609368CC
:102040008B6093685960916008610168491C016068
:102050007047FEF767FFFCE7FFF742F8FCE7000078
:10206000502080F31188BFF34F8FBFF36F8F0A4961
:102070004868401C486001280CD10848006810F0EE
:10208000FF0F07D0502080F31188BFF34F8FBFF3AD
:102090006F8FFEE770470000AC00002004ED00E009
:1020A0000849486828B1401E486001D180F3118872
:1020B0007047502080F31188BFF34F8FBFF36F8FAD
:1020C000FEE70000AC00002070B500282AD0164DB5
:1020D000A0F1080460686969084207D1502080F3C4
:1020E0001188BFF34F8FBFF36F8FFEE722683AB1BD
:1020F000502080F31188BFF34F8FBFF36F8FFEE73F
:102100008843606000F0A4F960686968084468600A
:102110002046FFF7CFFC2869401C2861BDE87040CD
:1021200000F04EBF70BD00008C0000204FF0E0209A
:1021300000210161816105494FF47A720968B1FBA0
:10214000F2F1491E4161072101617047340000200E
:1021500010B5FEF71DF8114910280ED300F1E0204C
:1021600090F8F0030A78904207D2502080F311884B
:10217000BFF34F8FBFF36F8FFEE709480068896890
:1021800000F4E060884207D9502080F31188BFF343
:102190004F8FBFF36F8FFEE710BD0000AC00002033
:1021A0000CED00E010B5084B002200BF53F83240A0
:1021B0001CB1521C082AF9D310BD43F8321003EBAE
:1021C000C201486010BD00004C01002010B50400A1
:1021D0000AD000F013F894F8460000280CD12046ED
:1021E000BDE81040FFF770BF502080F31188BFF3A7
:1021F0004F8FBFF36F8FFEE710BD0000084A00212C
:1022000002EBC1035B68834206D1002042F8310033
:1022100002EBC10148607047491C0829F0D37047A0
:102220004C01002070B515460E460446FFF718FF16
:1022300094F944100020491C01D184F8440094F919
:102240004510491C01D184F84500FFF729FFA06B18
:1022500028B92A46314604F1240000F051F82046FE
:10226000BDE87040FFF7D4BD10B5020014D00F4890
:10227000006B38B1502080F31188BFF34F8FBFF34C
:102280006F8FFEE700F0E4F800211046FFF720FA18
:1022900000F096FE002807D105494FF080500860F5
:1022A000BFF34F8FBFF36F8F10BD000038000020C9
:1022B00004ED00E002490A6A0260C96841607047A3
:1022C0003800002001490120C86170473800002013
:1022D00010B50C4650B1094909681831FFF795FE51
:1022E0002046BDE810400121FFF7F2B9502080F3ED
:1022F0001188BFF34F8FBFF36F8FFEE738000020C8
:1023000070B514460D4668B10A4909681831FFF7DF
:1023100094FE0CB14FF0FF3521462846BDE87040D1
:10232000FFF7D6B9502080F31188BFF34F8FBFF36A
:102330006F8FFEE73800002070B504003ED0226D9C
:10234000A2B1E06C884200D30146E06A884235D0F1
:10235000012A33D11A4D2A6894420FD1502080F3BC
:102360001188BFF34F8FBFF36F8FFEE7502080F3CC
:102370001188BFF34F8FBFF36F8FFEE7E162A26951
:10238000002A02DBC1F13801A1610E4E00EB800092
:10239000616906EB8000814210D1201DFFF7FAFD34
:1023A000E06A2969884200D9286100EB800006EBC9
:1023B0008000211DBDE87040FFF73FBE70BD0000EA
:1023C000380000208C01002030B587B00024039431
:1023D00005AA04A903A80494FFF7F0FDDDE90301B1
:1023E0000094CDE90110002315A11748059A00F0CB
:1023F00090FC164D0028E8621FD000F043FE012833
:1024000009D0401C19D1502080F31188BFF34F8FA1
:10241000BFF36F8FFEE7502080F31188BFF34F8F1B
:10242000BFF36F8F4FF0FF30A86201206861EC604E
:1024300007B0BDE8304000F045B807B030BD00003F
:1024400049444C450000000069190008380000208C
:102450000248016B491C01637047000038000020EE
:10246000164810B5016B11B10121C16110BD0021E9
:10247000C1610169124A01E0B9B1491E01EB810352
:1024800052F82330002BF7D001EB810302EB8302DB
:1024900002F1080453685B685360A34201D15B6892
:1024A0005360DA680260016110BD502080F311882A
:1024B000BFF34F8FBFF36F8FFEE70000380000209F
:1024C0008C0100201CB5264908780190FF20087077
:1024D00008788DF800009DF800009DF8002000F0BD
:1024E000F000904207D0502080F31188BFF34F8F47
:1024F000BFF36F8FFEE79DF800001A4C00F050000C
:1025000020700720A06005E09DF8002052008DF8A3
:102510000020401E9DF800201206F5D4A06003287C
:1025200007D0502080F31188BFF34F8FBFF36F8F18
:10253000FEE74FF44070A060019808700A480168F7
:1025400041F470010160016841F070410160FFF7E2
:10255000EDFD00206060FDF7E5FD00201CBD0000E2
:1025600000E400E0AC00002020ED00E010B55020B9
:1025700080F31188BFF34F8FBFF36F8F00F008FC1B
:1025800018B104494FF080500860002080F3118892
:1025900010BD000004ED00E010B50C4648B18442C7
:1025A0000FD9502080F31188BFF34F8FBFF36F8F87
:1025B000FEE7502080F31188BFF34F8FBFF36F8F7A
:1025C000FEE70222002100F03CF8002800D08463DE
:1025D00010BD38B50C4648B184420FD9502080F365
:1025E0001188BFF34F8FBFF36F8FFEE7502080F34A
:1025F0001188BFF34F8FBFF36F8FFEE702211346A1
:1026000000220091114600F03DF8002800D08463BC
:1026100038BD10B502460021012000F012F8044632
:10262000FFF7D2F9204610BD38B50B4600220090C6
:102630001146012000F026F80446FFF7C5F92046B0
:1026400038BDF8B517460E46050013D005FB06F059
:102650005030FFF713FC04000AD0002084F8460035
:1026600004F150023B46314628460094FFF7B8F982
:102670002046F8BD502080F31188BFF34F8FBFF381
:102680006F8FFEE738B5049D18B153B1CAB181B15F
:1026900020E0502080F31188BFF34F8FBFF36F8F7E
:1026A000FEE7502080F31188BFF34F8FBFF36F8F89
:1026B000FEE7502080F31188BFF34F8FBFF36F8F79
:1026C000FEE739B1502080F31188BFF34F8FBFF37D
:1026D0006F8FFEE750241C46012384F846302B46BA
:1026E0000094FFF77DF9204638BD000070B50D4617
:1026F000040025D0FFF7B4FCD4E90F20216802FBC9
:102700000011A1600021A163216861600A46D4E93B
:102710000F01401E00FB0121E16021464FF0FF3018
:1027200001F8440F487004F110008DB1FFF75FFC11
:1027300004F12400FFF75BFCFFF7B2FC012070BD41
:10274000502080F31188BFF34F8FBFF36F8FFEE7E8
:1027500021690029F0D000F0FBFB0028ECD00449EF
:102760004FF080500860BFF34F8FBFF36F8FE3E7E8
:1027700004ED00E02DE9FF4782B01D468A464FF088
:102780000008040003D0BAF1000F08D011E0502077
:1027900080F31188BFF34F8FBFF36F8FFEE7206C7C
:1027A00038B1502080F31188BFF34F8FBFF36F8F84
:1027B000FEE7022D0AD1E06B012807D0502080F3FC
:1027C0001188BFF34F8FBFF36F8FFEE700F0CCFA95
:1027D0003F4F4FF000094FF0805648B9049838B188
:1027E000502080F31188BFF34F8FBFF36F8FFEE748
:1027F000FFF736FCA06BE16B884207D3022D05D0B2
:102800000498D0B1B8F1000F1AD01EE02A46514604
:102810002046FFF732F8616A19B104F1240000F094
:1028200097FB20B13E60BFF34F8FBFF36F8FFFF771
:1028300037FC012006B0BDE8F087FFF731FC22E04D
:102840006846FFF737FD4FF00108FFF729FCFFF757
:10285000FFFDFFF705FC94F94400401C01D184F80A
:10286000449094F94500401C01D184F84590FFF74D
:1028700017FC04A9684600F0E5F930B12046FFF7DF
:10288000C7FA00F09DFB0020D4E7FFF7E9FBA06B3F
:10289000E16B884213D1FFF703FC04F110000499A7
:1028A000FFF716FD2046FFF7B3FA00F089FB00287A
:1028B0009ED13E60BFF34F8FBFF36F8F98E7FFF756
:1028C000EFFB2046FFF7A4FA00F07AFB90E7000048
:1028D00004ED00E02DE9F0471F46904689460400CC
:1028E00003D0B9F1000F08D011E0502080F3118817
:1028F000BFF34F8FBFF36F8FFEE7206C38B15020CE
:1029000080F31188BFF34F8FBFF36F8FFEE7022F65
:102910000AD1E06B012807D0502080F31188BFF363
:102920004F8FBFF36F8FFEE7FFF712FC5020EFF3DE
:10293000118680F31188BFF34F8FBFF36F8FA06BA9
:10294000E16B884206D3022F04D0002086F3118861
:10295000BDE8F08794F94550A06B3A4649462046B9
:10296000FEF78BFF681C04D06D1C84F845500120D5
:10297000ECE7606A0028FAD004F1240000F0E8FADD
:102980000028F4D0B8F1000FF1D00121C8F80010F0
:10299000EDE700002DE9F747002683B08A460400E2
:1029A00003D0BAF1000F08D011E0502080F3118855
:1029B000BFF34F8FBFF36F8FFEE7206C38B150200D
:1029C00080F31188BFF34F8FBFF36F8FFEE700F0E6
:1029D000CBF9DFF8F4804FF000094FF0805748B989
:1029E000059838B1502080F31188BFF34F8FBFF3A3
:1029F0006F8FFEE7FFF734FBA56BC5B1514620464C
:102A0000FEF728FF6D1EA563206950B104F1100088
:102A100000F09EFA28B1C8F80070BFF34F8FBFF3E3
:102A20006F8FFFF73DFB012006B0BDE8F0870598EA
:102A300008B11EB106E0FFF733FB27E06846FFF759
:102A400039FC0126FFF72CFBFFF702FDFFF708FB1F
:102A500094F94400401C01D184F8449094F9450055
:102A6000401C01D184F84590FFF71AFB05A9684680
:102A700000F0E8F8002820460AD0FFF7C9F900F076
:102A80009FFA2046FFF758F80028B3D00020CBE784
:102A9000FFF752F890B104F124000599FFF718FCF4
:102AA0002046FFF7B5F900F08BFA0028A2D1C8F84C
:102AB0000070BFF34F8FBFF36F8F9BE72046FFF788
:102AC000A7F900F07DFA95E704ED00E02DE9F34366
:102AD000002683B00400354609D0206C78B1502020
:102AE00080F31188BFF34F8FBFF36F8FFEE7502045
:102AF00080F31188BFF34F8FBFF36F8FFEE700F0B5
:102B000033F9DFF83C814FF000094FF0805748B9A6
:102B1000049838B1502080F31188BFF34F8FBFF372
:102B20006F8FFEE7FFF79CFAA06BC8B1401EA06351
:102B3000206810B9FFF710FAA060206950B104F1C5
:102B4000100000F005FA28B1C8F80070BFF34F8FED
:102B5000BFF36F8FFFF7A4FA012005B0BDE8F08343
:102B6000049808B166B10FE03DB1502080F31188A0
:102B7000BFF34F8FBFF36F8FFEE7FFF791FA5DE072
:102B80006846FFF797FB0126FFF78AFAFFF760FC1C
:102B9000FFF766FA94F94400401C01D184F8449090
:102BA00094F94500401C01D184F84590FFF778FA6C
:102BB00004A9684600F046F80028204612D0FFF726
:102BC00027F900F0FDF92046FEF7B6FF0028A9D04E
:102BD0009DB3FFF745FA606A50B3206B0068C0F1FF
:102BE000380126E0FEF7A8FFE0B1206838B9FFF70A
:102BF00037FAA06800F070F90546FFF751FA04F1C2
:102C000024000499FFF764FB2046FFF701F900F068
:102C1000D7F9002886D1C8F80070BFF34F8FBFF3F3
:102C20006F8F7FE72046FFF7F3F800F0C9F979E7E7
:102C30000021A068FFF780FB9FE7FFE700208CE7FB
:102C400004ED00E02DE9F0410C46050011D0C4B1BF
:102C5000FFF706FA174BDA686E682068911B471C6D
:102C600017D02F681B6A9F4219D0964217D80124AB
:102C700010E0502080F31188BFF34F8FBFF36F8FA8
:102C8000FEE7502080F31188BFF34F8FBFF36F8FA3
:102C9000FEE70024FFF704FA2046BDE8F0818842F1
:102CA00005D9401A20602846FFF704FBF1E7002011
:102CB0002060DCE7380000202DE9FF5F8346DDE976
:102CC0000E87994616468A469000FFF7D7F805000A
:102CD0001CD05C20FFF7D2F8040014D0002025633C
:102CE00084F85900CDE90240CDE900874B463246D1
:102CF00051465846FEF786FE2046FEF717FD012096
:102D000004B0BDE8F09F2846FFF7DEF94FF0FF3032
:102D1000F6E7F0B585B0DDE90B640A9DA6B1DCB13C
:102D20005C2700972663022684F85960002604AFCA
:102D3000CDE90246CDE90057FEF764FE2046FEF7D6
:102D4000F5FC049805B0F0BD502080F31188BFF366
:102D50004F8FBFF36F8FFEE7502080F31188BFF3D2
:102D60004F8FBFF36F8FFEE70548416919B1006BC4
:102D700018B1002070470120704702207047000002
:102D8000380000200148C06870470000380000206B
:102D90002DE9F0412E4C0027206B28B1A069401C82
:102DA000A0613846BDE8F081E668761CE66013D184
:102DB000606B006838B1502080F31188BFF34F8FEB
:102DC000BFF36F8FFEE7606BA16B6163A063206A46
:102DD000401C2062FEF79CFFA06ADFF878808642E4
:102DE00009D3606B0068A0B1606BC068C568686893
:102DF000864211D2A0622068C06A00EB800158F8B8
:102E00002100012800D90127E0690028C9D0012745
:102E1000C7E74FF0FF30EDE7281DFFF7BBF8A86AC2
:102E200018B105F11800FFF7B5F8E86A2169884282
:102E300000D9206100EB800108EB8100291DFFF71C
:102E4000FCF8E86A2168C96A8842CAD30127C8E742
:102E5000380000208C01002070B504004FF0000104
:102E600033D01B4D2868844207D0502080F311884E
:102E7000BFF34F8FBFF36F8FFEE7206D38B1401E59
:102E80002065E36CE26A9A421FD040B11DE05020F9
:102E900080F31188BFF34F8FBFF36F8FFEE7201DC4
:102EA000FFF778F8E06CE062C0F13800A061E06AFA
:102EB0002969884200D92861064900EB800001EBAE
:102EC0008000211DFFF7B9F80121084670BD000000
:102ED000380000208C01002070B504004FF0000085
:102EE0002BD0194DE16A2A68D26A914226D2A06994
:102EF000002804DB2868C06AC0F13800A061134EC6
:102F000001EB8101606906EB8101884211D1201D2E
:102F1000FFF740F82868C06AE0622969884200D952
:102F2000286100EB800006EB8000211DFFF785F88B
:102F300002E02868C06AE062012070BDE16C2A6886
:102F4000D26A9142F8D370BD380000208C01002075
:102F500070B5C068C46854B104F118000646FFF7A4
:102F600019F8144D286B50B13146134815E0502024
:102F700080F31188BFF34F8FBFF36F8FFEE7201DE3
:102F8000FFF708F8E06A2969884200D928610B49EF
:102F900000EB800001EB8000211DFFF74EF8E06A96
:102FA0002968C96A884202D90120E86170BD002001
:102FB00070BD000038000020140600208C010020A5
:102FC0002DE9F0472C4D00242746286B38B1FFF738
:102FD00047F8286B401E2863286B40B146E050201C
:102FE00080F31188BFF34F8FBFF36F8FFEE7A9689F
:102FF000224E0120D1B3A6F5916980463068E0B138
:10300000F068C46804F11800FEF7C4FF201DFEF745
:10301000C1FFE06A2969884200D9286100EB80017C
:1030200009EB8100211DFFF708F8E06A2968C96AE9
:103030008842E3D3C5F81C80E0E70CB1FEF768FED8
:10304000AC694CB14FEA0806FFF7A2FE00B1EE6191
:10305000641EF9D10020A861E86938B10849012748
:1030600038070860BFF34F8FBFF36F8FFFF718F873
:103070003846BDE8F0870000380000201406002024
:1030800004ED00E010B586B0FEF7B8FB114C2068E7
:10309000B8B100200390049005AA04A903A8FEF784
:1030A00097FFDDE9032102208DE8070000230AA134
:1030B0000B48059AFFF72DFE606010B106B00120A5
:1030C00010BD502080F31188BFF34F8FBFF36F8F77
:1030D000FEE7000074000020546D722053766300F8
:1030E000ED1D00082DE9FF411E46134602000A9D12
:1030F0004FF0000016D0144C2768002F0FD0CDE9F8
:1031000000130292062917DAFFF72EFE02284FF06D
:1031100000030FD0002269462068FFF72BFB04B0A4
:10312000BDE8F081502080F31188BFF34F8FBFF3CB
:103130006F8FFEE72A46EEE700233246694638469F
:10314000FFF7C8FBEBE7000074000020F032000836
:10315000000000000000000000000000000000006F
:103160000002000008000000000000000000000055
:10317000E432000800000000000000000000000031
:103180000000000000020000280000000000000015
:1031900000000000DC320008000000000000000019
:1031A0000000000000000000000200001800000005
:1031B0000000000000000000AC3200080000000029
:1031C00000000000000000000000000000020000FD
:1031D000080000000000000000000000B8320008F5
:1031E00000000000000000000000000000000000DF
:1031F00000000000C43200080000000000000000D1
:10320000000000000000000000000000D0320008B4
:1032100000000000000000000000000000000000AE
:1032200000000000A03200080000000000000000C4
:1032300000000000903200080000000000000000C4
:1032400000000000803200080000000000000000C4
:1032500000000000010202030405060708090A0B2A
:103260000C0D0E0F10100000000000000000010205
:10327000030406070809000000000102030400001F
:103280006D79436F756E74696E6753656D3031008B
:103290006D7942696E61727953656D30310000005D
:1032A0006D794D7574657830310000004C6F77741E
:1032B0005461736B31000000427574746F6E517508
:1032C0006575650054696D657251756575650000B9
:1032D0005072696E74517565756500004D6964546E
:1032E00061736B00486967685461736B000000008C
:1032F00064656661756C745461736B001C330008FF
:1033000000000020BC00000054130008D83300085F
:10331000BC000020642100006413000800000000CD
:10332000000000000000000000000000000000009D
:10333000000000000000000000000000000000008D
:10334000000000000100000010000000000000006C
:1033500000127A00000000000000000000000000E1
:10336000000000000000000000000000000000005D
:10337000000000000000000000000000000000004D
:10338000000000000000000000000000000000003D
:10339000000000000000000000000000000000002D
:1033A000000000000000000000000000000000001D
:1033B000000000000000000000000000000000000D
:1033C000000000000000000000000000AAAAAAAA55
:0833D0000000000000000000F5
:04000005080000ED02
:00000001FF
