:020000040800F2
:10000000C022002099010008FB1300089312000889
:10001000F91300082F0700087315000800000000FE
:1000200000000000000000000000000001010008C6
:10003000310700080000000045010008FF13000818
:10004000B3010008B3010008B3010008B3010008C0
:10005000B3010008B3010008B3010008B3010008B0
:10006000B3010008B3010008B3010008B3010008A0
:10007000B3010008B3010008B3010008B301000890
:10008000B3010008B3010008B3010008B301000880
:10009000B3010008B3010008B3010008B301000870
:1000A000B301000879140008B3010008B301000887
:1000B000B3010008B3010008B3010008B301000850
:1000C000B3010008B3010008B3010008B301000840
:1000D000B3010008B3010008B3010008B301000830
:1000E000B3010008B3010008B3010008DFF80CD029
:1000F00000F0FCF900480047291C0008C02200203D
:10010000224B19680868B0E8F00F80F30988BFF344
:100110006F8F4FF0000080F311884EF00D0E704786
:100120000000000006480068006880F3088862B696
:1001300061B6BFF34F8FBFF36F8F00DF00BF00BF0B
:1001400008ED00E0EFF30980BFF36F8F0F4B1A68E3
:1001500020E9F00F106008B54FF0500080F31188CF
:10016000BFF34F8FBFF36F8F02F064FE4FF00000BC
:1001700080F31188BDE8084019680868B0E8F00FFE
:1001800080F30988BFF36F8F704700BF2400002001
:10019000EFF3058070470000064880470648004797
:1001A000FEE7FEE7FEE7FEE7FEE7FEE7FEE7FEE727
:1001B000FEE7FEE775140008ED000008202A04DBC6
:1001C000203A21FA02F00021704721FA02F3D040D0
:1001D000C2F12002914008431946704740EA0103EA
:1001E0009B0703D009E008C9121F08C0042AFAD2ED
:1001F00003E011F8013B00F8013B521EF9D27047B1
:10020000D2B201E000F8012B491EFBD27047002258
:10021000F6E710B513460A4604461946FFF7F0FF05
:10022000204610BD2DE9FE4F81EA030404F000448E
:1002300021F0004100944FF0000B23F0004350EAFE
:1002400001045ED052EA03045BD0C3F30A54C1F345
:100250000A552C44A4F2F3340194A0FB0254C1F3D8
:10026000130141F48011C3F3130343F4801301FB22
:10027000024400FB034E840A970A44EA815447EA89
:100280008357A4FB076802958D0A05FB07854FEA93
:10029000932C04FB0C542705029D4FEA065847EAAD
:1002A0001637B5EB08056EEB070C870E920E47EA82
:1002B000811742EA8312A7FB0201B6EB0B0164EB44
:1002C00000042B0D43EA0C335E1844EB1C50DA4655
:1002D0005146E7FB0201C5F313044FEA0B3343EA2F
:1002E00014534FEA0432019C43EA0603A4F10C04C0
:1002F0000294009CCDE900B400F0AAF803B0BDE878
:10030000F08F00200146F9E72DE9F04D81EA030462
:1003100004F0004B21F0004514464FF0000A23F092
:10032000004150EA050220D054EA01021DD0C5F375
:100330000A570246C5F31303C1F31300C1F30A566B
:1003400040F4801543F48013A7EB0608101BD64633
:1003500008F2FD3873EB050002D308F1010801E053
:1003600092185B41B8F1000F03DA00200146BDE8A6
:10037000F08D00204FF48011064684460EE0171BD6
:1003800073EB050705D3121B63EB050306434CEA29
:10039000010C49084FEA300092185B4150EA01070E
:1003A000EDD152EA030012D082EA040083EA05018B
:1003B000084305D0101BAB4106D20122002306E002
:1003C00000224FF0004302E06FF0010253101AEBDD
:1003D00006004CEB085110EB0A0041EB0B01BDE8A5
:1003E000F04D00F026B80EB540F2334102910021E5
:1003F000CDE900110A460B4600F02AF803B000BD13
:10040000C1F30A5210B5C1F3130140F2FF3341F4B6
:1004100080119A4201DA002010BD40F233439A4223
:10042000A2F2334203DC5242FFF7C8FE10BD9040F7
:1004300010BD10B5141E73F1000408DA401C41F120
:10044000000192185B411A4301D120F0010010BD58
:100450002DE9F04D92469B4611B1B1FA81F202E0CE
:10046000B0FA80F22032904600F052F804460F466F
:1004700040EA0A0041EA0B0153465A46084313D0AA
:10048000114653EA010019D0C8F140025046FFF767
:1004900095FE05460E4650465946424600F038F84D
:1004A000084305D0012004E020463946BDE8F08D20
:1004B0000020054346EAE0762C4337430A9863055B
:1004C000E40AA0EB08000022FD0A44EA47540A307F
:1004D00002D500200146E9E7010510196941DDE96F
:1004E000084500196941BDE8F04DA2E7064C074DEB
:1004F00006E0E06840F0010394E8070098471034F4
:10050000AC42F6D3FFF7F6FD003B0008203B0008A5
:10051000202A04DB203A00FA02F1002070479140C3
:10052000C2F1200320FA03F31943904070472DE9EC
:10053000FE4F804681EA0300C00F0C46009021F078
:10054000004123F00045B8EB0200A94105D2404626
:10055000214690461C460B46024623F000401043BD
:1005600047D0270DC7F30A00C3F30A510290401A7F
:10057000019040286BDAC3F3130040F4801B00980D
:10058000924620B10023D2EB030A63EB0B0B0198D8
:100590005946C0F140025046FFF7BAFF06460D46E5
:1005A00050465946019A00F0B0F810EB080061413E
:1005B000002487EA115284EAE7731A4340D0009A74
:1005C00062B3019A012A4FEA075215DC001B61EB66
:1005D00002014FF0004202EA0752CDE90042001C3E
:1005E00041F5801132462B46FFF732FF03B0BDE8DC
:1005F000F08F40462146F9E7001B61EB0201001C29
:1006000041F5801300185B412018A2F5001747EB55
:10061000030140EAD570B6196D4111E06D084FEA4B
:10062000360645EAC0754FEA0752001B61EB02012E
:10063000001C41F5801149084FEA30000019514172
:1006400032462B4603B0BDE8F04FFFF7F2BE0098EC
:10065000012240000023D0EB020263EBE07300981C
:1006600021464FEAE074B8EB000061EB0401E9E7D2
:1006700083F000435BE781F0004158E770B521F05B
:10068000004303430CD0C1F30A550024D5EB040505
:1006900064EB0403D617AD1AB34102DB0020014618
:1006A00070BD201841EB025170BD0EB5C10F80EA3C
:1006B000E0700844CA07002140F233438DE80E0081
:1006C0000A460B46FFF7C4FE03B000BD70B5C1F388
:1006D0000A5201F000450024C1F3130140F2FF3338
:1006E00041F480119A4201DA002070BD40F2334398
:1006F0009A42A2F2334203DC5242FFF75FFD00E070
:1007000090402C43F1D0404270BD202A06DBCB172D
:10071000203A41FA02F043EAE07306E041FA02F3BC
:10072000D040C2F120029140084319467047FEE7CD
:10073000704700002DE9F84FDFF8B8910024A9F1C7
:10074000040B23460F2709F1040AABF1040EC9E09C
:100750000125A5402A40AA427DD1674ED1F804C0A8
:10076000ACEB0608B44532D014DCBCF1030F3AD030
:1007700009DCBCF1000F2AD0BCF1010F1CD0BCF188
:10078000020F31D11DE0BCF1110F17D0BCF1120FD7
:100790002AD119E0B8F5881F19D006DCB8F5803FDA
:1007A00015D0B8F5801F1FD111E0B8F5001F0ED08D
:1007B000B8F5041F18D10AE0CB6815E0CB681B1D03
:1007C00012E0CB6808330FE0CB680C330CE08B6889
:1007D0002BB1012B4FF0080303D0456104E0042343
:1007E00002E0056100E00023FF2A01D8064601E08F
:1007F00000F104064FEA840501D9A5F12005D6F8D9
:10080000008007FA05FC28EA0C0803FA05F548EA17
:100810000508C6F800804D68ED0062D5374DAE6919
:1008200046F00106AE61AD6924F0030605F001054E
:100830000095334D06EB050CDCF80850A607360F83
:1008400007FA06F825EA0805DFF8B880404503D125
:100850004FF0000817E044E0DFF8AC80404502D1DB
:100860004FF001080FE0DFF8A480404502D14FF0BF
:10087000020808E0DFF89880404502D14FF00308F5
:1008800001E04FF0040808FA06F848EA0508CCF839
:1008900008804D68D9F80060ED024D4601D5164339
:1008A00000E096432E604D68DAF80060AD025546D0
:1008B00001D5164300E096432E604D68DBF80060DA
:1008C000AD035D4601D5164300E096432E604D68AA
:1008D000DEF80060ED03754601D5164300E096434F
:1008E0002E60641C0D682A46E5407FF431AFBDE8F8
:1008F000F88F0000080401400000111000100240B1
:100900000000014000080140000C014000100140BF
:10091000001401400AB1016170470904FBE70000BF
:100920000148806870470000140000200248816878
:10093000027811448160704714000020074810B508
:10094000016841F010010160032000F07BF80F20E6
:1009500000F006F800F024F8002010BD002002404E
:1009600070B50D4D04464FF47A712878B1FBF0F064
:100970000A490968B1FBF0F000F0C2FA48B9102C3E
:1009800007D200222146501E00F03CF800206C6087
:1009900070BD012070BD0000140000202000002068
:1009A0000F4808B5816941F001018161816901F059
:1009B00001010091C16941F08051C161C06900220B
:1009C00000F0805000900F21901E00F01BF80548A9
:1009D000416821F0E06141F00071416008BD000014
:1009E0000010024000000140002809DB00F01F0257
:1009F000012191404009800000F1E020C0F8001181
:100A000070470000F0B40E4B1B680C46C3F3022382
:100A1000C3F10705042D00D90425191D072901D2AA
:100A2000002300E0DB1E012606FA05F1491E2140E5
:100A300099409E40761E16403143F0BC00F0AEBD9A
:100A40000CED00E0064900F0070208684FF6FF03CE
:100A5000184040EA0220034A104308607047000033
:100A60000CED00E00000FA052DE9F0470F46050007
:100A700061D0434E306800F00700B84209D23068B8
:100A800020F0070038433060306800F00700B842BB
:100A900051D128683B4C810712D5400703D56068C7
:100AA00040F4E06060602878000703D5606840F497
:100AB000605060606068A96820F0F00008436060E2
:100AC0002878C00728D06868012810D0216802283B
:100AD00010D0890700292EDA616821F00301014353
:100AE0006160FFF71DFF804641F288390DE0216803
:100AF0008903EFE78901EDE7FFF712FFA0EB08019B
:100B0000494502D90320BDE8F0876068696800F0B4
:100B10000C00B0EB810FEFD1306800F00700B84255
:100B20000BD9306820F0070038433060306800F09F
:100B30000700B84201D00120E5E72878400705D535
:100B40006068E96820F4E060084360602878000786
:100B500006D56068296920F4605040EAC1006060F1
:100B600000F018F86168084AC1F30311515CC840ED
:100B70000649086006480068FFF7F2FE0020C2E759
:100B8000002002400010024096390008200000209A
:100B9000180000200E4A51680E4801F00C03042B87
:100BA00011D0082B0FD10C48C1F38343C903C05C9B
:100BB0000AD55168084AC1F34041921E515C054A6A
:100BC0005043B0FBF1F070470449484370470000C0
:100BD0000010024000127A008639000800093D002A
:100BE0002DE9F84F040070D02078C04DC00749D0DF
:100BF0006868C0F38100012807D06868C0F38100ED
:100C0000022809D16868C00306D52868800339D551
:100C100060680028E7D035E06068B0F5803F0BD011
:100C200010B1B0F5A02F11D0286820F480302860D2
:100C3000286820F4802002E0286840F48030286092
:100C4000606890B1FFF76CFE06460AE0286840F441
:100C500080202860F0E700BFFFF762FE801B642859
:100C600073D828688003F7D50CE0FFF759FE0646D5
:100C700005E000BFFFF754FE801B6428F0D8286809
:100C80008003F7D420789A4E80074FF001094FF087
:100C9000000839D5686810F00C0F07D06868C0F3F9
:100CA0008100022809D16868C00306D4286880073B
:100CB00014D52069012808D110E02069B0B1C6F828
:100CC0000090FFF72DFE074605E00AE1FFF728FE3A
:100CD000C01B0228C4D828688007F7D52868616936
:100CE00020F0F80040EAC10028600DE0C6F800805E
:100CF000FFF716FE074604E0FFF712FEC01B0228AE
:100D000023D828688007F7D4207800072CD57948A5
:100D1000A169D9B1C0F80090FFF702FE074604E0D0
:100D2000FFF7FEFDC01B02280FD8686A8007F7D5C1
:100D300071484FF4FA510068B0FBF1F0009000BF29
:100D40000098411E0091FAD20EE080E0C0F80080C9
:100D5000FFF7E6FD074604E0FFF7E2FDC01B0228AF
:100D600075D8686A8007F7D42078400760D5E869AD
:100D70000027C00008D4E86940F08050E861E869C5
:100D8000012700F0805000905C480168C90513D429
:100D90000168834641F480710160FFF7C1FD82461E
:100DA00006E000BFFFF7BCFDA0EB0A0064284ED8A8
:100DB000DBF80000C005F5D5E06801280AD008B1CD
:100DC000052813D0286A20F001002862286A20F044
:100DD000040002E0286A40F001002862E06841F265
:100DE000883B98B1FFF79CFD82460BE0286A40F0F3
:100DF00004002862EEE700BFFFF792FDA0EB0A01B6
:100E000059455AD8286A8007F6D50CE0FFF788FDC7
:100E1000824605E0FFF784FDA0EB0A0159454CD856
:100E2000286A8007F6D41FB1E86920F08050E86195
:100E3000E06988B36968C1F38101022944D00228BE
:100E4000C6F8608004D0FFF76BFD044638E034E05C
:100E5000FFF766FD074604E0FFF762FDC01B0228AE
:100E60002BD828688001F7D4206AB0F5803F05D1DF
:100E70006868A16820F4003008436860D4E908017C
:100E80000843696821F4741108436860C6F86090EB
:100E9000FFF746FD044606E025E000BFFFF740FDF2
:100EA000001B022809D828688001F7D51BE000BF85
:100EB000FFF736FD001B022802D90320BDE8F88F9A
:100EC00028688001F4D40EE00128F7D06868226A0F
:100ED00000F48031914204D1616A00F470108842BC
:100EE00001D00120EAE70020E8E7000000100240FE
:100EF0000000424280044242200000200070004076
:100F000010B5401EB0F1807F01D3012010BD4FF01D
:100F1000E02460610F21601700F040FB0020A06119
:100F200007202061002010BD7047704770B590F811
:100F30003C20012A26D0012480F83C40022280F87F
:100F40003D2003685A689D6822F070060A683243A3
:100F50005A600D4B02689A4208D0B2F1804F05D01A
:100F60000A4B9A4202D00A4B9A4204D1496825F0B2
:100F700080031943916080F83D40002180F83C10C7
:100F8000084670BD022070BD002C014000040040E6
:100F90000008004010B5040003D094F83D0010B1E3
:100FA00007E0012010BD002084F83C00204600F03E
:100FB0001FF8022084F83D00211D206800F068FA27
:100FC000012084F8460084F83E0084F83F0084F84D
:100FD000400084F8410084F8420084F8430084F81B
:100FE000440084F8450084F83D00002010BD000056
:100FF00008B500680B49884212D10B48816941F459
:10100000006181618069002200F400600090052188
:101010001920FFF7F7FCBDE808401920FFF7E4BCF2
:1010200008BD0000002C01400010024090F83D1067
:10103000012901D001207047022180F83D1000688D
:101040000B49884208D0B0F1804F05D00949884249
:1010500002D00949884204D1816801F007010629BC
:1010600003D0016841F001010160002070470000D9
:10107000002C0140000400400008004070B5044608
:1010800090F83C000025012817D0012684F83C6028
:10109000022084F83D002068826822F0770222F462
:1010A0007F4282600868502838D00DDC20284FD05D
:1010B00005DC90B3102811D14AE0022070BD302821
:1010C00046D040280AD13BE060282FD070280DD0B0
:1010D000B0F5805F03D0B0F5005F12D0012584F831
:1010E0003D60002084F83C00284670BDCB68D1E903
:1010F0000121206800F008FA2068816841F077013A
:1011000009E0CB68D1E90121206800F0FDF92068F1
:10111000816841F480418160E1E719E0CA6849686B
:10112000206800F003FA5021206806E0CA68496888
:10113000206800F00CFA6021206800F0EFF9CEE79B
:10114000CA684968206800F0F1F940212068F4E796
:10115000226801461046F0E770472DE9F041044649
:101160000068C66805694FF00007A90713D5B107E5
:1011700011D5F91E01610120207720688069800760
:10118000204602D0FFF7E8FF04E000F07EF820469A
:1011900000F07CF82777680716D5700714D521680A
:1011A0006FF004000861022020772068806910F445
:1011B000407F204602D0FFF7CFFF04E000F065F843
:1011C000204600F063F82777280715D5300713D598
:1011D00021686FF008000861042020772068C0694A
:1011E0008007204602D0FFF7B7FF04E000F04DF87B
:1011F000204600F04BF82777E80616D5F00614D500
:1012000021686FF010000861082020772068C0690D
:1012100010F4407F204602D0FFF79EFF04E000F06C
:1012200034F8204600F032F82777E80708D0F007B6
:1012300006D021686FF001000861204600F027F811
:10124000280608D5300606D521686FF080000861B1
:101250002046FFF769FE680608D5700606D52168A6
:101260006FF040000861204600F012F8A8060AD589
:10127000B00608D521686FF0200008612046BDE85F
:10128000F041FFF752BEBDE8F081704770477047EC
:101290007047FEE72DE9F04385B000243448009400
:1012A000019402940394816941F010018161816984
:1012B00001F010010491816941F02001816181698F
:1012C00001F020010491816941F00401816181698B
:1012D00001F004010491816941F008018161806994
:1012E000244F00F008004FF40055049000222946D6
:1012F0003846FFF70FFBDFF880800122FC214046D3
:10130000FFF708FBDFF87490012203214846FFF73E
:1013100001FB0095022601250396CDE9015469469B
:101320003846FFF707FA4FF440408DE83100694630
:101330003846FFF7FFF90327009769464046CDE995
:101340000145FFF7F7F9FC20CDE90005CDE902469C
:1013500069464046FFF7EEF900970396CDE9015440
:1013600069464846FFF7E6F905B0BDE8F08300009E
:10137000001002400010014000080140000C014034
:1013800030B587B000241B4D00940194029403945F
:10139000049417480594C5E9000441F61F40C5E9C7
:1013A00002402C616C612846AC61FFF7F3FD08B187
:1013B00072B6FEE74FF48050009069460D48FFF783
:1013C0005DFE08B172B6FEE7049404A909480594CD
:1013D000FFF7ACFD08B172B6FEE72868C16841F0BE
:1013E0000101C1600348FFF721FE07B030BD0000D6
:1013F000002C0140A4010020FEE7FEE7FEE710B547
:10140000FFF794FA02F0DEF8012803D0BDE810409F
:1014100001F096BD10BD30B58FB028216846FEF7AB
:10142000F6FE14210AA8FEF7F2FE01210804CDE918
:1014300000100024029402250491CDE907504FF4D6
:10144000E01009906846FFF7CBFB08B172B6FEE7E3
:101450000F20CDE90A054FF48060CDE90C40022150
:101460000AA80E94FFF700FB002801D072B6FEE731
:101470000FB030BD7047000010B50448FFF76DFE97
:10148000BDE81040002001F04BBA0000A40100208C
:10149000F0B50268194B1A4C1A4D4FF0804798422C
:1014A00005D0B84203D0A04201D0A84203D122F017
:1014B00070064A683243984205D0B84203D0A04231
:1014C00001D0A84203D122F44074CA6822434C6977
:1014D00022F08002224302608A68C2620A68826245
:1014E000984201D109690163012141610169C9077C
:1014F00003D0016921F001010161F0BD002C014020
:10150000000400400008004010B5846842EA03224D
:1015100024F47F440A432243826010BD826822F093
:1015200070020A4342F007018160704710B5036AF8
:10153000046A24F001040462846924F0F00444EA9B
:10154000021423F00A020A438461026210BD10B53E
:10155000036A046A24F010040462846923F0A0037F
:1015600024F4704444EA023243EA011182610162C8
:1015700010BDFEE7490050EAC12018BF04204A0D03
:1015800018BF40F0010040F2FF72B2EB515F08BF9C
:1015900040F00200012808BF052070470907090E26
:1015A000002804DB00F1E02080F80014704700F010
:1015B0000F0000F1E02080F8141D70472DE9F74F6F
:1015C000144694B00021C4E902111599079121F045
:1015D0000045C9498D4206DC1599C4E9000117B0E0
:1015E0000020BDE8F08FC549DFF814A3A9423CDD17
:1015F0000799C44E0029C44FC44A1599534619DDB2
:10160000FFF736F8554506D0C14AC24BFFF730F810
:10161000C4E900010AE04FF0D352BE4BFFF728F8AF
:1016200032463B46FFF724F8C4E9000117B0012019
:10163000BDE8F08FFEF77BFF554506D0B44AB54BA9
:10164000FEF775FFC4E900010AE04FF0D352B14B39
:10165000FEF76DFF32463B46FEF769FFC4E9000125
:1016600017B04FF0FF30BDE8F08FAB49A942159994
:1016700078DB21F0004183468846A84AA84BFEF754
:10168000D1FD0022A74BFEF752FFFFF71FF809908C
:10169000FFF70BF806460F469C4A5346FEF7C2FD7D
:1016A00043465A46FEF7E7FF80468A46984A994BDA
:1016B00030463946FEF7B6FD2A0D01250B9242460B
:1016C0005346FEF7D8FF032DC4E9000139D00B982B
:1016D000C1F30A51401A05EB45111139814230DA44
:1016E0009148C346784400EB0510CDF80CA00C904F
:1016F000D0E9002330463946FEF794FD02460B46FA
:101700000491069058460399FEF7B2FF80468A4638
:1017100002460B4658460399FEF7AAFF049B069A19
:10172000FEF7A6FF83460C9803913946D0E90223C1
:101730003046FEF777FD5A46039BFEF799FF6D1C76
:10174000BDE707980028A2BF099817B0BDE8F08F41
:10175000616881F000416160099817B04042BDE8BE
:10176000F08FFFE784461598C1F31301C0F30A50C8
:10177000A0F2F5304FEA601800F01F06C6F1200015
:10178000139000200690079041F4801E05206D46BE
:1017900076B1664A08EB00017A4452F8213002EB38
:1017A0008101B3404A68139922FA01F1194305E017
:1017B0005F4908EB0002794451F82210A1FB0E2783
:1017C000A1FB0C131A449A4234BF0123002303EBFC
:1017D000070A05EB8003D3E901B70F448F4234BFFA
:1017E0000121002193448B4411B1934502D903E0B8
:1017F000934501D2012100E00021C3E901B7514422
:1018000045F82010011EA0F10100C1DC0298059FDF
:1018100000F10050800F12900298DDE9035680001D
:10182000FEF743FF834628460D91FEF7DCFD6FF07F
:101830001D02FEF723FFCDE90E013046FEF7D3FD72
:101840006FF03D02FEF71AFF80468A463846FEF7E3
:10185000CAFD6FF05D02FEF711FF07464246534690
:101860001191FEF764FEDDE90E23FEF760FE5A4695
:101870000D9BFEF75CFE00250E465A4628460D9B42
:10188000FEF7F6FEDDE90E23FEF7F2FE4246534672
:10189000FEF7EEFE3A46119BFEF7EDFEDFF898A04C
:1018A000244A5346FEF7BEFC07468846234A244B8B
:1018B00031462846FEF7B6FC3A464346FEF737FE69
:1018C000074688464FF0A842534631462846FEF761
:1018D000A9FC3A464346FEF72AFE159A12F0004F3D
:1018E00004D0129A81F0004152421292C4E90001E0
:1018F000129817B0BDE8F08FFB21E93F7CD9024078
:10190000FB21F93F7370032E8A19A33B000040545A
:101910003163621A61B4D03DFB21394183C8C96D7E
:10192000305FE43F0000E03FF02200006C22000046
:101930004E220000182D4454FB21F93D3326A611F8
:10194000460B113C2DE9FF4D21F0004807460C469F
:10195000B8F1795F08DAFEF7B9FE002801BF002070
:10196000324904B0BDE8F08D3A4623461046194688
:10197000FEF758FC054602462D480E460B4606214A
:10198000784400F05DF82A463346FEF74BFCDDE96B
:10199000022382468B4638462146FEF743FC044626
:1019A0000F4652465B4628463146FEF73BFC224630
:1019B0003B46FEF75DFE07468A464FF0FF3228465B
:1019C0003146FEF75BFE1B4A90450ADA3A4653461B
:1019D000FEF74EFE04B00022BDE8F04D134BFEF7BB
:1019E0004ABE154A4245A8BFA8F500154FF00004AD
:1019F000B8BF124D22462B46FEF73AFE06468846F1
:101A000022462B4600200949FEF732FE04460D46C9
:101A10003A46534630464146FEF72AFE04B0224677
:101A20002B46BDE8F04DFEF726BE00000000F03F5B
:101A3000242000003333D33F0000E93F0000D23FB1
:101A40002DE9F0414F1E00EBC7010446D1E900012A
:101A500015461E4637F006020DD02A463346FEF7DD
:101A6000E1FB7F1E04EBC703D3E90023FEF75FFD14
:101A700037F00602F1D1022F25D0042F13D0062F04
:101A800018BFBDE8F0812A463346FEF7CBFBD4E908
:101A90000A23FEF74CFD2A463346FEF7C3FBD4E982
:101AA0000823FEF744FD2A463346FEF7BBFBD4E984
:101AB0000623FEF73CFD2A463346FEF7B3FBD4E986
:101AC0000423FEF734FD2A463346FEF7ABFBD4E988
:101AD0000223FEF72CFD2A463346FEF7A3FBD4E98A
:101AE0000023BDE8F041FEF722BD00002DE9FF4DC7
:101AF000054621F0004084B00C46B0F1795F0BDA66
:101B00002846FFF737FD042808BF00F06FF8284685
:101B100008B02146BDE8F08D2A460B461046FEF778
:101B200081FB06460F462A462346FEF77BFB80468E
:101B300026488A4632463B4605217844FFF780FF17
:101B400083461098029160B3214A224B4046514689
:101B5000FEF768FBCDE900015A4640465146029B1C
:101B6000FEF760FB82468846DDE906014FF0FF3252
:101B7000FEF784FD52464346FEF77AFD32463B4669
:101B8000FEF750FBDDE90623FEF772FDDDE90023D9
:101B9000FEF76EFD08B02A462346BDE8F04DFEF77D
:101BA0006ABD0B465A4630463946FEF73BFB084AAB
:101BB000084BFEF7BCFC42465346FEF733FB08B029
:101BC0002A462346BDE8F04DFEF7B1BC621F000077
:101BD000495555555555C5BF0122FEF74FBD002249
:101BE000134610461146FEF78FBB0000024A002044
:101BF0001107FEF743BD000001FDFFFF02E008C82A
:101C0000121F08C1002AFAD170477047002001E076
:101C100001C1121F002AFBD1704700000149086072
:101C200070470000A4000020FEF788FE00F0A0FE30
:101C3000FFF7F1FBFFF72EFBFFF7A2FB00F024F804
:101C40000E4800F04FF80E4C0C4A01216060103233
:101C5000084600F07BF8094AA060203200210420E9
:101C600000F074F8054AE060243A0021054800F0CD
:101C7000B9F8206000F01AF8FEE7000054390008B7
:101C800004000020FD130008EFF3058010B16FF091
:101C9000050070470448016811B14FF0FF307047EC
:101CA00001210160002070477400002010B5EFF39F
:101CB000058010B16FF0050010BD084801680129CA
:101CC00002D04FF0FF3010BD054A002182F8141DEC
:101CD0000221016001F062F8002010BD74000020B4
:101CE0000BE000E070B505464FF00004EFF305800F
:101CF00050BB0DB1686800E00020C10701D001268B
:101D000000E0002600071FD46DB1D5E9021021B113
:101D1000502819D31EB1042002E020B114E00120A4
:101D200001F06CF905E00EB1042000E0012001F0A3
:101D30005AF9040008D00DB1296800E0002100F034
:101D400089FF0EB144F00104204670BDF8B5144679
:101D500003460E464FF00005EFF3058098BB93B3A2
:101D60009E423DD84CB1A0680028E06803D05028BE
:101D700036D3012002E008B132E00020012B05D06B
:101D800010B31846A26801F00EF920E040B103201C
:101D90000090002211460120A36801F05DF904E0E3
:101DA00003220021012001F036F9050018D086B188
:101DB00000231A46194601F0C7F9012809D0284620
:101DC00000F05CFF00250BE0184601F0CFF805009D
:101DD00006D00CB1216800E00021284600F03AFF4F
:101DE0002846F8BD2DE9FF414FEA01034FF00005F9
:101DF000EFF30581039549BB40B3802718210024E8
:101E00004AB3166806B1344696691EB13146761E4D
:101E1000382E02D21679F60703D0002004B0BDE8B0
:101E2000F081566906B1B708D2F808C0BCF1000FBE
:101E30000DD0D5685C2D18D312693AB136B18DE852
:101E400006103A46214601F092FB03900DE0D66859
:101E50005EB912694AB903AACDE90012BAB22146A5
:101E600001F058FB012800D003950398D6E7000045
:101E70002DE9F041134C0F460546E6682068001D29
:101E800000F09CFC681C07D137B12168BDE8F04127
:101E90000D48091D00F030BE20683544B54245604C
:101EA000216805D2A06BBDE8F041091D00F00CBE11
:101EB000606B091D00F008FEA06A854200D2A56291
:101EC000BDE8F08124000020DC0600202DE9F0416F
:101ED000054600F01DFE2D4CA068401CA060206847
:101EE0002B4F10B1606930B32BE02560A06801284A
:101EF00027D1002606EB860007EB800000F0D6FD18
:101F0000761C382EF6D3234800F0D0FD214814303B
:101F100000F0CCFD1F48283000F0C8FD1D483C30C3
:101F200000F0C4FD1B48503000F0C0FD194860634C
:101F30001430A06305E02068E96AC06A884200D8CE
:101F40002560606A401C60626864E86A21698842B2
:101F500000D9206100EB800007EB8000291D00F014
:101F6000CBFD00F0F5FD606900280CD02068E96A1F
:101F7000C06A884207D208494FF080500860BFF31A
:101F80004F8FBFF36F8FBDE8F08100002400002069
:101F90002C0200208C06002004ED00E038B500F093
:101FA000B7FD104C2068C8B90F4800F07FFD0E48FF
:101FB000143000F07BFD0C48E060143020610A4BC7
:101FC0000020F03B009003F1500210210A2001F0A4
:101FD00043F8206010B105A100F03CFEBDE8384098
:101FE00000F0B6BD60000020E0070020546D725183
:101FF0000000000030B4026C0B46002A0BD0C16810
:102000001144C1608468A14201D30168C16030BC41
:102010001846FEF7E3B830BC70472DE9F041856BF8
:10202000174604460026026C82B1C7B1E068FEF78D
:10203000D5F8E168206C091AE1602268914202D269
:10204000A168081AE060022F16D017E02068A8B92E
:10205000A06801F02FFB06460020A0600EE060683B
:10206000FEF7BCF8216C606808446060A168884293
:1020700004D32068606001E005B16D1E6D1CA5638E
:102080003046BDE8F08110B5044690F8590058B1CB
:1020900001280CD002280FD0502080F31188BFF304
:1020A0004F8FBFF36F8FFEE7206B00F065FD20467A
:1020B000BDE8104000F060BD10BD000010484FF4B6
:1020C0008051420706D0C01D0D4920F00700411A7B
:1020D000C1F580510B4A00230144C2E900030839CD
:1020E000183A21F0070111604B600B600B1AC0E930
:1020F000001393604FF00040536050617047000040
:10210000C00E002090000020144E154CA6F29C47F3
:102110004FF08058DFF84C9012E000BF00F0F8FC60
:10212000F068C568281D00F049FBA068401EA0604B
:102130006068401E606000F00BFD2846FFF7A3FFBB
:1021400060680028EAD138680128F9D9C9F8008008
:10215000BFF34F8FBFF36F8FF2E70000C806002078
:102160002400002004ED00E0002807D00021816059
:1021700001600B460A46C16000F0E6BF70470000F0
:1021800070B51D46049C51B1C4F80020C4E90F018C
:102190000121204600F094FF84F84C5070BD24606B
:1021A000F4E700002DE9F05F8846DDE90B94154661
:1021B000834691009A460A9EA522206BFEF720F8DE
:1021C0006FF00301206B01EB8501084420F0070745
:1021D000780707D0502080F31188BFF34F8FBFF3EB
:1021E0006F8FFEE70025B8F1000F0FD05FF0000001
:1021F000221818F8001082F8341018F8001011B1E5
:10220000401C1028F4D384F8435001E084F8345083
:10221000382E00D33726E662C4E91365201D00F08E
:1022200050FC04F1180000F04CFC2461C6F13800A9
:102230006462A061656584F8585052465946384634
:1022400000F05AFA2060B9F1000F01D0C9F800403F
:10225000BDE8F09F30B5114900E011460A6882429E
:10226000FBD34B685C18844203D140681844486033
:10227000084643681C18944209D1084C183C24684D
:10228000A24209D052681A4442600A681268026089
:10229000814200D0086030BD0460F9E79000002062
:1022A00070B5002441600B4D0061914206D8D11AEF
:1022B0008269914206D2011D286907E09A4203D241
:1022C000994201D3012403E0011DE86800F0FCFB02
:1022D000204670BD6000002010B5044600F018FCD8
:1022E000A06B28B15FF0000400F032FC204610BD66
:1022F0000124F9E730B589B03C4D6EE00498002820
:1023000006DADDE90601059A90470498002864DBA7
:10231000069C606910B1201D00F050FA03A800F07F
:10232000D7F8024604980A2857D2DFE800F00505DE
:10233000052D334A05052D3394F8280040F001009F
:1023400084F828000599A069059B01442046FFF701
:10235000A7FF68B3216A2046884794F82800400701
:102360003BD5002000900598A1690023421819462A
:10237000204601F0A9FAD8B9502080F31188BFF3A4
:102380004F8FBFF36F8FFEE714F8280F20F0010086
:10239000207022E094F8280040F0010084F8280022
:1023A0000598A06128B1811813462046FFF778FFF1
:1023B00013E0502080F31188BFF34F8FBFF36F8F6E
:1023C000FEE794F82800810703D4204600F0D4FBF0
:1023D00003E020F0010084F82800002204A9286806
:1023E00000F0C2FF002889D109B030BD6000002094
:1023F0002DE9FC410F46054600F014FD01A800F050
:1024000067F80446019818B101F0CCF9BDE8FC81E9
:10241000254EAFB130690068D0B30027291B3A467A
:10242000306800F057FC01F0BDF90028EED11F49DB
:102430004FF080500860BFF34F8FBFF36F8FE5E719
:10244000A542EBD801F0AEF9F0682746C068C46831
:10245000201D00F0B3F994F82800410719D5A069B0
:102460002B4641193A462046FFF71AFFA8B1002033
:102470000346014600902A46204601F025FA60B93D
:10248000502080F31188BFF34F8FBFF36F8FFEE7AB
:1024900007E020F0010084F82800216A20468847E0
:1024A000B4E70127BAE700006000002004ED00E077
:1024B0000648416B096829B1416BC968C968496818
:1024C000816270474FF0FF31FAE7000024000020DE
:1024D00070B5054601F084F8064E0446B0688442A3
:1024E00003D200F009F8012000E000202860204617
:1024F000B46070BD60000020F8B5194D20E0C068E0
:10250000C4680668201D00F059F9216A20468847F2
:1025100094F82800400713D5A0693044B04206D98A
:1025200024616060211DE86800F0CEFA08E0002018
:102530000346014600903246204601F0C5F938B105
:10254000E86801680029DAD12969C5E90310F8BDF6
:10255000502080F31188BFF34F8FBFF36F8FFEE7DA
:102560006000002008484068401C4FF0500080F395
:10257000118804D0BFF34F8FBFF36F8FFEE7BFF317
:102580004F8FBFF36F8FFEE798000020074CE06885
:10259000016841B1C0680021D0F80000FFF728FFB2
:1025A000FFF7A8FEF3E701210020F7E76000002015
:1025B0002DE9F041044600F0ABFA94F9455004F1DE
:1025C000240609E0606A48B1304601F0B3F808B16A
:1025D00000F0AAFB6D1E6DB2002DF3DC4FF0FF364C
:1025E00084F8456000F0B4FA00F092FA94F944508F
:1025F00004F1100709E0206948B1384601F09AF863
:1026000008B100F091FB6D1E6DB2002DF3DC84F873
:102610004460BDE8F04100F09BBA00002DE9F041B4
:102620000546002700F0FEFB324E306808B9FFF780
:1026300045FD706905424ED1C5B3083568070ED017
:1026400005F00700C0F108000544680707D05020D6
:1026500080F31188BFF34F8FBFF36F8FFEE72DB369
:102660007068854237D82348183001460C6801E06D
:1026700020460C466168A94202D221680029F7D1A0
:1026800031688C4227D0076821680160606808378C
:10269000411B10290FD96019420708D0502080F340
:1026A0001188BFF34F8FBFF36F8FFEE713E04160D8
:1026B0006560FFF7CFFD61687068401A7060B268AE
:1026C000904200D2B060706901430020C4E900016B
:1026D000F068401CF06001F065F8780707D05020E2
:1026E00080F31188BFF34F8FBFF36F8FFEE738463B
:1026F000BDE8F0817800002010B5031F4FF0807412
:102700001C601B1F21F001011960191F024B0B6097
:10271000143940380A6010BD6525000800B5254B06
:1027200021F0004287B09A4203DC00221346009257
:102730002BE0214B9A4208D140B94FF00100FFF73E
:102740006DFAFFF74CFA07B000BD03DBFFF744FA60
:1027500007B000BD02AAFEF731FF10F003014FF0F1
:1027600001000DD0012914D002291AD00DF1080C56
:102770009CE80F00FFF7E6F807B081F0004100BDCC
:102780000DF1080C00909CE80F00FFF7AFF907B0BF
:1027900000BD0DF1080C9CE80F00FFF7D3F807B05F
:1027A00000BD0DF1080C00909CE80F00FFF79EF9AA
:1027B000E2E70000FB21E93F0000F07FD0E90132B1
:1027C00001699A60D0E901235A604A68824201D1C6
:1027D00082684A60002202610868401E086008683A
:1027E00070470000034B036003F15C000860802029
:1027F0001060704708080020044B036003F15C0080
:1028000008604FF48070106070470000640A002078
:1028100010B50E49C0EBC00201EB8204D4E90112ED
:10282000914202D200F024F905E0E3681A448A429A
:1028300001D300F013F96068401C6060D4E9021213
:102840001144814201D80020606010BDA800002022
:102850002DE9F05F0446FFF7DBFF2748C4EBC40116
:1028600000EB8104D4E9020147182069B0FBF7FBB3
:10287000606800283ED15846FDF7B5FD1F4D8946DA
:102880000646C8462868FDF7AEFD1D4A1D4BFDF7FC
:10289000C9FC43463246FDF737FDFFF73FFF8A4646
:1028A00049468046B1460E462868FDF79CFD144A0D
:1028B000144BFDF7B7FC4A463346FDF725FDFFF7FD
:1028C0002DFF064689463846FDF78DFD32464B46BC
:1028D000FDF7A8FC42465346FDF7A4FCFDF790FD2A
:1028E000A060381AE0602868401C2860584501D371
:1028F00000202860BDE8F09FA80000200000002014
:1029000038E92F54FB210940044AC1EBC10102EB15
:102910008101D0E90020C1E905207047A80000200E
:1029200010B50446FFF774FF0A49C4EBC40001EB7D
:1029300080004078012806D0022809D12046BDE851
:102940001040FFF785BF2046BDE81040FFF760BF8D
:1029500010BD0000A80000200A460146C2EBC200DC
:10296000024A02EB80001422FDF738BCA8000020C8
:1029700070B588B0022500248DF809506420CDE997
:102980000340059042F210700690214602A8FFF71E
:10299000E3FF2F4800908DF806404014ADF8040086
:1029A00000216846FFF7B0FF2A4E8DF806400096DA
:1029B000ADF8045001216846FFF7A6FF8DF80640E8
:1029C0000120ADF80400009602216846FFF79CFF45
:1029D0008DF806400420204DADF804000095032139
:1029E0006846FFF791FF8DF806400820ADF8040017
:1029F000009504216846FFF787FF8DF806401020F8
:102A0000ADF80400009505216846FFF77DFF8DF8BD
:102A100006402020ADF80400009506216846FFF727
:102A200073FF8DF806404020ADF8040000950721A3
:102A30006846FFF769FF8DF806408020ADF8040076
:102A4000009508216846FFF75FFF08B070BD0000E1
:102A500000100140000C014000080140034BC0EB96
:102A6000C002002103F8221000F00CB8A8000020DA
:102A7000034BC0EBC002012103F8221000F002B8A2
:102A8000A80000200849C0EBC00201EB820011F849
:102A90002210837E8B4201D1012200E00022018BB3
:102AA0004069FDF737BF0000A800002000F10801D1
:102AB0004FF0FF32C0E90112C160016100210160E5
:102AC000704700210161704730B50B685A1C02D075
:102AD00000F1080202E0026904E022465468256819
:102AE0009D42FAD953684B6099608A6051600861D1
:102AF0000168491C016030BD42684A6093688B6080
:102B000093685960916008610168491C01607047D1
:102B1000502080F31188BFF34F8FBFF36F8F0A49A6
:102B20004868401C486001280CD10848006810F033
:102B3000FF0F07D0502080F31188BFF34F8FBFF3F2
:102B40006F8FFEE7704700009800002004ED00E062
:102B50000849486828B1401E486001D180F31188B7
:102B60007047502080F31188BFF34F8FBFF36F8FF2
:102B7000FEE700009800002070B500282AD0164D0E
:102B8000A0F1080460686969084207D1502080F309
:102B90001188BFF34F8FBFF36F8FFEE722683AB102
:102BA000502080F31188BFF34F8FBFF36F8FFEE784
:102BB0008843606000F036F96068696808446860BE
:102BC0002046FFF747FB2869401C2861BDE870409C
:102BD00000F0E8BD70BD0000780000204FF0E0205C
:102BE00000210161816105494FF47A720968B1FBE6
:102BF000F2F1491E41610721016170472000002068
:102C000010B5FDF7C5FA114910280ED300F1E020E8
:102C100090F8F0030A78904207D2502080F3118890
:102C2000BFF34F8FBFF36F8FFEE7094800688968D5
:102C300000F4E060884207D9502080F31188BFF388
:102C40004F8FBFF36F8FFEE710BD0000980000208C
:102C50000CED00E010B5084B002200BF53F83240E5
:102C60001CB1521C082AF9D310BD43F8321003EBF3
:102C7000C201486010BD0000EC01002010B5040046
:102C80000AD000F013F894F8460000280CD1204632
:102C9000BDE81040FFF770BF502080F31188BFF3EC
:102CA0004F8FBFF36F8FFEE710BD0000084A002171
:102CB00002EBC1035B68834206D1002042F8310079
:102CC00002EBC10148607047491C0829F0D37047E6
:102CD000EC01002070B515460E460446FFF718FFBC
:102CE00094F944100020491C01D184F8440094F95F
:102CF0004510491C01D184F84500FFF729FFA06B5E
:102D000028B92A46314604F1240000F02BF8204669
:102D1000BDE87040FFF74CBC02490A6A0260C9680E
:102D2000416070472400002001490120C8617047BC
:102D30002400002010B50C4650B10949096818312B
:102D4000FFF7C2FE2046BDE810400121FFF790B812
:102D5000502080F31188BFF34F8FBFF36F8FFEE7D2
:102D60002400002070B514460D4668B10A49096870
:102D70001831FFF7C1FE0CB14FF0FF352146284650
:102D8000BDE87040FFF774B8502080F31188BFF39E
:102D90004F8FBFF36F8FFEE72400002030B587B060
:102DA0000024039405AA04A903A80494FFF71AFDBC
:102DB000DDE903010094CDE90110002315A11748B6
:102DC000059A00F0D4FB164D0028E8621FD000F0F1
:102DD0004BFD012809D0401C19D1502080F31188E7
:102DE000BFF34F8FBFF36F8FFEE7502080F3118842
:102DF000BFF34F8FBFF36F8F4FF0FF30A8620120FA
:102E00006861EC6007B0BDE8304000F045B807B03D
:102E100030BD000049444C45000000000921000875
:102E2000240000200248016B491C01637047000028
:102E300024000020164810B5016B11B10121C161B9
:102E400010BD0021C1610169124A01E0B9B1491EFA
:102E500001EB810352F82330002BF7D001EB810303
:102E600002EB830202F1080453685B685360A342DB
:102E700001D15B685360DA680260016110BD5020C7
:102E800080F31188BFF34F8FBFF36F8FFEE7000011
:102E9000240000202C0200201CB52649087801904F
:102EA000FF20087008788DF800009DF800009DF85C
:102EB000002000F0F000904207D0502080F31188ED
:102EC000BFF34F8FBFF36F8FFEE79DF800001A4CE2
:102ED00000F0500020700720A06005E09DF8002061
:102EE00052008DF80020401E9DF800201206F5D4F7
:102EF000A060032807D0502080F31188BFF34F8FC4
:102F0000BFF36F8FFEE74FF44070A0600198087028
:102F10000A48016841F470010160016841F07041A4
:102F20000160FFF75BFE00206060FDF7FBF800200A
:102F30001CBD000000E400E09800002020ED00E04F
:102F400010B5502080F31188BFF34F8FBFF36F8F00
:102F500000F04CFB18B104494FF08050086000208D
:102F600080F3118810BD000004ED00E010B50C46A0
:102F700048B184420FD9502080F31188BFF34F8F9E
:102F8000BFF36F8FFEE7502080F31188BFF34F8FA0
:102F9000BFF36F8FFEE70222002100F03CF800280B
:102FA00000D0846310BD38B50C4648B184420FD9B7
:102FB000502080F31188BFF34F8FBFF36F8FFEE770
:102FC000502080F31188BFF34F8FBFF36F8FFEE760
:102FD0000221134600220091114600F03DF800281E
:102FE00000D0846338BD10B502460021012000F0F6
:102FF00012F80446FFF7B8F8204610BD38B50B4666
:10300000002200901146012000F026F80446FFF748
:10301000ABF8204638BDF8B517460E46050013D06C
:1030200005FB06F05030FFF7F9FA04000AD0002043
:1030300084F8460004F150023B463146284600948D
:10304000FFF79EF82046F8BD502080F31188BFF3AB
:103050004F8FBFF36F8FFEE738B5049D18B153B1A2
:10306000CAB181B120E0502080F31188BFF34F8FA7
:10307000BFF36F8FFEE7502080F31188BFF34F8FAF
:10308000BFF36F8FFEE7502080F31188BFF34F8F9F
:10309000BFF36F8FFEE739B1502080F31188BFF383
:1030A0004F8FBFF36F8FFEE750241C46012384F837
:1030B00046302B460094FFF763F8204638BD0000E9
:1030C00070B50D46040025D0FFF722FDD4E90F208E
:1030D000216802FB0011A1600021A16321686160E9
:1030E0000A46D4E90F01401E00FB0121E1602146A0
:1030F0004FF0FF3001F8440F487004F110008DB11B
:10310000FFF7D4FC04F12400FFF7D0FCFFF720FD0B
:10311000012070BD502080F31188BFF34F8FBFF3A3
:103120006F8FFEE721690029F0D000F003FB002833
:10313000ECD004494FF080500860BFF34F8FBFF3CD
:103140006F8FE3E704ED00E02DE9FF4782B01D46F5
:103150008A464FF00008040003D0BAF1000F08D0EF
:1031600011E0502080F31188BFF34F8FBFF36F8FB2
:10317000FEE7206C38B1502080F31188BFF34F8FE9
:10318000BFF36F8FFEE7022D0AD1E06B012807D055
:10319000502080F31188BFF34F8FBFF36F8FFEE78E
:1031A00000F010FA3F4F4FF000094FF0805648B939
:1031B000049838B1502080F31188BFF34F8FBFF3CC
:1031C0006F8FFEE7FFF7A4FCA06BE16B884207D38B
:1031D000022D05D00498D0B1B8F1000F1AD01EE02E
:1031E0002A4651462046FEF718FF616A19B104F1DC
:1031F000240000F09FFA20B13E60BFF34F8FBFF371
:103200006F8FFFF7A5FC012006B0BDE8F087FFF740
:103210009FFC22E06846FFF77FFD4FF00108FFF7B3
:1032200097FCFFF7FFFDFFF773FC94F94400401C87
:1032300001D184F8449094F94500401C01D184F8F0
:103240004590FFF785FC04A9684600F029F930B1E4
:103250002046FFF7ADF900F0A5FA0020D4E7FFF70C
:1032600057FCA06BE16B884213D1FFF771FC04F1AE
:1032700010000499FFF75EFD2046FFF799F900F072
:1032800091FA00289ED13E60BFF34F8FBFF36F8F3E
:1032900098E7FFF75DFC2046FFF78AF900F082FA15
:1032A00090E7000004ED00E02DE9F0471F4690464E
:1032B0008946040003D0B9F1000F08D011E0502076
:1032C00080F31188BFF34F8FBFF36F8FFEE7206C41
:1032D00038B1502080F31188BFF34F8FBFF36F8F49
:1032E000FEE7022F0AD1E06B012807D0502080F3BF
:1032F0001188BFF34F8FBFF36F8FFEE7FFF780FC9E
:103300005020EFF3118680F31188BFF34F8FBFF386
:103310006F8FA06BE16B884206D3022F04D0002090
:1033200086F31188BDE8F08794F94550A06B3A46C2
:1033300049462046FEF771FE681C04D06D1C84F8D7
:1033400045500120ECE7606A0028FAD004F124001F
:1033500000F0F0F90028F4D0B8F1000FF1D001210D
:10336000C8F80010EDE700002DE9F747002683B00C
:103370008A46040003D0BAF1000F08D011E05020B3
:1033800080F31188BFF34F8FBFF36F8FFEE7206C80
:1033900038B1502080F31188BFF34F8FBFF36F8F88
:1033A000FEE700F00FF9DFF8F4804FF000094FF06E
:1033B000805748B9059838B1502080F31188BFF381
:1033C0004F8FBFF36F8FFEE7FFF7A2FBA56BC5B171
:1033D00051462046FEF70EFE6D1EA563206950B1D2
:1033E00004F1100000F0A6F928B1C8F80070BFF38E
:1033F0004F8FBFF36F8FFFF7ABFB012006B0BDE827
:10340000F087059808B11EB106E0FFF7A1FB27E0A1
:103410006846FFF781FC0126FFF79AFBFFF702FDE4
:10342000FFF776FB94F94400401C01D184F84490E6
:1034300094F94500401C01D184F84590FFF788FBC2
:1034400005A9684600F02CF8002820460AD0FFF7AE
:10345000AFF800F0A7F92046FEF73EFF0028B3D0F2
:103460000020CBE7FEF738FF90B104F12400059966
:10347000FFF760FC2046FFF79BF800F093F9002867
:10348000A2D1C8F80070BFF34F8FBFF36F8F9BE7D7
:103490002046FFF78DF800F085F995E704ED00E090
:1034A0002DE9F0410C46050011D0C4B1FFF730FB07
:1034B000174BDA686E682068911B471C17D02F687D
:1034C0001B6A9F4219D0964217D8012410E0502061
:1034D00080F31188BFF34F8FBFF36F8FFEE750204B
:1034E00080F31188BFF34F8FBFF36F8FFEE7002487
:1034F000FFF72EFB2046BDE8F081884205D9401A2F
:1035000020602846FFF708FCF1E700202060DCE798
:10351000240000202DE9FF5F8346DDE90E879946F0
:1035200016468A469000FFF779F805001CD05C200B
:10353000FFF774F8040014D00020256384F85900C4
:10354000CDE90240CDE900874B4632465146584608
:10355000FEF728FE2046FEF7B9FC012004B0BDE8C6
:10356000F09F2846FFF708FB4FF0FF30F6E7F0B575
:1035700085B0DDE90B640A9DA6B1DCB15C2700973C
:103580002663022684F85960002604AFCDE902467E
:10359000CDE90057FEF706FE2046FEF797FC04989B
:1035A00005B0F0BD502080F31188BFF34F8FBFF3FB
:1035B0006F8FFEE7502080F31188BFF34F8FBFF36A
:1035C0006F8FFEE70548416919B1006B18B1002003
:1035D000704701207047022070470000240000203F
:1035E0000148C06870470000240000202DE9F04128
:1035F0002E4C0027206B28B1A069401CA0613846E2
:10360000BDE8F081E668761CE66013D1606B006867
:1036100038B1502080F31188BFF34F8FBFF36F8F05
:10362000FEE7606BA16B6163A063206A401C2062AF
:10363000FEF73EFFA06ADFF87880864209D3606B10
:103640000068A0B1606BC068C5686868864211D226
:10365000A0622068C06A00EB800158F821000128B0
:1036600000D90127E0690028C9D00127C7E74FF03A
:10367000FF30EDE7281DFFF7A1F8A86A18B105F1A2
:103680001800FFF79BF8E86A2169884200D9206199
:1036900000EB800108EB8100291DFFF72DFAE86A95
:1036A0002168C96A8842CAD30127C8E724000020DC
:1036B0002C02002070B504004FF0000133D01B4DE8
:1036C0002868844207D0502080F31188BFF34F8FC1
:1036D000BFF36F8FFEE7206D38B1401E2065E36CAD
:1036E000E26A9A421FD040B11DE0502080F3118859
:1036F000BFF34F8FBFF36F8FFEE7201DFFF75EF81C
:10370000E06CE062C0F13800A061E06A296988429B
:1037100000D92861064900EB800001EB8000211DE3
:10372000FFF7EAF90121084670BD000024000020DF
:103730002C02002070B5C068C46854B104F11800B0
:103740000646FFF73BF8144D286B50B1314613483D
:1037500015E0502080F31188BFF34F8FBFF36F8FB8
:10376000FEE7201DFFF72AF8E06A2969884200D9A0
:1037700028610B4900EB800001EB8000211DFFF761
:10378000BBF9E06A2968C96A884202D90120E86168
:1037900070BD002070BD000024000020B406002091
:1037A0002C0200202DE9F0472C4D00242746286BE1
:1037B00038B1FFF7ADF9286B401E2863286B40B184
:1037C00046E0502080F31188BFF34F8FBFF36F8F17
:1037D000FEE7A968224E0120D1B3A6F59169804683
:1037E0003068E0B1F068C46804F11800FEF7E6FF45
:1037F000201DFEF7E3FFE06A2969884200D92861AD
:1038000000EB800109EB8100211DFFF775F9E06AEB
:103810002968C96A8842E3D3C5F81C80E0E70CB187
:10382000FEF746FEAC694CB14FEA0806FFF7DEFE34
:1038300000B1EE61641EF9D10020A861E86938B1D9
:103840000849012738070860BFF34F8FBFF36F8F18
:10385000FFF77EF93846BDE8F0870000240000201D
:10386000B406002004ED00E010B586B0FEF796FB2C
:10387000114C2068B8B100200390049005AA04A957
:1038800003A8FEF7B9FFDDE9032102208DE8070058
:1038900000230AA10B48059AFFF769FE606010B18A
:1038A00006B0012010BD502080F31188BFF34F8F68
:1038B000BFF36F8FFEE7000060000020546D7220A0
:1038C000537663008D2500082DE9FF411E461346FF
:1038D00002000A9D4FF0000016D0144C2768002FFC
:1038E0000FD0CDE900130292062917DAFFF76AFE1E
:1038F00002284FF000030FD0002269462068FFF72E
:1039000023FC04B0BDE8F081502080F31188BFF3A0
:103910004F8FBFF36F8FFEE72A46EEE70023324654
:1039200069463846FFF7C0FCEBE700006000002066
:10393000F43A000800000000000000000000000051
:10394000000000000002000008000000000000006D
:1039500000000000E83A000800000000000000003D
:1039600000000000D83A000800000000000000003D
:1039700000000000C83A000800000000000000003D
:1039800000000000010202030405060708090A0BF3
:103990000C0D0E0F101000000000000000000102CE
:1039A00003040607080900004C5555555555A53F19
:1039B0007751C1166CC156BF9015CB19A001FA3EC4
:1039C000AD529C804F7E92BEC4B1B4BD9EEE213EEE
:1039D000D43888BEE9FAA8BD00004054FB21F93F65
:1039E0003163621A61B4D03D0000601A61B4D03D09
:1039F0007370032E8A19A33B0000002E8A19A33B83
:103A0000C14920259A837B39000000000000000096
:103A10006E83F9A22915444ED15727FCC0DD34F539
:103A2000999562DB4190433CAB6351FE61C5BBDEBF
:103A30003A6E24B7E0D24D42EA2E49061C92D109D3
:103A40001CEB1DFE3EA729B1F53582E88444BB2E50
:103A500026709CE9417E5FB439D69139F43953839D
:103A60008B5F849C3B28F9BDFF97F81F0F9805DEFC
:103A70008B112FEF1F6D0A5ACF7E366DB709CB27FA
:103A8000663F464F2DEA5F9EC7BA27757BF1E5EB8F
:103A9000F739073DEA92528AB15FFB6B085D8D1FD3
:103AA000A6F810111111813FD561C119A0012ABFDB
:103AB0007DFEB157E31DC73EEB9C2B8AE6E55ABE5F
:103AC0007CD5CF5A3AD9E53D6D79436F756E7469EF
:103AD0006E6753656D3031006D7942696E61727940
:103AE00053656D30310000006D794D757465783027
:103AF0003100000064656661756C745461736B001D
:103B0000203B000800000020A8000000FC1B00086B
:103B1000C83B0008A8000020182200000C1C000868
:103B20000000000000000000000000000000000095
:103B30000000000001000000100000000000000074
:103B400000127A00000000000000000000000000E9
:103B50000000000000000000000000000000000065
:103B60000000000000000000000000000000000055
:103B70000000000000000000000000000000000045
:103B80000000000000000000000000000000000035
:103B90000000000000000000000000000000000025
:103BA0000000000000000000000000000000000015
:103BB000000000000000000000000000AAAAAAAA5D
:083BC0000000000000000000FD
:04000005080000ED02
:00000001FF
