:020000040800F2
:100000006823002099010008BF100008210F000894
:10001000BD10000845020008FD13000800000000A4
:1000200000000000000000000000000001010008C6
:10003000470200080000000045010008C710000842
:10004000B3010008B3010008B3010008B3010008C0
:10005000B3010008B3010008B3010008B3010008B0
:10006000B3010008B3010008B3010008B3010008A0
:10007000B3010008B3010008B3010008B301000890
:10008000B3010008B3010008B3010008B301000880
:10009000B3010008B3010008B3010008B301000870
:1000A000B3010008B3010008B3010008B301000860
:1000B00041110008B3010008B3010008B3010008B2
:1000C000B3010008B3010008B3010008B301000840
:1000D000B3010008B5130008B3010008B30100081C
:1000E000B3010008B3010008B3010008DFF80CD029
:1000F00000F096F8004800473D14000868230020EF
:10010000224B19680868B0E8F00F80F30988BFF344
:100110006F8F4FF0000080F311884EF00D0E704786
:100120000000000006480068006880F3088862B696
:1001300061B6BFF34F8FBFF36F8F00DF00BF00BF0B
:1001400008ED00E0EFF30980BFF36F8F0F4B1A68E3
:1001500020E9F00F106008B54FF0500080F31188CF
:10016000BFF34F8FBFF36F8F02F06EFB4FF00000B5
:1001700080F31188BDE8084019680868B0E8F00FFE
:1001800080F30988BFF36F8F704700BF4C000020D9
:10019000EFF3058070470000064880470648004797
:1001A000FEE7FEE7FEE7FEE7FEE7FEE7FEE7FEE727
:1001B000FEE7FEE73D110008ED00000840EA0103FC
:1001C0009B0703D009E008C9121F08C0042AFAD20D
:1001D00003E011F8013B00F8013B521EF9D27047D1
:1001E000D2B201E000F8012B491EFBD27047002279
:1001F000F6E710B513460A4604461946FFF7F0FF26
:10020000204610BD30B504460020034600E05B1CCC
:10021000934203D2E05CCD5C401BF8D030BD0000BF
:10022000064C074D06E0E06840F0010394E8070043
:1002300098471034AC42F6D3FFF75CFF083400084F
:1002400028340008FEE770472DE9F84FDFF8B89131
:100250000024A9F1040B23460F2709F1040AABF18E
:10026000040EC9E00125A5402A40AA427DD1674E6F
:10027000D1F804C0ACEB0608B44532D014DCBCF1B4
:10028000030F3AD009DCBCF1000F2AD0BCF1010FFA
:100290001CD0BCF1020F31D11DE0BCF1110F17D001
:1002A000BCF1120F2AD119E0B8F5881F19D006DC6D
:1002B000B8F5803F15D0B8F5801F1FD111E0B8F513
:1002C000001F0ED0B8F5041F18D10AE0CB6815E066
:1002D000CB681B1D12E0CB6808330FE0CB680C33F2
:1002E0000CE08B682BB1012B4FF0080303D0456164
:1002F00004E0042302E0056100E00023FF2A01D8A6
:10030000064601E000F104064FEA840501D9A5F193
:100310002005D6F8008007FA05FC28EA0C0803FA45
:1003200005F548EA0508C6F800804D68ED0062D57D
:10033000374DAE6946F00106AE61AD6924F00306A3
:1003400005F001050095334D06EB050CDCF808506F
:10035000A607360F07FA06F825EA0805DFF8B88081
:10036000404503D14FF0000817E044E0DFF8AC80CF
:10037000404502D14FF001080FE0DFF8A48040456E
:1003800002D14FF0020808E0DFF89880404502D122
:100390004FF0030801E04FF0040808FA06F848EAB5
:1003A0000508CCF808804D68D9F80060ED024D468C
:1003B00001D5164300E096432E604D68DAF80060E0
:1003C000AD02554601D5164300E096432E604D68B8
:1003D000DBF80060AD035D4601D5164300E09643AF
:1003E0002E604D68DEF80060ED03754601D51643BA
:1003F00000E096432E60641C0D682A46E5407FF4B9
:1004000031AFBDE8F88F0000080401400000111072
:10041000001002400000014000080140000C0140B3
:1004200000100140001401408068084000D0012005
:1004300070470AB1016170470904FBE70148806811
:10044000704700003C000020024881680278114497
:10045000816070473C000020074810B5016841F0FA
:1004600010010160032000F07BF80F2000F006F877
:1004700000F024F8002010BD0020024070B50D4DA2
:1004800004464FF47A712878B1FBF0F00A49096804
:10049000B1FBF0F000F0E2FA48B9102C07D20022CC
:1004A0002146501E00F03CF800206C6070BD012019
:1004B00070BD00003C000020480000200F4808B537
:1004C000816941F001018161816901F001010091BF
:1004D000C16941F08051C161C069002200F08050C3
:1004E00000900F21901E00F01BF80548416821F094
:1004F000E06141F00071416008BD00000010024061
:1005000000000140002809DB00F01F02012191409A
:100510004009800000F1E020C0F8001170470000A1
:10052000F0B40E4B1B680C46C3F30223C3F107055E
:10053000042D00D90425191D072901D2002300E04C
:10054000DB1E012606FA05F1491E214099409E4016
:10055000761E16403143F0BC00F051BF0CED00E0B8
:10056000064900F0070208684FF6FF03184040EA0A
:100570000220034A10430860704700000CED00E0C1
:100580000000FA052DE9F0470F46050061D0434E03
:10059000306800F00700B84209D2306820F0070048
:1005A00038433060306800F00700B84251D1286805
:1005B0003B4C810712D5400703D5606840F4E060EA
:1005C00060602878000703D5606840F46050606080
:1005D0006068A96820F0F000084360602878C007D0
:1005E00028D06868012810D02168022810D0890717
:1005F00000292EDA616821F0030101436160FFF7F1
:100600001DFF804641F288390DE021688903EFE73C
:100610008901EDE7FFF712FFA0EB0801494502D978
:100620000320BDE8F0876068696800F00C00B0EB5B
:10063000810FEFD1306800F00700B8420BD9306865
:1006400020F0070038433060306800F00700B842FF
:1006500001D00120E5E72878400705D56068E96802
:1006600020F4E060084360602878000706D56068E1
:10067000296920F4605040EAC100606000F038F859
:100680006168084AC1F30311515CC840064908601B
:1006900006480068FFF7F2FE0020C2E70020024093
:1006A00000100240B633000848000020400000203F
:1006B0000448054900684968044AC1F30221515CB5
:1006C000C84070474800002000100240C6330008B0
:1006D0000448054900684968044AC1F3C221515CD5
:1006E000C84070474800002000100240C633000890
:1006F0000E4A51680E4801F00C03042B11D0082B50
:100700000FD10C48C1F38343C903C05C0AD55168BB
:10071000084AC1F34041921E515C054A5043B0FB68
:10072000F1F0704704494843704700000010024050
:1007300000127A00A633000800093D002DE9F84FA9
:10074000040070D02078C04DC00749D06868C0F35D
:100750008100012807D06868C0F38100022809D110
:100760006868C00306D52868800339D5606800280A
:10077000E7D035E06068B0F5803F0BD010B1B0F540
:10078000A02F11D0286820F480302860286820F439
:10079000802002E0286840F480302860606890B1D2
:1007A000FFF74CFE06460AE0286840F480202860E7
:1007B000F0E700BFFFF742FE801B642873D828686B
:1007C0008003F7D50CE0FFF739FE064605E000BFD1
:1007D000FFF734FE801B6428F0D828688003F7D424
:1007E00020789A4E80074FF001094FF0000839D564
:1007F000686810F00C0F07D06868C0F38100022809
:1008000009D16868C00306D42868800714D5206918
:10081000012808D110E02069B0B1C6F80090FFF7B8
:100820000DFE074605E00AE1FFF708FEC01B02289F
:10083000C4D828688007F7D52868616920F0F800D7
:1008400040EAC10028600DE0C6F80080FFF7F6FD21
:10085000074604E0FFF7F2FDC01B022823D82868F2
:100860008007F7D4207800072CD57948A169D9B141
:10087000C0F80090FFF7E2FD074604E0FFF7DEFD59
:10088000C01B02280FD8686A8007F7D571484FF45B
:10089000FA510068B0FBF1F0009000BF0098411ED3
:1008A0000091FAD20EE080E0C0F80080FFF7C6FDAC
:1008B000074604E0FFF7C2FDC01B022875D8686A2E
:1008C0008007F7D42078400760D5E8690027C0008A
:1008D00008D4E86940F08050E861E869012700F039
:1008E000805000905C480168C90513D401688346B4
:1008F00041F480710160FFF7A1FD824606E000BF70
:10090000FFF79CFDA0EB0A0064284ED8DBF800003E
:10091000C005F5D5E06801280AD008B1052813D034
:10092000286A20F001002862286A20F0040002E012
:10093000286A40F001002862E06841F2883B98B1E3
:10094000FFF77CFD82460BE0286A40F00400286235
:10095000EEE700BFFFF772FDA0EB0A0159455AD838
:10096000286A8007F6D50CE0FFF768FD824605E0AF
:10097000FFF764FDA0EB0A0159454CD8286A8007AF
:10098000F6D41FB1E86920F08050E861E06988B3CF
:100990006968C1F38101022944D00228C6F8608049
:1009A00004D0FFF74BFD044638E034E0FFF746FD86
:1009B000074604E0FFF742FDC01B02282BD8286839
:1009C0008001F7D4206AB0F5803F05D16868A1683E
:1009D00020F4003008436860D4E9080108436968DE
:1009E00021F4741108436860C6F86090FFF726FD93
:1009F000044606E025E000BFFFF720FD001B0228AB
:100A000009D828688001F7D51BE000BFFFF716FD65
:100A1000001B022802D90320BDE8F88F2868800156
:100A2000F4D40EE00128F7D06868226A00F480311F
:100A3000914204D1616A00F47010884201D0012013
:100A4000EAE70020E8E70000001002400000424210
:100A500080044242480000200070004010B5401E53
:100A6000B0F1807F01D3012010BD4FF0E024606120
:100A70000F21601700F0C3FC0020A0610720206157
:100A8000002010BD7047704770B590F83C20012AD7
:100A900026D0012480F83C40022280F83D200368E3
:100AA0005A689D6822F070060A6832435A600D4BFE
:100AB00002689A4208D0B2F1804F05D00A4B9A42A0
:100AC00002D00A4B9A4204D1496825F080031943A9
:100AD000916080F83D40002180F83C10084670BDD0
:100AE000022070BD002C01400004004000080040BE
:100AF00010B5040003D094F83D0010B107E00120C8
:100B000010BD002084F83C00204600F01FF80220B1
:100B100084F83D00211D206800F01EFB012084F8B0
:100B2000460084F83E0084F83F0084F8400084F8D2
:100B3000410084F8420084F8430084F8440084F8BB
:100B4000450084F83D00002010BD000008B5006895
:100B5000B0F1804F12D10A48C16941F00101C16171
:100B6000C069002200F00100009005211C20FFF761
:100B7000D7FCBDE808401C20FFF7C4BC08BD00003E
:100B80000010024070B5044690F83C000025012892
:100B900017D0012684F83C60022084F83D002068CC
:100BA000826822F0770222F47F428260086850282F
:100BB00038D00DDC20284FD005DC90B3102811D19F
:100BC0004AE0022070BD302846D040280AD13BE0E0
:100BD00060282FD070280DD0B0F5805F03D0B0F51D
:100BE000005F12D0012584F83D60002084F83C00AD
:100BF000284670BDCB68D1E90121206800F0E8FAF1
:100C00002068816841F0770109E0CB68D1E90121D2
:100C1000206800F0DDFA2068816841F4804181603D
:100C2000E1E719E0CA684968206800F0E3FA50215A
:100C3000206806E0CA684968206800F0ECFA602184
:100C4000206800F0CFFACEE7CA684968206800F053
:100C5000D1FA40212068F4E7226801461046F0E707
:100C600070472DE9F04104460068C66805694FF0F9
:100C70000007A90713D5B10711D5F91E016101209D
:100C80002077206880698007204602D0FFF7E8FFC0
:100C900004E000F07EF8204600F07CF82777680733
:100CA00016D5700714D521686FF004000861022082
:100CB00020772068806910F4407F204602D0FFF73B
:100CC000CFFF04E000F065F8204600F063F82777D6
:100CD000280715D5300713D521686FF00800086183
:100CE000042020772068C0698007204602D0FFF7E3
:100CF000B7FF04E000F04DF8204600F04BF82777EE
:100D0000E80616D5F00614D521686FF010000861CA
:100D1000082020772068C06910F4407F204602D068
:100D2000FFF79EFF04E000F034F8204600F032F8B0
:100D30002777E80708D0F00706D021686FF0010098
:100D40000861204600F027F8280608D5300606D5A9
:100D500021686FF0800008612046FFF793FE680667
:100D600008D5700606D521686FF04000086120465E
:100D700000F012F8A8060AD5B00608D521686FF071
:100D8000200008612046BDE8F041FFF77CBEBDE8C9
:100D9000F081704770477047704770B5040004D009
:100DA00094F84100002510B106E0012070BD84F8E0
:100DB0004050204600F024F8242084F841002068A8
:100DC000C16821F40051C160204600F05DFA20683E
:100DD000016921F4904101612068416921F02A01F3
:100DE00041612068C16841F40051C1606564202000
:100DF00084F8410084F842006563002070BD000063
:100E000030B585B0002400940194029403940068E6
:100E1000184988422CD11848816941F48041816188
:100E2000816901F480410491816941F0040181618B
:100E30008069124D00F0040004904FF4007000909F
:100E4000022001900320039069462846FFF7FCF931
:100E50002815CDE90004694628460294FFF7F4F905
:100E6000002205212520FFF75BFB2520FFF74AFB29
:100E700005B030BD003801400010024000080140BC
:100E80002DE9F843044690F84100984616460D4671
:100E9000202802D00220BDE8F88385B17EB1002071
:100EA0006064212084F84100FFF7C8FAA6848146D7
:100EB000E684A0682027B0F5805F02D003E001201F
:100EC000E9E7206910B12E4600250EE000260CE06F
:100ED0008021204600F034FAA8B9C6B116F8010BFB
:100EE00021684860E08C401EE084E08C4B464FF067
:100EF0000002CDF800800028EAD14FF040012046E2
:100F000000F01EFA40B184F841700320C3E735F8C1
:100F1000020BC0F30800E3E784F841700020BAE751
:100F2000FEE700002DE9F04385B00024344800942A
:100F3000019402940394816941F0100181618169F7
:100F400001F010010491816941F020018161816902
:100F500001F020010491816941F0040181618169FE
:100F600001F004010491816941F008018161806907
:100F7000244F00F008004FF4005504900022294649
:100F80003846FFF756FADFF880800122FC21404600
:100F9000FFF74FFADFF87490012203214846FFF76C
:100FA00048FA0095022601250396CDE901546946C9
:100FB0003846FFF749F94FF440408DE83100694663
:100FC0003846FFF741F90327009769464046CDE9C7
:100FD0000145FFF739F9FC20CDE90005CDE90246CE
:100FE00069464046FFF730F900970396CDE9015472
:100FF00069464846FFF728F905B0BDE8F0830000D0
:10100000001002400010014000080140000C0140A7
:1010100010B586B0002416480094019402940394FD
:1010200004944FF080410594C0E9001440F2671128
:10103000C0E9024104618461FFF75AFD08B172B64C
:10104000FEE74FF48050009069460948FFF79AFD8B
:1010500008B172B6FEE7049404A905480594FFF7A9
:1010600013FD002801D072B6FEE706B010BD0000E7
:101070000402002010B5104C0E480C2120604FF4E3
:10108000E13060600020A060E060C4E90401A0617C
:10109000E0612046FFF781FE08B172B6FEE72068E6
:1010A000C16841F02001C1602068C16841F400516D
:1010B000C16010BD003801404C020020FEE7FEE791
:1010C00001F010FBFCE710B5FFF7BEF901F084FF5B
:1010D000012803D0BDE8104001F03CBC10BD30B584
:1010E0008FB028216846FFF782F814210AA8FFF77D
:1010F0007EF801210804CDE90010002402940225A5
:101100000491CDE907504FF4E01009906846FFF7CD
:1011100015FB08B172B6FEE70F20CDE90A054FF4C2
:101120008060CDE90C4002210AA80E94FFF72AFA4C
:10113000002801D072B6FEE70FB030BD7047000046
:1011400010B50448FFF78DFDBDE81040002000F009
:1011500029BF000004020020F0B50268194B1A4CA8
:101160001A4D4FF08047984205D0B84203D0A042B4
:1011700001D0A84203D122F070064A683243984257
:1011800005D0B84203D0A04201D0A84203D122F436
:101190004074CA6822434C6922F0800222430260F4
:1011A0008A68C2620A688262984201D10969016351
:1011B000012141610169C90703D0016921F00101E1
:1011C0000161F0BD002C0140000400400008004017
:1011D00010B5846842EA032224F47F440A43224380
:1011E000826010BD826822F070020A4342F007015B
:1011F0008160704710B5036A046A24F00104046238
:10120000846924F0F00444EA021423F00A020A4339
:101210008461026210BD10B5036A046A24F01004F0
:101220000462846923F0A00324F4704444EA023287
:1012300043EA01118261016210BD01680C3151E87D
:10124000002F22F4907241E80023002BF5D10168B1
:10125000143151E8002F22F0010241E80023002B55
:10126000F5D1016B012909D101680C3151E8002F3A
:1012700022F0100241E80023002BF5D1202180F854
:10128000421000210163704770B50446006801698F
:10129000E26821F44051114301612169A0680843CB
:1012A000616908432168CA6841F20C639A430243AA
:1012B000CA6020684169A26921F44071114341610B
:1012C0001E492068884202D1FFF702FA01E0FFF7C9
:1012D000EFF900EBC00101EB0012606864218000AF
:1012E000B2FBF0F3B3FBF1F36FF018067343B2FBFC
:1012F000F0F5B2FBF0F605EB8305322303EB0515A1
:10130000B5FBF1F5B6FBF1F605F0F00505EB0615BA
:10131000B2FBF0F6B2FBF0F0B0FBF1F06FF01802A8
:10132000504306EB800003EB0010B0FBF1F02168A6
:1013300000F00F002844886070BD000000380140B4
:101340002DE9F843984617460D460446089E24E0CA
:10135000701C22D0FFF772F8A0EB0800B0421AD838
:10136000CEB12068C168490717D5802D15D0402D12
:1013700013D00168C94309070FD4016800254068EC
:1013800000902046FFF759FF0820606484F8405021
:101390000120BDE8F8830320FBE72068006835EAF8
:1013A000000004D00020B842D2D00020F1E7012094
:1013B000F9E700000D480168890615D5011D096887
:1013C0000268C9B222F0200202600A4A084B107873
:1013D0001954401CC0B210700A2905D100211954BB
:1013E000054B012018701170704700000038014053
:1013F000CC0000203800002000000020FEE7090794
:10140000090E002804DB00F1E02080F8001470478A
:1014100000F00F0000F1E02080F8141D704702E09A
:1014200008C8121F08C1002AFAD17047704700206F
:1014300001E001C1121F002AFBD17047FFF70CF831
:1014400000F086FF00F0CEFDFFF749FEFFF76AFDD2
:10145000FFF7DEFDFFF70EFE00F024F80E4800F067
:101460004FF80E4C0C4A012160601032084600F023
:101470007BF8094AA06020320021042000F074F8B3
:10148000054AE060243A0021054800F0B9F82060E0
:1014900000F01AF8FEE7000074330008280000206E
:1014A000C1100008EFF3058010B16FF00500704720
:1014B0000448016811B14FF0FF307047012101600D
:1014C000002070479C00002010B5EFF3058010B19C
:1014D0006FF0050010BD08480168012902D04FF0E7
:1014E000FF3010BD054A002182F8141D0221016061
:1014F00001F05EF9002010BD9C0000200BE000E030
:1015000070B505464FF00004EFF3058050BB0DB1F8
:10151000686800E00020C10701D0012600E0002635
:1015200000071FD46DB1D5E9021021B1502819D39D
:101530001EB1042002E020B114E0012001F068FA9D
:1015400005E00EB1042000E0012001F056FA04008D
:1015500008D00DB1296800E0002101F061F80EB15A
:1015600044F00104204670BDF8B5144603460E460B
:101570004FF00005EFF3058098BB93B39E423DD832
:101580004CB1A0680028E06803D0502836D3012071
:1015900002E008B132E00020012B05D010B318465C
:1015A000A26801F00AFA20E040B103200090002276
:1015B00011460120A36801F059FA04E0032200213A
:1015C000012001F032FA050018D086B100231A4636
:1015D000194601F0C3FA012809D0284601F034F871
:1015E00000250BE0184601F0CBF9050006D00CB140
:1015F000216800E00021284601F012F82846F8BDD5
:101600002DE9FF414FEA01034FF00005EFF305819B
:10161000039549BB40B38027182100244AB31668BC
:1016200006B1344696691EB13146761E382E02D276
:101630001679F60703D0002004B0BDE8F0815669A2
:1016400006B1B708D2F808C0BCF1000F0DD0D568BC
:101650005C2D18D312693AB136B18DE806103A46BE
:10166000214601F08EFC03900DE0D6685EB9126948
:101670004AB903AACDE90012BAB2214601F054FCDE
:10168000012800D003950398D6E700002DE9F0412A
:10169000134C0F460546E6682068001D00F04CFC20
:1016A000681C07D137B12168BDE8F0410D48091D1C
:1016B00000F008BF20683544B5424560216805D276
:1016C000A06BBDE8F041091D00F0E4BE606B091D90
:1016D00000F0E0FEA06A854200D2A562BDE8F0817C
:1016E0004C000020840700202DE9F041054600F061
:1016F000F5FE2D4CA068401CA06020682B4F10B157
:10170000606930B32BE02560A068012827D100264E
:1017100006EB860007EB800000F0AEFE761C382E4C
:10172000F6D3234800F0A8FE2148143000F0A4FEB0
:101730001F48283000F0A0FE1D483C3000F09CFE01
:101740001B48503000F098FE194860631430A063C5
:1017500005E02068E96AC06A884200D82560606AAE
:10176000401C60626864E86A2169884200D920618F
:1017700000EB800007EB8000291D00F0A3FE00F0C5
:10178000CDFE606900280CD02068E96AC06A8842F2
:1017900007D208494FF080500860BFF34F8FBFF366
:1017A0006F8FBDE8F08100004C000020D4020020C3
:1017B0003407002004ED00E038B500F08FFE104C37
:1017C0002068C8B90F4800F057FE0E48143000F0EA
:1017D00053FE0C48E060143020610A4B0020F03BBF
:1017E000009003F1500210210A2001F03FF920601F
:1017F00010B105A100F014FFBDE8384000F08EBE26
:101800008800002088080020546D725100000000FC
:1018100030B4026C0B46002A0BD0C1681144C16081
:101820008468A14201D30168C16030BC1846FEF74C
:10183000C5BC30BC70472DE9F041856B17460446A6
:101840000026026C82B1C7B1E068FEF7B7FCE16820
:10185000206C091AE1602268914202D2A168081A3C
:10186000E060022F16D017E02068A8B9A06801F048
:101870002BFC06460020A0600EE06068FEF79EFC90
:10188000216C606808446060A168884204D32068C5
:10189000606001E005B16D1E6D1CA5633046BDE8BA
:1018A000F08110B5044690F8590058B101280CD0C9
:1018B00002280FD0502080F31188BFF34F8FBFF361
:1018C0006F8FFEE7206B00F03DFE2046BDE8104024
:1018D00000F038BE10BD000010484FF480514207A0
:1018E00006D0C01D0D4920F00700411AC1F58051F6
:1018F0000B4A00230144C2E900030839183A21F0D9
:10190000070111604B600B600B1AC0E90013936074
:101910004FF000405360506170470000680F002096
:10192000B8000020144E154CA6F29C474FF080588A
:10193000DFF84C9012E000BF00F0D0FDF068C56801
:10194000281D00F0F9FAA068401EA0606068401EE3
:10195000606000F0E3FD2846FFF7A3FF6068002801
:10196000EAD138680128F9D9C9F80080BFF34F8F50
:10197000BFF36F8FF2E70000700700204C000020DB
:1019800004ED00E0002807D00021816001600B46D3
:101990000A46C16001F0E2B87047000070B51D460C
:1019A000049C51B1C4F80020C4E90F010121204674
:1019B00001F090F884F84C5070BD2460F4E700000A
:1019C0002DE9F05F8846DDE90B94154683469100CA
:1019D0009A460A9EA522206BFEF702FC6FF00301D7
:1019E000206B01EB8501084420F00707780707D03A
:1019F000502080F31188BFF34F8FBFF36F8FFEE746
:101A00000025B8F1000F0FD05FF00000221818F881
:101A1000001082F8341018F8001011B1401C102882
:101A2000F4D384F8435001E084F83450382E00D3C6
:101A30003726E662C4E91365201D00F028FD04F195
:101A4000180000F024FD2461C6F138006462A06132
:101A5000656584F8585052465946384600F05AFA9F
:101A60002060B9F1000F01D0C9F80040BDE8F09F37
:101A700030B5114900E011460A688242FBD34B6839
:101A80005C18844203D140681844486008464368A3
:101A90001C18944209D1084C183C2468A24209D071
:101AA00052681A4442600A6812680260814200D09B
:101AB000086030BD0460F9E7B800002070B500246C
:101AC00041600B4D0061914206D8D11A8269914262
:101AD00006D2011D286907E09A4203D2994201D338
:101AE000012403E0011DE86800F0D4FC204670BD2D
:101AF0008800002010B5044600F0F0FCA06B28B16F
:101B00005FF0000400F00AFD204610BD0124F9E753
:101B100030B589B03C4D6EE00498002806DADDE966
:101B20000601059A90470498002864DB069C6069CA
:101B300010B1201D00F000FA03A800F0D7F802460B
:101B400004980A2857D2DFE800F00505052D334A2E
:101B500005052D3394F8280040F0010084F8280092
:101B60000599A069059B01442046FFF7A7FF68B3CC
:101B7000216A2046884794F8280040073BD500207A
:101B800000900598A169002342181946204601F0EB
:101B9000A5FBD8B9502080F31188BFF34F8FBFF356
:101BA0006F8FFEE714F8280F20F00100207022E06C
:101BB00094F8280040F0010084F828000598A061FE
:101BC00028B1811813462046FFF778FF13E0502014
:101BD00080F31188BFF34F8FBFF36F8FFEE794F848
:101BE0002800810703D4204600F0ACFC03E020F07D
:101BF000010084F82800002204A9286801F0BEF83A
:101C0000002889D109B030BD880000202DE9FC41B1
:101C10000F46054600F010FE01A800F067F80446E4
:101C2000019818B101F0C8FABDE8FC81254EAFB1AA
:101C300030690068D0B30027291B3A46306800F0AD
:101C40002FFD01F0B9FA0028EED11F494FF0805066
:101C50000860BFF34F8FBFF36F8FE5E7A542EBD866
:101C600001F0AAFAF0682746C068C468201D00F099
:101C700063F994F82800410719D5A0692B4641194A
:101C80003A462046FFF71AFFA8B100200346014656
:101C900000902A46204601F021FB60B9502080F3D5
:101CA0001188BFF34F8FBFF36F8FFEE707E020F07F
:101CB000010084F82800216A20468847B4E70127FC
:101CC000BAE700008800002004ED00E00648416B00
:101CD000096829B1416BC968C96849688162704760
:101CE0004FF0FF31FAE700004C00002070B50546C8
:101CF00001F080F9064E0446B068844203D200F039
:101D000009F8012000E0002028602046B46070BD82
:101D100088000020F8B5194D20E0C068C468066846
:101D2000201D00F009F9216A2046884794F8280010
:101D3000400713D5A0693044B04206D924616060E1
:101D4000211DE86800F0A6FB08E0002003460146DC
:101D500000903246204601F0C1FA38B1E8680168C7
:101D60000029DAD12969C5E90310F8BD502080F3B4
:101D70001188BFF34F8FBFF36F8FFEE788000020FD
:101D800008484068401C4FF0500080F3118804D090
:101D9000BFF34F8FBFF36F8FFEE7BFF34F8FBFF3DC
:101DA0006F8FFEE7C0000020074CE068016841B17A
:101DB000C0680021D0F80000FFF728FFFFF7A8FE59
:101DC000F3E701210020F7E7880000202DE9F0412A
:101DD000044600F083FB94F9455004F1240609E021
:101DE000606A48B1304601F0AFF908B100F0A6FCD6
:101DF0006D1E6DB2002DF3DC4FF0FF3684F84560A8
:101E000000F08CFB00F06AFB94F9445004F11007D9
:101E100009E0206948B1384601F096F908B100F0B0
:101E20008DFC6D1E6DB2002DF3DC84F84460BDE8BE
:101E3000F04100F073BB00002DE9F041054600279A
:101E400000F0FAFC324E306808B9FFF745FD7069C2
:101E500005424ED1C5B3083568070ED005F007001E
:101E6000C0F108000544680707D0502080F31188AE
:101E7000BFF34F8FBFF36F8FFEE72DB370688542BE
:101E800037D82348183001460C6801E020460C463C
:101E90006168A94202D221680029F7D131688C42D9
:101EA00027D007682168016060680837411B102946
:101EB0000FD96019420708D0502080F31188BFF372
:101EC0004F8FBFF36F8FFEE713E041606560FFF750
:101ED000CFFD61687068401A7060B268904200D2AD
:101EE000B060706901430020C4E90001F068401C43
:101EF000F06001F061F9780707D0502080F3118875
:101F0000BFF34F8FBFF36F8FFEE73846BDE8F08118
:101F1000A000002010B5031F4FF080741C601B1F31
:101F200021F001011960191F024B0B601439403870
:101F30000A6010BD811D0008D0E9013201699A6074
:101F4000D0E901235A604A68824201D182684A601E
:101F5000002202610868401E08600868704700009F
:101F6000034B036003F15C00086080201060704741
:101F7000B0080020044B036003F15C0008604FF4DC
:101F800080701060704700000C0B0020044A01EBC9
:101F9000810102EBC1010DC81C3181E80D007047C1
:101FA000E00000200E4A00EB800102EBC10109793C
:101FB000072913D2DFE801F00406080A0C0E10000E
:101FC00000F060B800F012B900F0F6B800F058B9AF
:101FD00000F02EB900F07CB900F078B8704700002E
:101FE000E00000200EB5064800908014ADF8040013
:101FF0000520029000216846FFF7C8FF0EBD0000D3
:10200000000C01401FB500EB8001074800EBC10048
:10201000018C009100210191029101210391C0697D
:102020006946FEF711F91FBDE00000201FB500EB67
:1020300080010748002200EBC100018C00910121C2
:10204000CDE901120391C0696946FEF7FDF81FBD95
:10205000E000002000EB80010348012200EBC100FA
:10206000018CC069FEF7E5B9E000002000EB8001BB
:102070000348002200EBC100018CC069FEF7D9B90A
:10208000E000002010B5044600EB84010D480E4A24
:1020900000EBC101486AB2FBF0F051F8082F521C66
:1020A00041F8042982420BD30020486001200870C7
:1020B0002046FFF7BBFF2046BDE81040FFF7D6BF24
:1020C00010BD0000E000002080841E002DE9F041DA
:1020D000804600EB88013748002500EBC1066421EB
:1020E000706A341DB1FBF0F7B068401CB060F06856
:1020F000318C0028F06903D0FEF796F940B12AE050
:10210000FEF792F9012826D16068C4E9015022E067
:102110006168E160A268012091420BD9237C04EB45
:10212000D30203F00703517CC3F107039840014336
:1021300051740AE0227C04EBD20102F007024B7CCE
:10214000C2F10702904083434B746560A560E5606F
:10215000207C401C20746068B8420AD36560A5608A
:10216000E560257425704046FFF760FF4046FFF7A5
:1021700071FF207C28281BD32574607CA17C227DE4
:102180000844E17C11440844617D884207D1607CA9
:102190003070A07C7070E07CB070207DF070257095
:1021A0004046FFF743FF4046BDE8F041FFF752BF0E
:1021B000BDE8F081E00000200B4900EB800201EB5C
:1021C000C2010F234A6AB3FBF2F351F8082F521CE5
:1021D00041F804299A4205D300224A6003220A707A
:1021E000FFF710BF70470000E000002010B5044664
:1021F00000EB84010D4844F6206200EBC101486AFF
:10220000B2FBF0F051F8082F521C41F80429824229
:102210000BD300204860022008702046FFF706FF1D
:102220002046BDE81040FFF715BF10BDE0000020BC
:102230002DE9F041064600EB86011048002700EB2F
:10224000C1056421686A2C1DB1FBF0F1A868401C2F
:10225000A860884207D3676027703046FFF7E6FE24
:102260003046FFF7F7FE298CE869FEF7DDF8012814
:1022700002D1052067602070BDE8F081E0000020F9
:102280002DE9F041064600EB86011048002700EBDF
:10229000C1056421686A2C1DB1FBF0F1A868401CDF
:1022A000A860884207D3676027703046FFF7BEFEFC
:1022B0003046FFF7CFFE298CE869FEF7B5F8002815
:1022C00002D1042067602070BDE8F081E0000020AA
:1022D0002DE9F041064600EB86011048002700EB8F
:1022E000C1056421686A2C1DB1FBF0F1A868401C8F
:1022F000A860884207D3676027703046FFF796FED4
:102300003046FFF7A7FE298CE869FEF78DF8002814
:1023100002D1062067602070BDE8F081E000002057
:10232000044AC1EBC10102EB8101D0E90020C1E9FF
:1023300005207047080100200A460146C2EBC20092
:10234000024A02EB80001422FDF738BF080100208A
:1023500070B588B0022500248DF809506420CDE9BD
:102360000340059042F210700690214602A8FFF744
:10237000E3FF2F4800908DF806404014ADF80400AC
:1023800000216846FFF7CCFF2A4E8DF806400096E4
:10239000ADF8045001216846FFF7C2FF8DF80640F2
:1023A0000120ADF80400009602216846FFF7B8FF4F
:1023B0008DF806400420204DADF80400009503215F
:1023C0006846FFF7ADFF8DF806400820ADF8040021
:1023D000009504216846FFF7A3FF8DF80640102002
:1023E000ADF80400009505216846FFF799FF8DF8C8
:1023F00006402020ADF80400009506216846FFF74E
:102400008FFF8DF806404020ADF8040000950721AD
:102410006846FFF785FF8DF806408020ADF8040080
:10242000009508216846FFF77BFF08B070BD0000EB
:1024300000100140000C014000080140034BC0EBBC
:10244000C002002103F8221000F002B808010020A9
:102450000849C0EBC00201EB820011F82210837E14
:102460008B4201D1012200E00022018B4069FDF77F
:10247000E0BF00000801002000F108014FF0FF322A
:10248000C0E90112C16001610021016070470021B3
:102490000161704730B50B685A1C02D000F1080288
:1024A00002E0026904E02246546825689D42FAD998
:1024B00053684B6099608A60516008610168491CEB
:1024C000016030BD42684A6093688B6093685960D0
:1024D000916008610168491C01607047502080F3D9
:1024E0001188BFF34F8FBFF36F8F0A494868401CB4
:1024F000486001280CD10848006810F0FF0F07D091
:10250000502080F31188BFF34F8FBFF36F8FFEE72A
:1025100070470000C000002004ED00E00849486852
:1025200028B1401E486001D180F3118870475020C7
:1025300080F31188BFF34F8FBFF36F8FFEE700006A
:10254000C000002070B500282AD0164DA0F1080464
:1025500060686969084207D1502080F31188BFF391
:102560004F8FBFF36F8FFEE722683AB1502080F3A0
:102570001188BFF34F8FBFF36F8FFEE78843606012
:1025800000F05AF960686968084468602046FFF7FF
:102590006FFA2869401C2861BDE8704000F00CBE4D
:1025A00070BD0000A00000204FF0E020002101617C
:1025B000816105494FF47A720968B1FBF2F1491E55
:1025C00041610721016170474800002010B5FDF707
:1025D000DFFD114910280ED300F1E02090F8F00340
:1025E0000A78904207D2502080F31188BFF34F8FB2
:1025F000BFF36F8FFEE709480068896800F4E06068
:10260000884207D9502080F31188BFF34F8FBFF362
:102610006F8FFEE710BD0000C00000200CED00E051
:1026200010B5084B002200BF53F832401CB1521CB9
:10263000082AF9D310BD43F8321003EBC2014860F9
:1026400010BD00009402002010B504000AD000F074
:1026500013F894F8460000280CD12046BDE810403D
:10266000FFF770BF502080F31188BFF34F8FBFF387
:102670006F8FFEE710BD0000084A002102EBC10386
:102680005B68834206D1002042F8310002EBC101B1
:1026900048607047491C0829F0D370479402002015
:1026A00070B515460E460446FFF718FF94F944101E
:1026B0000020491C01D184F8440094F94510491CBC
:1026C00001D184F84500FFF729FFA06B28B92A46FD
:1026D000314604F1240000F04FF82046BDE8704078
:1026E000FFF774BB10B50020FFF7A8FE0B48017878
:1026F000012911D1002101700C2209490948FDF777
:1027000081FD002808D105490A232622BDE8104092
:10271000491C0548FEF7B4BB10BD000000000020B6
:10272000CC000020443300084C02002002490A6A11
:102730000260C968416070474C00002001490120D7
:10274000C86170474C00002010B50C4650B10949D3
:1027500009681831FFF79EFE2046BDE810400121B0
:10276000FEF794BF502080F31188BFF34F8FBFF363
:102770006F8FFEE74C00002070B514460D4668B11F
:102780000A4909681831FFF79DFE0CB14FF0FF357B
:1027900021462846BDE87040FEF778BF502080F300
:1027A0001188BFF34F8FBFF36F8FFEE74C000020FF
:1027B00030B587B00024039405AA04A903A80494A3
:1027C000FFF7CEFBDDE903010094CDE90110002302
:1027D00015A11748059A00F0D4FB164D0028E862B1
:1027E0001FD000F04BFD012809D0401C19D150200A
:1027F00080F31188BFF34F8FBFF36F8FFEE7502038
:1028000080F31188BFF34F8FBFF36F8F4FF0FF300E
:10281000A86201206861EC6007B0BDE8304000F0BC
:1028200045B807B030BD000049444C4500000000E9
:10283000251900084C0000200248016B491C016367
:10284000704700004C000020164810B5016B11B114
:102850000121C16110BD0021C1610169124A01E07D
:10286000B9B1491E01EB810352F82330002BF7D098
:1028700001EB810302EB830202F1080453685B68F9
:102880005360A34201D15B685360DA680260016162
:1028900010BD502080F31188BFF34F8FBFF36F8FAF
:1028A000FEE700004C000020D40200201CB52649A1
:1028B00008780190FF20087008788DF800009DF8D6
:1028C00000009DF8002000F0F000904207D050205A
:1028D00080F31188BFF34F8FBFF36F8FFEE79DF832
:1028E00000001A4C00F0500020700720A06005E0A6
:1028F0009DF8002052008DF80020401E9DF8002019
:102900001206F5D4A060032807D0502080F3118868
:10291000BFF34F8FBFF36F8FFEE74FF44070A0609F
:10292000019808700A48016841F47001016001686B
:1029300041F070410160FFF737FE00206060FDF755
:10294000F1FB00201CBD000000E400E0C0000020FE
:1029500020ED00E010B5502080F31188BFF34F8FB9
:10296000BFF36F8F00F04CFB18B104494FF080505B
:102970000860002080F3118810BD000004ED00E025
:1029800010B50C4648B184420FD9502080F311880D
:10299000BFF34F8FBFF36F8FFEE7502080F3118896
:1029A000BFF34F8FBFF36F8FFEE70222002100F0CD
:1029B0003CF8002800D0846310BD38B50C4648B1FF
:1029C00084420FD9502080F31188BFF34F8FBFF39B
:1029D0006F8FFEE7502080F31188BFF34F8FBFF356
:1029E0006F8FFEE70221134600220091114600F08E
:1029F0003DF8002800D0846338BD10B502460021A0
:102A0000012000F012F80446FEF7BCFF204610BD7E
:102A100038B50B46002200901146012000F026F840
:102A20000446FEF7AFFF204638BDF8B517460E4600
:102A3000050013D005FB06F05030FFF7FDF9040048
:102A40000AD0002084F8460004F150023B4631468B
:102A500028460094FEF7A2FF2046F8BD502080F3E0
:102A60001188BFF34F8FBFF36F8FFEE738B5049D1A
:102A700018B153B1CAB181B120E0502080F3118860
:102A8000BFF34F8FBFF36F8FFEE7502080F31188A5
:102A9000BFF34F8FBFF36F8FFEE7502080F3118895
:102AA000BFF34F8FBFF36F8FFEE739B1502080F334
:102AB0001188BFF34F8FBFF36F8FFEE750241C4682
:102AC000012384F846302B460094FEF767FF20462A
:102AD00038BD000070B50D46040025D0FFF7FEFCA0
:102AE000D4E90F20216802FB0011A1600021A1633D
:102AF000216861600A46D4E90F01401E00FB0121F4
:102B0000E16021464FF0FF3001F8440F487004F1B6
:102B100010008DB1FFF7B0FC04F12400FFF7ACFC0E
:102B2000FFF7FCFC012070BD502080F31188BFF33B
:102B30004F8FBFF36F8FFEE721690029F0D000F0BF
:102B400003FB0028ECD004494FF080500860BFF32D
:102B50004F8FBFF36F8FE3E704ED00E02DE9FF47F0
:102B600082B01D468A464FF00008040003D0BAF137
:102B7000000F08D011E0502080F31188BFF34F8F71
:102B8000BFF36F8FFEE7206C38B1502080F31188BF
:102B9000BFF34F8FBFF36F8FFEE7022D0AD1E06BBB
:102BA000012807D0502080F31188BFF34F8FBFF367
:102BB0006F8FFEE700F010FA3F4F4FF000094FF023
:102BC000805648B9049838B1502080F31188BFF37B
:102BD0004F8FBFF36F8FFEE7FFF780FCA06BE16BB9
:102BE000884207D3022D05D00498D0B1B8F1000F68
:102BF0001AD01EE02A4651462046FEF71CFE616AA6
:102C000019B104F1240000F09FFA20B13E60BFF337
:102C10004F8FBFF36F8FFFF781FC012006B0BDE837
:102C2000F087FFF77BFC22E06846FFF77FFD4FF05F
:102C30000108FFF773FCFFF7FFFDFFF74FFC94F966
:102C40004400401C01D184F8449094F94500401C94
:102C500001D184F84590FFF761FC04A9684600F0B3
:102C600029F930B12046FFF7B1F800F0A5FA0020AD
:102C7000D4E7FFF733FCA06BE16B884213D1FFF779
:102C80004DFC04F110000499FFF75EFD2046FFF7AC
:102C90009DF800F091FA00289ED13E60BFF34F8F5F
:102CA000BFF36F8F98E7FFF739FC2046FFF78EF8E8
:102CB00000F082FA90E7000004ED00E02DE9F04713
:102CC0001F4690468946040003D0B9F1000F08D092
:102CD00011E0502080F31188BFF34F8FBFF36F8F47
:102CE000FEE7206C38B1502080F31188BFF34F8F7E
:102CF000BFF36F8FFEE7022F0AD1E06B012807D0E8
:102D0000502080F31188BFF34F8FBFF36F8FFEE722
:102D1000FFF75CFC5020EFF3118680F31188BFF3BE
:102D20004F8FBFF36F8FA06BE16B884206D3022FEA
:102D300004D0002086F31188BDE8F08794F945504F
:102D4000A06B3A4649462046FEF775FD681C04D044
:102D50006D1C84F845500120ECE7606A0028FAD029
:102D600004F1240000F0F0F90028F4D0B8F1000FCD
:102D7000F1D00121C8F80010EDE700002DE9F74778
:102D8000002683B08A46040003D0BAF1000F08D0B1
:102D900011E0502080F31188BFF34F8FBFF36F8F86
:102DA000FEE7206C38B1502080F31188BFF34F8FBD
:102DB000BFF36F8FFEE700F00FF9DFF8F4804FF0FC
:102DC00000094FF0805748B9059838B1502080F37A
:102DD0001188BFF34F8FBFF36F8FFEE7FFF77EFBC6
:102DE000A56BC5B151462046FEF712FD6D1EA563C9
:102DF000206950B104F1100000F0A6F928B1C8F81C
:102E00000070BFF34F8FBFF36F8FFFF787FB012079
:102E100006B0BDE8F087059808B11EB106E0FFF7DF
:102E20007DFB27E06846FFF781FC0126FFF776FB74
:102E3000FFF702FDFFF752FB94F94400401C01D15B
:102E400084F8449094F94500401C01D184F84590E1
:102E5000FFF764FB05A9684600F02CF8002820461F
:102E60000AD0FEF7B3FF00F0A7F92046FEF742FEB6
:102E70000028B3D00020CBE7FEF73CFE90B104F170
:102E800024000599FFF760FC2046FEF79FFF00F045
:102E900093F90028A2D1C8F80070BFF34F8FBFF399
:102EA0006F8F9BE72046FEF791FF00F085F995E7CD
:102EB00004ED00E02DE9F0410C46050011D0C4B14D
:102EC000FFF70CFB174BDA686E682068911B471CF4
:102ED00017D02F681B6A9F4219D0964217D8012439
:102EE00010E0502080F31188BFF34F8FBFF36F8F36
:102EF000FEE7502080F31188BFF34F8FBFF36F8F31
:102F0000FEE70024FFF70AFB2046BDE8F081884277
:102F100005D9401A20602846FFF708FCF1E7002099
:102F20002060DCE74C0000202DE9FF5F8346DDE9EF
:102F30000E87994616468A469000FEF77DFF0500EB
:102F40001CD05C20FEF778FF040014D0002025631D
:102F500084F85900CDE90240CDE900874B4632465E
:102F600051465846FEF72CFD2046FEF7BDFB0120DA
:102F700004B0BDE8F09F2846FFF7E4FA4FF0FF30B9
:102F8000F6E7F0B585B0DDE90B640A9DA6B1DCB1CA
:102F90005C2700972663022684F85960002604AF58
:102FA000CDE90246CDE90057FEF70AFD2046FEF7BF
:102FB0009BFB049805B0F0BD502080F31188BFF34F
:102FC0004F8FBFF36F8FFEE7502080F31188BFF360
:102FD0004F8FBFF36F8FFEE70548416919B1006B52
:102FE00018B1002070470120704702207047000090
:102FF0004C0000200148C068704700004C000020D1
:103000002DE9F0412E4C0027206B28B1A069401C0F
:10301000A0613846BDE8F081E668761CE66013D111
:10302000606B006838B1502080F31188BFF34F8F78
:10303000BFF36F8FFEE7606BA16B6163A063206AD3
:10304000401C2062FEF742FEA06ADFF878808642CC
:1030500009D3606B0068A0B1606BC068C568686820
:10306000864211D2A0622068C06A00EB800158F845
:103070002100012800D90127E0690028C9D00127D3
:10308000C7E74FF0FF30EDE7281DFEF755FFA86AB0
:1030900018B105F11800FEF74FFFE86A2169884270
:1030A00000D9206100EB800108EB8100291DFFF7AA
:1030B00009FAE86A2168C96A8842CAD30127C8E7C1
:1030C0004C000020D402002070B504004FF0000135
:1030D00033D01B4D2868844207D0502080F31188DC
:1030E000BFF34F8FBFF36F8FFEE7206D38B1401EE7
:1030F0002065E36CE26A9A421FD040B11DE0502087
:1031000080F31188BFF34F8FBFF36F8FFEE7201D51
:10311000FEF712FFE06CE062C0F13800A061E06AE7
:103120002969884200D92861064900EB800001EB3B
:103130008000211DFFF7C6F90121084670BD00007F
:103140004C000020D402002070B5C068C46854B19F
:1031500004F118000646FEF7EFFE144D286B50B13F
:103160003146134815E0502080F31188BFF34F8F8C
:10317000BFF36F8FFEE7201DFEF7DEFEE06A2969D0
:10318000884200D928610B4900EB800001EB8000E8
:10319000211DFFF797F9E06A2968C96A884202D9B8
:1031A0000120E86170BD002070BD00004C000020CF
:1031B0005C070020D40200202DE9F0472C4D0024AC
:1031C0002746286B38B1FFF789F9286B401E286322
:1031D000286B40B146E0502080F31188BFF34F8F39
:1031E000BFF36F8FFEE7A968224E0120D1B3A6F589
:1031F000916980463068E0B1F068C46804F1180055
:10320000FEF79AFE201DFEF797FEE06A29698842C4
:1032100000D9286100EB800109EB8100211DFFF737
:1032200051F9E06A2968C96A8842E3D3C5F81C806D
:10323000E0E70CB1FEF74AFDAC694CB14FEA080675
:10324000FFF7DEFE00B1EE61641EF9D10020A86137
:10325000E86938B10849012738070860BFF34F8F84
:10326000BFF36F8FFFF75AF93846BDE8F0870000CB
:103270004C0000205C07002004ED00E010B586B093
:10328000FEF79AFA114C2068B8B100200390049020
:1032900005AA04A903A8FEF76DFEDDE903210220BB
:1032A0008DE8070000230AA10B48059AFFF769FE85
:1032B000606010B106B0012010BD502080F311886D
:1032C000BFF34F8FBFF36F8FFEE700008800002031
:1032D000546D722053766300A91D00082DE9FF414B
:1032E0001E46134602000A9D4FF0000016D0144CF3
:1032F0002768002F0FD0CDE900130292062917DAB4
:10330000FFF76AFE02284FF000030FD00022694643
:103310002068FFF723FC04B0BDE8F081502080F363
:103320001188BFF34F8FBFF36F8FFEE72A46EEE79A
:103330000023324669463846FFF7C0FCEBE7000041
:10334000880000204448543131526561640D0A0000
:10335000FC33000800000000000000000000000036
:103360000000000000020000080000000000000053
:1033700000000000F0330008000000000000000022
:1033800000000000E0330008000000000000000022
:1033900000000000D0330008000000000000000022
:1033A00000000000010202030405060708090A0BD9
:1033B0000C0D0E0F101000000000000000000102B4
:1033C00003040607080900000000010203040000CE
:1033D0006D79436F756E74696E6753656D3031003A
:1033E0006D7942696E61727953656D30310000000C
:1033F0006D794D75746578303100000064656661E3
:10340000756C745461736B00283400080000002050
:10341000CC0000001E140008F4340008CC0000208A
:103420009C2200002E1400080054656D70657261C6
:1034300074757265203A2030302E300909094875BC
:103440006D69646974793A2030302E300D0A0000BD
:10345000000000000000000000000000000000006C
:10346000000000000100000010000000000000004B
:1034700000127A00000000000000000000000000C0
:10348000000000000000000000000000000000003C
:10349000000000000000000000000000000000002C
:1034A000000000000000000000000000000000001C
:1034B000000000000000000000000000000000000C
:1034C00000000000000000000000000000000000FC
:1034D00000000000000000000000000000000000EC
:1034E000000000000000000000000000AAAAAAAA34
:0434F00000000000D8
:04000005080000ED02
:00000001FF
